{
  "contractName": "AssociationOrg",
  "abi": [
    {
      "inputs": [
        {
          "internalType": "string",
          "name": "_name",
          "type": "string"
        },
        {
          "internalType": "string",
          "name": "_memberName",
          "type": "string"
        },
        {
          "internalType": "address",
          "name": "_master",
          "type": "address"
        }
      ],
      "stateMutability": "nonpayable",
      "type": "constructor"
    },
    {
      "anonymous": false,
      "inputs": [
        {
          "indexed": false,
          "internalType": "address",
          "name": "_event",
          "type": "address"
        },
        {
          "indexed": false,
          "internalType": "uint256",
          "name": "_kind",
          "type": "uint256"
        }
      ],
      "name": "AdminEvent",
      "type": "event"
    },
    {
      "inputs": [],
      "name": "maintenanceMode",
      "outputs": [
        {
          "internalType": "bool",
          "name": "",
          "type": "bool"
        }
      ],
      "stateMutability": "view",
      "type": "function"
    },
    {
      "inputs": [
        {
          "internalType": "address",
          "name": "",
          "type": "address"
        }
      ],
      "name": "members",
      "outputs": [
        {
          "internalType": "bool",
          "name": "",
          "type": "bool"
        }
      ],
      "stateMutability": "view",
      "type": "function"
    },
    {
      "inputs": [],
      "name": "membersCount",
      "outputs": [
        {
          "internalType": "uint256",
          "name": "",
          "type": "uint256"
        }
      ],
      "stateMutability": "view",
      "type": "function"
    },
    {
      "inputs": [
        {
          "internalType": "uint256",
          "name": "",
          "type": "uint256"
        }
      ],
      "name": "membersHistoric",
      "outputs": [
        {
          "internalType": "address",
          "name": "addr",
          "type": "address"
        },
        {
          "internalType": "string",
          "name": "name",
          "type": "string"
        }
      ],
      "stateMutability": "view",
      "type": "function"
    },
    {
      "inputs": [],
      "name": "name",
      "outputs": [
        {
          "internalType": "string",
          "name": "",
          "type": "string"
        }
      ],
      "stateMutability": "view",
      "type": "function"
    },
    {
      "inputs": [],
      "name": "owner",
      "outputs": [
        {
          "internalType": "address",
          "name": "",
          "type": "address"
        }
      ],
      "stateMutability": "view",
      "type": "function"
    },
    {
      "inputs": [
        {
          "internalType": "uint256",
          "name": "",
          "type": "uint256"
        }
      ],
      "name": "referendums",
      "outputs": [
        {
          "internalType": "string",
          "name": "",
          "type": "string"
        }
      ],
      "stateMutability": "view",
      "type": "function"
    },
    {
      "inputs": [
        {
          "internalType": "address",
          "name": "",
          "type": "address"
        }
      ],
      "name": "seenAdmins",
      "outputs": [
        {
          "internalType": "bool",
          "name": "",
          "type": "bool"
        }
      ],
      "stateMutability": "view",
      "type": "function"
    },
    {
      "inputs": [],
      "name": "switchMaintenanceMode",
      "outputs": [],
      "stateMutability": "nonpayable",
      "type": "function"
    },
    {
      "inputs": [
        {
          "internalType": "address payable",
          "name": "_adminCtr",
          "type": "address"
        }
      ],
      "name": "handleCooptationAction",
      "outputs": [],
      "stateMutability": "nonpayable",
      "type": "function"
    },
    {
      "inputs": [
        {
          "internalType": "address payable",
          "name": "_adminCtr",
          "type": "address"
        }
      ],
      "name": "handleMemberbanAction",
      "outputs": [],
      "stateMutability": "nonpayable",
      "type": "function"
    },
    {
      "inputs": [
        {
          "internalType": "address payable",
          "name": "_adminCtr",
          "type": "address"
        }
      ],
      "name": "handleOwnerchangeAction",
      "outputs": [],
      "stateMutability": "nonpayable",
      "type": "function"
    },
    {
      "inputs": [
        {
          "internalType": "address payable",
          "name": "_adminCtr",
          "type": "address"
        }
      ],
      "name": "handleSelfdestructAction",
      "outputs": [],
      "stateMutability": "nonpayable",
      "type": "function"
    },
    {
      "inputs": [
        {
          "internalType": "address payable",
          "name": "_adminCtr",
          "type": "address"
        }
      ],
      "name": "handleReferendumAction",
      "outputs": [],
      "stateMutability": "nonpayable",
      "type": "function"
    },
    {
      "inputs": [],
      "name": "amIMember",
      "outputs": [
        {
          "internalType": "bool",
          "name": "",
          "type": "bool"
        }
      ],
      "stateMutability": "view",
      "type": "function"
    },
    {
      "inputs": [],
      "name": "getMemberHistoricCount",
      "outputs": [
        {
          "internalType": "uint256",
          "name": "count",
          "type": "uint256"
        }
      ],
      "stateMutability": "view",
      "type": "function"
    },
    {
      "inputs": [],
      "name": "getReferendumsCount",
      "outputs": [
        {
          "internalType": "uint256",
          "name": "",
          "type": "uint256"
        }
      ],
      "stateMutability": "view",
      "type": "function"
    },
    {
      "inputs": [
        {
          "internalType": "address",
          "name": "_administration",
          "type": "address"
        },
        {
          "internalType": "uint256",
          "name": "_kind",
          "type": "uint256"
        }
      ],
      "name": "emitAdmin",
      "outputs": [],
      "stateMutability": "nonpayable",
      "type": "function"
    }
  ],
  "bytecode": "0x60806040523480156200001157600080fd5b506040516200403238038062004032833981810160405281019062000037919062000480565b6000835114156200007f576040517f08c379a00000000000000000000000000000000000000000000000000000000081526004016200007690620005f3565b60405180910390fd5b600082511415620000c7576040517f08c379a0000000000000000000000000000000000000000000000000000000008152600401620000be9062000615565b60405180910390fd5b60008190508073ffffffffffffffffffffffffffffffffffffffff1663cabe6a573086866040518463ffffffff1660e01b81526004016200010b93929190620005a8565b600060405180830381600087803b1580156200012657600080fd5b505af11580156200013b573d6000803e3d6000fd5b505050506200014f6200030f60201b60201c565b600460006101000a81548173ffffffffffffffffffffffffffffffffffffffff021916908373ffffffffffffffffffffffffffffffffffffffff1602179055506001806000620001a46200030f60201b60201c565b73ffffffffffffffffffffffffffffffffffffffff1673ffffffffffffffffffffffffffffffffffffffff16815260200190815260200160002060006101000a81548160ff02191690831515021790555083600590805190602001906200020d92919062000317565b50600160028190555062000220620003a8565b620002306200030f60201b60201c565b816000019073ffffffffffffffffffffffffffffffffffffffff16908173ffffffffffffffffffffffffffffffffffffffff1681525050838160200181905250600081908060018154018082558091505060019003906000526020600020906002020160009091909190915060008201518160000160006101000a81548173ffffffffffffffffffffffffffffffffffffffff021916908373ffffffffffffffffffffffffffffffffffffffff16021790555060208201518160010190805190602001906200030192919062000317565b505050505050505062000863565b600033905090565b82805462000325906200071c565b90600052602060002090601f01602090048101928262000349576000855562000395565b82601f106200036457805160ff191683800117855562000395565b8280016001018555821562000395579182015b828111156200039457825182559160200191906001019062000377565b5b509050620003a49190620003d8565b5090565b6040518060400160405280600073ffffffffffffffffffffffffffffffffffffffff168152602001606081525090565b5b80821115620003f3576000816000905550600101620003d9565b5090565b60006200040e620004088462000660565b62000637565b9050828152602081018484840111156200042757600080fd5b62000434848285620006e6565b509392505050565b6000815190506200044d8162000849565b92915050565b600082601f8301126200046557600080fd5b815162000477848260208601620003f7565b91505092915050565b6000806000606084860312156200049657600080fd5b600084015167ffffffffffffffff811115620004b157600080fd5b620004bf8682870162000453565b935050602084015167ffffffffffffffff811115620004dd57600080fd5b620004eb8682870162000453565b9250506040620004fe868287016200043c565b9150509250925092565b6200051381620006b2565b82525050565b6000620005268262000696565b620005328185620006a1565b935062000544818560208601620006e6565b6200054f81620007e6565b840191505092915050565b600062000569602083620006a1565b91506200057682620007f7565b602082019050919050565b600062000590601b83620006a1565b91506200059d8262000820565b602082019050919050565b6000606082019050620005bf600083018662000508565b8181036020830152620005d3818562000519565b90508181036040830152620005e9818462000519565b9050949350505050565b600060208201905081810360008301526200060e816200055a565b9050919050565b60006020820190508181036000830152620006308162000581565b9050919050565b60006200064362000656565b905062000651828262000752565b919050565b6000604051905090565b600067ffffffffffffffff8211156200067e576200067d620007b7565b5b6200068982620007e6565b9050602081019050919050565b600081519050919050565b600082825260208201905092915050565b6000620006bf82620006c6565b9050919050565b600073ffffffffffffffffffffffffffffffffffffffff82169050919050565b60005b8381101562000706578082015181840152602081019050620006e9565b8381111562000716576000848401525b50505050565b600060028204905060018216806200073557607f821691505b602082108114156200074c576200074b62000788565b5b50919050565b6200075d82620007e6565b810181811067ffffffffffffffff821117156200077f576200077e620007b7565b5b80604052505050565b7f4e487b7100000000000000000000000000000000000000000000000000000000600052602260045260246000fd5b7f4e487b7100000000000000000000000000000000000000000000000000000000600052604160045260246000fd5b6000601f19601f8301169050919050565b7f4173736f63696174696f6e206e616d652063616e6e6f7420626520656d707479600082015250565b7f4d656d626572206e616d652063616e6e6f7420626520656d7074790000000000600082015250565b6200085481620006b2565b81146200086057600080fd5b50565b6137bf80620008736000396000f3fe608060405234801561001057600080fd5b50600436106101165760003560e01c80635fd0b43f116100a2578063984147721161007157806398414772146102bd578063b2636a50146102d9578063b58ad48614610309578063c34a898b14610325578063fdea6c571461035657610116565b80635fd0b43f1461024957806362535f15146102655780637d90a580146102815780638da5cb5b1461029f57610116565b806333823e41116100e957806333823e41146101a55780633bdcab5b146101d5578063453c6252146101f35780634c87b7c81461020f578063562f50d01461022b57610116565b806306fdde031461011b57806308ae4b0c1461013957806325dce0a614610169578063297f9af014610187575b600080fd5b610123610360565b6040516101309190612d9b565b60405180910390f35b610153600480360381019061014e9190612894565b6103ee565b6040516101609190612d80565b60405180910390f35b61017161040e565b60405161017e9190612d80565b60405180910390f35b61018f610421565b60405161019c9190612ffd565b60405180910390f35b6101bf60048036038101906101ba9190612894565b610427565b6040516101cc9190612d80565b60405180910390f35b6101dd610447565b6040516101ea9190612d80565b60405180910390f35b61020d600480360381019061020891906128e6565b6104a2565b005b610229600480360381019061022491906128e6565b610984565b005b610233610d95565b6040516102409190612ffd565b60405180910390f35b610263600480360381019061025e919061290f565b610da1565b005b61027f600480360381019061027a91906128e6565b610dde565b005b61028961154d565b6040516102969190612ffd565b60405180910390f35b6102a761155a565b6040516102b49190612d0c565b60405180910390f35b6102d760048036038101906102d291906128e6565b611580565b005b6102f360048036038101906102ee91906129de565b611c7b565b6040516103009190612d9b565b60405180910390f35b610323600480360381019061031e91906128e6565b611d27565b005b61033f600480360381019061033a91906129de565b61251f565b60405161034d929190612d27565b60405180910390f35b61035e6125fb565b005b6005805461036d906131de565b80601f0160208091040260200160405190810160405280929190818152602001828054610399906131de565b80156103e65780601f106103bb576101008083540402835291602001916103e6565b820191906000526020600020905b8154815290600101906020018083116103c957829003601f168201915b505050505081565b60016020528060005260406000206000915054906101000a900460ff1681565b600460149054906101000a900460ff1681565b60025481565b60036020528060005260406000206000915054906101000a900460ff1681565b6000600160006104556126be565b73ffffffffffffffffffffffffffffffffffffffff1673ffffffffffffffffffffffffffffffffffffffff16815260200190815260200160002060009054906101000a900460ff16905090565b600460149054906101000a900460ff16156104f2576040517f08c379a00000000000000000000000000000000000000000000000000000000081526004016104e990612dbd565b60405180910390fd5b6000819050600480811115610530577f4e487b7100000000000000000000000000000000000000000000000000000000600052602160045260246000fd5b8173ffffffffffffffffffffffffffffffffffffffff16632fd415b26040518163ffffffff1660e01b815260040160206040518083038186803b15801561057657600080fd5b505afa15801561058a573d6000803e3d6000fd5b505050506040513d601f19601f820116820180604052508101906105ae9190612974565b60048111156105e6577f4e487b7100000000000000000000000000000000000000000000000000000000600052602160045260246000fd5b14610626576040517f08c379a000000000000000000000000000000000000000000000000000000000815260040161061d90612ebd565b60405180910390fd5b3073ffffffffffffffffffffffffffffffffffffffff168173ffffffffffffffffffffffffffffffffffffffff16638dddafba6040518163ffffffff1660e01b815260040160206040518083038186803b15801561068357600080fd5b505afa158015610697573d6000803e3d6000fd5b505050506040513d601f19601f820116820180604052508101906106bb919061294b565b73ffffffffffffffffffffffffffffffffffffffff1614610711576040517f08c379a000000000000000000000000000000000000000000000000000000000815260040161070890612e9d565b60405180910390fd5b6002805461071f919061308a565b8173ffffffffffffffffffffffffffffffffffffffff1663c63840716040518163ffffffff1660e01b815260040160206040518083038186803b15801561076557600080fd5b505afa158015610779573d6000803e3d6000fd5b505050506040513d601f19601f8201168201806040525081019061079d9190612a07565b116107dd576040517f08c379a00000000000000000000000000000000000000000000000000000000081526004016107d490612f5d565b60405180910390fd5b600360008373ffffffffffffffffffffffffffffffffffffffff1673ffffffffffffffffffffffffffffffffffffffff16815260200190815260200160002060009054906101000a900460ff161561086a576040517f08c379a000000000000000000000000000000000000000000000000000000000815260040161086190612e3d565b60405180910390fd5b60068173ffffffffffffffffffffffffffffffffffffffff166318dae1dc6040518163ffffffff1660e01b815260040160006040518083038186803b1580156108b257600080fd5b505afa1580156108c6573d6000803e3d6000fd5b505050506040513d6000823e3d601f19601f820116820180604052508101906108ef919061299d565b9080600181540180825580915050600190039060005260206000200160009091909190915090805190602001906109279291906126c6565b506001600360008473ffffffffffffffffffffffffffffffffffffffff1673ffffffffffffffffffffffffffffffffffffffff16815260200190815260200160002060006101000a81548160ff0219169083151502179055505050565b600460149054906101000a900460ff16156109d4576040517f08c379a00000000000000000000000000000000000000000000000000000000081526004016109cb90612dbd565b60405180910390fd5b600081905060026004811115610a13577f4e487b7100000000000000000000000000000000000000000000000000000000600052602160045260246000fd5b8173ffffffffffffffffffffffffffffffffffffffff16632fd415b26040518163ffffffff1660e01b815260040160206040518083038186803b158015610a5957600080fd5b505afa158015610a6d573d6000803e3d6000fd5b505050506040513d601f19601f82011682018060405250810190610a919190612974565b6004811115610ac9577f4e487b7100000000000000000000000000000000000000000000000000000000600052602160045260246000fd5b14610b09576040517f08c379a0000000000000000000000000000000000000000000000000000000008152600401610b0090612f3d565b60405180910390fd5b3073ffffffffffffffffffffffffffffffffffffffff168173ffffffffffffffffffffffffffffffffffffffff16638dddafba6040518163ffffffff1660e01b815260040160206040518083038186803b158015610b6657600080fd5b505afa158015610b7a573d6000803e3d6000fd5b505050506040513d601f19601f82011682018060405250810190610b9e919061294b565b73ffffffffffffffffffffffffffffffffffffffff1614610bf4576040517f08c379a0000000000000000000000000000000000000000000000000000000008152600401610beb90612e9d565b60405180910390fd5b6002546002610c0391906130bb565b60038273ffffffffffffffffffffffffffffffffffffffff1663c63840716040518163ffffffff1660e01b815260040160206040518083038186803b158015610c4b57600080fd5b505afa158015610c5f573d6000803e3d6000fd5b505050506040513d601f19601f82011682018060405250810190610c839190612a07565b610c8d91906130bb565b11610ccd576040517f08c379a0000000000000000000000000000000000000000000000000000000008152600401610cc490612e7d565b60405180910390fd5b600360008373ffffffffffffffffffffffffffffffffffffffff1673ffffffffffffffffffffffffffffffffffffffff16815260200190815260200160002060009054906101000a900460ff1615610d5a576040517f08c379a0000000000000000000000000000000000000000000000000000000008152600401610d5190612e3d565b60405180910390fd5b600460009054906101000a900473ffffffffffffffffffffffffffffffffffffffff1673ffffffffffffffffffffffffffffffffffffffff16ff5b60008080549050905090565b7fe55143942a6a4a6ade4467add250afbdb355b508b73c29219aa1006ae5c145ba8282604051610dd2929190612d57565b60405180910390a15050565b600460149054906101000a900460ff1615610e2e576040517f08c379a0000000000000000000000000000000000000000000000000000000008152600401610e2590612dbd565b60405180910390fd5b600081905060006004811115610e6d577f4e487b7100000000000000000000000000000000000000000000000000000000600052602160045260246000fd5b8173ffffffffffffffffffffffffffffffffffffffff16632fd415b26040518163ffffffff1660e01b815260040160206040518083038186803b158015610eb357600080fd5b505afa158015610ec7573d6000803e3d6000fd5b505050506040513d601f19601f82011682018060405250810190610eeb9190612974565b6004811115610f23577f4e487b7100000000000000000000000000000000000000000000000000000000600052602160045260246000fd5b14610f63576040517f08c379a0000000000000000000000000000000000000000000000000000000008152600401610f5a90612f1d565b60405180910390fd5b3073ffffffffffffffffffffffffffffffffffffffff168173ffffffffffffffffffffffffffffffffffffffff16638dddafba6040518163ffffffff1660e01b815260040160206040518083038186803b158015610fc057600080fd5b505afa158015610fd4573d6000803e3d6000fd5b505050506040513d601f19601f82011682018060405250810190610ff8919061294b565b73ffffffffffffffffffffffffffffffffffffffff161461104e576040517f08c379a000000000000000000000000000000000000000000000000000000000815260040161104590612e9d565b60405180910390fd5b60025460028273ffffffffffffffffffffffffffffffffffffffff1663c63840716040518163ffffffff1660e01b815260040160206040518083038186803b15801561109957600080fd5b505afa1580156110ad573d6000803e3d6000fd5b505050506040513d601f19601f820116820180604052508101906110d19190612a07565b6110db91906130bb565b1161111b576040517f08c379a000000000000000000000000000000000000000000000000000000000815260040161111290612f5d565b60405180910390fd5b600160025411611160576040517f08c379a000000000000000000000000000000000000000000000000000000000815260040161115790612e1d565b60405180910390fd5b600460009054906101000a900473ffffffffffffffffffffffffffffffffffffffff1673ffffffffffffffffffffffffffffffffffffffff168173ffffffffffffffffffffffffffffffffffffffff16636496270f6040518163ffffffff1660e01b815260040160206040518083038186803b1580156111df57600080fd5b505afa1580156111f3573d6000803e3d6000fd5b505050506040513d601f19601f8201168201806040525081019061121791906128bd565b73ffffffffffffffffffffffffffffffffffffffff16141561126e576040517f08c379a000000000000000000000000000000000000000000000000000000000815260040161126590612fbd565b60405180910390fd5b600160008273ffffffffffffffffffffffffffffffffffffffff16636496270f6040518163ffffffff1660e01b815260040160206040518083038186803b1580156112b857600080fd5b505afa1580156112cc573d6000803e3d6000fd5b505050506040513d601f19601f820116820180604052508101906112f091906128bd565b73ffffffffffffffffffffffffffffffffffffffff1673ffffffffffffffffffffffffffffffffffffffff16815260200190815260200160002060009054906101000a900460ff16611377576040517f08c379a000000000000000000000000000000000000000000000000000000000815260040161136e90612edd565b60405180910390fd5b600360008373ffffffffffffffffffffffffffffffffffffffff1673ffffffffffffffffffffffffffffffffffffffff16815260200190815260200160002060009054906101000a900460ff1615611404576040517f08c379a00000000000000000000000000000000000000000000000000000000081526004016113fb90612e3d565b60405180910390fd5b6000600160008373ffffffffffffffffffffffffffffffffffffffff16636496270f6040518163ffffffff1660e01b815260040160206040518083038186803b15801561145057600080fd5b505afa158015611464573d6000803e3d6000fd5b505050506040513d601f19601f8201168201806040525081019061148891906128bd565b73ffffffffffffffffffffffffffffffffffffffff1673ffffffffffffffffffffffffffffffffffffffff16815260200190815260200160002060006101000a81548160ff021916908315150217905550600260008154809291906114ec906131b4565b91905055506001600360008473ffffffffffffffffffffffffffffffffffffffff1673ffffffffffffffffffffffffffffffffffffffff16815260200190815260200160002060006101000a81548160ff0219169083151502179055505050565b6000600680549050905090565b600460009054906101000a900473ffffffffffffffffffffffffffffffffffffffff1681565b600460149054906101000a900460ff16156115d0576040517f08c379a00000000000000000000000000000000000000000000000000000000081526004016115c790612dbd565b60405180910390fd5b60008190506001600481111561160f577f4e487b7100000000000000000000000000000000000000000000000000000000600052602160045260246000fd5b8173ffffffffffffffffffffffffffffffffffffffff16632fd415b26040518163ffffffff1660e01b815260040160206040518083038186803b15801561165557600080fd5b505afa158015611669573d6000803e3d6000fd5b505050506040513d601f19601f8201168201806040525081019061168d9190612974565b60048111156116c5577f4e487b7100000000000000000000000000000000000000000000000000000000600052602160045260246000fd5b14611705576040517f08c379a00000000000000000000000000000000000000000000000000000000081526004016116fc90612fdd565b60405180910390fd5b3073ffffffffffffffffffffffffffffffffffffffff168173ffffffffffffffffffffffffffffffffffffffff16638dddafba6040518163ffffffff1660e01b815260040160206040518083038186803b15801561176257600080fd5b505afa158015611776573d6000803e3d6000fd5b505050506040513d601f19601f8201168201806040525081019061179a919061294b565b73ffffffffffffffffffffffffffffffffffffffff16146117f0576040517f08c379a00000000000000000000000000000000000000000000000000000000081526004016117e790612e9d565b60405180910390fd5b60025460028273ffffffffffffffffffffffffffffffffffffffff1663c63840716040518163ffffffff1660e01b815260040160206040518083038186803b15801561183b57600080fd5b505afa15801561184f573d6000803e3d6000fd5b505050506040513d601f19601f820116820180604052508101906118739190612a07565b61187d91906130bb565b116118bd576040517f08c379a00000000000000000000000000000000000000000000000000000000081526004016118b490612f5d565b60405180910390fd5b600460009054906101000a900473ffffffffffffffffffffffffffffffffffffffff1673ffffffffffffffffffffffffffffffffffffffff168173ffffffffffffffffffffffffffffffffffffffff16636496270f6040518163ffffffff1660e01b815260040160206040518083038186803b15801561193c57600080fd5b505afa158015611950573d6000803e3d6000fd5b505050506040513d601f19601f8201168201806040525081019061197491906128bd565b73ffffffffffffffffffffffffffffffffffffffff1614156119cb576040517f08c379a00000000000000000000000000000000000000000000000000000000081526004016119c290612ddd565b60405180910390fd5b600160008273ffffffffffffffffffffffffffffffffffffffff16636496270f6040518163ffffffff1660e01b815260040160206040518083038186803b158015611a1557600080fd5b505afa158015611a29573d6000803e3d6000fd5b505050506040513d601f19601f82011682018060405250810190611a4d91906128bd565b73ffffffffffffffffffffffffffffffffffffffff1673ffffffffffffffffffffffffffffffffffffffff16815260200190815260200160002060009054906101000a900460ff16611ad4576040517f08c379a0000000000000000000000000000000000000000000000000000000008152600401611acb90612f9d565b60405180910390fd5b600360008373ffffffffffffffffffffffffffffffffffffffff1673ffffffffffffffffffffffffffffffffffffffff16815260200190815260200160002060009054906101000a900460ff1615611b61576040517f08c379a0000000000000000000000000000000000000000000000000000000008152600401611b5890612e3d565b60405180910390fd5b8073ffffffffffffffffffffffffffffffffffffffff16636496270f6040518163ffffffff1660e01b815260040160206040518083038186803b158015611ba757600080fd5b505afa158015611bbb573d6000803e3d6000fd5b505050506040513d601f19601f82011682018060405250810190611bdf91906128bd565b600460006101000a81548173ffffffffffffffffffffffffffffffffffffffff021916908373ffffffffffffffffffffffffffffffffffffffff1602179055506001600360008473ffffffffffffffffffffffffffffffffffffffff1673ffffffffffffffffffffffffffffffffffffffff16815260200190815260200160002060006101000a81548160ff0219169083151502179055505050565b60068181548110611c8b57600080fd5b906000526020600020016000915090508054611ca6906131de565b80601f0160208091040260200160405190810160405280929190818152602001828054611cd2906131de565b8015611d1f5780601f10611cf457610100808354040283529160200191611d1f565b820191906000526020600020905b815481529060010190602001808311611d0257829003601f168201915b505050505081565b600460149054906101000a900460ff1615611d77576040517f08c379a0000000000000000000000000000000000000000000000000000000008152600401611d6e90612dbd565b60405180910390fd5b600081905060036004811115611db6577f4e487b7100000000000000000000000000000000000000000000000000000000600052602160045260246000fd5b8173ffffffffffffffffffffffffffffffffffffffff16632fd415b26040518163ffffffff1660e01b815260040160206040518083038186803b158015611dfc57600080fd5b505afa158015611e10573d6000803e3d6000fd5b505050506040513d601f19601f82011682018060405250810190611e349190612974565b6004811115611e6c577f4e487b7100000000000000000000000000000000000000000000000000000000600052602160045260246000fd5b14611eac576040517f08c379a0000000000000000000000000000000000000000000000000000000008152600401611ea390612dfd565b60405180910390fd5b3073ffffffffffffffffffffffffffffffffffffffff168173ffffffffffffffffffffffffffffffffffffffff16638dddafba6040518163ffffffff1660e01b815260040160206040518083038186803b158015611f0957600080fd5b505afa158015611f1d573d6000803e3d6000fd5b505050506040513d601f19601f82011682018060405250810190611f41919061294b565b73ffffffffffffffffffffffffffffffffffffffff1614611f97576040517f08c379a0000000000000000000000000000000000000000000000000000000008152600401611f8e90612e9d565b60405180910390fd5b60025460028273ffffffffffffffffffffffffffffffffffffffff1663c63840716040518163ffffffff1660e01b815260040160206040518083038186803b158015611fe257600080fd5b505afa158015611ff6573d6000803e3d6000fd5b505050506040513d601f19601f8201168201806040525081019061201a9190612a07565b61202491906130bb565b1015612065576040517f08c379a000000000000000000000000000000000000000000000000000000000815260040161205c90612e5d565b60405180910390fd5b600160008273ffffffffffffffffffffffffffffffffffffffff16636496270f6040518163ffffffff1660e01b815260040160206040518083038186803b1580156120af57600080fd5b505afa1580156120c3573d6000803e3d6000fd5b505050506040513d601f19601f820116820180604052508101906120e791906128bd565b73ffffffffffffffffffffffffffffffffffffffff1673ffffffffffffffffffffffffffffffffffffffff16815260200190815260200160002060009054906101000a900460ff161561216f576040517f08c379a000000000000000000000000000000000000000000000000000000000815260040161216690612f7d565b60405180910390fd5b600360008373ffffffffffffffffffffffffffffffffffffffff1673ffffffffffffffffffffffffffffffffffffffff16815260200190815260200160002060009054906101000a900460ff16156121fc576040517f08c379a00000000000000000000000000000000000000000000000000000000081526004016121f390612e3d565b60405180910390fd5b60018060008373ffffffffffffffffffffffffffffffffffffffff16636496270f6040518163ffffffff1660e01b815260040160206040518083038186803b15801561224757600080fd5b505afa15801561225b573d6000803e3d6000fd5b505050506040513d601f19601f8201168201806040525081019061227f91906128bd565b73ffffffffffffffffffffffffffffffffffffffff1673ffffffffffffffffffffffffffffffffffffffff16815260200190815260200160002060006101000a81548160ff0219169083151502179055506122d861274c565b8173ffffffffffffffffffffffffffffffffffffffff16636496270f6040518163ffffffff1660e01b815260040160206040518083038186803b15801561231e57600080fd5b505afa158015612332573d6000803e3d6000fd5b505050506040513d601f19601f8201168201806040525081019061235691906128bd565b816000019073ffffffffffffffffffffffffffffffffffffffff16908173ffffffffffffffffffffffffffffffffffffffff16815250508173ffffffffffffffffffffffffffffffffffffffff166307c213836040518163ffffffff1660e01b815260040160006040518083038186803b1580156123d357600080fd5b505afa1580156123e7573d6000803e3d6000fd5b505050506040513d6000823e3d601f19601f82011682018060405250810190612410919061299d565b8160200181905250600081908060018154018082558091505060019003906000526020600020906002020160009091909190915060008201518160000160006101000a81548173ffffffffffffffffffffffffffffffffffffffff021916908373ffffffffffffffffffffffffffffffffffffffff16021790555060208201518160010190805190602001906124a79291906126c6565b505050600260008154809291906124bd90613241565b91905055506001600360008573ffffffffffffffffffffffffffffffffffffffff1673ffffffffffffffffffffffffffffffffffffffff16815260200190815260200160002060006101000a81548160ff021916908315150217905550505050565b6000818154811061252f57600080fd5b90600052602060002090600202016000915090508060000160009054906101000a900473ffffffffffffffffffffffffffffffffffffffff1690806001018054612578906131de565b80601f01602080910402602001604051908101604052809291908181526020018280546125a4906131de565b80156125f15780601f106125c6576101008083540402835291602001916125f1565b820191906000526020600020905b8154815290600101906020018083116125d457829003601f168201915b5050505050905082565b600460009054906101000a900473ffffffffffffffffffffffffffffffffffffffff1673ffffffffffffffffffffffffffffffffffffffff1661263c6126be565b73ffffffffffffffffffffffffffffffffffffffff1614612692576040517f08c379a000000000000000000000000000000000000000000000000000000000815260040161268990612efd565b60405180910390fd5b600460149054906101000a900460ff1615600460146101000a81548160ff021916908315150217905550565b600033905090565b8280546126d2906131de565b90600052602060002090601f0160209004810192826126f4576000855561273b565b82601f1061270d57805160ff191683800117855561273b565b8280016001018555821561273b579182015b8281111561273a57825182559160200191906001019061271f565b5b509050612748919061277c565b5090565b6040518060400160405280600073ffffffffffffffffffffffffffffffffffffffff168152602001606081525090565b5b8082111561279557600081600090555060010161277d565b5090565b60006127ac6127a78461303d565b613018565b9050828152602081018484840111156127c457600080fd5b6127cf848285613181565b509392505050565b6000813590506127e68161371d565b92915050565b6000815190506127fb8161371d565b92915050565b60008135905061281081613734565b92915050565b6000815190506128258161374b565b92915050565b60008151905061283a81613762565b92915050565b600082601f83011261285157600080fd5b8151612861848260208601612799565b91505092915050565b60008135905061287981613772565b92915050565b60008151905061288e81613772565b92915050565b6000602082840312156128a657600080fd5b60006128b4848285016127d7565b91505092915050565b6000602082840312156128cf57600080fd5b60006128dd848285016127ec565b91505092915050565b6000602082840312156128f857600080fd5b600061290684828501612801565b91505092915050565b6000806040838503121561292257600080fd5b6000612930858286016127d7565b92505060206129418582860161286a565b9150509250929050565b60006020828403121561295d57600080fd5b600061296b84828501612816565b91505092915050565b60006020828403121561298657600080fd5b60006129948482850161282b565b91505092915050565b6000602082840312156129af57600080fd5b600082015167ffffffffffffffff8111156129c957600080fd5b6129d584828501612840565b91505092915050565b6000602082840312156129f057600080fd5b60006129fe8482850161286a565b91505092915050565b600060208284031215612a1957600080fd5b6000612a278482850161287f565b91505092915050565b612a3981613115565b82525050565b612a4881613139565b82525050565b6000612a598261306e565b612a638185613079565b9350612a73818560208601613181565b612a7c81613346565b840191505092915050565b6000612a94601a83613079565b9150612a9f82613357565b602082019050919050565b6000612ab7602583613079565b9150612ac282613380565b604082019050919050565b6000612ada601a83613079565b9150612ae5826133cf565b602082019050919050565b6000612afd602383613079565b9150612b08826133f8565b604082019050919050565b6000612b20602583613079565b9150612b2b82613447565b604082019050919050565b6000612b43601e83613079565b9150612b4e82613496565b602082019050919050565b6000612b66601f83613079565b9150612b71826134bf565b602082019050919050565b6000612b89603c83613079565b9150612b94826134e8565b604082019050919050565b6000612bac601a83613079565b9150612bb782613537565b602082019050919050565b6000612bcf601d83613079565b9150612bda82613560565b602082019050919050565b6000612bf2602283613079565b9150612bfd82613589565b604082019050919050565b6000612c15601983613079565b9150612c20826135d8565b602082019050919050565b6000612c38601c83613079565b9150612c4382613601565b602082019050919050565b6000612c5b601e83613079565b9150612c668261362a565b602082019050919050565b6000612c7e601083613079565b9150612c8982613653565b602082019050919050565b6000612ca1601983613079565b9150612cac8261367c565b602082019050919050565b6000612cc4602183613079565b9150612ccf826136a5565b604082019050919050565b6000612ce7601b83613079565b9150612cf2826136f4565b602082019050919050565b612d0681613177565b82525050565b6000602082019050612d216000830184612a30565b92915050565b6000604082019050612d3c6000830185612a30565b8181036020830152612d4e8184612a4e565b90509392505050565b6000604082019050612d6c6000830185612a30565b612d796020830184612cfd565b9392505050565b6000602082019050612d956000830184612a3f565b92915050565b60006020820190508181036000830152612db58184612a4e565b905092915050565b60006020820190508181036000830152612dd681612a87565b9050919050565b60006020820190508181036000830152612df681612aaa565b9050919050565b60006020820190508181036000830152612e1681612acd565b9050919050565b60006020820190508181036000830152612e3681612af0565b9050919050565b60006020820190508181036000830152612e5681612b13565b9050919050565b60006020820190508181036000830152612e7681612b36565b9050919050565b60006020820190508181036000830152612e9681612b59565b9050919050565b60006020820190508181036000830152612eb681612b7c565b9050919050565b60006020820190508181036000830152612ed681612b9f565b9050919050565b60006020820190508181036000830152612ef681612bc2565b9050919050565b60006020820190508181036000830152612f1681612be5565b9050919050565b60006020820190508181036000830152612f3681612c08565b9050919050565b60006020820190508181036000830152612f5681612c2b565b9050919050565b60006020820190508181036000830152612f7681612c4e565b9050919050565b60006020820190508181036000830152612f9681612c71565b9050919050565b60006020820190508181036000830152612fb681612c94565b9050919050565b60006020820190508181036000830152612fd681612cb7565b9050919050565b60006020820190508181036000830152612ff681612cda565b9050919050565b60006020820190506130126000830184612cfd565b92915050565b6000613022613033565b905061302e8282613210565b919050565b6000604051905090565b600067ffffffffffffffff82111561305857613057613317565b5b61306182613346565b9050602081019050919050565b600081519050919050565b600082825260208201905092915050565b600061309582613177565b91506130a083613177565b9250826130b0576130af6132b9565b5b828204905092915050565b60006130c682613177565b91506130d183613177565b9250817fffffffffffffffffffffffffffffffffffffffffffffffffffffffffffffffff048311821515161561310a5761310961328a565b5b828202905092915050565b600061312082613157565b9050919050565b600061313282613157565b9050919050565b60008115159050919050565b600061315082613115565b9050919050565b600073ffffffffffffffffffffffffffffffffffffffff82169050919050565b6000819050919050565b60005b8381101561319f578082015181840152602081019050613184565b838111156131ae576000848401525b50505050565b60006131bf82613177565b915060008214156131d3576131d261328a565b5b600182039050919050565b600060028204905060018216806131f657607f821691505b6020821081141561320a576132096132e8565b5b50919050565b61321982613346565b810181811067ffffffffffffffff8211171561323857613237613317565b5b80604052505050565b600061324c82613177565b91507fffffffffffffffffffffffffffffffffffffffffffffffffffffffffffffffff82141561327f5761327e61328a565b5b600182019050919050565b7f4e487b7100000000000000000000000000000000000000000000000000000000600052601160045260246000fd5b7f4e487b7100000000000000000000000000000000000000000000000000000000600052601260045260246000fd5b7f4e487b7100000000000000000000000000000000000000000000000000000000600052602260045260246000fd5b7f4e487b7100000000000000000000000000000000000000000000000000000000600052604160045260246000fd5b6000601f19601f8301169050919050565b7f4d61696e74656e616e6365206d6f646520616374697661746564000000000000600082015250565b7f4e6577206f776e65722063616e6e6f74206265207468652063757272656e742060008201527f6f776e6572000000000000000000000000000000000000000000000000000000602082015250565b7f436f6f70746174696f6e20616374696f6e207265717569726564000000000000600082015250565b7f43616e27742062616e206966206f6e6c792061206f6e65206d656d626572206c60008201527f6566740000000000000000000000000000000000000000000000000000000000602082015250565b7f416c72656164792061637465642061646d696e697374726174696f6e2070726f60008201527f706f73616c000000000000000000000000000000000000000000000000000000602082015250565b7f4e656564206174206c6561737420353025206f662074686520766f7465730000600082015250565b7f4e656564206174206c6561737420363625206f662074686520766f7465732000600082015250565b7f496e76616c69642041646d696e697374726174696f6e436f6e7472616374207260008201527f65666572656e636520746f204d6f726f6363616e436f6e747261637400000000602082015250565b7f5265666572656e64756d20616374696f6e207265717569726564000000000000600082015250565b7f4d656d62657220746f2062616e206973206e6f742061206d656d626572000000600082015250565b7f4f6e6c79206f776e657220697320616c6c6f77656420746f2063616c6c20746860008201527f6973000000000000000000000000000000000000000000000000000000000000602082015250565b7f4d656d62657262616e20616374696f6e20726571756972656400000000000000600082015250565b7f53656c66646573747275637420616374696f6e20726571756972656400000000600082015250565b7f4e656564206174206c6561737420353125206f662074686520766f7465730000600082015250565b7f416c72656164792061206d656d62657200000000000000000000000000000000600082015250565b7f4e6577206f776e6572206973206e6f742061206d656d62657200000000000000600082015250565b7f4d656d62657220746f2062616e2063616e6e6f7420626520746865206f776e6560008201527f7200000000000000000000000000000000000000000000000000000000000000602082015250565b7f4f776e65726368616e676520616374696f6e2072657175697265640000000000600082015250565b61372681613115565b811461373157600080fd5b50565b61373d81613127565b811461374857600080fd5b50565b61375481613145565b811461375f57600080fd5b50565b6005811061376f57600080fd5b50565b61377b81613177565b811461378657600080fd5b5056fea26469706673582212202c333f43449473c4fcc4dba9ad94fe53324f217af9b15723ee35b6a71ff1155364736f6c63430008030033",
  "immutableReferences": {},
  "source": "// SPDX-License-Identifier: MIT\n\npragma solidity ^0.8.0;\n\nimport \"../utils/Context.sol\";\nimport \"../assoc/Administration.sol\";\nimport \"../assoc/Master.sol\";\n\ncontract AssociationOrg is Context {\n\n    struct MemberStruct {\n        address addr;\n        string name;\n    }\n    MemberStruct[] public membersHistoric;\n    mapping (address => bool) public members;\n    uint public membersCount;\n\n    mapping (address => bool) public seenAdmins;\n    address public owner;\n    bool public maintenanceMode;\n    string public name;\n    string[] public referendums;\n\n    constructor(string memory _name, string memory _memberName, address _master) {\n        require(bytes(_name).length != 0, \"Association name cannot be empty\");\n        require(bytes(_memberName).length != 0, \"Member name cannot be empty\");\n        MasterOrg master = MasterOrg(_master);\n        // is there some other way rather than use \"fake\" emit function ?\n        master.emitCreation(address(this), _name, _memberName);\n        owner = _msgSender();\n        members[_msgSender()] = true;\n        name = _name;\n        membersCount = 1;\n        MemberStruct memory newMember;\n        newMember.addr = _msgSender();\n        newMember.name = _memberName;\n        membersHistoric.push(newMember);\n    }\n    \n    modifier onlyOwner() {\n        require(\n            _msgSender() == owner,\n            \"Only owner is allowed to call this\"\n        );\n        _;\n    }\n    \n    modifier onlymembers() {\n        require(\n            members[_msgSender()],\n            \"Only members are allowed to call this\"\n        );\n        _;\n    }\n\n    modifier maintenanceOff() {\n        require(!maintenanceMode, \"Maintenance mode activated\");\n        _;\n    }\n\n    /// In case of a smart contract problem, activate maintenance mode\n    function switchMaintenanceMode() public onlyOwner {\n        maintenanceMode = !maintenanceMode;\n    }\n\n    function handleCooptationAction(address payable _adminCtr) public maintenanceOff {\n        AssociationAdministrationCooptation assoAdminCtr = AssociationAdministrationCooptation(_adminCtr);\n        require(assoAdminCtr.adminAction() == AssociationAdministration.AdminAction.COOPTATION, \"Cooptation action required\");\n        require(assoAdminCtr.assoCtr() == this, \"Invalid AdministrationContract reference to MoroccanContract\");\n        require(assoAdminCtr.voteCount() * 2 >= membersCount, \"Need at least 50% of the votes\");\n        require(!members[assoAdminCtr.proposedMember()], \"Already a member\");\n        require(!seenAdmins[_adminCtr], \"Already acted administration proposal\");\n        members[assoAdminCtr.proposedMember()] = true;\n\n        MemberStruct memory newMember;\n        newMember.addr = assoAdminCtr.proposedMember();\n        newMember.name = assoAdminCtr.memberName();\n        membersHistoric.push(newMember);\n\n        membersCount ++;\n        seenAdmins[_adminCtr] = true;\n    }\n\n    function handleMemberbanAction(address payable _adminCtr) public maintenanceOff {\n        AssociationAdministrationMemberban assoAdminCtr = AssociationAdministrationMemberban(_adminCtr);\n        require(assoAdminCtr.adminAction() == AssociationAdministration.AdminAction.MEMBERBAN, \"Memberban action required\");\n        require(assoAdminCtr.assoCtr() == this, \"Invalid AdministrationContract reference to MoroccanContract\");\n        require(assoAdminCtr.voteCount() * 2 > membersCount, \"Need at least 51% of the votes\");\n        require(membersCount > 1, \"Can't ban if only a one member left\");\n        require(assoAdminCtr.proposedMember() != owner, \"Member to ban cannot be the owner\");\n        require(members[assoAdminCtr.proposedMember()], \"Member to ban is not a member\");\n        require(!seenAdmins[_adminCtr], \"Already acted administration proposal\");\n        members[assoAdminCtr.proposedMember()] = false;\n        membersCount --;\n        seenAdmins[_adminCtr] = true;\n    }\n\n    function handleOwnerchangeAction(address payable _adminCtr) public maintenanceOff {\n        AssociationAdministrationOwnerchange assoAdminCtr = AssociationAdministrationOwnerchange(_adminCtr);\n        require(assoAdminCtr.adminAction() == AssociationAdministration.AdminAction.OWNERCHANGE, \"Ownerchange action required\");\n        require(assoAdminCtr.assoCtr() == this, \"Invalid AdministrationContract reference to MoroccanContract\");\n        require(assoAdminCtr.voteCount() * 2 > membersCount, \"Need at least 51% of the votes\");\n        require(assoAdminCtr.proposedMember() != owner, \"New owner cannot be the current owner\");\n        require(members[assoAdminCtr.proposedMember()], \"New owner is not a member\");\n        require(!seenAdmins[_adminCtr], \"Already acted administration proposal\");\n        owner = assoAdminCtr.proposedMember();\n        seenAdmins[_adminCtr] = true;\n    }\n\n    function handleSelfdestructAction(address payable _adminCtr) public maintenanceOff {\n        AssociationAdministrationSelfdestruct assoAdminCtr = AssociationAdministrationSelfdestruct(_adminCtr);\n        require(assoAdminCtr.adminAction() == AssociationAdministration.AdminAction.SELFDESTRUCT, \"Selfdestruct action required\");\n        require(assoAdminCtr.assoCtr() == this, \"Invalid AdministrationContract reference to MoroccanContract\");\n        require(assoAdminCtr.voteCount() * 3 > 2 * membersCount, \"Need at least 66% of the votes \");\n        require(!seenAdmins[_adminCtr], \"Already acted administration proposal\");\n        selfdestruct(payable(owner));\n        seenAdmins[_adminCtr] = true;\n    }\n\n    function handleReferendumAction(address payable _adminCtr) public maintenanceOff {\n        AssociationAdministrationReferendum assoAdminCtr = AssociationAdministrationReferendum(_adminCtr);\n        require(assoAdminCtr.adminAction() == AssociationAdministration.AdminAction.REFERENDUM, \"Referendum action required\");\n        require(assoAdminCtr.assoCtr() == this, \"Invalid AdministrationContract reference to MoroccanContract\");\n        require(assoAdminCtr.voteCount() > membersCount/2, \"Need at least 51% of the votes\");\n        require(!seenAdmins[_adminCtr], \"Already acted administration proposal\");\n        referendums.push(assoAdminCtr.referendumQuestion());\n        seenAdmins[_adminCtr] = true;\n    }\n    \n    /// Check if I am a member (same as calling members public variable)\n    function amIMember() public view returns (bool) {\n        return members[_msgSender()];\n    }\n\n    function getMemberHistoricCount() public view returns(uint count) {\n        return membersHistoric.length;\n    }\n\n    function getReferendumsCount() public view returns(uint) {\n        return referendums.length;\n    }\n\n    // Should not be public, but can be filtered on client side\n    function emitAdmin(address _administration, uint _kind) public {\n        emit AdminEvent(_administration, _kind);\n    }\n\n    event AdminEvent(address _event, uint _kind);\n    \n}",
  "sourcePath": "/home/issam/git/solidity-contracts/sol/truffle/contracts/assoc/Association.sol",
  "compiler": {
    "name": "solc",
    "version": "0.8.3+commit.8d00100c.Emscripten.clang"
  },
  "schemaVersion": "3.2.4",
  "updatedAt": "2021-06-22T21:48:04.777Z",
  "devdoc": {
    "kind": "dev",
    "methods": {},
    "version": 1
  },
  "userdoc": {
    "kind": "user",
    "methods": {
      "amIMember()": {
        "notice": "Check if I am a member (same as calling members public variable)"
      },
      "switchMaintenanceMode()": {
        "notice": "In case of a smart contract problem, activate maintenance mode"
      }
    },
    "version": 1
  }
}