{
  "contractName": "AssociationAdministrationSelfdestruct",
  "abi": [
    {
      "inputs": [
        {
          "internalType": "address",
          "name": "_assoCtr",
          "type": "address"
        }
      ],
      "stateMutability": "nonpayable",
      "type": "constructor"
    },
    {
      "inputs": [],
      "name": "adminAction",
      "outputs": [
        {
          "internalType": "enum AssociationAdministration.AdminAction",
          "name": "",
          "type": "uint8"
        }
      ],
      "stateMutability": "view",
      "type": "function"
    },
    {
      "inputs": [],
      "name": "assoCtr",
      "outputs": [
        {
          "internalType": "contract AssociationOrg",
          "name": "",
          "type": "address"
        }
      ],
      "stateMutability": "view",
      "type": "function"
    },
    {
      "inputs": [
        {
          "internalType": "address",
          "name": "",
          "type": "address"
        }
      ],
      "name": "didVotes",
      "outputs": [
        {
          "internalType": "bool",
          "name": "",
          "type": "bool"
        }
      ],
      "stateMutability": "view",
      "type": "function"
    },
    {
      "inputs": [],
      "name": "proposedMember",
      "outputs": [
        {
          "internalType": "address",
          "name": "",
          "type": "address"
        }
      ],
      "stateMutability": "view",
      "type": "function"
    },
    {
      "inputs": [],
      "name": "unvote",
      "outputs": [],
      "stateMutability": "nonpayable",
      "type": "function"
    },
    {
      "inputs": [],
      "name": "vote",
      "outputs": [],
      "stateMutability": "nonpayable",
      "type": "function"
    },
    {
      "inputs": [],
      "name": "voteCount",
      "outputs": [
        {
          "internalType": "uint256",
          "name": "",
          "type": "uint256"
        }
      ],
      "stateMutability": "view",
      "type": "function"
    },
    {
      "inputs": [],
      "name": "getAdminActionType",
      "outputs": [
        {
          "internalType": "enum AssociationAdministration.AdminAction",
          "name": "",
          "type": "uint8"
        }
      ],
      "stateMutability": "view",
      "type": "function"
    }
  ],
  "bytecode": "0x60806040526002600460006101000a81548160ff0219169083600481111562000051577f4e487b7100000000000000000000000000000000000000000000000000000000600052602160045260246000fd5b02179055503480156200006357600080fd5b5060405162000bfa38038062000bfa8339818101604052810190620000899190620001c0565b806000806101000a81548173ffffffffffffffffffffffffffffffffffffffff021916908373ffffffffffffffffffffffffffffffffffffffff16021790555060008054906101000a900473ffffffffffffffffffffffffffffffffffffffff1673ffffffffffffffffffffffffffffffffffffffff16635fd0b43f30600460009054906101000a900460ff1660048111156200014f577f4e487b7100000000000000000000000000000000000000000000000000000000600052602160045260246000fd5b6040518363ffffffff1660e01b81526004016200016e9291906200020e565b600060405180830381600087803b1580156200018957600080fd5b505af11580156200019e573d6000803e3d6000fd5b505050505062000293565b600081519050620001ba8162000279565b92915050565b600060208284031215620001d357600080fd5b6000620001e384828501620001a9565b91505092915050565b620001f7816200023b565b82525050565b62000208816200026f565b82525050565b6000604082019050620002256000830185620001ec565b620002346020830184620001fd565b9392505050565b600062000248826200024f565b9050919050565b600073ffffffffffffffffffffffffffffffffffffffff82169050919050565b6000819050919050565b62000284816200023b565b81146200029057600080fd5b50565b61095780620002a36000396000f3fe608060405234801561001057600080fd5b50600436106100885760003560e01c80636496270f1161005b5780636496270f146100dd5780638dddafba146100fb5780639bfad3fe14610119578063c63840711461014957610088565b80632fd415b21461008d5780633174b689146100ab578063485eaa01146100b5578063632a9a52146100d3575b600080fd5b610095610167565b6040516100a291906106c7565b60405180910390f35b6100b361017a565b005b6100bd61033c565b6040516100ca91906106c7565b60405180910390f35b6100db610353565b005b6100e5610514565b6040516100f29190610676565b60405180910390f35b61010361053a565b60405161011091906106ac565b60405180910390f35b610133600480360381019061012e91906105b6565b61055e565b6040516101409190610691565b60405180910390f35b61015161057e565b60405161015e9190610702565b60405180910390f35b600460009054906101000a900460ff1681565b60008054906101000a900473ffffffffffffffffffffffffffffffffffffffff1673ffffffffffffffffffffffffffffffffffffffff166308ae4b0c6101be610584565b6040518263ffffffff1660e01b81526004016101da9190610676565b60206040518083038186803b1580156101f257600080fd5b505afa158015610206573d6000803e3d6000fd5b505050506040513d601f19601f8201168201806040525081019061022a91906105df565b610269576040517f08c379a0000000000000000000000000000000000000000000000000000000008152600401610260906106e2565b60405180910390fd5b60026000610275610584565b73ffffffffffffffffffffffffffffffffffffffff1673ffffffffffffffffffffffffffffffffffffffff16815260200190815260200160002060009054906101000a900460ff161561033a576000600260006102d0610584565b73ffffffffffffffffffffffffffffffffffffffff1673ffffffffffffffffffffffffffffffffffffffff16815260200190815260200160002060006101000a81548160ff02191690831515021790555060036000815480929190610334906107bf565b91905055505b565b6000600460009054906101000a900460ff16905090565b60008054906101000a900473ffffffffffffffffffffffffffffffffffffffff1673ffffffffffffffffffffffffffffffffffffffff166308ae4b0c610397610584565b6040518263ffffffff1660e01b81526004016103b39190610676565b60206040518083038186803b1580156103cb57600080fd5b505afa1580156103df573d6000803e3d6000fd5b505050506040513d601f19601f8201168201806040525081019061040391906105df565b610442576040517f08c379a0000000000000000000000000000000000000000000000000000000008152600401610439906106e2565b60405180910390fd5b6002600061044e610584565b73ffffffffffffffffffffffffffffffffffffffff1673ffffffffffffffffffffffffffffffffffffffff16815260200190815260200160002060009054906101000a900460ff16610512576001600260006104a8610584565b73ffffffffffffffffffffffffffffffffffffffff1673ffffffffffffffffffffffffffffffffffffffff16815260200190815260200160002060006101000a81548160ff0219169083151502179055506003600081548092919061050c906107e9565b91905055505b565b600160009054906101000a900473ffffffffffffffffffffffffffffffffffffffff1681565b60008054906101000a900473ffffffffffffffffffffffffffffffffffffffff1681565b60026020528060005260406000206000915054906101000a900460ff1681565b60035481565b600033905090565b60008135905061059b816108f3565b92915050565b6000815190506105b08161090a565b92915050565b6000602082840312156105c857600080fd5b60006105d68482850161058c565b91505092915050565b6000602082840312156105f157600080fd5b60006105ff848285016105a1565b91505092915050565b6106118161072e565b82525050565b61062081610740565b82525050565b61062f81610789565b82525050565b61063e816107ad565b82525050565b600061065160258361071d565b915061065c82610890565b604082019050919050565b6106708161077f565b82525050565b600060208201905061068b6000830184610608565b92915050565b60006020820190506106a66000830184610617565b92915050565b60006020820190506106c16000830184610626565b92915050565b60006020820190506106dc6000830184610635565b92915050565b600060208201905081810360008301526106fb81610644565b9050919050565b60006020820190506107176000830184610667565b92915050565b600082825260208201905092915050565b60006107398261075f565b9050919050565b60008115159050919050565b600081905061075a826108df565b919050565b600073ffffffffffffffffffffffffffffffffffffffff82169050919050565b6000819050919050565b60006107948261079b565b9050919050565b60006107a68261075f565b9050919050565b60006107b88261074c565b9050919050565b60006107ca8261077f565b915060008214156107de576107dd610832565b5b600182039050919050565b60006107f48261077f565b91507fffffffffffffffffffffffffffffffffffffffffffffffffffffffffffffffff82141561082757610826610832565b5b600182019050919050565b7f4e487b7100000000000000000000000000000000000000000000000000000000600052601160045260246000fd5b7f4e487b7100000000000000000000000000000000000000000000000000000000600052602160045260246000fd5b7f4f6e6c79206d656d626572732061726520616c6c6f77656420746f2063616c6c60008201527f2074686973000000000000000000000000000000000000000000000000000000602082015250565b600581106108f0576108ef610861565b5b50565b6108fc8161072e565b811461090757600080fd5b50565b61091381610740565b811461091e57600080fd5b5056fea2646970667358221220b9bbbad027010fdddb9eb3501b62078c0545068a1ab94cd6a3e10cd5536bc76c64736f6c63430008030033",
  "immutableReferences": {},
  "source": "// SPDX-License-Identifier: MIT\n\npragma solidity ^0.8.0;\n\nimport \"../utils/Context.sol\";\nimport \"../assoc/Association.sol\";\n\nabstract contract AssociationAdministration is Context {\n    \n    enum AdminAction {MEMBERBAN, OWNERCHANGE, SELFDESTRUCT, COOPTATION, REFERENDUM}\n    \n    AssociationOrg public assoCtr;\n\n    address public proposedMember;\n    mapping (address => bool) public didVotes;\n    uint public voteCount;\n    \n    modifier onlyMembers() {\n        require(\n            assoCtr.members(_msgSender()),\n            \"Only members are allowed to call this\"\n        );\n        _;\n    }\n\n    /// Vote for the administration action\n    function vote() public onlyMembers {\n        if (!didVotes[_msgSender()]) {\n            didVotes[_msgSender()] = true;\n            voteCount ++;\n        }\n    }\n\n    /// Unvote for the administration action\n    function unvote() public onlyMembers {\n        if (didVotes[_msgSender()]) {\n            didVotes[_msgSender()] = false;\n            voteCount --;\n        }\n    }\n\n    function getAdminActionType() public virtual view returns (AdminAction);\n}\n\ncontract AssociationAdministrationMemberban is AssociationAdministration {\n    AdminAction public adminAction = AdminAction.MEMBERBAN;\n    constructor(address _assoCtr, address payable _proposedMember) {\n        proposedMember = _proposedMember;\n        assoCtr = AssociationOrg(_assoCtr);\n        assoCtr.emitAdmin(address(this), uint(adminAction));\n        require(assoCtr.members(_proposedMember), \"Only members can be banned\");\n        require(_proposedMember != assoCtr.owner(), \"Owner cannot be banned, change owner first\");\n    }\n    function getAdminActionType() public override view returns (AdminAction) {\n        return adminAction;\n    }\n}\n\ncontract AssociationAdministrationOwnerchange is AssociationAdministration {\n    AdminAction public adminAction = AdminAction.OWNERCHANGE;\n    constructor(address _assoCtr) {\n        proposedMember = _msgSender();\n        assoCtr = AssociationOrg(_assoCtr);\n        assoCtr.emitAdmin(address(this), uint(adminAction));\n        require(_msgSender() != assoCtr.owner(), \"New owner cannot be old owner\");\n    }\n    function getAdminActionType() public override view returns (AdminAction) {\n        return adminAction;\n    }\n}\n\ncontract AssociationAdministrationSelfdestruct is AssociationAdministration {\n    AdminAction public adminAction = AdminAction.SELFDESTRUCT;\n    constructor(address _assoCtr) {\n        assoCtr = AssociationOrg(_assoCtr);\n        assoCtr.emitAdmin(address(this), uint(adminAction));\n    }\n    function getAdminActionType() public override view returns (AdminAction) {\n        return adminAction;\n    }\n}\n\ncontract AssociationAdministrationCooptation is AssociationAdministration {\n    AdminAction public adminAction = AdminAction.COOPTATION;\n    string public memberName;\n    constructor(address _assoCtr, string memory _memberName) {\n        require(bytes(_memberName).length > 0, \"Member name cannot be empty\");\n        proposedMember = _msgSender();\n        memberName = _memberName;\n        assoCtr = AssociationOrg(_assoCtr);\n        assoCtr.emitAdmin(address(this), uint(adminAction));\n    }\n    function getAdminActionType() public override view returns (AdminAction) {\n        return adminAction;\n    }\n}\n\ncontract AssociationAdministrationReferendum is AssociationAdministration {\n    AdminAction public adminAction = AdminAction.REFERENDUM;\n    string public referendumQuestion;\n    constructor(address _assoCtr, string memory _question) {\n        require(bytes(_question).length > 0, \"Question name cannot be empty\");\n        proposedMember = _msgSender();\n        assoCtr = AssociationOrg(_assoCtr);\n        assoCtr.emitAdmin(address(this), uint(adminAction));\n        referendumQuestion = _question;\n    }\n    function getAdminActionType() public override view returns (AdminAction) {\n        return adminAction;\n    }\n}",
  "sourcePath": "/home/issam/git/solidity-contracts/sol/truffle/contracts/assoc/Administration.sol",
  "compiler": {
    "name": "solc",
    "version": "0.8.3+commit.8d00100c.Emscripten.clang"
  },
  "schemaVersion": "3.2.4",
  "updatedAt": "2021-06-22T21:48:04.752Z",
  "devdoc": {
    "kind": "dev",
    "methods": {},
    "version": 1
  },
  "userdoc": {
    "kind": "user",
    "methods": {
      "unvote()": {
        "notice": "Unvote for the administration action"
      },
      "vote()": {
        "notice": "Vote for the administration action"
      }
    },
    "version": 1
  }
}