{
  "contractName": "AssociationAdministrationOwnerchange",
  "abi": [
    {
      "inputs": [
        {
          "internalType": "address",
          "name": "_assoCtr",
          "type": "address"
        }
      ],
      "stateMutability": "nonpayable",
      "type": "constructor"
    },
    {
      "inputs": [],
      "name": "adminAction",
      "outputs": [
        {
          "internalType": "enum AssociationAdministration.AdminAction",
          "name": "",
          "type": "uint8"
        }
      ],
      "stateMutability": "view",
      "type": "function"
    },
    {
      "inputs": [],
      "name": "assoCtr",
      "outputs": [
        {
          "internalType": "contract AssociationOrg",
          "name": "",
          "type": "address"
        }
      ],
      "stateMutability": "view",
      "type": "function"
    },
    {
      "inputs": [
        {
          "internalType": "address",
          "name": "",
          "type": "address"
        }
      ],
      "name": "didVotes",
      "outputs": [
        {
          "internalType": "bool",
          "name": "",
          "type": "bool"
        }
      ],
      "stateMutability": "view",
      "type": "function"
    },
    {
      "inputs": [],
      "name": "proposedMember",
      "outputs": [
        {
          "internalType": "address payable",
          "name": "",
          "type": "address"
        }
      ],
      "stateMutability": "view",
      "type": "function"
    },
    {
      "inputs": [],
      "name": "unvote",
      "outputs": [],
      "stateMutability": "nonpayable",
      "type": "function"
    },
    {
      "inputs": [],
      "name": "vote",
      "outputs": [],
      "stateMutability": "nonpayable",
      "type": "function"
    },
    {
      "inputs": [],
      "name": "voteCount",
      "outputs": [
        {
          "internalType": "uint256",
          "name": "",
          "type": "uint256"
        }
      ],
      "stateMutability": "view",
      "type": "function"
    },
    {
      "inputs": [],
      "name": "getAdminActionType",
      "outputs": [
        {
          "internalType": "enum AssociationAdministration.AdminAction",
          "name": "",
          "type": "uint8"
        }
      ],
      "stateMutability": "view",
      "type": "function"
    }
  ],
  "bytecode": "0x60806040526001600460006101000a81548160ff0219169083600481111561002357fe5b021790555034801561003457600080fd5b506040516108af3803806108af8339818101604052602081101561005757600080fd5b810190808051906020019092919050505033600160006101000a81548173ffffffffffffffffffffffffffffffffffffffff021916908373ffffffffffffffffffffffffffffffffffffffff160217905550806000806101000a81548173ffffffffffffffffffffffffffffffffffffffff021916908373ffffffffffffffffffffffffffffffffffffffff16021790555060008054906101000a900473ffffffffffffffffffffffffffffffffffffffff1673ffffffffffffffffffffffffffffffffffffffff16638da5cb5b6040518163ffffffff1660e01b815260040160206040518083038186803b15801561014f57600080fd5b505afa158015610163573d6000803e3d6000fd5b505050506040513d602081101561017957600080fd5b810190808051906020019092919050505073ffffffffffffffffffffffffffffffffffffffff163373ffffffffffffffffffffffffffffffffffffffff16141561022b576040517f08c379a000000000000000000000000000000000000000000000000000000000815260040180806020018281038252601d8152602001807f4e6577206f776e65722063616e6e6f74206265206f6c64206f776e657200000081525060200191505060405180910390fd5b506106748061023b6000396000f3fe608060405234801561001057600080fd5b50600436106100885760003560e01c80636496270f1161005b5780636496270f146100f35780638dddafba146101275780639bfad3fe1461015b578063c6384071146101b557610088565b80632fd415b21461008d5780633174b689146100b6578063485eaa01146100c0578063632a9a52146100e9575b600080fd5b6100956101d3565b604051808260048111156100a557fe5b815260200191505060405180910390f35b6100be6101e6565b005b6100c86103bd565b604051808260048111156100d857fe5b815260200191505060405180910390f35b6100f16103d4565b005b6100fb6105a9565b604051808273ffffffffffffffffffffffffffffffffffffffff16815260200191505060405180910390f35b61012f6105cf565b604051808273ffffffffffffffffffffffffffffffffffffffff16815260200191505060405180910390f35b61019d6004803603602081101561017157600080fd5b81019080803573ffffffffffffffffffffffffffffffffffffffff1690602001909291905050506105f3565b60405180821515815260200191505060405180910390f35b6101bd610613565b6040518082815260200191505060405180910390f35b600460009054906101000a900460ff1681565b60008054906101000a900473ffffffffffffffffffffffffffffffffffffffff1673ffffffffffffffffffffffffffffffffffffffff166308ae4b0c336040518263ffffffff1660e01b8152600401808273ffffffffffffffffffffffffffffffffffffffff16815260200191505060206040518083038186803b15801561026d57600080fd5b505afa158015610281573d6000803e3d6000fd5b505050506040513d602081101561029757600080fd5b81019080805190602001909291905050506102fd576040517f08c379a000000000000000000000000000000000000000000000000000000000815260040180806020018281038252602581526020018061061a6025913960400191505060405180910390fd5b600260003373ffffffffffffffffffffffffffffffffffffffff1673ffffffffffffffffffffffffffffffffffffffff16815260200190815260200160002060009054906101000a900460ff16156103bb576000600260003373ffffffffffffffffffffffffffffffffffffffff1673ffffffffffffffffffffffffffffffffffffffff16815260200190815260200160002060006101000a81548160ff021916908315150217905550600360008154809291906001900391905055505b565b6000600460009054906101000a900460ff16905090565b60008054906101000a900473ffffffffffffffffffffffffffffffffffffffff1673ffffffffffffffffffffffffffffffffffffffff166308ae4b0c336040518263ffffffff1660e01b8152600401808273ffffffffffffffffffffffffffffffffffffffff16815260200191505060206040518083038186803b15801561045b57600080fd5b505afa15801561046f573d6000803e3d6000fd5b505050506040513d602081101561048557600080fd5b81019080805190602001909291905050506104eb576040517f08c379a000000000000000000000000000000000000000000000000000000000815260040180806020018281038252602581526020018061061a6025913960400191505060405180910390fd5b600260003373ffffffffffffffffffffffffffffffffffffffff1673ffffffffffffffffffffffffffffffffffffffff16815260200190815260200160002060009054906101000a900460ff166105a7576001600260003373ffffffffffffffffffffffffffffffffffffffff1673ffffffffffffffffffffffffffffffffffffffff16815260200190815260200160002060006101000a81548160ff0219169083151502179055506003600081548092919060010191905055505b565b600160009054906101000a900473ffffffffffffffffffffffffffffffffffffffff1681565b60008054906101000a900473ffffffffffffffffffffffffffffffffffffffff1681565b60026020528060005260406000206000915054906101000a900460ff1681565b6003548156fe4f6e6c79206d656d626572732061726520616c6c6f77656420746f2063616c6c2074686973a26469706673582212209a2da811e4ff43de540c427c99b19c566b895c7f2457302f4847005ce987367b64736f6c63430007000033",
  "immutableReferences": {},
  "source": "// SPDX-License-Identifier: MIT\npragma solidity 0.7.0;\n\nimport \"../contracts/core.sol\";\n\nabstract contract AssociationAdministration {\n    \n    enum AdminAction {MEMBERBAN, OWNERCHANGE, SELFDESTRUCT, COOPTATION, REFERENDUM}\n    \n    AssociationOrg public assoCtr;\n\n    address payable public proposedMember;\n    mapping (address => bool) public didVotes;\n    uint public voteCount;\n    \n    modifier onlyMembers() {\n        require(\n            assoCtr.members(msg.sender),\n            \"Only members are allowed to call this\"\n        );\n        _;\n    }\n\n    /// Vote for the administration action\n    function vote() public onlyMembers {\n        if (!didVotes[msg.sender]) {\n            didVotes[msg.sender] = true;\n            voteCount ++;\n        }\n    }\n\n    /// Unvote for the administration action\n    function unvote() public onlyMembers {\n        if (didVotes[msg.sender]) {\n            didVotes[msg.sender] = false;\n            voteCount --;\n        }\n    }\n\n    function getAdminActionType() public virtual view returns (AdminAction);\n}\n\ncontract AssociationAdministrationMemberban is AssociationAdministration {\n    AdminAction public adminAction = AdminAction.MEMBERBAN;\n    constructor(address _assoCtr, address payable _proposedMember) {\n        proposedMember = _proposedMember;\n        assoCtr = AssociationOrg(_assoCtr);\n        require(assoCtr.members(_proposedMember), \"Only members can be banned\");\n        require(_proposedMember != assoCtr.owner(), \"Owner cannot be banned, change owner first\");\n    }\n    function getAdminActionType() public override view returns (AdminAction) {\n        return adminAction;\n    }\n}\n\ncontract AssociationAdministrationOwnerchange is AssociationAdministration {\n    AdminAction public adminAction = AdminAction.OWNERCHANGE;\n    constructor(address _assoCtr) {\n        proposedMember = msg.sender;\n        assoCtr = AssociationOrg(_assoCtr);\n        require(msg.sender != assoCtr.owner(), \"New owner cannot be old owner\");\n    }\n    function getAdminActionType() public override view returns (AdminAction) {\n        return adminAction;\n    }\n}\n\ncontract AssociationAdministrationSelfdestruct is AssociationAdministration {\n    AdminAction public adminAction = AdminAction.SELFDESTRUCT;\n    constructor(address _assoCtr) {\n        assoCtr = AssociationOrg(_assoCtr);\n    }\n    function getAdminActionType() public override view returns (AdminAction) {\n        return adminAction;\n    }\n}\n\ncontract AssociationAdministrationCooptation is AssociationAdministration {\n    AdminAction public adminAction = AdminAction.COOPTATION;\n    string public memberName;\n    constructor(address _assoCtr, string memory _memberName) {\n        require(bytes(_memberName).length > 0, \"Member name cannot be empty\");\n        proposedMember = msg.sender;\n        memberName = _memberName;\n        assoCtr = AssociationOrg(_assoCtr);\n    }\n    function getAdminActionType() public override view returns (AdminAction) {\n        return adminAction;\n    }\n}\n\ncontract AssociationAdministrationReferendum is AssociationAdministration {\n    AdminAction public adminAction = AdminAction.REFERENDUM;\n    string public referendumQuestion;\n    constructor(address _assoCtr, string memory _question) {\n        require(bytes(_question).length > 0, \"Question name cannot be empty\");\n        proposedMember = msg.sender;\n        assoCtr = AssociationOrg(_assoCtr);\n        referendumQuestion = _question;\n    }\n    function getAdminActionType() public override view returns (AdminAction) {\n        return adminAction;\n    }\n}",
  "sourcePath": "/home/issam/git/ethereum-association/sol/truffle/contracts/administration.sol",
  "compiler": {
    "name": "solc",
    "version": "0.7.0+commit.9e61f92b.Emscripten.clang"
  },
  "schemaVersion": "3.2.4",
  "updatedAt": "2020-12-19T22:37:50.542Z",
  "devdoc": {
    "kind": "dev",
    "methods": {},
    "version": 1
  },
  "userdoc": {
    "kind": "user",
    "methods": {
      "unvote()": {
        "notice": "Unvote for the administration action"
      },
      "vote()": {
        "notice": "Vote for the administration action"
      }
    },
    "version": 1
  }
}