{
  "contractName": "AssociationOrg",
  "abi": [
    {
      "inputs": [
        {
          "internalType": "string",
          "name": "_name",
          "type": "string"
        },
        {
          "internalType": "string",
          "name": "_memberName",
          "type": "string"
        }
      ],
      "stateMutability": "nonpayable",
      "type": "constructor"
    },
    {
      "inputs": [],
      "name": "maintenanceMode",
      "outputs": [
        {
          "internalType": "bool",
          "name": "",
          "type": "bool"
        }
      ],
      "stateMutability": "view",
      "type": "function"
    },
    {
      "inputs": [
        {
          "internalType": "address",
          "name": "",
          "type": "address"
        }
      ],
      "name": "members",
      "outputs": [
        {
          "internalType": "bool",
          "name": "",
          "type": "bool"
        }
      ],
      "stateMutability": "view",
      "type": "function"
    },
    {
      "inputs": [],
      "name": "membersCount",
      "outputs": [
        {
          "internalType": "uint256",
          "name": "",
          "type": "uint256"
        }
      ],
      "stateMutability": "view",
      "type": "function"
    },
    {
      "inputs": [
        {
          "internalType": "uint256",
          "name": "",
          "type": "uint256"
        }
      ],
      "name": "membersHistoric",
      "outputs": [
        {
          "internalType": "address",
          "name": "addr",
          "type": "address"
        },
        {
          "internalType": "string",
          "name": "name",
          "type": "string"
        }
      ],
      "stateMutability": "view",
      "type": "function"
    },
    {
      "inputs": [],
      "name": "name",
      "outputs": [
        {
          "internalType": "string",
          "name": "",
          "type": "string"
        }
      ],
      "stateMutability": "view",
      "type": "function"
    },
    {
      "inputs": [],
      "name": "owner",
      "outputs": [
        {
          "internalType": "address payable",
          "name": "",
          "type": "address"
        }
      ],
      "stateMutability": "view",
      "type": "function"
    },
    {
      "inputs": [
        {
          "internalType": "uint256",
          "name": "",
          "type": "uint256"
        }
      ],
      "name": "referendums",
      "outputs": [
        {
          "internalType": "string",
          "name": "",
          "type": "string"
        }
      ],
      "stateMutability": "view",
      "type": "function"
    },
    {
      "inputs": [
        {
          "internalType": "address",
          "name": "",
          "type": "address"
        }
      ],
      "name": "seenAdmins",
      "outputs": [
        {
          "internalType": "bool",
          "name": "",
          "type": "bool"
        }
      ],
      "stateMutability": "view",
      "type": "function"
    },
    {
      "inputs": [],
      "name": "switchMaintenanceMode",
      "outputs": [],
      "stateMutability": "nonpayable",
      "type": "function"
    },
    {
      "inputs": [
        {
          "internalType": "address payable",
          "name": "_adminCtr",
          "type": "address"
        }
      ],
      "name": "handleCooptationAction",
      "outputs": [],
      "stateMutability": "nonpayable",
      "type": "function"
    },
    {
      "inputs": [
        {
          "internalType": "address payable",
          "name": "_adminCtr",
          "type": "address"
        }
      ],
      "name": "handleMemberbanAction",
      "outputs": [],
      "stateMutability": "nonpayable",
      "type": "function"
    },
    {
      "inputs": [
        {
          "internalType": "address payable",
          "name": "_adminCtr",
          "type": "address"
        }
      ],
      "name": "handleOwnerchangeAction",
      "outputs": [],
      "stateMutability": "nonpayable",
      "type": "function"
    },
    {
      "inputs": [
        {
          "internalType": "address payable",
          "name": "_adminCtr",
          "type": "address"
        }
      ],
      "name": "handleSelfdestructAction",
      "outputs": [],
      "stateMutability": "nonpayable",
      "type": "function"
    },
    {
      "inputs": [
        {
          "internalType": "address payable",
          "name": "_adminCtr",
          "type": "address"
        }
      ],
      "name": "handleReferendumAction",
      "outputs": [],
      "stateMutability": "nonpayable",
      "type": "function"
    },
    {
      "inputs": [],
      "name": "amIMember",
      "outputs": [
        {
          "internalType": "bool",
          "name": "",
          "type": "bool"
        }
      ],
      "stateMutability": "view",
      "type": "function"
    },
    {
      "inputs": [],
      "name": "getMemberHistoricCount",
      "outputs": [
        {
          "internalType": "uint256",
          "name": "count",
          "type": "uint256"
        }
      ],
      "stateMutability": "view",
      "type": "function"
    },
    {
      "inputs": [],
      "name": "getReferendumsCount",
      "outputs": [
        {
          "internalType": "uint256",
          "name": "",
          "type": "uint256"
        }
      ],
      "stateMutability": "view",
      "type": "function"
    }
  ],
  "bytecode": "0x60806040523480156200001157600080fd5b50604051620034c6380380620034c6833981810160405260408110156200003757600080fd5b81019080805160405193929190846401000000008211156200005857600080fd5b838201915060208201858111156200006f57600080fd5b82518660018202830111640100000000821117156200008d57600080fd5b8083526020830192505050908051906020019080838360005b83811015620000c3578082015181840152602081019050620000a6565b50505050905090810190601f168015620000f15780820380516001836020036101000a031916815260200191505b50604052602001805160405193929190846401000000008211156200011557600080fd5b838201915060208201858111156200012c57600080fd5b82518660018202830111640100000000821117156200014a57600080fd5b8083526020830192505050908051906020019080838360005b838110156200018057808201518184015260208101905062000163565b50505050905090810190601f168015620001ae5780820380516001836020036101000a031916815260200191505b506040525050506000825114156200022e576040517f08c379a00000000000000000000000000000000000000000000000000000000081526004018080602001828103825260208152602001807f4173736f63696174696f6e206e616d652063616e6e6f7420626520656d70747981525060200191505060405180910390fd5b600081511415620002a7576040517f08c379a000000000000000000000000000000000000000000000000000000000815260040180806020018281038252601b8152602001807f4d656d626572206e616d652063616e6e6f7420626520656d707479000000000081525060200191505060405180910390fd5b33600460006101000a81548173ffffffffffffffffffffffffffffffffffffffff021916908373ffffffffffffffffffffffffffffffffffffffff16021790555060018060003373ffffffffffffffffffffffffffffffffffffffff1673ffffffffffffffffffffffffffffffffffffffff16815260200190815260200160002060006101000a81548160ff02191690831515021790555081600590805190602001906200035792919062000448565b5060016002819055506200036a620004cf565b33816000019073ffffffffffffffffffffffffffffffffffffffff16908173ffffffffffffffffffffffffffffffffffffffff1681525050818160200181905250600081908060018154018082558091505060019003906000526020600020906002020160009091909190915060008201518160000160006101000a81548173ffffffffffffffffffffffffffffffffffffffff021916908373ffffffffffffffffffffffffffffffffffffffff16021790555060208201518160010190805190602001906200043c92919062000448565b5050505050506200051e565b828054600181600116156101000203166002900490600052602060002090601f016020900481019282601f106200048b57805160ff1916838001178555620004bc565b82800160010185558215620004bc579182015b82811115620004bb5782518255916020019190600101906200049e565b5b509050620004cb9190620004ff565b5090565b6040518060400160405280600073ffffffffffffffffffffffffffffffffffffffff168152602001606081525090565b5b808211156200051a57600081600090555060010162000500565b5090565b612f98806200052e6000396000f3fe608060405234801561001057600080fd5b506004361061010b5760003560e01c8063562f50d0116100a2578063984147721161007157806398414772146103e1578063b2636a5014610425578063b58ad486146104cc578063c34a898b14610510578063fdea6c57146105d45761010b565b8063562f50d01461032d57806362535f151461034b5780637d90a5801461038f5780638da5cb5b146103ad5761010b565b806333823e41116100de57806333823e411461022b5780633bdcab5b14610285578063453c6252146102a55780634c87b7c8146102e95761010b565b806306fdde031461011057806308ae4b0c1461019357806325dce0a6146101ed578063297f9af01461020d575b600080fd5b6101186105de565b6040518080602001828103825283818151815260200191508051906020019080838360005b8381101561015857808201518184015260208101905061013d565b50505050905090810190601f1680156101855780820380516001836020036101000a031916815260200191505b509250505060405180910390f35b6101d5600480360360208110156101a957600080fd5b81019080803573ffffffffffffffffffffffffffffffffffffffff16906020019092919050505061067c565b60405180821515815260200191505060405180910390f35b6101f561069c565b60405180821515815260200191505060405180910390f35b6102156106af565b6040518082815260200191505060405180910390f35b61026d6004803603602081101561024157600080fd5b81019080803573ffffffffffffffffffffffffffffffffffffffff1690602001909291905050506106b5565b60405180821515815260200191505060405180910390f35b61028d6106d5565b60405180821515815260200191505060405180910390f35b6102e7600480360360208110156102bb57600080fd5b81019080803573ffffffffffffffffffffffffffffffffffffffff169060200190929190505050610729565b005b61032b600480360360208110156102ff57600080fd5b81019080803573ffffffffffffffffffffffffffffffffffffffff169060200190929190505050610d39565b005b6103356111ac565b6040518082815260200191505060405180910390f35b61038d6004803603602081101561036157600080fd5b81019080803573ffffffffffffffffffffffffffffffffffffffff1690602001909291905050506111b8565b005b6103976119f5565b6040518082815260200191505060405180910390f35b6103b5611a02565b604051808273ffffffffffffffffffffffffffffffffffffffff16815260200191505060405180910390f35b610423600480360360208110156103f757600080fd5b81019080803573ffffffffffffffffffffffffffffffffffffffff169060200190929190505050611a28565b005b6104516004803603602081101561043b57600080fd5b81019080803590602001909291905050506121e0565b6040518080602001828103825283818151815260200191508051906020019080838360005b83811015610491578082015181840152602081019050610476565b50505050905090810190601f1680156104be5780820380516001836020036101000a031916815260200191505b509250505060405180910390f35b61050e600480360360208110156104e257600080fd5b81019080803573ffffffffffffffffffffffffffffffffffffffff169060200190929190505050612299565b005b61053c6004803603602081101561052657600080fd5b8101908080359060200190929190505050612bee565b604051808373ffffffffffffffffffffffffffffffffffffffff16815260200180602001828103825283818151815260200191508051906020019080838360005b8381101561059857808201518184015260208101905061057d565b50505050905090810190601f1680156105c55780820380516001836020036101000a031916815260200191505b50935050505060405180910390f35b6105dc612cd7565b005b60058054600181600116156101000203166002900480601f0160208091040260200160405190810160405280929190818152602001828054600181600116156101000203166002900480156106745780601f1061064957610100808354040283529160200191610674565b820191906000526020600020905b81548152906001019060200180831161065757829003601f168201915b505050505081565b60016020528060005260406000206000915054906101000a900460ff1681565b600460149054906101000a900460ff1681565b60025481565b60036020528060005260406000206000915054906101000a900460ff1681565b6000600160003373ffffffffffffffffffffffffffffffffffffffff1673ffffffffffffffffffffffffffffffffffffffff16815260200190815260200160002060009054906101000a900460ff16905090565b600460149054906101000a900460ff16156107ac576040517f08c379a000000000000000000000000000000000000000000000000000000000815260040180806020018281038252601a8152602001807f4d61696e74656e616e6365206d6f64652061637469766174656400000000000081525060200191505060405180910390fd5b60008190506004808111156107bd57fe5b8173ffffffffffffffffffffffffffffffffffffffff16632fd415b26040518163ffffffff1660e01b815260040160206040518083038186803b15801561080357600080fd5b505afa158015610817573d6000803e3d6000fd5b505050506040513d602081101561082d57600080fd5b8101908080519060200190929190505050600481111561084957fe5b146108bc576040517f08c379a000000000000000000000000000000000000000000000000000000000815260040180806020018281038252601a8152602001807f5265666572656e64756d20616374696f6e20726571756972656400000000000081525060200191505060405180910390fd5b3073ffffffffffffffffffffffffffffffffffffffff168173ffffffffffffffffffffffffffffffffffffffff16638dddafba6040518163ffffffff1660e01b815260040160206040518083038186803b15801561091957600080fd5b505afa15801561092d573d6000803e3d6000fd5b505050506040513d602081101561094357600080fd5b810190808051906020019092919050505073ffffffffffffffffffffffffffffffffffffffff16146109c0576040517f08c379a000000000000000000000000000000000000000000000000000000000815260040180806020018281038252603c815260200180612ee4603c913960400191505060405180910390fd5b60028054816109cb57fe5b048173ffffffffffffffffffffffffffffffffffffffff1663c63840716040518163ffffffff1660e01b815260040160206040518083038186803b158015610a1257600080fd5b505afa158015610a26573d6000803e3d6000fd5b505050506040513d6020811015610a3c57600080fd5b810190808051906020019092919050505011610ac0576040517f08c379a000000000000000000000000000000000000000000000000000000000815260040180806020018281038252601e8152602001807f4e656564206174206c6561737420353125206f662074686520766f746573000081525060200191505060405180910390fd5b600360008373ffffffffffffffffffffffffffffffffffffffff1673ffffffffffffffffffffffffffffffffffffffff16815260200190815260200160002060009054906101000a900460ff1615610b63576040517f08c379a0000000000000000000000000000000000000000000000000000000008152600401808060200182810382526025815260200180612ebf6025913960400191505060405180910390fd5b60068173ffffffffffffffffffffffffffffffffffffffff166318dae1dc6040518163ffffffff1660e01b815260040160006040518083038186803b158015610bab57600080fd5b505afa158015610bbf573d6000803e3d6000fd5b505050506040513d6000823e3d601f19601f820116820180604052506020811015610be957600080fd5b8101908080516040519392919084640100000000821115610c0957600080fd5b83820191506020820185811115610c1f57600080fd5b8251866001820283011164010000000082111715610c3c57600080fd5b8083526020830192505050908051906020019080838360005b83811015610c70578082015181840152602081019050610c55565b50505050905090810190601f168015610c9d5780820380516001836020036101000a031916815260200191505b50604052505050908060018154018082558091505060019003906000526020600020016000909190919091509080519060200190610cdc929190612da9565b506001600360008473ffffffffffffffffffffffffffffffffffffffff1673ffffffffffffffffffffffffffffffffffffffff16815260200190815260200160002060006101000a81548160ff0219169083151502179055505050565b600460149054906101000a900460ff1615610dbc576040517f08c379a000000000000000000000000000000000000000000000000000000000815260040180806020018281038252601a8152602001807f4d61696e74656e616e6365206d6f64652061637469766174656400000000000081525060200191505060405180910390fd5b600081905060026004811115610dce57fe5b8173ffffffffffffffffffffffffffffffffffffffff16632fd415b26040518163ffffffff1660e01b815260040160206040518083038186803b158015610e1457600080fd5b505afa158015610e28573d6000803e3d6000fd5b505050506040513d6020811015610e3e57600080fd5b81019080805190602001909291905050506004811115610e5a57fe5b14610ecd576040517f08c379a000000000000000000000000000000000000000000000000000000000815260040180806020018281038252601c8152602001807f53656c66646573747275637420616374696f6e2072657175697265640000000081525060200191505060405180910390fd5b3073ffffffffffffffffffffffffffffffffffffffff168173ffffffffffffffffffffffffffffffffffffffff16638dddafba6040518163ffffffff1660e01b815260040160206040518083038186803b158015610f2a57600080fd5b505afa158015610f3e573d6000803e3d6000fd5b505050506040513d6020811015610f5457600080fd5b810190808051906020019092919050505073ffffffffffffffffffffffffffffffffffffffff1614610fd1576040517f08c379a000000000000000000000000000000000000000000000000000000000815260040180806020018281038252603c815260200180612ee4603c913960400191505060405180910390fd5b60025460020260038273ffffffffffffffffffffffffffffffffffffffff1663c63840716040518163ffffffff1660e01b815260040160206040518083038186803b15801561101f57600080fd5b505afa158015611033573d6000803e3d6000fd5b505050506040513d602081101561104957600080fd5b810190808051906020019092919050505002116110ce576040517f08c379a000000000000000000000000000000000000000000000000000000000815260040180806020018281038252601f8152602001807f4e656564206174206c6561737420363625206f662074686520766f746573200081525060200191505060405180910390fd5b600360008373ffffffffffffffffffffffffffffffffffffffff1673ffffffffffffffffffffffffffffffffffffffff16815260200190815260200160002060009054906101000a900460ff1615611171576040517f08c379a0000000000000000000000000000000000000000000000000000000008152600401808060200182810382526025815260200180612ebf6025913960400191505060405180910390fd5b600460009054906101000a900473ffffffffffffffffffffffffffffffffffffffff1673ffffffffffffffffffffffffffffffffffffffff16ff5b60008080549050905090565b600460149054906101000a900460ff161561123b576040517f08c379a000000000000000000000000000000000000000000000000000000000815260040180806020018281038252601a8152602001807f4d61696e74656e616e6365206d6f64652061637469766174656400000000000081525060200191505060405180910390fd5b60008190506000600481111561124d57fe5b8173ffffffffffffffffffffffffffffffffffffffff16632fd415b26040518163ffffffff1660e01b815260040160206040518083038186803b15801561129357600080fd5b505afa1580156112a7573d6000803e3d6000fd5b505050506040513d60208110156112bd57600080fd5b810190808051906020019092919050505060048111156112d957fe5b1461134c576040517f08c379a00000000000000000000000000000000000000000000000000000000081526004018080602001828103825260198152602001807f4d656d62657262616e20616374696f6e2072657175697265640000000000000081525060200191505060405180910390fd5b3073ffffffffffffffffffffffffffffffffffffffff168173ffffffffffffffffffffffffffffffffffffffff16638dddafba6040518163ffffffff1660e01b815260040160206040518083038186803b1580156113a957600080fd5b505afa1580156113bd573d6000803e3d6000fd5b505050506040513d60208110156113d357600080fd5b810190808051906020019092919050505073ffffffffffffffffffffffffffffffffffffffff1614611450576040517f08c379a000000000000000000000000000000000000000000000000000000000815260040180806020018281038252603c815260200180612ee4603c913960400191505060405180910390fd5b60025460028273ffffffffffffffffffffffffffffffffffffffff1663c63840716040518163ffffffff1660e01b815260040160206040518083038186803b15801561149b57600080fd5b505afa1580156114af573d6000803e3d6000fd5b505050506040513d60208110156114c557600080fd5b8101908080519060200190929190505050021161154a576040517f08c379a000000000000000000000000000000000000000000000000000000000815260040180806020018281038252601e8152602001807f4e656564206174206c6561737420353125206f662074686520766f746573000081525060200191505060405180910390fd5b6001600254116115a5576040517f08c379a0000000000000000000000000000000000000000000000000000000008152600401808060200182810382526023815260200180612e9c6023913960400191505060405180910390fd5b600460009054906101000a900473ffffffffffffffffffffffffffffffffffffffff1673ffffffffffffffffffffffffffffffffffffffff168173ffffffffffffffffffffffffffffffffffffffff16636496270f6040518163ffffffff1660e01b815260040160206040518083038186803b15801561162457600080fd5b505afa158015611638573d6000803e3d6000fd5b505050506040513d602081101561164e57600080fd5b810190808051906020019092919050505073ffffffffffffffffffffffffffffffffffffffff1614156116cc576040517f08c379a0000000000000000000000000000000000000000000000000000000008152600401808060200182810382526021815260200180612f426021913960400191505060405180910390fd5b600160008273ffffffffffffffffffffffffffffffffffffffff16636496270f6040518163ffffffff1660e01b815260040160206040518083038186803b15801561171657600080fd5b505afa15801561172a573d6000803e3d6000fd5b505050506040513d602081101561174057600080fd5b810190808051906020019092919050505073ffffffffffffffffffffffffffffffffffffffff1673ffffffffffffffffffffffffffffffffffffffff16815260200190815260200160002060009054906101000a900460ff1661180b576040517f08c379a000000000000000000000000000000000000000000000000000000000815260040180806020018281038252601d8152602001807f4d656d62657220746f2062616e206973206e6f742061206d656d62657200000081525060200191505060405180910390fd5b600360008373ffffffffffffffffffffffffffffffffffffffff1673ffffffffffffffffffffffffffffffffffffffff16815260200190815260200160002060009054906101000a900460ff16156118ae576040517f08c379a0000000000000000000000000000000000000000000000000000000008152600401808060200182810382526025815260200180612ebf6025913960400191505060405180910390fd5b6000600160008373ffffffffffffffffffffffffffffffffffffffff16636496270f6040518163ffffffff1660e01b815260040160206040518083038186803b1580156118fa57600080fd5b505afa15801561190e573d6000803e3d6000fd5b505050506040513d602081101561192457600080fd5b810190808051906020019092919050505073ffffffffffffffffffffffffffffffffffffffff1673ffffffffffffffffffffffffffffffffffffffff16815260200190815260200160002060006101000a81548160ff021916908315150217905550600260008154809291906001900391905055506001600360008473ffffffffffffffffffffffffffffffffffffffff1673ffffffffffffffffffffffffffffffffffffffff16815260200190815260200160002060006101000a81548160ff0219169083151502179055505050565b6000600680549050905090565b600460009054906101000a900473ffffffffffffffffffffffffffffffffffffffff1681565b600460149054906101000a900460ff1615611aab576040517f08c379a000000000000000000000000000000000000000000000000000000000815260040180806020018281038252601a8152602001807f4d61696e74656e616e6365206d6f64652061637469766174656400000000000081525060200191505060405180910390fd5b600081905060016004811115611abd57fe5b8173ffffffffffffffffffffffffffffffffffffffff16632fd415b26040518163ffffffff1660e01b815260040160206040518083038186803b158015611b0357600080fd5b505afa158015611b17573d6000803e3d6000fd5b505050506040513d6020811015611b2d57600080fd5b81019080805190602001909291905050506004811115611b4957fe5b14611bbc576040517f08c379a000000000000000000000000000000000000000000000000000000000815260040180806020018281038252601b8152602001807f4f776e65726368616e676520616374696f6e207265717569726564000000000081525060200191505060405180910390fd5b3073ffffffffffffffffffffffffffffffffffffffff168173ffffffffffffffffffffffffffffffffffffffff16638dddafba6040518163ffffffff1660e01b815260040160206040518083038186803b158015611c1957600080fd5b505afa158015611c2d573d6000803e3d6000fd5b505050506040513d6020811015611c4357600080fd5b810190808051906020019092919050505073ffffffffffffffffffffffffffffffffffffffff1614611cc0576040517f08c379a000000000000000000000000000000000000000000000000000000000815260040180806020018281038252603c815260200180612ee4603c913960400191505060405180910390fd5b60025460028273ffffffffffffffffffffffffffffffffffffffff1663c63840716040518163ffffffff1660e01b815260040160206040518083038186803b158015611d0b57600080fd5b505afa158015611d1f573d6000803e3d6000fd5b505050506040513d6020811015611d3557600080fd5b81019080805190602001909291905050500211611dba576040517f08c379a000000000000000000000000000000000000000000000000000000000815260040180806020018281038252601e8152602001807f4e656564206174206c6561737420353125206f662074686520766f746573000081525060200191505060405180910390fd5b600460009054906101000a900473ffffffffffffffffffffffffffffffffffffffff1673ffffffffffffffffffffffffffffffffffffffff168173ffffffffffffffffffffffffffffffffffffffff16636496270f6040518163ffffffff1660e01b815260040160206040518083038186803b158015611e3957600080fd5b505afa158015611e4d573d6000803e3d6000fd5b505050506040513d6020811015611e6357600080fd5b810190808051906020019092919050505073ffffffffffffffffffffffffffffffffffffffff161415611ee1576040517f08c379a0000000000000000000000000000000000000000000000000000000008152600401808060200182810382526025815260200180612e776025913960400191505060405180910390fd5b600160008273ffffffffffffffffffffffffffffffffffffffff16636496270f6040518163ffffffff1660e01b815260040160206040518083038186803b158015611f2b57600080fd5b505afa158015611f3f573d6000803e3d6000fd5b505050506040513d6020811015611f5557600080fd5b810190808051906020019092919050505073ffffffffffffffffffffffffffffffffffffffff1673ffffffffffffffffffffffffffffffffffffffff16815260200190815260200160002060009054906101000a900460ff16612020576040517f08c379a00000000000000000000000000000000000000000000000000000000081526004018080602001828103825260198152602001807f4e6577206f776e6572206973206e6f742061206d656d6265720000000000000081525060200191505060405180910390fd5b600360008373ffffffffffffffffffffffffffffffffffffffff1673ffffffffffffffffffffffffffffffffffffffff16815260200190815260200160002060009054906101000a900460ff16156120c3576040517f08c379a0000000000000000000000000000000000000000000000000000000008152600401808060200182810382526025815260200180612ebf6025913960400191505060405180910390fd5b8073ffffffffffffffffffffffffffffffffffffffff16636496270f6040518163ffffffff1660e01b815260040160206040518083038186803b15801561210957600080fd5b505afa15801561211d573d6000803e3d6000fd5b505050506040513d602081101561213357600080fd5b8101908080519060200190929190505050600460006101000a81548173ffffffffffffffffffffffffffffffffffffffff021916908373ffffffffffffffffffffffffffffffffffffffff1602179055506001600360008473ffffffffffffffffffffffffffffffffffffffff1673ffffffffffffffffffffffffffffffffffffffff16815260200190815260200160002060006101000a81548160ff0219169083151502179055505050565b600681815481106121ed57fe5b906000526020600020016000915090508054600181600116156101000203166002900480601f0160208091040260200160405190810160405280929190818152602001828054600181600116156101000203166002900480156122915780601f1061226657610100808354040283529160200191612291565b820191906000526020600020905b81548152906001019060200180831161227457829003601f168201915b505050505081565b600460149054906101000a900460ff161561231c576040517f08c379a000000000000000000000000000000000000000000000000000000000815260040180806020018281038252601a8152602001807f4d61696e74656e616e6365206d6f64652061637469766174656400000000000081525060200191505060405180910390fd5b60008190506003600481111561232e57fe5b8173ffffffffffffffffffffffffffffffffffffffff16632fd415b26040518163ffffffff1660e01b815260040160206040518083038186803b15801561237457600080fd5b505afa158015612388573d6000803e3d6000fd5b505050506040513d602081101561239e57600080fd5b810190808051906020019092919050505060048111156123ba57fe5b1461242d576040517f08c379a000000000000000000000000000000000000000000000000000000000815260040180806020018281038252601a8152602001807f436f6f70746174696f6e20616374696f6e20726571756972656400000000000081525060200191505060405180910390fd5b3073ffffffffffffffffffffffffffffffffffffffff168173ffffffffffffffffffffffffffffffffffffffff16638dddafba6040518163ffffffff1660e01b815260040160206040518083038186803b15801561248a57600080fd5b505afa15801561249e573d6000803e3d6000fd5b505050506040513d60208110156124b457600080fd5b810190808051906020019092919050505073ffffffffffffffffffffffffffffffffffffffff1614612531576040517f08c379a000000000000000000000000000000000000000000000000000000000815260040180806020018281038252603c815260200180612ee4603c913960400191505060405180910390fd5b60025460028273ffffffffffffffffffffffffffffffffffffffff1663c63840716040518163ffffffff1660e01b815260040160206040518083038186803b15801561257c57600080fd5b505afa158015612590573d6000803e3d6000fd5b505050506040513d60208110156125a657600080fd5b810190808051906020019092919050505002101561262c576040517f08c379a000000000000000000000000000000000000000000000000000000000815260040180806020018281038252601e8152602001807f4e656564206174206c6561737420353025206f662074686520766f746573000081525060200191505060405180910390fd5b600160008273ffffffffffffffffffffffffffffffffffffffff16636496270f6040518163ffffffff1660e01b815260040160206040518083038186803b15801561267657600080fd5b505afa15801561268a573d6000803e3d6000fd5b505050506040513d60208110156126a057600080fd5b810190808051906020019092919050505073ffffffffffffffffffffffffffffffffffffffff1673ffffffffffffffffffffffffffffffffffffffff16815260200190815260200160002060009054906101000a900460ff161561276c576040517f08c379a00000000000000000000000000000000000000000000000000000000081526004018080602001828103825260108152602001807f416c72656164792061206d656d6265720000000000000000000000000000000081525060200191505060405180910390fd5b600360008373ffffffffffffffffffffffffffffffffffffffff1673ffffffffffffffffffffffffffffffffffffffff16815260200190815260200160002060009054906101000a900460ff161561280f576040517f08c379a0000000000000000000000000000000000000000000000000000000008152600401808060200182810382526025815260200180612ebf6025913960400191505060405180910390fd5b60018060008373ffffffffffffffffffffffffffffffffffffffff16636496270f6040518163ffffffff1660e01b815260040160206040518083038186803b15801561285a57600080fd5b505afa15801561286e573d6000803e3d6000fd5b505050506040513d602081101561288457600080fd5b810190808051906020019092919050505073ffffffffffffffffffffffffffffffffffffffff1673ffffffffffffffffffffffffffffffffffffffff16815260200190815260200160002060006101000a81548160ff0219169083151502179055506128ee612e29565b8173ffffffffffffffffffffffffffffffffffffffff16636496270f6040518163ffffffff1660e01b815260040160206040518083038186803b15801561293457600080fd5b505afa158015612948573d6000803e3d6000fd5b505050506040513d602081101561295e57600080fd5b8101908080519060200190929190505050816000019073ffffffffffffffffffffffffffffffffffffffff16908173ffffffffffffffffffffffffffffffffffffffff16815250508173ffffffffffffffffffffffffffffffffffffffff166307c213836040518163ffffffff1660e01b815260040160006040518083038186803b1580156129ec57600080fd5b505afa158015612a00573d6000803e3d6000fd5b505050506040513d6000823e3d601f19601f820116820180604052506020811015612a2a57600080fd5b8101908080516040519392919084640100000000821115612a4a57600080fd5b83820191506020820185811115612a6057600080fd5b8251866001820283011164010000000082111715612a7d57600080fd5b8083526020830192505050908051906020019080838360005b83811015612ab1578082015181840152602081019050612a96565b50505050905090810190601f168015612ade5780820380516001836020036101000a031916815260200191505b506040525050508160200181905250600081908060018154018082558091505060019003906000526020600020906002020160009091909190915060008201518160000160006101000a81548173ffffffffffffffffffffffffffffffffffffffff021916908373ffffffffffffffffffffffffffffffffffffffff1602179055506020820151816001019080519060200190612b7c929190612da9565b5050506002600081548092919060010191905055506001600360008573ffffffffffffffffffffffffffffffffffffffff1673ffffffffffffffffffffffffffffffffffffffff16815260200190815260200160002060006101000a81548160ff021916908315150217905550505050565b60008181548110612bfb57fe5b90600052602060002090600202016000915090508060000160009054906101000a900473ffffffffffffffffffffffffffffffffffffffff1690806001018054600181600116156101000203166002900480601f016020809104026020016040519081016040528092919081815260200182805460018160011615610100020316600290048015612ccd5780601f10612ca257610100808354040283529160200191612ccd565b820191906000526020600020905b815481529060010190602001808311612cb057829003601f168201915b5050505050905082565b600460009054906101000a900473ffffffffffffffffffffffffffffffffffffffff1673ffffffffffffffffffffffffffffffffffffffff163373ffffffffffffffffffffffffffffffffffffffff1614612d7d576040517f08c379a0000000000000000000000000000000000000000000000000000000008152600401808060200182810382526022815260200180612f206022913960400191505060405180910390fd5b600460149054906101000a900460ff1615600460146101000a81548160ff021916908315150217905550565b828054600181600116156101000203166002900490600052602060002090601f016020900481019282601f10612dea57805160ff1916838001178555612e18565b82800160010185558215612e18579182015b82811115612e17578251825591602001919060010190612dfc565b5b509050612e259190612e59565b5090565b6040518060400160405280600073ffffffffffffffffffffffffffffffffffffffff168152602001606081525090565b5b80821115612e72576000816000905550600101612e5a565b509056fe4e6577206f776e65722063616e6e6f74206265207468652063757272656e74206f776e657243616e27742062616e206966206f6e6c792061206f6e65206d656d626572206c656674416c72656164792061637465642061646d696e697374726174696f6e2070726f706f73616c496e76616c69642041646d696e697374726174696f6e436f6e7472616374207265666572656e636520746f204d6f726f6363616e436f6e74726163744f6e6c79206f776e657220697320616c6c6f77656420746f2063616c6c20746869734d656d62657220746f2062616e2063616e6e6f7420626520746865206f776e6572a264697066735822122059419f5d6b2a154cf3430f3830e5bd6d4b8e5139c555d035fc97aad0414e18c764736f6c63430007000033",
  "immutableReferences": {},
  "source": "// SPDX-License-Identifier: MIT\npragma solidity 0.7.0;\n\nimport \"../contracts/administration.sol\";\n\ncontract AssociationOrg {\n\n    struct MemberStruct {\n        address addr;\n        string name;\n    }\n    MemberStruct[] public membersHistoric;\n    mapping (address => bool) public members;\n    uint public membersCount;\n\n    mapping (address => bool) public seenAdmins;\n    address payable public owner;\n    bool public maintenanceMode;\n    string public name;\n    string[] public referendums;\n    \n    \n    constructor(string memory _name, string memory _memberName) {\n        require(bytes(_name).length != 0, \"Association name cannot be empty\");\n        require(bytes(_memberName).length != 0, \"Member name cannot be empty\");\n        owner = msg.sender;\n        members[msg.sender] = true;\n        name = _name;\n        membersCount = 1;\n        MemberStruct memory newMember;\n        newMember.addr = msg.sender;\n        newMember.name = _memberName;\n        membersHistoric.push(newMember);\n    }\n    \n    modifier onlyOwner() {\n        require(\n            msg.sender == owner,\n            \"Only owner is allowed to call this\"\n        );\n        _;\n    }\n    \n    modifier onlymembers() {\n        require(\n            members[msg.sender],\n            \"Only members are allowed to call this\"\n        );\n        _;\n    }\n\n    modifier maintenanceOff() {\n        require(!maintenanceMode, \"Maintenance mode activated\");\n        _;\n    }\n\n    /// In case of a smart contract problem, activate maintenance mode\n    function switchMaintenanceMode() public onlyOwner {\n        maintenanceMode = !maintenanceMode;\n    }\n\n    function handleCooptationAction(address payable _adminCtr) public maintenanceOff {\n        AssociationAdministrationCooptation assoAdminCtr = AssociationAdministrationCooptation(_adminCtr);\n        require(assoAdminCtr.adminAction() == AssociationAdministration.AdminAction.COOPTATION, \"Cooptation action required\");\n        require(assoAdminCtr.assoCtr() == this, \"Invalid AdministrationContract reference to MoroccanContract\");\n        require(assoAdminCtr.voteCount() * 2 >= membersCount, \"Need at least 50% of the votes\");\n        require(!members[assoAdminCtr.proposedMember()], \"Already a member\");\n        require(!seenAdmins[_adminCtr], \"Already acted administration proposal\");\n        members[assoAdminCtr.proposedMember()] = true;\n\n        MemberStruct memory newMember;\n        newMember.addr = assoAdminCtr.proposedMember();\n        newMember.name = assoAdminCtr.memberName();\n        membersHistoric.push(newMember);\n\n        membersCount ++;\n        seenAdmins[_adminCtr] = true;\n    }\n\n    function handleMemberbanAction(address payable _adminCtr) public maintenanceOff {\n        AssociationAdministrationMemberban assoAdminCtr = AssociationAdministrationMemberban(_adminCtr);\n        require(assoAdminCtr.adminAction() == AssociationAdministration.AdminAction.MEMBERBAN, \"Memberban action required\");\n        require(assoAdminCtr.assoCtr() == this, \"Invalid AdministrationContract reference to MoroccanContract\");\n        require(assoAdminCtr.voteCount() * 2 > membersCount, \"Need at least 51% of the votes\");\n        require(membersCount > 1, \"Can't ban if only a one member left\");\n        require(assoAdminCtr.proposedMember() != owner, \"Member to ban cannot be the owner\");\n        require(members[assoAdminCtr.proposedMember()], \"Member to ban is not a member\");\n        require(!seenAdmins[_adminCtr], \"Already acted administration proposal\");\n        members[assoAdminCtr.proposedMember()] = false;\n        membersCount --;\n        seenAdmins[_adminCtr] = true;\n    }\n\n    function handleOwnerchangeAction(address payable _adminCtr) public maintenanceOff {\n        AssociationAdministrationOwnerchange assoAdminCtr = AssociationAdministrationOwnerchange(_adminCtr);\n        require(assoAdminCtr.adminAction() == AssociationAdministration.AdminAction.OWNERCHANGE, \"Ownerchange action required\");\n        require(assoAdminCtr.assoCtr() == this, \"Invalid AdministrationContract reference to MoroccanContract\");\n        require(assoAdminCtr.voteCount() * 2 > membersCount, \"Need at least 51% of the votes\");\n        require(assoAdminCtr.proposedMember() != owner, \"New owner cannot be the current owner\");\n        require(members[assoAdminCtr.proposedMember()], \"New owner is not a member\");\n        require(!seenAdmins[_adminCtr], \"Already acted administration proposal\");\n        owner = assoAdminCtr.proposedMember();\n        seenAdmins[_adminCtr] = true;\n    }\n\n    function handleSelfdestructAction(address payable _adminCtr) public maintenanceOff {\n        AssociationAdministrationSelfdestruct assoAdminCtr = AssociationAdministrationSelfdestruct(_adminCtr);\n        require(assoAdminCtr.adminAction() == AssociationAdministration.AdminAction.SELFDESTRUCT, \"Selfdestruct action required\");\n        require(assoAdminCtr.assoCtr() == this, \"Invalid AdministrationContract reference to MoroccanContract\");\n        require(assoAdminCtr.voteCount() * 3 > 2 * membersCount, \"Need at least 66% of the votes \");\n        require(!seenAdmins[_adminCtr], \"Already acted administration proposal\");\n        selfdestruct(owner);\n        seenAdmins[_adminCtr] = true;\n    }\n\n    function handleReferendumAction(address payable _adminCtr) public maintenanceOff {\n        AssociationAdministrationReferendum assoAdminCtr = AssociationAdministrationReferendum(_adminCtr);\n        require(assoAdminCtr.adminAction() == AssociationAdministration.AdminAction.REFERENDUM, \"Referendum action required\");\n        require(assoAdminCtr.assoCtr() == this, \"Invalid AdministrationContract reference to MoroccanContract\");\n        require(assoAdminCtr.voteCount() > membersCount/2, \"Need at least 51% of the votes\");\n        require(!seenAdmins[_adminCtr], \"Already acted administration proposal\");\n        referendums.push(assoAdminCtr.referendumQuestion());\n        seenAdmins[_adminCtr] = true;\n    }\n    \n    /// Check if I am a member (same as calling members public variable)\n    function amIMember() public view returns (bool) {\n        return members[msg.sender];\n    }\n\n    function getMemberHistoricCount() public view returns(uint count) {\n        return membersHistoric.length;\n    }\n\n    function getReferendumsCount() public view returns(uint) {\n        return referendums.length;\n    }\n    \n}",
  "sourcePath": "/home/issam/git/ethereum-association/sol/truffle/contracts/core.sol",
  "compiler": {
    "name": "solc",
    "version": "0.7.0+commit.9e61f92b.Emscripten.clang"
  },
  "schemaVersion": "3.2.4",
  "updatedAt": "2020-12-19T22:37:50.556Z",
  "devdoc": {
    "kind": "dev",
    "methods": {},
    "version": 1
  },
  "userdoc": {
    "kind": "user",
    "methods": {
      "amIMember()": {
        "notice": "Check if I am a member (same as calling members public variable)"
      },
      "switchMaintenanceMode()": {
        "notice": "In case of a smart contract problem, activate maintenance mode"
      }
    },
    "version": 1
  }
}