{
  "contractName": "AssociationAdministrationCooptation",
  "abi": [
    {
      "inputs": [
        {
          "internalType": "address",
          "name": "_assoCtr",
          "type": "address"
        },
        {
          "internalType": "string",
          "name": "_memberName",
          "type": "string"
        }
      ],
      "stateMutability": "nonpayable",
      "type": "constructor"
    },
    {
      "inputs": [],
      "name": "adminAction",
      "outputs": [
        {
          "internalType": "enum AssociationAdministration.AdminAction",
          "name": "",
          "type": "uint8"
        }
      ],
      "stateMutability": "view",
      "type": "function"
    },
    {
      "inputs": [],
      "name": "assoCtr",
      "outputs": [
        {
          "internalType": "contract AssociationOrg",
          "name": "",
          "type": "address"
        }
      ],
      "stateMutability": "view",
      "type": "function"
    },
    {
      "inputs": [
        {
          "internalType": "address",
          "name": "",
          "type": "address"
        }
      ],
      "name": "didVotes",
      "outputs": [
        {
          "internalType": "bool",
          "name": "",
          "type": "bool"
        }
      ],
      "stateMutability": "view",
      "type": "function"
    },
    {
      "inputs": [],
      "name": "memberName",
      "outputs": [
        {
          "internalType": "string",
          "name": "",
          "type": "string"
        }
      ],
      "stateMutability": "view",
      "type": "function"
    },
    {
      "inputs": [],
      "name": "proposedMember",
      "outputs": [
        {
          "internalType": "address",
          "name": "",
          "type": "address"
        }
      ],
      "stateMutability": "view",
      "type": "function"
    },
    {
      "inputs": [],
      "name": "unvote",
      "outputs": [],
      "stateMutability": "nonpayable",
      "type": "function"
    },
    {
      "inputs": [],
      "name": "vote",
      "outputs": [],
      "stateMutability": "nonpayable",
      "type": "function"
    },
    {
      "inputs": [],
      "name": "voteCount",
      "outputs": [
        {
          "internalType": "uint256",
          "name": "",
          "type": "uint256"
        }
      ],
      "stateMutability": "view",
      "type": "function"
    },
    {
      "inputs": [],
      "name": "getAdminActionType",
      "outputs": [
        {
          "internalType": "enum AssociationAdministration.AdminAction",
          "name": "",
          "type": "uint8"
        }
      ],
      "stateMutability": "view",
      "type": "function"
    }
  ],
  "bytecode": "0x60806040526003600460006101000a81548160ff0219169083600481111562000051577f4e487b7100000000000000000000000000000000000000000000000000000000600052602160045260246000fd5b02179055503480156200006357600080fd5b50604051620011b8380380620011b883398181016040528101906200008991906200039b565b6000815111620000d0576040517f08c379a0000000000000000000000000000000000000000000000000000000008152600401620000c7906200046b565b60405180910390fd5b620000e06200025a60201b60201c565b600160006101000a81548173ffffffffffffffffffffffffffffffffffffffff021916908373ffffffffffffffffffffffffffffffffffffffff16021790555080600590805190602001906200013892919062000262565b50816000806101000a81548173ffffffffffffffffffffffffffffffffffffffff021916908373ffffffffffffffffffffffffffffffffffffffff16021790555060008054906101000a900473ffffffffffffffffffffffffffffffffffffffff1673ffffffffffffffffffffffffffffffffffffffff16635fd0b43f30600460009054906101000a900460ff166004811115620001ff577f4e487b7100000000000000000000000000000000000000000000000000000000600052602160045260246000fd5b6040518363ffffffff1660e01b81526004016200021e9291906200043e565b600060405180830381600087803b1580156200023957600080fd5b505af11580156200024e573d6000803e3d6000fd5b5050505050506200068f565b600033905090565b828054620002709062000571565b90600052602060002090601f016020900481019282620002945760008555620002e0565b82601f10620002af57805160ff1916838001178555620002e0565b82800160010185558215620002e0579182015b82811115620002df578251825591602001919060010190620002c2565b5b509050620002ef9190620002f3565b5090565b5b808211156200030e576000816000905550600101620002f4565b5090565b6000620003296200032384620004b6565b6200048d565b9050828152602081018484840111156200034257600080fd5b6200034f8482856200053b565b509392505050565b600081519050620003688162000675565b92915050565b600082601f8301126200038057600080fd5b81516200039284826020860162000312565b91505092915050565b60008060408385031215620003af57600080fd5b6000620003bf8582860162000357565b925050602083015167ffffffffffffffff811115620003dd57600080fd5b620003eb858286016200036e565b9150509250929050565b6200040081620004fd565b82525050565b600062000415601b83620004ec565b915062000422826200064c565b602082019050919050565b620004388162000531565b82525050565b6000604082019050620004556000830185620003f5565b6200046460208301846200042d565b9392505050565b60006020820190508181036000830152620004868162000406565b9050919050565b600062000499620004ac565b9050620004a78282620005a7565b919050565b6000604051905090565b600067ffffffffffffffff821115620004d457620004d36200060c565b5b620004df826200063b565b9050602081019050919050565b600082825260208201905092915050565b60006200050a8262000511565b9050919050565b600073ffffffffffffffffffffffffffffffffffffffff82169050919050565b6000819050919050565b60005b838110156200055b5780820151818401526020810190506200053e565b838111156200056b576000848401525b50505050565b600060028204905060018216806200058a57607f821691505b60208210811415620005a157620005a0620005dd565b5b50919050565b620005b2826200063b565b810181811067ffffffffffffffff82111715620005d457620005d36200060c565b5b80604052505050565b7f4e487b7100000000000000000000000000000000000000000000000000000000600052602260045260246000fd5b7f4e487b7100000000000000000000000000000000000000000000000000000000600052604160045260246000fd5b6000601f19601f8301169050919050565b7f4d656d626572206e616d652063616e6e6f7420626520656d7074790000000000600082015250565b6200068081620004fd565b81146200068c57600080fd5b50565b610b19806200069f6000396000f3fe608060405234801561001057600080fd5b50600436106100935760003560e01c8063632a9a5211610066578063632a9a52146100fc5780636496270f146101065780638dddafba146101245780639bfad3fe14610142578063c63840711461017257610093565b806307c21383146100985780632fd415b2146100b65780633174b689146100d4578063485eaa01146100de575b600080fd5b6100a0610190565b6040516100ad91906107d2565b60405180910390f35b6100be61021e565b6040516100cb91906107b7565b60405180910390f35b6100dc610231565b005b6100e66103f3565b6040516100f391906107b7565b60405180910390f35b61010461040a565b005b61010e6105cb565b60405161011b9190610766565b60405180910390f35b61012c6105f1565b604051610139919061079c565b60405180910390f35b61015c6004803603810190610157919061066d565b610615565b6040516101699190610781565b60405180910390f35b61017a610635565b6040516101879190610814565b60405180910390f35b6005805461019d90610939565b80601f01602080910402602001604051908101604052809291908181526020018280546101c990610939565b80156102165780601f106101eb57610100808354040283529160200191610216565b820191906000526020600020905b8154815290600101906020018083116101f957829003601f168201915b505050505081565b600460009054906101000a900460ff1681565b60008054906101000a900473ffffffffffffffffffffffffffffffffffffffff1673ffffffffffffffffffffffffffffffffffffffff166308ae4b0c61027561063b565b6040518263ffffffff1660e01b81526004016102919190610766565b60206040518083038186803b1580156102a957600080fd5b505afa1580156102bd573d6000803e3d6000fd5b505050506040513d601f19601f820116820180604052508101906102e19190610696565b610320576040517f08c379a0000000000000000000000000000000000000000000000000000000008152600401610317906107f4565b60405180910390fd5b6002600061032c61063b565b73ffffffffffffffffffffffffffffffffffffffff1673ffffffffffffffffffffffffffffffffffffffff16815260200190815260200160002060009054906101000a900460ff16156103f15760006002600061038761063b565b73ffffffffffffffffffffffffffffffffffffffff1673ffffffffffffffffffffffffffffffffffffffff16815260200190815260200160002060006101000a81548160ff021916908315150217905550600360008154809291906103eb9061090f565b91905055505b565b6000600460009054906101000a900460ff16905090565b60008054906101000a900473ffffffffffffffffffffffffffffffffffffffff1673ffffffffffffffffffffffffffffffffffffffff166308ae4b0c61044e61063b565b6040518263ffffffff1660e01b815260040161046a9190610766565b60206040518083038186803b15801561048257600080fd5b505afa158015610496573d6000803e3d6000fd5b505050506040513d601f19601f820116820180604052508101906104ba9190610696565b6104f9576040517f08c379a00000000000000000000000000000000000000000000000000000000081526004016104f0906107f4565b60405180910390fd5b6002600061050561063b565b73ffffffffffffffffffffffffffffffffffffffff1673ffffffffffffffffffffffffffffffffffffffff16815260200190815260200160002060009054906101000a900460ff166105c95760016002600061055f61063b565b73ffffffffffffffffffffffffffffffffffffffff1673ffffffffffffffffffffffffffffffffffffffff16815260200190815260200160002060006101000a81548160ff021916908315150217905550600360008154809291906105c39061096b565b91905055505b565b600160009054906101000a900473ffffffffffffffffffffffffffffffffffffffff1681565b60008054906101000a900473ffffffffffffffffffffffffffffffffffffffff1681565b60026020528060005260406000206000915054906101000a900460ff1681565b60035481565b600033905090565b60008135905061065281610ab5565b92915050565b60008151905061066781610acc565b92915050565b60006020828403121561067f57600080fd5b600061068d84828501610643565b91505092915050565b6000602082840312156106a857600080fd5b60006106b684828501610658565b91505092915050565b6106c88161084b565b82525050565b6106d78161085d565b82525050565b6106e6816108a6565b82525050565b6106f5816108ca565b82525050565b60006107068261082f565b610710818561083a565b93506107208185602086016108dc565b61072981610a41565b840191505092915050565b600061074160258361083a565b915061074c82610a52565b604082019050919050565b6107608161089c565b82525050565b600060208201905061077b60008301846106bf565b92915050565b600060208201905061079660008301846106ce565b92915050565b60006020820190506107b160008301846106dd565b92915050565b60006020820190506107cc60008301846106ec565b92915050565b600060208201905081810360008301526107ec81846106fb565b905092915050565b6000602082019050818103600083015261080d81610734565b9050919050565b60006020820190506108296000830184610757565b92915050565b600081519050919050565b600082825260208201905092915050565b60006108568261087c565b9050919050565b60008115159050919050565b600081905061087782610aa1565b919050565b600073ffffffffffffffffffffffffffffffffffffffff82169050919050565b6000819050919050565b60006108b1826108b8565b9050919050565b60006108c38261087c565b9050919050565b60006108d582610869565b9050919050565b60005b838110156108fa5780820151818401526020810190506108df565b83811115610909576000848401525b50505050565b600061091a8261089c565b9150600082141561092e5761092d6109b4565b5b600182039050919050565b6000600282049050600182168061095157607f821691505b6020821081141561096557610964610a12565b5b50919050565b60006109768261089c565b91507fffffffffffffffffffffffffffffffffffffffffffffffffffffffffffffffff8214156109a9576109a86109b4565b5b600182019050919050565b7f4e487b7100000000000000000000000000000000000000000000000000000000600052601160045260246000fd5b7f4e487b7100000000000000000000000000000000000000000000000000000000600052602160045260246000fd5b7f4e487b7100000000000000000000000000000000000000000000000000000000600052602260045260246000fd5b6000601f19601f8301169050919050565b7f4f6e6c79206d656d626572732061726520616c6c6f77656420746f2063616c6c60008201527f2074686973000000000000000000000000000000000000000000000000000000602082015250565b60058110610ab257610ab16109e3565b5b50565b610abe8161084b565b8114610ac957600080fd5b50565b610ad58161085d565b8114610ae057600080fd5b5056fea2646970667358221220e5e1df222458625b553fbd2bf71b0eea5d351dd2085da385740e1305d827b25964736f6c63430008030033",
  "immutableReferences": {},
  "source": "// SPDX-License-Identifier: MIT\n\npragma solidity ^0.8.0;\n\nimport \"../utils/Context.sol\";\nimport \"../assoc/Association.sol\";\n\nabstract contract AssociationAdministration is Context {\n    \n    enum AdminAction {MEMBERBAN, OWNERCHANGE, SELFDESTRUCT, COOPTATION, REFERENDUM}\n    \n    AssociationOrg public assoCtr;\n\n    address public proposedMember;\n    mapping (address => bool) public didVotes;\n    uint public voteCount;\n    \n    modifier onlyMembers() {\n        require(\n            assoCtr.members(_msgSender()),\n            \"Only members are allowed to call this\"\n        );\n        _;\n    }\n\n    /// Vote for the administration action\n    function vote() public onlyMembers {\n        if (!didVotes[_msgSender()]) {\n            didVotes[_msgSender()] = true;\n            voteCount ++;\n        }\n    }\n\n    /// Unvote for the administration action\n    function unvote() public onlyMembers {\n        if (didVotes[_msgSender()]) {\n            didVotes[_msgSender()] = false;\n            voteCount --;\n        }\n    }\n\n    function getAdminActionType() public virtual view returns (AdminAction);\n}\n\ncontract AssociationAdministrationMemberban is AssociationAdministration {\n    AdminAction public adminAction = AdminAction.MEMBERBAN;\n    constructor(address _assoCtr, address payable _proposedMember) {\n        proposedMember = _proposedMember;\n        assoCtr = AssociationOrg(_assoCtr);\n        assoCtr.emitAdmin(address(this), uint(adminAction));\n        require(assoCtr.members(_proposedMember), \"Only members can be banned\");\n        require(_proposedMember != assoCtr.owner(), \"Owner cannot be banned, change owner first\");\n    }\n    function getAdminActionType() public override view returns (AdminAction) {\n        return adminAction;\n    }\n}\n\ncontract AssociationAdministrationOwnerchange is AssociationAdministration {\n    AdminAction public adminAction = AdminAction.OWNERCHANGE;\n    constructor(address _assoCtr) {\n        proposedMember = _msgSender();\n        assoCtr = AssociationOrg(_assoCtr);\n        assoCtr.emitAdmin(address(this), uint(adminAction));\n        require(_msgSender() != assoCtr.owner(), \"New owner cannot be old owner\");\n    }\n    function getAdminActionType() public override view returns (AdminAction) {\n        return adminAction;\n    }\n}\n\ncontract AssociationAdministrationSelfdestruct is AssociationAdministration {\n    AdminAction public adminAction = AdminAction.SELFDESTRUCT;\n    constructor(address _assoCtr) {\n        assoCtr = AssociationOrg(_assoCtr);\n        assoCtr.emitAdmin(address(this), uint(adminAction));\n    }\n    function getAdminActionType() public override view returns (AdminAction) {\n        return adminAction;\n    }\n}\n\ncontract AssociationAdministrationCooptation is AssociationAdministration {\n    AdminAction public adminAction = AdminAction.COOPTATION;\n    string public memberName;\n    constructor(address _assoCtr, string memory _memberName) {\n        require(bytes(_memberName).length > 0, \"Member name cannot be empty\");\n        proposedMember = _msgSender();\n        memberName = _memberName;\n        assoCtr = AssociationOrg(_assoCtr);\n        assoCtr.emitAdmin(address(this), uint(adminAction));\n    }\n    function getAdminActionType() public override view returns (AdminAction) {\n        return adminAction;\n    }\n}\n\ncontract AssociationAdministrationReferendum is AssociationAdministration {\n    AdminAction public adminAction = AdminAction.REFERENDUM;\n    string public referendumQuestion;\n    constructor(address _assoCtr, string memory _question) {\n        require(bytes(_question).length > 0, \"Question name cannot be empty\");\n        proposedMember = _msgSender();\n        assoCtr = AssociationOrg(_assoCtr);\n        assoCtr.emitAdmin(address(this), uint(adminAction));\n        referendumQuestion = _question;\n    }\n    function getAdminActionType() public override view returns (AdminAction) {\n        return adminAction;\n    }\n}",
  "sourcePath": "/home/issam/git/solidity-contracts/sol/truffle/contracts/assoc/Administration.sol",
  "compiler": {
    "name": "solc",
    "version": "0.8.3+commit.8d00100c.Emscripten.clang"
  },
  "schemaVersion": "3.2.4",
  "updatedAt": "2021-06-22T21:48:04.715Z",
  "devdoc": {
    "kind": "dev",
    "methods": {},
    "version": 1
  },
  "userdoc": {
    "kind": "user",
    "methods": {
      "unvote()": {
        "notice": "Unvote for the administration action"
      },
      "vote()": {
        "notice": "Vote for the administration action"
      }
    },
    "version": 1
  }
}