{
  "contractName": "DAT",
  "abi": [
    {
      "inputs": [
        {
          "internalType": "uint256",
          "name": "minimumAmount_",
          "type": "uint256"
        },
        {
          "internalType": "address",
          "name": "medToken_",
          "type": "address"
        },
        {
          "internalType": "address",
          "name": "fpToken_",
          "type": "address"
        }
      ],
      "stateMutability": "nonpayable",
      "type": "constructor"
    },
    {
      "inputs": [
        {
          "internalType": "uint256",
          "name": "",
          "type": "uint256"
        }
      ],
      "name": "allowedParams",
      "outputs": [
        {
          "internalType": "uint16",
          "name": "",
          "type": "uint16"
        }
      ],
      "stateMutability": "view",
      "type": "function",
      "constant": true
    },
    {
      "inputs": [
        {
          "internalType": "uint256",
          "name": "idx",
          "type": "uint256"
        }
      ],
      "name": "getSubscription",
      "outputs": [
        {
          "internalType": "uint256",
          "name": "",
          "type": "uint256"
        }
      ],
      "stateMutability": "view",
      "type": "function",
      "constant": true
    },
    {
      "inputs": [],
      "name": "getSubscriptionLength",
      "outputs": [
        {
          "internalType": "uint256",
          "name": "",
          "type": "uint256"
        }
      ],
      "stateMutability": "view",
      "type": "function",
      "constant": true
    },
    {
      "inputs": [
        {
          "internalType": "uint256",
          "name": "tokenId",
          "type": "uint256"
        }
      ],
      "name": "isSuscribed",
      "outputs": [
        {
          "internalType": "bool",
          "name": "",
          "type": "bool"
        }
      ],
      "stateMutability": "view",
      "type": "function",
      "constant": true
    },
    {
      "inputs": [],
      "name": "minimumAmount",
      "outputs": [
        {
          "internalType": "uint256",
          "name": "",
          "type": "uint256"
        }
      ],
      "stateMutability": "view",
      "type": "function",
      "constant": true
    },
    {
      "inputs": [
        {
          "internalType": "uint256",
          "name": "dayDuration",
          "type": "uint256"
        },
        {
          "internalType": "uint16",
          "name": "interestRate",
          "type": "uint16"
        }
      ],
      "name": "setProduct",
      "outputs": [],
      "stateMutability": "nonpayable",
      "type": "function"
    },
    {
      "inputs": [
        {
          "internalType": "uint256",
          "name": "depositAmount",
          "type": "uint256"
        },
        {
          "internalType": "uint256",
          "name": "dayDuration",
          "type": "uint256"
        },
        {
          "internalType": "uint16",
          "name": "interestRate",
          "type": "uint16"
        }
      ],
      "name": "subscribe",
      "outputs": [],
      "stateMutability": "nonpayable",
      "type": "function"
    },
    {
      "inputs": [
        {
          "internalType": "uint256",
          "name": "tokenId",
          "type": "uint256"
        }
      ],
      "name": "cancelDat",
      "outputs": [],
      "stateMutability": "nonpayable",
      "type": "function"
    },
    {
      "inputs": [
        {
          "internalType": "uint256",
          "name": "tokenId",
          "type": "uint256"
        }
      ],
      "name": "payDat",
      "outputs": [],
      "stateMutability": "nonpayable",
      "type": "function"
    },
    {
      "inputs": [
        {
          "internalType": "uint256",
          "name": "tokenId",
          "type": "uint256"
        }
      ],
      "name": "getProduct",
      "outputs": [
        {
          "internalType": "uint256",
          "name": "",
          "type": "uint256"
        },
        {
          "internalType": "uint256",
          "name": "",
          "type": "uint256"
        },
        {
          "internalType": "uint16",
          "name": "",
          "type": "uint16"
        },
        {
          "internalType": "uint256",
          "name": "",
          "type": "uint256"
        },
        {
          "internalType": "address",
          "name": "",
          "type": "address"
        }
      ],
      "stateMutability": "view",
      "type": "function",
      "constant": true
    }
  ],
  "bytecode": "0x60806040523480156200001157600080fd5b5060405162001ee238038062001ee283398181016040528101906200003791906200014e565b620000476200011860201b60201c565b600260006101000a81548173ffffffffffffffffffffffffffffffffffffffff021916908373ffffffffffffffffffffffffffffffffffffffff16021790555082600581905550816000806101000a81548173ffffffffffffffffffffffffffffffffffffffff021916908373ffffffffffffffffffffffffffffffffffffffff16021790555080600160006101000a81548173ffffffffffffffffffffffffffffffffffffffff021916908373ffffffffffffffffffffffffffffffffffffffff16021790555050505062000216565b600033905090565b6000815190506200013181620001e2565b92915050565b6000815190506200014881620001fc565b92915050565b6000806000606084860312156200016457600080fd5b6000620001748682870162000137565b9350506020620001878682870162000120565b92505060406200019a8682870162000120565b9150509250925092565b6000620001b182620001b8565b9050919050565b600073ffffffffffffffffffffffffffffffffffffffff82169050919050565b6000819050919050565b620001ed81620001a4565b8114620001f957600080fd5b50565b6200020781620001d8565b81146200021357600080fd5b50565b611cbc80620002266000396000f3fe608060405234801561001057600080fd5b506004361061009e5760003560e01c8063910f385111610066578063910f385114610145578063b9db15b414610175578063bb0c8298146101a9578063bfbb3879146101c7578063dc311dd3146101e35761009e565b80631074d027146100a35780631abfea5a146100bf5780632530ea71146100db5780637c127128146100f9578063839db9c014610115575b600080fd5b6100bd60048036038101906100b891906113c0565b610213565b005b6100d960048036038101906100d49190611412565b6105a6565b005b6100e36106f9565b6040516100f091906117e8565b60405180910390f35b610113600480360381019061010e91906113c0565b61070a565b005b61012f600480360381019061012a91906113c0565b610969565b60405161013c91906116b2565b60405180910390f35b61015f600480360381019061015a91906113c0565b610986565b60405161016c91906117cd565b60405180910390f35b61018f600480360381019061018a91906113c0565b6109a7565b6040516101a0959493929190611803565b60405180910390f35b6101b1610a63565b6040516101be91906117e8565b60405180910390f35b6101e160048036038101906101dc919061144e565b610a69565b005b6101fd60048036038101906101f891906113c0565b610f9d565b60405161020a91906117e8565b60405180910390f35b6000600660006007600085815260200190815260200160002060010154815260200190815260200160002060009054906101000a900461ffff1690506007600083815260200190815260200160002060010154600760008481526020019081526020016000206000015460008054906101000a900473ffffffffffffffffffffffffffffffffffffffff1673ffffffffffffffffffffffffffffffffffffffff166380477a4c6040518163ffffffff1660e01b815260040160206040518083038186803b1580156102e357600080fd5b505afa1580156102f7573d6000803e3d6000fd5b505050506040513d601f19601f8201168201806040525081019061031b91906113e9565b610325919061192a565b11610365576040517f08c379a000000000000000000000000000000000000000000000000000000000815260040161035c906116cd565b60405180910390fd5b60006007600084815260200190815260200160002060030154905060008054906101000a900473ffffffffffffffffffffffffffffffffffffffff1673ffffffffffffffffffffffffffffffffffffffff1663a9059cbb600160009054906101000a900473ffffffffffffffffffffffffffffffffffffffff1673ffffffffffffffffffffffffffffffffffffffff16636352211e866040518263ffffffff1660e01b815260040161041791906117e8565b60206040518083038186803b15801561042f57600080fd5b505afa158015610443573d6000803e3d6000fd5b505050506040513d601f19601f82011682018060405250810190610467919061136e565b60648560646104769190611867565b61ffff168561048591906118d0565b61048f919061189f565b6040518363ffffffff1660e01b81526004016104ac929190611689565b602060405180830381600087803b1580156104c657600080fd5b505af11580156104da573d6000803e3d6000fd5b505050506040513d601f19601f820116820180604052508101906104fe9190611397565b50600160009054906101000a900473ffffffffffffffffffffffffffffffffffffffff1673ffffffffffffffffffffffffffffffffffffffff16639d118770846040518263ffffffff1660e01b815260040161055a91906117e8565b600060405180830381600087803b15801561057457600080fd5b505af1158015610588573d6000803e3d6000fd5b505050506105a083600361100590919063ffffffff16565b50505050565b600260009054906101000a900473ffffffffffffffffffffffffffffffffffffffff1673ffffffffffffffffffffffffffffffffffffffff166105e761101f565b73ffffffffffffffffffffffffffffffffffffffff161461063d576040517f08c379a00000000000000000000000000000000000000000000000000000000081526004016106349061178d565b60405180910390fd5b60008211610680576040517f08c379a00000000000000000000000000000000000000000000000000000000081526004016106779061170d565b60405180910390fd5b60008161ffff16116106c7576040517f08c379a00000000000000000000000000000000000000000000000000000000081526004016106be9061176d565b60405180910390fd5b806006600084815260200190815260200160002060006101000a81548161ffff021916908361ffff1602179055505050565b60006107056003611027565b905090565b61071261101f565b73ffffffffffffffffffffffffffffffffffffffff16600160009054906101000a900473ffffffffffffffffffffffffffffffffffffffff1673ffffffffffffffffffffffffffffffffffffffff16636352211e836040518263ffffffff1660e01b815260040161078391906117e8565b60206040518083038186803b15801561079b57600080fd5b505afa1580156107af573d6000803e3d6000fd5b505050506040513d601f19601f820116820180604052508101906107d3919061136e565b73ffffffffffffffffffffffffffffffffffffffff16146107f357600080fd5b60006007600083815260200190815260200160002060030154905060008054906101000a900473ffffffffffffffffffffffffffffffffffffffff1673ffffffffffffffffffffffffffffffffffffffff1663a9059cbb61085261101f565b836040518363ffffffff1660e01b8152600401610870929190611689565b602060405180830381600087803b15801561088a57600080fd5b505af115801561089e573d6000803e3d6000fd5b505050506040513d601f19601f820116820180604052508101906108c29190611397565b50600160009054906101000a900473ffffffffffffffffffffffffffffffffffffffff1673ffffffffffffffffffffffffffffffffffffffff16639d118770836040518263ffffffff1660e01b815260040161091e91906117e8565b600060405180830381600087803b15801561093857600080fd5b505af115801561094c573d6000803e3d6000fd5b5050505061096482600361100590919063ffffffff16565b505050565b600061097f82600361103c90919063ffffffff16565b9050919050565b60066020528060005260406000206000915054906101000a900461ffff1681565b6000806000806000600760008781526020019081526020016000206000015460076000888152602001908152602001600020600101546007600089815260200190815260200160002060020160009054906101000a900461ffff16600760008a815260200190815260200160002060030154600760008b815260200190815260200160002060040160009054906101000a900473ffffffffffffffffffffffffffffffffffffffff169450945094509450945091939590929450565b60055481565b8061ffff166006600084815260200190815260200160002060009054906101000a900461ffff1661ffff1614610ad4576040517f08c379a0000000000000000000000000000000000000000000000000000000008152600401610acb9061172d565b60405180910390fd5b600554831015610b19576040517f08c379a0000000000000000000000000000000000000000000000000000000008152600401610b10906117ad565b60405180910390fd5b8260008054906101000a900473ffffffffffffffffffffffffffffffffffffffff1673ffffffffffffffffffffffffffffffffffffffff1663dd62ed3e610b5e61101f565b306040518363ffffffff1660e01b8152600401610b7c929190611600565b60206040518083038186803b158015610b9457600080fd5b505afa158015610ba8573d6000803e3d6000fd5b505050506040513d601f19601f82011682018060405250810190610bcc91906113e9565b1015610c0d576040517f08c379a0000000000000000000000000000000000000000000000000000000008152600401610c049061174d565b60405180910390fd5b60008054906101000a900473ffffffffffffffffffffffffffffffffffffffff1673ffffffffffffffffffffffffffffffffffffffff166323b872dd610c5161101f565b30866040518463ffffffff1660e01b8152600401610c7193929190611629565b602060405180830381600087803b158015610c8b57600080fd5b505af1158015610c9f573d6000803e3d6000fd5b505050506040513d601f19601f82011682018060405250810190610cc39190611397565b50600160009054906101000a900473ffffffffffffffffffffffffffffffffffffffff1673ffffffffffffffffffffffffffffffffffffffff16635edfe0df610d0a61101f565b60006040518363ffffffff1660e01b8152600401610d29929190611660565b600060405180830381600087803b158015610d4357600080fd5b505af1158015610d57573d6000803e3d6000fd5b505050506000600160009054906101000a900473ffffffffffffffffffffffffffffffffffffffff1673ffffffffffffffffffffffffffffffffffffffff1663561892366040518163ffffffff1660e01b815260040160206040518083038186803b158015610dc557600080fd5b505afa158015610dd9573d6000803e3d6000fd5b505050506040513d601f19601f82011682018060405250810190610dfd91906113e9565b90506040518060a0016040528060008054906101000a900473ffffffffffffffffffffffffffffffffffffffff1673ffffffffffffffffffffffffffffffffffffffff166380477a4c6040518163ffffffff1660e01b815260040160206040518083038186803b158015610e7057600080fd5b505afa158015610e84573d6000803e3d6000fd5b505050506040513d601f19601f82011682018060405250810190610ea891906113e9565b81526020018481526020018361ffff168152602001858152602001610ecb61101f565b73ffffffffffffffffffffffffffffffffffffffff1681525060076000838152602001908152602001600020600082015181600001556020820151816001015560408201518160020160006101000a81548161ffff021916908361ffff1602179055506060820151816003015560808201518160040160006101000a81548173ffffffffffffffffffffffffffffffffffffffff021916908373ffffffffffffffffffffffffffffffffffffffff160217905550905050610f9681600361105690919063ffffffff16565b5050505050565b6000610fa96003611027565b8210610fea576040517f08c379a0000000000000000000000000000000000000000000000000000000008152600401610fe1906116ed565b60405180910390fd5b610ffe82600361107090919063ffffffff16565b9050919050565b6000611017836000018360001b61108a565b905092915050565b600033905090565b600061103582600001611210565b9050919050565b600061104e836000018360001b611221565b905092915050565b6000611068836000018360001b611244565b905092915050565b600061107f83600001836112b4565b60001c905092915050565b600080836001016000848152602001908152602001600020549050600081146112045760006001826110bc919061192a565b90506000600186600001805490506110d4919061192a565b905081811461118f57600086600001828154811061111b577f4e487b7100000000000000000000000000000000000000000000000000000000600052603260045260246000fd5b9060005260206000200154905080876000018481548110611165577f4e487b7100000000000000000000000000000000000000000000000000000000600052603260045260246000fd5b90600052602060002001819055508387600101600083815260200190815260200160002081905550505b856000018054806111c9577f4e487b7100000000000000000000000000000000000000000000000000000000600052603160045260246000fd5b60019003818190600052602060002001600090559055856001016000868152602001908152602001600020600090556001935050505061120a565b60009150505b92915050565b600081600001805490509050919050565b600080836001016000848152602001908152602001600020541415905092915050565b60006112508383611221565b6112a95782600001829080600181540180825580915050600190039060005260206000200160009091909190915055826000018054905083600101600084815260200190815260200160002081905550600190506112ae565b600090505b92915050565b60008260000182815481106112f2577f4e487b7100000000000000000000000000000000000000000000000000000000600052603260045260246000fd5b9060005260206000200154905092915050565b60008151905061131481611c2a565b92915050565b60008151905061132981611c41565b92915050565b60008135905061133e81611c58565b92915050565b60008135905061135381611c6f565b92915050565b60008151905061136881611c6f565b92915050565b60006020828403121561138057600080fd5b600061138e84828501611305565b91505092915050565b6000602082840312156113a957600080fd5b60006113b78482850161131a565b91505092915050565b6000602082840312156113d257600080fd5b60006113e084828501611344565b91505092915050565b6000602082840312156113fb57600080fd5b600061140984828501611359565b91505092915050565b6000806040838503121561142557600080fd5b600061143385828601611344565b92505060206114448582860161132f565b9150509250929050565b60008060006060848603121561146357600080fd5b600061147186828701611344565b935050602061148286828701611344565b92505060406114938682870161132f565b9150509250925092565b6114a68161195e565b82525050565b6114b581611970565b82525050565b6114c4816119b4565b82525050565b60006114d7601583611856565b91506114e282611a24565b602082019050919050565b60006114fa600c83611856565b915061150582611a4d565b602082019050919050565b600061151d602583611856565b915061152882611a76565b604082019050919050565b6000611540601883611856565b915061154b82611ac5565b602082019050919050565b6000611563604283611856565b915061156e82611aee565b606082019050919050565b6000611586601d83611856565b915061159182611b63565b602082019050919050565b60006115a9602283611856565b91506115b482611b8c565b604082019050919050565b60006115cc602c83611856565b91506115d782611bdb565b604082019050919050565b6115eb8161197c565b82525050565b6115fa816119aa565b82525050565b6000604082019050611615600083018561149d565b611622602083018461149d565b9392505050565b600060608201905061163e600083018661149d565b61164b602083018561149d565b61165860408301846115f1565b949350505050565b6000604082019050611675600083018561149d565b61168260208301846114bb565b9392505050565b600060408201905061169e600083018561149d565b6116ab60208301846115f1565b9392505050565b60006020820190506116c760008301846114ac565b92915050565b600060208201905081810360008301526116e6816114ca565b9050919050565b60006020820190508181036000830152611706816114ed565b9050919050565b6000602082019050818103600083015261172681611510565b9050919050565b6000602082019050818103600083015261174681611533565b9050919050565b6000602082019050818103600083015261176681611556565b9050919050565b6000602082019050818103600083015261178681611579565b9050919050565b600060208201905081810360008301526117a68161159c565b9050919050565b600060208201905081810360008301526117c6816115bf565b9050919050565b60006020820190506117e260008301846115e2565b92915050565b60006020820190506117fd60008301846115f1565b92915050565b600060a08201905061181860008301886115f1565b61182560208301876115f1565b61183260408301866115e2565b61183f60608301856115f1565b61184c608083018461149d565b9695505050505050565b600082825260208201905092915050565b60006118728261197c565b915061187d8361197c565b92508261ffff03821115611894576118936119c6565b5b828201905092915050565b60006118aa826119aa565b91506118b5836119aa565b9250826118c5576118c46119f5565b5b828204905092915050565b60006118db826119aa565b91506118e6836119aa565b9250817fffffffffffffffffffffffffffffffffffffffffffffffffffffffffffffffff048311821515161561191f5761191e6119c6565b5b828202905092915050565b6000611935826119aa565b9150611940836119aa565b925082821015611953576119526119c6565b5b828203905092915050565b60006119698261198a565b9050919050565b60008115159050919050565b600061ffff82169050919050565b600073ffffffffffffffffffffffffffffffffffffffff82169050919050565b6000819050919050565b60006119bf8261197c565b9050919050565b7f4e487b7100000000000000000000000000000000000000000000000000000000600052601160045260246000fd5b7f4e487b7100000000000000000000000000000000000000000000000000000000600052601260045260246000fd5b7f546f6f206561726c7920746f2062652070617965640000000000000000000000600082015250565b7f496478206f766572666c6f770000000000000000000000000000000000000000600082015250565b7f4475726174696f6e20696e2064617973206d75737420626520696e207465206660008201527f7574757265000000000000000000000000000000000000000000000000000000602082015250565b7f4d757374206265206578697374696e672070726f647563740000000000000000600082015250565b7f5072657061726520616e20616c6c6f77616e636520776974682074686520636f60008201527f727265637420616d6f756e7420696e206f7264657220746f207375627363726960208201527f6265000000000000000000000000000000000000000000000000000000000000604082015250565b7f52617465206d7573742062652061206e6f6e207a65726f2076616c7565000000600082015250565b7f4f6e6c79206f776e657220697320616c6c6f77656420746f2063616c6c20746860008201527f6973000000000000000000000000000000000000000000000000000000000000602082015250565b7f4465706f73697420616d6f756e74206973206c657373207468616e206d696e6960008201527f6d756d2072657175697265640000000000000000000000000000000000000000602082015250565b611c338161195e565b8114611c3e57600080fd5b50565b611c4a81611970565b8114611c5557600080fd5b50565b611c618161197c565b8114611c6c57600080fd5b50565b611c78816119aa565b8114611c8357600080fd5b5056fea264697066735822122054455bcee7ff6493f1606ae5730552874874cb32d1de1ec12f7ff1a594dc964164736f6c63430008030033",
  "immutableReferences": {},
  "source": "// SPDX-License-Identifier: MIT\n\npragma solidity ^0.8.0;\n\nimport \"./GenericProduct.sol\";\n\n/**\n * @dev Banking smart contracts - Term Deposit (Depot A Terme)\n * @author AshtonIzmev\n */\ncontract DAT is GenericProduct {\n\n    using EnumerableSet for EnumerableSet.UintSet;\n\n    uint256 public minimumAmount;\n\n    mapping (uint256 => uint16) public allowedParams;\n\n    struct Product {\n        uint256 _subscriptionDate;\n        uint256 _subscriptionDuration;\n        uint16 _subscriptionInterest;\n        uint256 _subscriptionAmount;\n        address _owner;\n    }\n\n    mapping (uint256 => Product) private _subscriptions;\n\n    modifier onlyOwner() {\n        require(\n            _msgSender() == _issuingBank,\n            \"Only owner is allowed to call this\"\n        );\n        _;\n    }\n\n    /**\n     * param minimumAmount      minimum amount deposited\n     */\n    constructor (uint256 minimumAmount_, address medToken_, address fpToken_) {\n        _issuingBank = _msgSender();\n        minimumAmount = minimumAmount_;\n        medToken = MED(medToken_);\n        fpToken = FP(fpToken_);\n    }\n\n    /**\n     * Set parameters for a new product\n     */\n    function setProduct(uint256 dayDuration, uint16 interestRate) public virtual onlyOwner {\n        require(dayDuration > 0, \"Duration in days must be in te future\");\n        require(interestRate > 0, \"Rate must be a non zero value\");\n        allowedParams[dayDuration] = interestRate;\n    }\n\n    /**\n     * Subscribe a new term deposit\n     */\n    function subscribe(uint256 depositAmount, uint256 dayDuration, uint16 interestRate) public virtual {\n        require(allowedParams[dayDuration] == interestRate, \"Must be existing product\");\n        require(depositAmount >= minimumAmount, \"Deposit amount is less than minimum required\");\n        require(medToken.allowance(_msgSender(), address(this)) >= depositAmount, \"Prepare an allowance with the correct amount in order to subscribe\");\n        medToken.transferFrom(_msgSender(), address(this), depositAmount);\n        fpToken.create(_msgSender(), 0);\n        uint256 tokenId = fpToken.getCurrentTokenId();\n        _subscriptions[tokenId] = Product(medToken.daysElapsed(), dayDuration, interestRate, depositAmount, _msgSender());\n        _subscriptionIds.add(tokenId);\n    }\n\n    /**\n     * Cancelling a DAT is getting reimbursed your initial deposit at anytime without any added interest\n     */\n    function cancelDat(uint256 tokenId) public virtual {\n        require(fpToken.ownerOf(tokenId) == _msgSender());\n        uint256 initialAmount = _subscriptions[tokenId]._subscriptionAmount;\n        medToken.transfer(_msgSender(), initialAmount);\n        fpToken.destroy(tokenId);\n        _subscriptionIds.remove(tokenId);\n    }\n\n    /**\n     * Get your principal and your interest once the term ended\n     */\n    function payDat(uint256 tokenId) public virtual {\n        uint16 interestRate = allowedParams[_subscriptions[tokenId]._subscriptionDuration];\n        require(medToken.daysElapsed() - _subscriptions[tokenId]._subscriptionDate > _subscriptions[tokenId]._subscriptionDuration, \n            \"Too early to be payed\");\n        uint256 initialAmount = _subscriptions[tokenId]._subscriptionAmount;\n        medToken.transfer(fpToken.ownerOf(tokenId), initialAmount * (100+interestRate) / 100);\n        fpToken.destroy(tokenId);\n        _subscriptionIds.remove(tokenId);        \n    }\n\n    function getProduct(uint256 tokenId) public view virtual returns (uint256, uint256, uint16, uint256, address) {\n        return (\n            _subscriptions[tokenId]._subscriptionDate,\n            _subscriptions[tokenId]._subscriptionDuration,\n            _subscriptions[tokenId]._subscriptionInterest,\n            _subscriptions[tokenId]._subscriptionAmount,\n            _subscriptions[tokenId]._owner);\n    }\n\n}",
  "sourcePath": "/home/issam/git/solidity-contracts/sol/truffle/contracts/token/bank/DAT.sol",
  "compiler": {
    "name": "solc",
    "version": "0.8.3+commit.8d00100c.Emscripten.clang"
  },
  "schemaVersion": "3.2.4",
  "updatedAt": "2021-07-04T14:19:59.992Z",
  "networkType": "ethereum",
  "devdoc": {
    "author": "AshtonIzmev",
    "details": "Banking smart contracts - Term Deposit (Depot A Terme)",
    "kind": "dev",
    "methods": {},
    "version": 1
  },
  "userdoc": {
    "kind": "user",
    "methods": {
      "cancelDat(uint256)": {
        "notice": "Cancelling a DAT is getting reimbursed your initial deposit at anytime without any added interest"
      },
      "constructor": {
        "notice": "param minimumAmount      minimum amount deposited"
      },
      "payDat(uint256)": {
        "notice": "Get your principal and your interest once the term ended"
      },
      "setProduct(uint256,uint16)": {
        "notice": "Set parameters for a new product"
      },
      "subscribe(uint256,uint256,uint16)": {
        "notice": "Subscribe a new term deposit"
      }
    },
    "version": 1
  }
}