{
  "contractName": "DAT",
  "abi": [
    {
      "inputs": [
        {
          "internalType": "uint256",
          "name": "minimumAmount_",
          "type": "uint256"
        },
        {
          "internalType": "address",
          "name": "medToken_",
          "type": "address"
        },
        {
          "internalType": "address",
          "name": "fpToken_",
          "type": "address"
        }
      ],
      "stateMutability": "nonpayable",
      "type": "constructor"
    },
    {
      "inputs": [
        {
          "internalType": "uint256",
          "name": "",
          "type": "uint256"
        }
      ],
      "name": "allowedParams",
      "outputs": [
        {
          "internalType": "uint16",
          "name": "",
          "type": "uint16"
        }
      ],
      "stateMutability": "view",
      "type": "function",
      "constant": true
    },
    {
      "inputs": [
        {
          "internalType": "uint256",
          "name": "idx",
          "type": "uint256"
        }
      ],
      "name": "getSubscription",
      "outputs": [
        {
          "internalType": "uint256",
          "name": "",
          "type": "uint256"
        }
      ],
      "stateMutability": "view",
      "type": "function",
      "constant": true
    },
    {
      "inputs": [],
      "name": "getSubscriptionLength",
      "outputs": [
        {
          "internalType": "uint256",
          "name": "",
          "type": "uint256"
        }
      ],
      "stateMutability": "view",
      "type": "function",
      "constant": true
    },
    {
      "inputs": [
        {
          "internalType": "uint256",
          "name": "tokenId",
          "type": "uint256"
        }
      ],
      "name": "isSubscribed",
      "outputs": [
        {
          "internalType": "bool",
          "name": "",
          "type": "bool"
        }
      ],
      "stateMutability": "view",
      "type": "function",
      "constant": true
    },
    {
      "inputs": [],
      "name": "minimumAmount",
      "outputs": [
        {
          "internalType": "uint256",
          "name": "",
          "type": "uint256"
        }
      ],
      "stateMutability": "view",
      "type": "function",
      "constant": true
    },
    {
      "inputs": [
        {
          "internalType": "uint256",
          "name": "dayDuration",
          "type": "uint256"
        },
        {
          "internalType": "uint16",
          "name": "interestRate",
          "type": "uint16"
        }
      ],
      "name": "setProduct",
      "outputs": [],
      "stateMutability": "nonpayable",
      "type": "function"
    },
    {
      "inputs": [
        {
          "internalType": "uint256",
          "name": "depositAmount",
          "type": "uint256"
        },
        {
          "internalType": "uint256",
          "name": "dayDuration",
          "type": "uint256"
        },
        {
          "internalType": "uint16",
          "name": "interestRate",
          "type": "uint16"
        }
      ],
      "name": "subscribe",
      "outputs": [],
      "stateMutability": "nonpayable",
      "type": "function"
    },
    {
      "inputs": [
        {
          "internalType": "uint256",
          "name": "tokenId",
          "type": "uint256"
        }
      ],
      "name": "cancelDat",
      "outputs": [],
      "stateMutability": "nonpayable",
      "type": "function"
    },
    {
      "inputs": [
        {
          "internalType": "uint256",
          "name": "tokenId",
          "type": "uint256"
        }
      ],
      "name": "payDat",
      "outputs": [],
      "stateMutability": "nonpayable",
      "type": "function"
    },
    {
      "inputs": [
        {
          "internalType": "uint256",
          "name": "tokenId",
          "type": "uint256"
        }
      ],
      "name": "getProduct",
      "outputs": [
        {
          "internalType": "uint256",
          "name": "",
          "type": "uint256"
        },
        {
          "internalType": "uint256",
          "name": "",
          "type": "uint256"
        },
        {
          "internalType": "uint16",
          "name": "",
          "type": "uint16"
        },
        {
          "internalType": "uint256",
          "name": "",
          "type": "uint256"
        }
      ],
      "stateMutability": "view",
      "type": "function",
      "constant": true
    }
  ],
  "bytecode": "0x60806040523480156200001157600080fd5b5060405162001e2b38038062001e2b83398181016040528101906200003791906200014e565b620000476200011860201b60201c565b600260006101000a81548173ffffffffffffffffffffffffffffffffffffffff021916908373ffffffffffffffffffffffffffffffffffffffff16021790555082600581905550816000806101000a81548173ffffffffffffffffffffffffffffffffffffffff021916908373ffffffffffffffffffffffffffffffffffffffff16021790555080600160006101000a81548173ffffffffffffffffffffffffffffffffffffffff021916908373ffffffffffffffffffffffffffffffffffffffff16021790555050505062000216565b600033905090565b6000815190506200013181620001e2565b92915050565b6000815190506200014881620001fc565b92915050565b6000806000606084860312156200016457600080fd5b6000620001748682870162000137565b9350506020620001878682870162000120565b92505060406200019a8682870162000120565b9150509250925092565b6000620001b182620001b8565b9050919050565b600073ffffffffffffffffffffffffffffffffffffffff82169050919050565b6000819050919050565b620001ed81620001a4565b8114620001f957600080fd5b50565b6200020781620001d8565b81146200021357600080fd5b50565b611c0580620002266000396000f3fe608060405234801561001057600080fd5b506004361061009d5760003560e01c8063910f385111610066578063910f385114610144578063b9db15b414610174578063bb0c8298146101a7578063bfbb3879146101c5578063dc311dd3146101e15761009d565b8062ffa189146100a25780631074d027146100d25780631abfea5a146100ee5780632530ea711461010a5780637c12712814610128575b600080fd5b6100bc60048036038101906100b79190611317565b610211565b6040516100c99190611609565b60405180910390f35b6100ec60048036038101906100e79190611317565b61022e565b005b61010860048036038101906101039190611369565b6105c1565b005b610112610714565b60405161011f919061173f565b60405180910390f35b610142600480360381019061013d9190611317565b610725565b005b61015e60048036038101906101599190611317565b610984565b60405161016b9190611724565b60405180910390f35b61018e60048036038101906101899190611317565b6109a5565b60405161019e949392919061175a565b60405180910390f35b6101af610a24565b6040516101bc919061173f565b60405180910390f35b6101df60048036038101906101da91906113a5565b610a2a565b005b6101fb60048036038101906101f69190611317565b610ef4565b604051610208919061173f565b60405180910390f35b6000610227826003610f5c90919063ffffffff16565b9050919050565b6000600660006007600085815260200190815260200160002060010154815260200190815260200160002060009054906101000a900461ffff1690506007600083815260200190815260200160002060010154600760008481526020019081526020016000206000015460008054906101000a900473ffffffffffffffffffffffffffffffffffffffff1673ffffffffffffffffffffffffffffffffffffffff166380477a4c6040518163ffffffff1660e01b815260040160206040518083038186803b1580156102fe57600080fd5b505afa158015610312573d6000803e3d6000fd5b505050506040513d601f19601f820116820180604052508101906103369190611340565b6103409190611873565b11610380576040517f08c379a000000000000000000000000000000000000000000000000000000000815260040161037790611624565b60405180910390fd5b60006007600084815260200190815260200160002060030154905060008054906101000a900473ffffffffffffffffffffffffffffffffffffffff1673ffffffffffffffffffffffffffffffffffffffff1663a9059cbb600160009054906101000a900473ffffffffffffffffffffffffffffffffffffffff1673ffffffffffffffffffffffffffffffffffffffff16636352211e866040518263ffffffff1660e01b8152600401610432919061173f565b60206040518083038186803b15801561044a57600080fd5b505afa15801561045e573d6000803e3d6000fd5b505050506040513d601f19601f8201168201806040525081019061048291906112c5565b606485606461049191906117b0565b61ffff16856104a09190611819565b6104aa91906117e8565b6040518363ffffffff1660e01b81526004016104c79291906115e0565b602060405180830381600087803b1580156104e157600080fd5b505af11580156104f5573d6000803e3d6000fd5b505050506040513d601f19601f8201168201806040525081019061051991906112ee565b50600160009054906101000a900473ffffffffffffffffffffffffffffffffffffffff1673ffffffffffffffffffffffffffffffffffffffff16639d118770846040518263ffffffff1660e01b8152600401610575919061173f565b600060405180830381600087803b15801561058f57600080fd5b505af11580156105a3573d6000803e3d6000fd5b505050506105bb836003610f7690919063ffffffff16565b50505050565b600260009054906101000a900473ffffffffffffffffffffffffffffffffffffffff1673ffffffffffffffffffffffffffffffffffffffff16610602610f90565b73ffffffffffffffffffffffffffffffffffffffff1614610658576040517f08c379a000000000000000000000000000000000000000000000000000000000815260040161064f906116e4565b60405180910390fd5b6000821161069b576040517f08c379a000000000000000000000000000000000000000000000000000000000815260040161069290611664565b60405180910390fd5b60008161ffff16116106e2576040517f08c379a00000000000000000000000000000000000000000000000000000000081526004016106d9906116c4565b60405180910390fd5b806006600084815260200190815260200160002060006101000a81548161ffff021916908361ffff1602179055505050565b60006107206003610f98565b905090565b61072d610f90565b73ffffffffffffffffffffffffffffffffffffffff16600160009054906101000a900473ffffffffffffffffffffffffffffffffffffffff1673ffffffffffffffffffffffffffffffffffffffff16636352211e836040518263ffffffff1660e01b815260040161079e919061173f565b60206040518083038186803b1580156107b657600080fd5b505afa1580156107ca573d6000803e3d6000fd5b505050506040513d601f19601f820116820180604052508101906107ee91906112c5565b73ffffffffffffffffffffffffffffffffffffffff161461080e57600080fd5b60006007600083815260200190815260200160002060030154905060008054906101000a900473ffffffffffffffffffffffffffffffffffffffff1673ffffffffffffffffffffffffffffffffffffffff1663a9059cbb61086d610f90565b836040518363ffffffff1660e01b815260040161088b9291906115e0565b602060405180830381600087803b1580156108a557600080fd5b505af11580156108b9573d6000803e3d6000fd5b505050506040513d601f19601f820116820180604052508101906108dd91906112ee565b50600160009054906101000a900473ffffffffffffffffffffffffffffffffffffffff1673ffffffffffffffffffffffffffffffffffffffff16639d118770836040518263ffffffff1660e01b8152600401610939919061173f565b600060405180830381600087803b15801561095357600080fd5b505af1158015610967573d6000803e3d6000fd5b5050505061097f826003610f7690919063ffffffff16565b505050565b60066020528060005260406000206000915054906101000a900461ffff1681565b600080600080600760008681526020019081526020016000206000015460076000878152602001908152602001600020600101546007600088815260200190815260200160002060020160009054906101000a900461ffff16600760008981526020019081526020016000206003015493509350935093509193509193565b60055481565b8061ffff166006600084815260200190815260200160002060009054906101000a900461ffff1661ffff1614610a95576040517f08c379a0000000000000000000000000000000000000000000000000000000008152600401610a8c90611684565b60405180910390fd5b600554831015610ada576040517f08c379a0000000000000000000000000000000000000000000000000000000008152600401610ad190611704565b60405180910390fd5b8260008054906101000a900473ffffffffffffffffffffffffffffffffffffffff1673ffffffffffffffffffffffffffffffffffffffff1663dd62ed3e610b1f610f90565b306040518363ffffffff1660e01b8152600401610b3d929190611557565b60206040518083038186803b158015610b5557600080fd5b505afa158015610b69573d6000803e3d6000fd5b505050506040513d601f19601f82011682018060405250810190610b8d9190611340565b1015610bce576040517f08c379a0000000000000000000000000000000000000000000000000000000008152600401610bc5906116a4565b60405180910390fd5b60008054906101000a900473ffffffffffffffffffffffffffffffffffffffff1673ffffffffffffffffffffffffffffffffffffffff166323b872dd610c12610f90565b30866040518463ffffffff1660e01b8152600401610c3293929190611580565b602060405180830381600087803b158015610c4c57600080fd5b505af1158015610c60573d6000803e3d6000fd5b505050506040513d601f19601f82011682018060405250810190610c8491906112ee565b50600160009054906101000a900473ffffffffffffffffffffffffffffffffffffffff1673ffffffffffffffffffffffffffffffffffffffff16635edfe0df610ccb610f90565b60006040518363ffffffff1660e01b8152600401610cea9291906115b7565b600060405180830381600087803b158015610d0457600080fd5b505af1158015610d18573d6000803e3d6000fd5b505050506000600160009054906101000a900473ffffffffffffffffffffffffffffffffffffffff1673ffffffffffffffffffffffffffffffffffffffff1663561892366040518163ffffffff1660e01b815260040160206040518083038186803b158015610d8657600080fd5b505afa158015610d9a573d6000803e3d6000fd5b505050506040513d601f19601f82011682018060405250810190610dbe9190611340565b9050604051806080016040528060008054906101000a900473ffffffffffffffffffffffffffffffffffffffff1673ffffffffffffffffffffffffffffffffffffffff166380477a4c6040518163ffffffff1660e01b815260040160206040518083038186803b158015610e3157600080fd5b505afa158015610e45573d6000803e3d6000fd5b505050506040513d601f19601f82011682018060405250810190610e699190611340565b81526020018481526020018361ffff1681526020018581525060076000838152602001908152602001600020600082015181600001556020820151816001015560408201518160020160006101000a81548161ffff021916908361ffff16021790555060608201518160030155905050610eed816003610fad90919063ffffffff16565b5050505050565b6000610f006003610f98565b8210610f41576040517f08c379a0000000000000000000000000000000000000000000000000000000008152600401610f3890611644565b60405180910390fd5b610f55826003610fc790919063ffffffff16565b9050919050565b6000610f6e836000018360001b610fe1565b905092915050565b6000610f88836000018360001b611004565b905092915050565b600033905090565b6000610fa68260000161118a565b9050919050565b6000610fbf836000018360001b61119b565b905092915050565b6000610fd6836000018361120b565b60001c905092915050565b600080836001016000848152602001908152602001600020541415905092915050565b6000808360010160008481526020019081526020016000205490506000811461117e5760006001826110369190611873565b905060006001866000018054905061104e9190611873565b9050818114611109576000866000018281548110611095577f4e487b7100000000000000000000000000000000000000000000000000000000600052603260045260246000fd5b90600052602060002001549050808760000184815481106110df577f4e487b7100000000000000000000000000000000000000000000000000000000600052603260045260246000fd5b90600052602060002001819055508387600101600083815260200190815260200160002081905550505b85600001805480611143577f4e487b7100000000000000000000000000000000000000000000000000000000600052603160045260246000fd5b600190038181906000526020600020016000905590558560010160008681526020019081526020016000206000905560019350505050611184565b60009150505b92915050565b600081600001805490509050919050565b60006111a78383610fe1565b611200578260000182908060018154018082558091505060019003906000526020600020016000909190919091505582600001805490508360010160008481526020019081526020016000208190555060019050611205565b600090505b92915050565b6000826000018281548110611249577f4e487b7100000000000000000000000000000000000000000000000000000000600052603260045260246000fd5b9060005260206000200154905092915050565b60008151905061126b81611b73565b92915050565b60008151905061128081611b8a565b92915050565b60008135905061129581611ba1565b92915050565b6000813590506112aa81611bb8565b92915050565b6000815190506112bf81611bb8565b92915050565b6000602082840312156112d757600080fd5b60006112e58482850161125c565b91505092915050565b60006020828403121561130057600080fd5b600061130e84828501611271565b91505092915050565b60006020828403121561132957600080fd5b60006113378482850161129b565b91505092915050565b60006020828403121561135257600080fd5b6000611360848285016112b0565b91505092915050565b6000806040838503121561137c57600080fd5b600061138a8582860161129b565b925050602061139b85828601611286565b9150509250929050565b6000806000606084860312156113ba57600080fd5b60006113c88682870161129b565b93505060206113d98682870161129b565b92505060406113ea86828701611286565b9150509250925092565b6113fd816118a7565b82525050565b61140c816118b9565b82525050565b61141b816118fd565b82525050565b600061142e60158361179f565b91506114398261196d565b602082019050919050565b6000611451600c8361179f565b915061145c82611996565b602082019050919050565b600061147460258361179f565b915061147f826119bf565b604082019050919050565b600061149760188361179f565b91506114a282611a0e565b602082019050919050565b60006114ba60428361179f565b91506114c582611a37565b606082019050919050565b60006114dd601d8361179f565b91506114e882611aac565b602082019050919050565b600061150060228361179f565b915061150b82611ad5565b604082019050919050565b6000611523602c8361179f565b915061152e82611b24565b604082019050919050565b611542816118c5565b82525050565b611551816118f3565b82525050565b600060408201905061156c60008301856113f4565b61157960208301846113f4565b9392505050565b600060608201905061159560008301866113f4565b6115a260208301856113f4565b6115af6040830184611548565b949350505050565b60006040820190506115cc60008301856113f4565b6115d96020830184611412565b9392505050565b60006040820190506115f560008301856113f4565b6116026020830184611548565b9392505050565b600060208201905061161e6000830184611403565b92915050565b6000602082019050818103600083015261163d81611421565b9050919050565b6000602082019050818103600083015261165d81611444565b9050919050565b6000602082019050818103600083015261167d81611467565b9050919050565b6000602082019050818103600083015261169d8161148a565b9050919050565b600060208201905081810360008301526116bd816114ad565b9050919050565b600060208201905081810360008301526116dd816114d0565b9050919050565b600060208201905081810360008301526116fd816114f3565b9050919050565b6000602082019050818103600083015261171d81611516565b9050919050565b60006020820190506117396000830184611539565b92915050565b60006020820190506117546000830184611548565b92915050565b600060808201905061176f6000830187611548565b61177c6020830186611548565b6117896040830185611539565b6117966060830184611548565b95945050505050565b600082825260208201905092915050565b60006117bb826118c5565b91506117c6836118c5565b92508261ffff038211156117dd576117dc61190f565b5b828201905092915050565b60006117f3826118f3565b91506117fe836118f3565b92508261180e5761180d61193e565b5b828204905092915050565b6000611824826118f3565b915061182f836118f3565b9250817fffffffffffffffffffffffffffffffffffffffffffffffffffffffffffffffff04831182151516156118685761186761190f565b5b828202905092915050565b600061187e826118f3565b9150611889836118f3565b92508282101561189c5761189b61190f565b5b828203905092915050565b60006118b2826118d3565b9050919050565b60008115159050919050565b600061ffff82169050919050565b600073ffffffffffffffffffffffffffffffffffffffff82169050919050565b6000819050919050565b6000611908826118c5565b9050919050565b7f4e487b7100000000000000000000000000000000000000000000000000000000600052601160045260246000fd5b7f4e487b7100000000000000000000000000000000000000000000000000000000600052601260045260246000fd5b7f546f6f206561726c7920746f2062652070617965640000000000000000000000600082015250565b7f496478206f766572666c6f770000000000000000000000000000000000000000600082015250565b7f4475726174696f6e20696e2064617973206d75737420626520696e207465206660008201527f7574757265000000000000000000000000000000000000000000000000000000602082015250565b7f4d757374206265206578697374696e672070726f647563740000000000000000600082015250565b7f5072657061726520616e20616c6c6f77616e636520776974682074686520636f60008201527f727265637420616d6f756e7420696e206f7264657220746f207375627363726960208201527f6265000000000000000000000000000000000000000000000000000000000000604082015250565b7f52617465206d7573742062652061206e6f6e207a65726f2076616c7565000000600082015250565b7f4f6e6c79206f776e657220697320616c6c6f77656420746f2063616c6c20746860008201527f6973000000000000000000000000000000000000000000000000000000000000602082015250565b7f4465706f73697420616d6f756e74206973206c657373207468616e206d696e6960008201527f6d756d2072657175697265640000000000000000000000000000000000000000602082015250565b611b7c816118a7565b8114611b8757600080fd5b50565b611b93816118b9565b8114611b9e57600080fd5b50565b611baa816118c5565b8114611bb557600080fd5b50565b611bc1816118f3565b8114611bcc57600080fd5b5056fea264697066735822122048ff3164dfd6fc3f676bcb76a62fc38f27f79c51255e1e2a586a35243101396664736f6c63430008030033",
  "immutableReferences": {},
  "source": "// SPDX-License-Identifier: MIT\n\npragma solidity ^0.8.0;\n\nimport \"./GenericProduct.sol\";\n\n/**\n * @dev Banking smart contracts - Term Deposit (Depot A Terme)\n * @author AshtonIzmev\n */\ncontract DAT is GenericProduct {\n\n    using EnumerableSet for EnumerableSet.UintSet;\n\n    uint256 public minimumAmount;\n\n    mapping (uint256 => uint16) public allowedParams;\n\n    struct Product {\n        uint256 _subscriptionDate;\n        uint256 _subscriptionDuration;\n        uint16 _subscriptionInterest;\n        uint256 _subscriptionAmount;\n    }\n\n    mapping (uint256 => Product) private _subscriptions;\n\n    modifier onlyOwner() {\n        require(\n            _msgSender() == _issuingBank,\n            \"Only owner is allowed to call this\"\n        );\n        _;\n    }\n\n    /**\n     * param minimumAmount      minimum amount deposited\n     */\n    constructor (uint256 minimumAmount_, address medToken_, address fpToken_) {\n        _issuingBank = _msgSender();\n        minimumAmount = minimumAmount_;\n        medToken = MED(medToken_);\n        fpToken = FP(fpToken_);\n    }\n\n    /**\n     * Set parameters for a new product\n     */\n    function setProduct(uint256 dayDuration, uint16 interestRate) public virtual onlyOwner {\n        require(dayDuration > 0, \"Duration in days must be in te future\");\n        require(interestRate > 0, \"Rate must be a non zero value\");\n        allowedParams[dayDuration] = interestRate;\n    }\n\n    /**\n     * Subscribe a new term deposit\n     */\n    function subscribe(uint256 depositAmount, uint256 dayDuration, uint16 interestRate) public virtual {\n        require(allowedParams[dayDuration] == interestRate, \"Must be existing product\");\n        require(depositAmount >= minimumAmount, \"Deposit amount is less than minimum required\");\n        require(medToken.allowance(_msgSender(), address(this)) >= depositAmount, \"Prepare an allowance with the correct amount in order to subscribe\");\n        medToken.transferFrom(_msgSender(), address(this), depositAmount);\n        fpToken.create(_msgSender(), 0);\n        uint256 tokenId = fpToken.getCurrentTokenId();\n        _subscriptions[tokenId] = Product(medToken.daysElapsed(), dayDuration, interestRate, depositAmount);\n        _subscriptionIds.add(tokenId);\n    }\n\n    /**\n     * Cancelling a DAT is getting reimbursed your initial deposit at anytime without any added interest\n     */\n    function cancelDat(uint256 tokenId) public virtual {\n        require(fpToken.ownerOf(tokenId) == _msgSender());\n        uint256 initialAmount = _subscriptions[tokenId]._subscriptionAmount;\n        medToken.transfer(_msgSender(), initialAmount);\n        fpToken.destroy(tokenId);\n        _subscriptionIds.remove(tokenId);\n    }\n\n    /**\n     * Get your principal and your interest once the term ended\n     */\n    function payDat(uint256 tokenId) public virtual {\n        uint16 interestRate = allowedParams[_subscriptions[tokenId]._subscriptionDuration];\n        require(medToken.daysElapsed() - _subscriptions[tokenId]._subscriptionDate > _subscriptions[tokenId]._subscriptionDuration, \n            \"Too early to be payed\");\n        uint256 initialAmount = _subscriptions[tokenId]._subscriptionAmount;\n        medToken.transfer(fpToken.ownerOf(tokenId), initialAmount * (100+interestRate) / 100);\n        fpToken.destroy(tokenId);\n        _subscriptionIds.remove(tokenId);        \n    }\n\n    function getProduct(uint256 tokenId) public view virtual returns (uint256, uint256, uint16, uint256) {\n        return (\n            _subscriptions[tokenId]._subscriptionDate,\n            _subscriptions[tokenId]._subscriptionDuration,\n            _subscriptions[tokenId]._subscriptionInterest,\n            _subscriptions[tokenId]._subscriptionAmount);\n    }\n\n}",
  "sourcePath": "/home/issam/git/solidity-contracts/sol/truffle/contracts/token/bank/DAT.sol",
  "compiler": {
    "name": "solc",
    "version": "0.8.3+commit.8d00100c.Emscripten.clang"
  },
  "schemaVersion": "3.2.4",
  "updatedAt": "2021-07-07T12:41:45.686Z",
  "networkType": "ethereum",
  "devdoc": {
    "author": "AshtonIzmev",
    "details": "Banking smart contracts - Term Deposit (Depot A Terme)",
    "kind": "dev",
    "methods": {},
    "version": 1
  },
  "userdoc": {
    "kind": "user",
    "methods": {
      "cancelDat(uint256)": {
        "notice": "Cancelling a DAT is getting reimbursed your initial deposit at anytime without any added interest"
      },
      "constructor": {
        "notice": "param minimumAmount      minimum amount deposited"
      },
      "payDat(uint256)": {
        "notice": "Get your principal and your interest once the term ended"
      },
      "setProduct(uint256,uint16)": {
        "notice": "Set parameters for a new product"
      },
      "subscribe(uint256,uint256,uint16)": {
        "notice": "Subscribe a new term deposit"
      }
    },
    "version": 1
  }
}