{
  "contractName": "Factoring",
  "abi": [
    {
      "inputs": [
        {
          "internalType": "address",
          "name": "medToken_",
          "type": "address"
        },
        {
          "internalType": "address",
          "name": "fpToken_",
          "type": "address"
        }
      ],
      "stateMutability": "nonpayable",
      "type": "constructor"
    },
    {
      "inputs": [
        {
          "internalType": "uint256",
          "name": "idx",
          "type": "uint256"
        }
      ],
      "name": "getSubscription",
      "outputs": [
        {
          "internalType": "uint256",
          "name": "",
          "type": "uint256"
        }
      ],
      "stateMutability": "view",
      "type": "function",
      "constant": true
    },
    {
      "inputs": [],
      "name": "getSubscriptionLength",
      "outputs": [
        {
          "internalType": "uint256",
          "name": "",
          "type": "uint256"
        }
      ],
      "stateMutability": "view",
      "type": "function",
      "constant": true
    },
    {
      "inputs": [
        {
          "internalType": "uint256",
          "name": "tokenId",
          "type": "uint256"
        }
      ],
      "name": "isSubscribed",
      "outputs": [
        {
          "internalType": "bool",
          "name": "",
          "type": "bool"
        }
      ],
      "stateMutability": "view",
      "type": "function",
      "constant": true
    },
    {
      "inputs": [
        {
          "internalType": "uint256",
          "name": "invoiceAmount_",
          "type": "uint256"
        },
        {
          "internalType": "address",
          "name": "borrower_",
          "type": "address"
        },
        {
          "internalType": "uint256",
          "name": "id_",
          "type": "uint256"
        }
      ],
      "name": "sellInvoice",
      "outputs": [],
      "stateMutability": "nonpayable",
      "type": "function"
    },
    {
      "inputs": [
        {
          "internalType": "uint256",
          "name": "tokenId",
          "type": "uint256"
        }
      ],
      "name": "validateInvoice",
      "outputs": [],
      "stateMutability": "nonpayable",
      "type": "function"
    },
    {
      "inputs": [
        {
          "internalType": "uint256",
          "name": "tokenId",
          "type": "uint256"
        }
      ],
      "name": "payInvoice",
      "outputs": [],
      "stateMutability": "nonpayable",
      "type": "function"
    },
    {
      "inputs": [
        {
          "internalType": "uint256",
          "name": "tokenId",
          "type": "uint256"
        }
      ],
      "name": "getProduct",
      "outputs": [
        {
          "internalType": "address",
          "name": "",
          "type": "address"
        },
        {
          "internalType": "uint256",
          "name": "",
          "type": "uint256"
        },
        {
          "internalType": "uint256",
          "name": "",
          "type": "uint256"
        },
        {
          "internalType": "bool",
          "name": "",
          "type": "bool"
        },
        {
          "internalType": "uint256",
          "name": "",
          "type": "uint256"
        }
      ],
      "stateMutability": "view",
      "type": "function",
      "constant": true
    }
  ],
  "bytecode": "0x60806040523480156200001157600080fd5b5060405162001582380380620015828339818101604052810190620000379190620000d7565b816000806101000a81548173ffffffffffffffffffffffffffffffffffffffff021916908373ffffffffffffffffffffffffffffffffffffffff16021790555080600160006101000a81548173ffffffffffffffffffffffffffffffffffffffff021916908373ffffffffffffffffffffffffffffffffffffffff160217905550505062000166565b600081519050620000d1816200014c565b92915050565b60008060408385031215620000eb57600080fd5b6000620000fb85828601620000c0565b92505060206200010e85828601620000c0565b9150509250929050565b600062000125826200012c565b9050919050565b600073ffffffffffffffffffffffffffffffffffffffff82169050919050565b620001578162000118565b81146200016357600080fd5b50565b61140c80620001766000396000f3fe608060405234801561001057600080fd5b506004361061007c5760003560e01c806370ee38711161005b57806370ee3871146100eb578063ac60a6cd14610107578063b9db15b414610123578063dc311dd3146101575761007c565b8062ffa189146100815780632530ea71146100b15780633b56c4c7146100cf575b600080fd5b61009b60048036038101906100969190610f3f565b610187565b6040516100a8919061115b565b60405180910390f35b6100b96101a4565b6040516100c691906111f6565b60405180910390f35b6100e960048036038101906100e49190610f3f565b6101b5565b005b61010560048036038101906101009190610f91565b610416565b005b610121600480360381019061011c9190610f3f565b6106e4565b005b61013d60048036038101906101389190610f3f565b610a61565b60405161014e959493929190611108565b60405180910390f35b610171600480360381019061016c9190610f3f565b610b1c565b60405161017e91906111f6565b60405180910390f35b600061019d826003610b8490919063ffffffff16565b9050919050565b60006101b06003610b9e565b905090565b6101be81610187565b6101fd576040517f08c379a00000000000000000000000000000000000000000000000000000000081526004016101f4906111d6565b60405180910390fd5b6000600560008381526020019081526020016000206040518060a00160405290816000820160009054906101000a900473ffffffffffffffffffffffffffffffffffffffff1673ffffffffffffffffffffffffffffffffffffffff1673ffffffffffffffffffffffffffffffffffffffff16815260200160018201548152602001600282015481526020016003820160009054906101000a900460ff1615151515815260200160048201548152505090506102b6610bb3565b73ffffffffffffffffffffffffffffffffffffffff16816000015173ffffffffffffffffffffffffffffffffffffffff1614610327576040517f08c379a000000000000000000000000000000000000000000000000000000000815260040161031e90611196565b60405180910390fd5b6040518060a00160405280826000015173ffffffffffffffffffffffffffffffffffffffff168152602001826020015181526020018260400151815260200160011515815260200182608001518152506005600084815260200190815260200160002060008201518160000160006101000a81548173ffffffffffffffffffffffffffffffffffffffff021916908373ffffffffffffffffffffffffffffffffffffffff160217905550602082015181600101556040820151816002015560608201518160030160006101000a81548160ff021916908315150217905550608082015181600401559050505050565b600160009054906101000a900473ffffffffffffffffffffffffffffffffffffffff1673ffffffffffffffffffffffffffffffffffffffff16635edfe0df61045c610bb3565b60016040518363ffffffff1660e01b815260040161047b9291906110df565b600060405180830381600087803b15801561049557600080fd5b505af11580156104a9573d6000803e3d6000fd5b505050506000600160009054906101000a900473ffffffffffffffffffffffffffffffffffffffff1673ffffffffffffffffffffffffffffffffffffffff1663561892366040518163ffffffff1660e01b815260040160206040518083038186803b15801561051757600080fd5b505afa15801561052b573d6000803e3d6000fd5b505050506040513d601f19601f8201168201806040525081019061054f9190610f68565b90506040518060a001604052808473ffffffffffffffffffffffffffffffffffffffff16815260200160008054906101000a900473ffffffffffffffffffffffffffffffffffffffff1673ffffffffffffffffffffffffffffffffffffffff166380477a4c6040518163ffffffff1660e01b815260040160206040518083038186803b1580156105de57600080fd5b505afa1580156105f2573d6000803e3d6000fd5b505050506040513d601f19601f820116820180604052508101906106169190610f68565b8152602001858152602001600015158152602001838152506005600083815260200190815260200160002060008201518160000160006101000a81548173ffffffffffffffffffffffffffffffffffffffff021916908373ffffffffffffffffffffffffffffffffffffffff160217905550602082015181600101556040820151816002015560608201518160030160006101000a81548160ff021916908315150217905550608082015181600401559050506106dd816003610bbb90919063ffffffff16565b5050505050565b6106ed81610187565b61072c576040517f08c379a0000000000000000000000000000000000000000000000000000000008152600401610723906111d6565b60405180910390fd5b6000600560008381526020019081526020016000206040518060a00160405290816000820160009054906101000a900473ffffffffffffffffffffffffffffffffffffffff1673ffffffffffffffffffffffffffffffffffffffff1673ffffffffffffffffffffffffffffffffffffffff16815260200160018201548152602001600282015481526020016003820160009054906101000a900460ff1615151515815260200160048201548152505090506107e5610bb3565b73ffffffffffffffffffffffffffffffffffffffff16816000015173ffffffffffffffffffffffffffffffffffffffff1614610856576040517f08c379a000000000000000000000000000000000000000000000000000000000815260040161084d906111b6565b60405180910390fd5b60008054906101000a900473ffffffffffffffffffffffffffffffffffffffff1673ffffffffffffffffffffffffffffffffffffffff166323b872dd61089a610bb3565b600160009054906101000a900473ffffffffffffffffffffffffffffffffffffffff1673ffffffffffffffffffffffffffffffffffffffff16636352211e866040518263ffffffff1660e01b81526004016108f591906111f6565b60206040518083038186803b15801561090d57600080fd5b505afa158015610921573d6000803e3d6000fd5b505050506040513d601f19601f820116820180604052508101906109459190610eed565b84604001516040518463ffffffff1660e01b8152600401610968939291906110a8565b602060405180830381600087803b15801561098257600080fd5b505af1158015610996573d6000803e3d6000fd5b505050506040513d601f19601f820116820180604052508101906109ba9190610f16565b50600160009054906101000a900473ffffffffffffffffffffffffffffffffffffffff1673ffffffffffffffffffffffffffffffffffffffff16639d118770836040518263ffffffff1660e01b8152600401610a1691906111f6565b600060405180830381600087803b158015610a3057600080fd5b505af1158015610a44573d6000803e3d6000fd5b50505050610a5c826003610bd590919063ffffffff16565b505050565b60008060008060006005600087815260200190815260200160002060000160009054906101000a900473ffffffffffffffffffffffffffffffffffffffff1660056000888152602001908152602001600020600101546005600089815260200190815260200160002060020154600560008a815260200190815260200160002060030160009054906101000a900460ff16600560008b8152602001908152602001600020600401549450945094509450945091939590929450565b6000610b286003610b9e565b8210610b69576040517f08c379a0000000000000000000000000000000000000000000000000000000008152600401610b6090611176565b60405180910390fd5b610b7d826003610bef90919063ffffffff16565b9050919050565b6000610b96836000018360001b610c09565b905092915050565b6000610bac82600001610c2c565b9050919050565b600033905090565b6000610bcd836000018360001b610c3d565b905092915050565b6000610be7836000018360001b610cad565b905092915050565b6000610bfe8360000183610e33565b60001c905092915050565b600080836001016000848152602001908152602001600020541415905092915050565b600081600001805490509050919050565b6000610c498383610c09565b610ca2578260000182908060018154018082558091505060019003906000526020600020016000909190919091505582600001805490508360010160008481526020019081526020016000208190555060019050610ca7565b600090505b92915050565b60008083600101600084815260200190815260200160002054905060008114610e27576000600182610cdf9190611222565b9050600060018660000180549050610cf79190611222565b9050818114610db2576000866000018281548110610d3e577f4e487b7100000000000000000000000000000000000000000000000000000000600052603260045260246000fd5b9060005260206000200154905080876000018481548110610d88577f4e487b7100000000000000000000000000000000000000000000000000000000600052603260045260246000fd5b90600052602060002001819055508387600101600083815260200190815260200160002081905550505b85600001805480610dec577f4e487b7100000000000000000000000000000000000000000000000000000000600052603160045260246000fd5b600190038181906000526020600020016000905590558560010160008681526020019081526020016000206000905560019350505050610e2d565b60009150505b92915050565b6000826000018281548110610e71577f4e487b7100000000000000000000000000000000000000000000000000000000600052603260045260246000fd5b9060005260206000200154905092915050565b600081359050610e9381611391565b92915050565b600081519050610ea881611391565b92915050565b600081519050610ebd816113a8565b92915050565b600081359050610ed2816113bf565b92915050565b600081519050610ee7816113bf565b92915050565b600060208284031215610eff57600080fd5b6000610f0d84828501610e99565b91505092915050565b600060208284031215610f2857600080fd5b6000610f3684828501610eae565b91505092915050565b600060208284031215610f5157600080fd5b6000610f5f84828501610ec3565b91505092915050565b600060208284031215610f7a57600080fd5b6000610f8884828501610ed8565b91505092915050565b600080600060608486031215610fa657600080fd5b6000610fb486828701610ec3565b9350506020610fc586828701610e84565b9250506040610fd686828701610ec3565b9150509250925092565b610fe981611256565b82525050565b610ff881611268565b82525050565b611007816112ac565b82525050565b600061101a600c83611211565b9150611025826112ed565b602082019050919050565b600061103d601a83611211565b915061104882611316565b602082019050919050565b6000611060601583611211565b915061106b8261133f565b602082019050919050565b6000611083601f83611211565b915061108e82611368565b602082019050919050565b6110a2816112a2565b82525050565b60006060820190506110bd6000830186610fe0565b6110ca6020830185610fe0565b6110d76040830184611099565b949350505050565b60006040820190506110f46000830185610fe0565b6111016020830184610ffe565b9392505050565b600060a08201905061111d6000830188610fe0565b61112a6020830187611099565b6111376040830186611099565b6111446060830185610fef565b6111516080830184611099565b9695505050505050565b60006020820190506111706000830184610fef565b92915050565b6000602082019050818103600083015261118f8161100d565b9050919050565b600060208201905081810360008301526111af81611030565b9050919050565b600060208201905081810360008301526111cf81611053565b9050919050565b600060208201905081810360008301526111ef81611076565b9050919050565b600060208201905061120b6000830184611099565b92915050565b600082825260208201905092915050565b600061122d826112a2565b9150611238836112a2565b92508282101561124b5761124a6112be565b5b828203905092915050565b600061126182611282565b9050919050565b60008115159050919050565b600061ffff82169050919050565b600073ffffffffffffffffffffffffffffffffffffffff82169050919050565b6000819050919050565b60006112b782611274565b9050919050565b7f4e487b7100000000000000000000000000000000000000000000000000000000600052601160045260246000fd5b7f496478206f766572666c6f770000000000000000000000000000000000000000600082015250565b7f4f6e6c7920626f72726f7765722063616e2076616c6964617465000000000000600082015250565b7f4f6e6c7920626f72726f7765722063616e207061790000000000000000000000600082015250565b7f4578697374696e6720466163746f72696e6720737562736372697074696f6e00600082015250565b61139a81611256565b81146113a557600080fd5b50565b6113b181611268565b81146113bc57600080fd5b50565b6113c8816112a2565b81146113d357600080fd5b5056fea26469706673582212203ab3f2b91ddaa60de1710951441607a4f50990f937a3b54b09d2e4e0863c367164736f6c63430008030033",
  "immutableReferences": {},
  "source": "// SPDX-License-Identifier: MIT\n\npragma solidity ^0.8.0;\n\nimport \"./GenericProduct.sol\";\n\n/**\n * @dev Banking smart contracts - Factoring\n * @author AshtonIzmev\n */\ncontract Factoring is GenericProduct {\n\n    using EnumerableSet for EnumerableSet.UintSet;\n\n    struct Product {\n        address _borrower;\n        uint256 _factoringDate;\n        uint256 _factoringAmount;\n        bool _validated;\n        uint256 _id;\n    }\n\n    mapping (uint256 => Product) private _subscriptions;\n\n    constructor (address medToken_, address fpToken_) {\n        medToken = MED(medToken_);\n        fpToken = FP(fpToken_);\n    }\n\n    /**\n     * Get a token in exchange of an invoice\n     */\n    function sellInvoice(uint256 invoiceAmount_, address borrower_, uint256 id_) public virtual {\n        fpToken.create(_msgSender(), 1);\n        uint256 tokenId = fpToken.getCurrentTokenId();\n        _subscriptions[tokenId] = Product(borrower_, medToken.daysElapsed(), invoiceAmount_, false, id_);\n        _subscriptionIds.add(tokenId);\n    }\n\n    /**\n     * Validate an invoice\n     */\n    function validateInvoice(uint256 tokenId) public virtual {\n        require(isSubscribed(tokenId), \"Existing Factoring subscription\");\n        Product memory prod = _subscriptions[tokenId];\n        require(prod._borrower == _msgSender(), \"Only borrower can validate\");\n        _subscriptions[tokenId] = \n            Product(prod._borrower, prod._factoringDate, prod._factoringAmount, true, prod._id);\n    }\n\n    /**\n     * Pay the owner of the FP NFT invoice representation\n     */\n    function payInvoice(uint256 tokenId) public virtual {\n        require(isSubscribed(tokenId), \"Existing Factoring subscription\");\n        Product memory prod = _subscriptions[tokenId];\n        require(prod._borrower == _msgSender(), \"Only borrower can pay\");\n        medToken.transferFrom(_msgSender(), fpToken.ownerOf(tokenId), prod._factoringAmount);\n        fpToken.destroy(tokenId);\n        _subscriptionIds.remove(tokenId);\n    }\n\n    function getProduct(uint256 tokenId) public view virtual returns (address, uint256, uint256, bool, uint256) {\n        return (\n            _subscriptions[tokenId]._borrower,\n            _subscriptions[tokenId]._factoringDate,\n            _subscriptions[tokenId]._factoringAmount,\n            _subscriptions[tokenId]._validated,\n            _subscriptions[tokenId]._id);\n    }\n\n}",
  "sourcePath": "/home/issam/git/solidity-contracts/sol/truffle/contracts/token/bank/Factoring.sol",
  "compiler": {
    "name": "solc",
    "version": "0.8.3+commit.8d00100c.Emscripten.clang"
  },
  "schemaVersion": "3.2.4",
  "updatedAt": "2021-07-07T12:41:45.692Z",
  "networkType": "ethereum",
  "devdoc": {
    "author": "AshtonIzmev",
    "details": "Banking smart contracts - Factoring",
    "kind": "dev",
    "methods": {},
    "version": 1
  },
  "userdoc": {
    "kind": "user",
    "methods": {
      "payInvoice(uint256)": {
        "notice": "Pay the owner of the FP NFT invoice representation"
      },
      "sellInvoice(uint256,address,uint256)": {
        "notice": "Get a token in exchange of an invoice"
      },
      "validateInvoice(uint256)": {
        "notice": "Validate an invoice"
      }
    },
    "version": 1
  }
}