{
  "contractName": "FP",
  "abi": [
    {
      "inputs": [
        {
          "internalType": "string",
          "name": "name_",
          "type": "string"
        },
        {
          "internalType": "string",
          "name": "symbol_",
          "type": "string"
        }
      ],
      "stateMutability": "nonpayable",
      "type": "constructor"
    },
    {
      "anonymous": false,
      "inputs": [
        {
          "indexed": true,
          "internalType": "address",
          "name": "owner",
          "type": "address"
        },
        {
          "indexed": true,
          "internalType": "address",
          "name": "approved",
          "type": "address"
        },
        {
          "indexed": true,
          "internalType": "uint256",
          "name": "tokenId",
          "type": "uint256"
        }
      ],
      "name": "Approval",
      "type": "event"
    },
    {
      "anonymous": false,
      "inputs": [
        {
          "indexed": true,
          "internalType": "address",
          "name": "owner",
          "type": "address"
        },
        {
          "indexed": true,
          "internalType": "address",
          "name": "operator",
          "type": "address"
        },
        {
          "indexed": false,
          "internalType": "bool",
          "name": "approved",
          "type": "bool"
        }
      ],
      "name": "ApprovalForAll",
      "type": "event"
    },
    {
      "anonymous": false,
      "inputs": [
        {
          "indexed": true,
          "internalType": "address",
          "name": "from",
          "type": "address"
        },
        {
          "indexed": true,
          "internalType": "address",
          "name": "to",
          "type": "address"
        },
        {
          "indexed": true,
          "internalType": "uint256",
          "name": "tokenId",
          "type": "uint256"
        }
      ],
      "name": "Transfer",
      "type": "event"
    },
    {
      "inputs": [
        {
          "internalType": "address",
          "name": "to",
          "type": "address"
        },
        {
          "internalType": "uint256",
          "name": "tokenId",
          "type": "uint256"
        }
      ],
      "name": "approve",
      "outputs": [],
      "stateMutability": "nonpayable",
      "type": "function"
    },
    {
      "inputs": [
        {
          "internalType": "address",
          "name": "owner",
          "type": "address"
        }
      ],
      "name": "balanceOf",
      "outputs": [
        {
          "internalType": "uint256",
          "name": "",
          "type": "uint256"
        }
      ],
      "stateMutability": "view",
      "type": "function",
      "constant": true
    },
    {
      "inputs": [
        {
          "internalType": "uint256",
          "name": "tokenId",
          "type": "uint256"
        }
      ],
      "name": "getApproved",
      "outputs": [
        {
          "internalType": "address",
          "name": "",
          "type": "address"
        }
      ],
      "stateMutability": "view",
      "type": "function",
      "constant": true
    },
    {
      "inputs": [
        {
          "internalType": "address",
          "name": "owner",
          "type": "address"
        },
        {
          "internalType": "address",
          "name": "operator",
          "type": "address"
        }
      ],
      "name": "isApprovedForAll",
      "outputs": [
        {
          "internalType": "bool",
          "name": "",
          "type": "bool"
        }
      ],
      "stateMutability": "view",
      "type": "function",
      "constant": true
    },
    {
      "inputs": [],
      "name": "issuingBank",
      "outputs": [
        {
          "internalType": "address",
          "name": "",
          "type": "address"
        }
      ],
      "stateMutability": "view",
      "type": "function",
      "constant": true
    },
    {
      "inputs": [],
      "name": "name",
      "outputs": [
        {
          "internalType": "string",
          "name": "",
          "type": "string"
        }
      ],
      "stateMutability": "view",
      "type": "function",
      "constant": true
    },
    {
      "inputs": [
        {
          "internalType": "uint256",
          "name": "tokenId",
          "type": "uint256"
        }
      ],
      "name": "ownerOf",
      "outputs": [
        {
          "internalType": "address",
          "name": "",
          "type": "address"
        }
      ],
      "stateMutability": "view",
      "type": "function",
      "constant": true
    },
    {
      "inputs": [
        {
          "internalType": "address",
          "name": "from",
          "type": "address"
        },
        {
          "internalType": "address",
          "name": "to",
          "type": "address"
        },
        {
          "internalType": "uint256",
          "name": "tokenId",
          "type": "uint256"
        }
      ],
      "name": "safeTransferFrom",
      "outputs": [],
      "stateMutability": "nonpayable",
      "type": "function"
    },
    {
      "inputs": [
        {
          "internalType": "address",
          "name": "from",
          "type": "address"
        },
        {
          "internalType": "address",
          "name": "to",
          "type": "address"
        },
        {
          "internalType": "uint256",
          "name": "tokenId",
          "type": "uint256"
        },
        {
          "internalType": "bytes",
          "name": "_data",
          "type": "bytes"
        }
      ],
      "name": "safeTransferFrom",
      "outputs": [],
      "stateMutability": "nonpayable",
      "type": "function"
    },
    {
      "inputs": [
        {
          "internalType": "address",
          "name": "operator",
          "type": "address"
        },
        {
          "internalType": "bool",
          "name": "approved",
          "type": "bool"
        }
      ],
      "name": "setApprovalForAll",
      "outputs": [],
      "stateMutability": "nonpayable",
      "type": "function"
    },
    {
      "inputs": [
        {
          "internalType": "bytes4",
          "name": "interfaceId",
          "type": "bytes4"
        }
      ],
      "name": "supportsInterface",
      "outputs": [
        {
          "internalType": "bool",
          "name": "",
          "type": "bool"
        }
      ],
      "stateMutability": "view",
      "type": "function",
      "constant": true
    },
    {
      "inputs": [],
      "name": "symbol",
      "outputs": [
        {
          "internalType": "string",
          "name": "",
          "type": "string"
        }
      ],
      "stateMutability": "view",
      "type": "function",
      "constant": true
    },
    {
      "inputs": [
        {
          "internalType": "uint256",
          "name": "tokenId",
          "type": "uint256"
        }
      ],
      "name": "tokenURI",
      "outputs": [
        {
          "internalType": "string",
          "name": "",
          "type": "string"
        }
      ],
      "stateMutability": "view",
      "type": "function",
      "constant": true
    },
    {
      "inputs": [
        {
          "internalType": "address",
          "name": "from",
          "type": "address"
        },
        {
          "internalType": "address",
          "name": "to",
          "type": "address"
        },
        {
          "internalType": "uint256",
          "name": "tokenId",
          "type": "uint256"
        }
      ],
      "name": "transferFrom",
      "outputs": [],
      "stateMutability": "nonpayable",
      "type": "function"
    },
    {
      "inputs": [],
      "name": "getCurrentTokenId",
      "outputs": [
        {
          "internalType": "uint256",
          "name": "",
          "type": "uint256"
        }
      ],
      "stateMutability": "view",
      "type": "function",
      "constant": true
    },
    {
      "inputs": [
        {
          "internalType": "uint256",
          "name": "tokenId",
          "type": "uint256"
        }
      ],
      "name": "getKind",
      "outputs": [
        {
          "internalType": "uint16",
          "name": "",
          "type": "uint16"
        }
      ],
      "stateMutability": "view",
      "type": "function",
      "constant": true
    },
    {
      "inputs": [
        {
          "internalType": "address",
          "name": "buyer",
          "type": "address"
        },
        {
          "internalType": "uint16",
          "name": "kind_",
          "type": "uint16"
        }
      ],
      "name": "create",
      "outputs": [],
      "stateMutability": "nonpayable",
      "type": "function"
    },
    {
      "inputs": [
        {
          "internalType": "uint256",
          "name": "tokenId",
          "type": "uint256"
        }
      ],
      "name": "destroy",
      "outputs": [],
      "stateMutability": "nonpayable",
      "type": "function"
    }
  ],
  "bytecode": "0x60806040523480156200001157600080fd5b5060405162002fa238038062002fa28339818101604052810190620000379190620001ef565b8181816000908051906020019062000051929190620000cd565b5080600190805190602001906200006a929190620000cd565b5050506200007d620000c560201b60201c565b600860006101000a81548173ffffffffffffffffffffffffffffffffffffffff021916908373ffffffffffffffffffffffffffffffffffffffff1602179055505050620003d2565b600033905090565b828054620000db90620002f7565b90600052602060002090601f016020900481019282620000ff57600085556200014b565b82601f106200011a57805160ff19168380011785556200014b565b828001600101855582156200014b579182015b828111156200014a5782518255916020019190600101906200012d565b5b5090506200015a91906200015e565b5090565b5b80821115620001795760008160009055506001016200015f565b5090565b6000620001946200018e846200028b565b62000262565b905082815260208101848484011115620001ad57600080fd5b620001ba848285620002c1565b509392505050565b600082601f830112620001d457600080fd5b8151620001e68482602086016200017d565b91505092915050565b600080604083850312156200020357600080fd5b600083015167ffffffffffffffff8111156200021e57600080fd5b6200022c85828601620001c2565b925050602083015167ffffffffffffffff8111156200024a57600080fd5b6200025885828601620001c2565b9150509250929050565b60006200026e62000281565b90506200027c82826200032d565b919050565b6000604051905090565b600067ffffffffffffffff821115620002a957620002a862000392565b5b620002b482620003c1565b9050602081019050919050565b60005b83811015620002e1578082015181840152602081019050620002c4565b83811115620002f1576000848401525b50505050565b600060028204905060018216806200031057607f821691505b6020821081141562000327576200032662000363565b5b50919050565b6200033882620003c1565b810181811067ffffffffffffffff821117156200035a576200035962000392565b5b80604052505050565b7f4e487b7100000000000000000000000000000000000000000000000000000000600052602260045260246000fd5b7f4e487b7100000000000000000000000000000000000000000000000000000000600052604160045260246000fd5b6000601f19601f8301169050919050565b612bc080620003e26000396000f3fe608060405234801561001057600080fd5b50600436106101165760003560e01c806364615cc2116100a25780639d118770116100715780639d118770146102f3578063a22cb4651461030f578063b88d4fde1461032b578063c87b56dd14610347578063e985e9c51461037757610116565b806364615cc2146102575780636ca8fede1461027557806370a08231146102a557806395d89b41146102d557610116565b806323b872dd116100e957806323b872dd146101b557806342842e0e146101d157806356189236146101ed5780635edfe0df1461020b5780636352211e1461022757610116565b806301ffc9a71461011b57806306fdde031461014b578063081812fc14610169578063095ea7b314610199575b600080fd5b61013560048036038101906101309190611d07565b6103a7565b60405161014291906120f9565b60405180910390f35b610153610489565b6040516101609190612114565b60405180910390f35b610183600480360381019061017e9190611d59565b61051b565b6040516101909190612092565b60405180910390f35b6101b360048036038101906101ae9190611ccb565b6105a0565b005b6101cf60048036038101906101ca9190611b89565b6106b8565b005b6101eb60048036038101906101e69190611b89565b610718565b005b6101f5610738565b6040516102029190612331565b60405180910390f35b61022560048036038101906102209190611c8f565b610749565b005b610241600480360381019061023c9190611d59565b610813565b60405161024e9190612092565b60405180910390f35b61025f6108c5565b60405161026c9190612092565b60405180910390f35b61028f600480360381019061028a9190611d59565b6108eb565b60405161029c9190612316565b60405180910390f35b6102bf60048036038101906102ba9190611b24565b610916565b6040516102cc9190612331565b60405180910390f35b6102dd6109ce565b6040516102ea9190612114565b60405180910390f35b61030d60048036038101906103089190611d59565b610a60565b005b61032960048036038101906103249190611c53565b610ade565b005b61034560048036038101906103409190611bd8565b610c5f565b005b610361600480360381019061035c9190611d59565b610cc1565b60405161036e9190612114565b60405180910390f35b610391600480360381019061038c9190611b4d565b610d68565b60405161039e91906120f9565b60405180910390f35b60007f80ac58cd000000000000000000000000000000000000000000000000000000007bffffffffffffffffffffffffffffffffffffffffffffffffffffffff1916827bffffffffffffffffffffffffffffffffffffffffffffffffffffffff1916148061047257507f5b5e139f000000000000000000000000000000000000000000000000000000007bffffffffffffffffffffffffffffffffffffffffffffffffffffffff1916827bffffffffffffffffffffffffffffffffffffffffffffffffffffffff1916145b80610482575061048182610dfc565b5b9050919050565b60606000805461049890612564565b80601f01602080910402602001604051908101604052809291908181526020018280546104c490612564565b80156105115780601f106104e657610100808354040283529160200191610511565b820191906000526020600020905b8154815290600101906020018083116104f457829003601f168201915b5050505050905090565b600061052682610e66565b610565576040517f08c379a000000000000000000000000000000000000000000000000000000000815260040161055c90612276565b60405180910390fd5b6004600083815260200190815260200160002060009054906101000a900473ffffffffffffffffffffffffffffffffffffffff169050919050565b60006105ab82610813565b90508073ffffffffffffffffffffffffffffffffffffffff168373ffffffffffffffffffffffffffffffffffffffff16141561061c576040517f08c379a0000000000000000000000000000000000000000000000000000000008152600401610613906122d6565b60405180910390fd5b8073ffffffffffffffffffffffffffffffffffffffff1661063b610ed2565b73ffffffffffffffffffffffffffffffffffffffff16148061066a575061066981610664610ed2565b610d68565b5b6106a9576040517f08c379a00000000000000000000000000000000000000000000000000000000081526004016106a0906121f6565b60405180910390fd5b6106b38383610eda565b505050565b6106c96106c3610ed2565b82610f93565b610708576040517f08c379a00000000000000000000000000000000000000000000000000000000081526004016106ff906122f6565b60405180910390fd5b610713838383611071565b505050565b61073383838360405180602001604052806000815250610c5f565b505050565b600061074460066112cd565b905090565b61077c600860009054906101000a900473ffffffffffffffffffffffffffffffffffffffff16610777610ed2565b610d68565b6107bb576040517f08c379a00000000000000000000000000000000000000000000000000000000081526004016107b290612176565b60405180910390fd5b6107c560066112db565b80600760006107d460066112cd565b815260200190815260200160002060006101000a81548161ffff021916908361ffff16021790555061080f8261080a60066112cd565b6112f1565b5050565b6000806002600084815260200190815260200160002060009054906101000a900473ffffffffffffffffffffffffffffffffffffffff169050600073ffffffffffffffffffffffffffffffffffffffff168173ffffffffffffffffffffffffffffffffffffffff1614156108bc576040517f08c379a00000000000000000000000000000000000000000000000000000000081526004016108b390612236565b60405180910390fd5b80915050919050565b600860009054906101000a900473ffffffffffffffffffffffffffffffffffffffff1681565b60006007600083815260200190815260200160002060009054906101000a900461ffff169050919050565b60008073ffffffffffffffffffffffffffffffffffffffff168273ffffffffffffffffffffffffffffffffffffffff161415610987576040517f08c379a000000000000000000000000000000000000000000000000000000000815260040161097e90612216565b60405180910390fd5b600360008373ffffffffffffffffffffffffffffffffffffffff1673ffffffffffffffffffffffffffffffffffffffff168152602001908152602001600020549050919050565b6060600180546109dd90612564565b80601f0160208091040260200160405190810160405280929190818152602001828054610a0990612564565b8015610a565780601f10610a2b57610100808354040283529160200191610a56565b820191906000526020600020905b815481529060010190602001808311610a3957829003601f168201915b5050505050905090565b610a93600860009054906101000a900473ffffffffffffffffffffffffffffffffffffffff16610a8e610ed2565b610d68565b610ad2576040517f08c379a0000000000000000000000000000000000000000000000000000000008152600401610ac990612176565b60405180910390fd5b610adb8161130f565b50565b610ae6610ed2565b73ffffffffffffffffffffffffffffffffffffffff168273ffffffffffffffffffffffffffffffffffffffff161415610b54576040517f08c379a0000000000000000000000000000000000000000000000000000000008152600401610b4b906121b6565b60405180910390fd5b8060056000610b61610ed2565b73ffffffffffffffffffffffffffffffffffffffff1673ffffffffffffffffffffffffffffffffffffffff16815260200190815260200160002060008473ffffffffffffffffffffffffffffffffffffffff1673ffffffffffffffffffffffffffffffffffffffff16815260200190815260200160002060006101000a81548160ff0219169083151502179055508173ffffffffffffffffffffffffffffffffffffffff16610c0e610ed2565b73ffffffffffffffffffffffffffffffffffffffff167f17307eab39ab6107e8899845ad3d59bd9653f200f220920489ca2b5937696c3183604051610c5391906120f9565b60405180910390a35050565b610c70610c6a610ed2565b83610f93565b610caf576040517f08c379a0000000000000000000000000000000000000000000000000000000008152600401610ca6906122f6565b60405180910390fd5b610cbb84848484611420565b50505050565b6060610ccc82610e66565b610d0b576040517f08c379a0000000000000000000000000000000000000000000000000000000008152600401610d02906122b6565b60405180910390fd5b6000610d1561147c565b90506000815111610d355760405180602001604052806000815250610d60565b80610d3f846114b9565b604051602001610d5092919061206e565b6040516020818303038152906040525b915050919050565b6000600560008473ffffffffffffffffffffffffffffffffffffffff1673ffffffffffffffffffffffffffffffffffffffff16815260200190815260200160002060008373ffffffffffffffffffffffffffffffffffffffff1673ffffffffffffffffffffffffffffffffffffffff16815260200190815260200160002060009054906101000a900460ff16905092915050565b60007f01ffc9a7000000000000000000000000000000000000000000000000000000007bffffffffffffffffffffffffffffffffffffffffffffffffffffffff1916827bffffffffffffffffffffffffffffffffffffffffffffffffffffffff1916149050919050565b60008073ffffffffffffffffffffffffffffffffffffffff166002600084815260200190815260200160002060009054906101000a900473ffffffffffffffffffffffffffffffffffffffff1673ffffffffffffffffffffffffffffffffffffffff1614159050919050565b600033905090565b816004600083815260200190815260200160002060006101000a81548173ffffffffffffffffffffffffffffffffffffffff021916908373ffffffffffffffffffffffffffffffffffffffff160217905550808273ffffffffffffffffffffffffffffffffffffffff16610f4d83610813565b73ffffffffffffffffffffffffffffffffffffffff167f8c5be1e5ebec7d5bd14f71427d1e84f3dd0314c0f7b2291e5b200ac8c7c3b92560405160405180910390a45050565b6000610f9e82610e66565b610fdd576040517f08c379a0000000000000000000000000000000000000000000000000000000008152600401610fd4906121d6565b60405180910390fd5b6000610fe883610813565b90508073ffffffffffffffffffffffffffffffffffffffff168473ffffffffffffffffffffffffffffffffffffffff16148061105757508373ffffffffffffffffffffffffffffffffffffffff1661103f8461051b565b73ffffffffffffffffffffffffffffffffffffffff16145b8061106857506110678185610d68565b5b91505092915050565b8273ffffffffffffffffffffffffffffffffffffffff1661109182610813565b73ffffffffffffffffffffffffffffffffffffffff16146110e7576040517f08c379a00000000000000000000000000000000000000000000000000000000081526004016110de90612296565b60405180910390fd5b600073ffffffffffffffffffffffffffffffffffffffff168273ffffffffffffffffffffffffffffffffffffffff161415611157576040517f08c379a000000000000000000000000000000000000000000000000000000000815260040161114e90612196565b60405180910390fd5b611162838383611666565b61116d600082610eda565b6001600360008573ffffffffffffffffffffffffffffffffffffffff1673ffffffffffffffffffffffffffffffffffffffff16815260200190815260200160002060008282546111bd919061246c565b925050819055506001600360008473ffffffffffffffffffffffffffffffffffffffff1673ffffffffffffffffffffffffffffffffffffffff168152602001908152602001600020600082825461121491906123e5565b92505081905550816002600083815260200190815260200160002060006101000a81548173ffffffffffffffffffffffffffffffffffffffff021916908373ffffffffffffffffffffffffffffffffffffffff160217905550808273ffffffffffffffffffffffffffffffffffffffff168473ffffffffffffffffffffffffffffffffffffffff167fddf252ad1be2c89b69c2b068fc378daa952ba7f163c4a11628f55a4df523b3ef60405160405180910390a4505050565b600081600001549050919050565b6001816000016000828254019250508190555050565b61130b82826040518060200160405280600081525061166b565b5050565b600061131a82610813565b905061132881600084611666565b611333600083610eda565b6001600360008373ffffffffffffffffffffffffffffffffffffffff1673ffffffffffffffffffffffffffffffffffffffff1681526020019081526020016000206000828254611383919061246c565b925050819055506002600083815260200190815260200160002060006101000a81549073ffffffffffffffffffffffffffffffffffffffff021916905581600073ffffffffffffffffffffffffffffffffffffffff168273ffffffffffffffffffffffffffffffffffffffff167fddf252ad1be2c89b69c2b068fc378daa952ba7f163c4a11628f55a4df523b3ef60405160405180910390a45050565b61142b848484611071565b611437848484846116c6565b611476576040517f08c379a000000000000000000000000000000000000000000000000000000000815260040161146d90612136565b60405180910390fd5b50505050565b60606040518060400160405280601381526020017f68747470733a2f2f637572696575782e6d612f00000000000000000000000000815250905090565b60606000821415611501576040518060400160405280600181526020017f30000000000000000000000000000000000000000000000000000000000000008152509050611661565b600082905060005b6000821461153357808061151c906125c7565b915050600a8261152c919061243b565b9150611509565b60008167ffffffffffffffff811115611575577f4e487b7100000000000000000000000000000000000000000000000000000000600052604160045260246000fd5b6040519080825280601f01601f1916602001820160405280156115a75781602001600182028036833780820191505090505b5090505b6000851461165a576001826115c0919061246c565b9150600a856115cf9190612610565b60306115db91906123e5565b60f81b818381518110611617577f4e487b7100000000000000000000000000000000000000000000000000000000600052603260045260246000fd5b60200101907effffffffffffffffffffffffffffffffffffffffffffffffffffffffffffff1916908160001a905350600a85611653919061243b565b94506115ab565b8093505050505b919050565b505050565b611675838361185d565b61168260008484846116c6565b6116c1576040517f08c379a00000000000000000000000000000000000000000000000000000000081526004016116b890612136565b60405180910390fd5b505050565b60006116e78473ffffffffffffffffffffffffffffffffffffffff16611a2b565b15611850578373ffffffffffffffffffffffffffffffffffffffff1663150b7a02611710610ed2565b8786866040518563ffffffff1660e01b815260040161173294939291906120ad565b602060405180830381600087803b15801561174c57600080fd5b505af192505050801561177d57506040513d601f19601f8201168201806040525081019061177a9190611d30565b60015b611800573d80600081146117ad576040519150601f19603f3d011682016040523d82523d6000602084013e6117b2565b606091505b506000815114156117f8576040517f08c379a00000000000000000000000000000000000000000000000000000000081526004016117ef90612136565b60405180910390fd5b805181602001fd5b63150b7a0260e01b7bffffffffffffffffffffffffffffffffffffffffffffffffffffffff1916817bffffffffffffffffffffffffffffffffffffffffffffffffffffffff191614915050611855565b600190505b949350505050565b600073ffffffffffffffffffffffffffffffffffffffff168273ffffffffffffffffffffffffffffffffffffffff1614156118cd576040517f08c379a00000000000000000000000000000000000000000000000000000000081526004016118c490612256565b60405180910390fd5b6118d681610e66565b15611916576040517f08c379a000000000000000000000000000000000000000000000000000000000815260040161190d90612156565b60405180910390fd5b61192260008383611666565b6001600360008473ffffffffffffffffffffffffffffffffffffffff1673ffffffffffffffffffffffffffffffffffffffff168152602001908152602001600020600082825461197291906123e5565b92505081905550816002600083815260200190815260200160002060006101000a81548173ffffffffffffffffffffffffffffffffffffffff021916908373ffffffffffffffffffffffffffffffffffffffff160217905550808273ffffffffffffffffffffffffffffffffffffffff16600073ffffffffffffffffffffffffffffffffffffffff167fddf252ad1be2c89b69c2b068fc378daa952ba7f163c4a11628f55a4df523b3ef60405160405180910390a45050565b600080823b905060008111915050919050565b6000611a51611a4c84612371565b61234c565b905082815260208101848484011115611a6957600080fd5b611a74848285612522565b509392505050565b600081359050611a8b81612b17565b92915050565b600081359050611aa081612b2e565b92915050565b600081359050611ab581612b45565b92915050565b600081519050611aca81612b45565b92915050565b600082601f830112611ae157600080fd5b8135611af1848260208601611a3e565b91505092915050565b600081359050611b0981612b5c565b92915050565b600081359050611b1e81612b73565b92915050565b600060208284031215611b3657600080fd5b6000611b4484828501611a7c565b91505092915050565b60008060408385031215611b6057600080fd5b6000611b6e85828601611a7c565b9250506020611b7f85828601611a7c565b9150509250929050565b600080600060608486031215611b9e57600080fd5b6000611bac86828701611a7c565b9350506020611bbd86828701611a7c565b9250506040611bce86828701611b0f565b9150509250925092565b60008060008060808587031215611bee57600080fd5b6000611bfc87828801611a7c565b9450506020611c0d87828801611a7c565b9350506040611c1e87828801611b0f565b925050606085013567ffffffffffffffff811115611c3b57600080fd5b611c4787828801611ad0565b91505092959194509250565b60008060408385031215611c6657600080fd5b6000611c7485828601611a7c565b9250506020611c8585828601611a91565b9150509250929050565b60008060408385031215611ca257600080fd5b6000611cb085828601611a7c565b9250506020611cc185828601611afa565b9150509250929050565b60008060408385031215611cde57600080fd5b6000611cec85828601611a7c565b9250506020611cfd85828601611b0f565b9150509250929050565b600060208284031215611d1957600080fd5b6000611d2784828501611aa6565b91505092915050565b600060208284031215611d4257600080fd5b6000611d5084828501611abb565b91505092915050565b600060208284031215611d6b57600080fd5b6000611d7984828501611b0f565b91505092915050565b611d8b816124a0565b82525050565b611d9a816124b2565b82525050565b6000611dab826123a2565b611db581856123b8565b9350611dc5818560208601612531565b611dce816126fd565b840191505092915050565b6000611de4826123ad565b611dee81856123c9565b9350611dfe818560208601612531565b611e07816126fd565b840191505092915050565b6000611e1d826123ad565b611e2781856123da565b9350611e37818560208601612531565b80840191505092915050565b6000611e506032836123c9565b9150611e5b8261270e565b604082019050919050565b6000611e73601c836123c9565b9150611e7e8261275d565b602082019050919050565b6000611e96601e836123c9565b9150611ea182612786565b602082019050919050565b6000611eb96024836123c9565b9150611ec4826127af565b604082019050919050565b6000611edc6019836123c9565b9150611ee7826127fe565b602082019050919050565b6000611eff602c836123c9565b9150611f0a82612827565b604082019050919050565b6000611f226038836123c9565b9150611f2d82612876565b604082019050919050565b6000611f45602a836123c9565b9150611f50826128c5565b604082019050919050565b6000611f686029836123c9565b9150611f7382612914565b604082019050919050565b6000611f8b6020836123c9565b9150611f9682612963565b602082019050919050565b6000611fae602c836123c9565b9150611fb98261298c565b604082019050919050565b6000611fd16029836123c9565b9150611fdc826129db565b604082019050919050565b6000611ff4602f836123c9565b9150611fff82612a2a565b604082019050919050565b60006120176021836123c9565b915061202282612a79565b604082019050919050565b600061203a6031836123c9565b915061204582612ac8565b604082019050919050565b612059816124ea565b82525050565b61206881612518565b82525050565b600061207a8285611e12565b91506120868284611e12565b91508190509392505050565b60006020820190506120a76000830184611d82565b92915050565b60006080820190506120c26000830187611d82565b6120cf6020830186611d82565b6120dc604083018561205f565b81810360608301526120ee8184611da0565b905095945050505050565b600060208201905061210e6000830184611d91565b92915050565b6000602082019050818103600083015261212e8184611dd9565b905092915050565b6000602082019050818103600083015261214f81611e43565b9050919050565b6000602082019050818103600083015261216f81611e66565b9050919050565b6000602082019050818103600083015261218f81611e89565b9050919050565b600060208201905081810360008301526121af81611eac565b9050919050565b600060208201905081810360008301526121cf81611ecf565b9050919050565b600060208201905081810360008301526121ef81611ef2565b9050919050565b6000602082019050818103600083015261220f81611f15565b9050919050565b6000602082019050818103600083015261222f81611f38565b9050919050565b6000602082019050818103600083015261224f81611f5b565b9050919050565b6000602082019050818103600083015261226f81611f7e565b9050919050565b6000602082019050818103600083015261228f81611fa1565b9050919050565b600060208201905081810360008301526122af81611fc4565b9050919050565b600060208201905081810360008301526122cf81611fe7565b9050919050565b600060208201905081810360008301526122ef8161200a565b9050919050565b6000602082019050818103600083015261230f8161202d565b9050919050565b600060208201905061232b6000830184612050565b92915050565b6000602082019050612346600083018461205f565b92915050565b6000612356612367565b90506123628282612596565b919050565b6000604051905090565b600067ffffffffffffffff82111561238c5761238b6126ce565b5b612395826126fd565b9050602081019050919050565b600081519050919050565b600081519050919050565b600082825260208201905092915050565b600082825260208201905092915050565b600081905092915050565b60006123f082612518565b91506123fb83612518565b9250827fffffffffffffffffffffffffffffffffffffffffffffffffffffffffffffffff038211156124305761242f612641565b5b828201905092915050565b600061244682612518565b915061245183612518565b92508261246157612460612670565b5b828204905092915050565b600061247782612518565b915061248283612518565b92508282101561249557612494612641565b5b828203905092915050565b60006124ab826124f8565b9050919050565b60008115159050919050565b60007fffffffff0000000000000000000000000000000000000000000000000000000082169050919050565b600061ffff82169050919050565b600073ffffffffffffffffffffffffffffffffffffffff82169050919050565b6000819050919050565b82818337600083830152505050565b60005b8381101561254f578082015181840152602081019050612534565b8381111561255e576000848401525b50505050565b6000600282049050600182168061257c57607f821691505b602082108114156125905761258f61269f565b5b50919050565b61259f826126fd565b810181811067ffffffffffffffff821117156125be576125bd6126ce565b5b80604052505050565b60006125d282612518565b91507fffffffffffffffffffffffffffffffffffffffffffffffffffffffffffffffff82141561260557612604612641565b5b600182019050919050565b600061261b82612518565b915061262683612518565b92508261263657612635612670565b5b828206905092915050565b7f4e487b7100000000000000000000000000000000000000000000000000000000600052601160045260246000fd5b7f4e487b7100000000000000000000000000000000000000000000000000000000600052601260045260246000fd5b7f4e487b7100000000000000000000000000000000000000000000000000000000600052602260045260246000fd5b7f4e487b7100000000000000000000000000000000000000000000000000000000600052604160045260246000fd5b6000601f19601f8301169050919050565b7f4552433732313a207472616e7366657220746f206e6f6e20455243373231526560008201527f63656976657220696d706c656d656e7465720000000000000000000000000000602082015250565b7f4552433732313a20746f6b656e20616c7265616479206d696e74656400000000600082015250565b7f417070726f76656420666f7220616c6c206f70657261746f72206f6e6c790000600082015250565b7f4552433732313a207472616e7366657220746f20746865207a65726f2061646460008201527f7265737300000000000000000000000000000000000000000000000000000000602082015250565b7f4552433732313a20617070726f766520746f2063616c6c657200000000000000600082015250565b7f4552433732313a206f70657261746f7220717565727920666f72206e6f6e657860008201527f697374656e7420746f6b656e0000000000000000000000000000000000000000602082015250565b7f4552433732313a20617070726f76652063616c6c6572206973206e6f74206f7760008201527f6e6572206e6f7220617070726f76656420666f7220616c6c0000000000000000602082015250565b7f4552433732313a2062616c616e636520717565727920666f7220746865207a6560008201527f726f206164647265737300000000000000000000000000000000000000000000602082015250565b7f4552433732313a206f776e657220717565727920666f72206e6f6e657869737460008201527f656e7420746f6b656e0000000000000000000000000000000000000000000000602082015250565b7f4552433732313a206d696e7420746f20746865207a65726f2061646472657373600082015250565b7f4552433732313a20617070726f76656420717565727920666f72206e6f6e657860008201527f697374656e7420746f6b656e0000000000000000000000000000000000000000602082015250565b7f4552433732313a207472616e73666572206f6620746f6b656e2074686174206960008201527f73206e6f74206f776e0000000000000000000000000000000000000000000000602082015250565b7f4552433732314d657461646174613a2055524920717565727920666f72206e6f60008201527f6e6578697374656e7420746f6b656e0000000000000000000000000000000000602082015250565b7f4552433732313a20617070726f76616c20746f2063757272656e74206f776e6560008201527f7200000000000000000000000000000000000000000000000000000000000000602082015250565b7f4552433732313a207472616e736665722063616c6c6572206973206e6f74206f60008201527f776e6572206e6f7220617070726f766564000000000000000000000000000000602082015250565b612b20816124a0565b8114612b2b57600080fd5b50565b612b37816124b2565b8114612b4257600080fd5b50565b612b4e816124be565b8114612b5957600080fd5b50565b612b65816124ea565b8114612b7057600080fd5b50565b612b7c81612518565b8114612b8757600080fd5b5056fea2646970667358221220e683e790661307022054439f16f7c1896fea9e5c61e6fcc1e551c84e4a397bdd64736f6c63430008030033",
  "immutableReferences": {},
  "source": "// SPDX-License-Identifier: MIT\n\npragma solidity ^0.8.0;\n\nimport \"../../token/ERC721/ERC721.sol\";\nimport \"../../utils/Counters.sol\";\n\n/**\n * @title NFT representing a share of a finance product (term deposit, crowdunfing, investment etc.)\n * @author AshtonIzmev\n */\ncontract FP is ERC721 {\n    \n    using Counters for Counters.Counter;\n    Counters.Counter private _tokenCounter;\n\n    // 0 is DAT (term deposit)\n    // 1 is Factoring\n    // 2 is Mudaraba\n    // Not using enum because list may grow (is there a better way ?)\n    mapping (uint256 => uint16) private _subscriptionKinds;\n\n    address public issuingBank;\n\n    modifier onlyIssuingBank() { \n        require(_msgSender() == issuingBank, \"Only the issuingBank is allowed to call this\");\n        _;\n    }\n\n    constructor(string memory name_, string memory symbol_) \n        ERC721(name_, symbol_) {\n            issuingBank = _msgSender();\n    }\n\n    function _baseURI() internal virtual pure override returns (string memory) {\n        return \"https://curieux.ma/\";\n    }\n\n    function getCurrentTokenId() public virtual view returns (uint256) {\n        return _tokenCounter.current();\n    }\n\n    function getKind(uint256 tokenId) public virtual view returns (uint16) {\n        return _subscriptionKinds[tokenId];\n    }\n\n    function create(address buyer, uint16 kind_) public virtual {\n        require(isApprovedForAll(issuingBank, _msgSender()), \"Approved for all operator only\");\n        _tokenCounter.increment();\n        _subscriptionKinds[_tokenCounter.current()] = kind_;\n        _safeMint(buyer, _tokenCounter.current());\n    }\n\n    function destroy(uint256 tokenId) public virtual {\n        require(isApprovedForAll(issuingBank, _msgSender()), \"Approved for all operator only\");\n        _burn(tokenId);\n    }\n\n}",
  "sourcePath": "/home/issam/git/solidity-contracts/sol/truffle/contracts/token/nft/FP.sol",
  "compiler": {
    "name": "solc",
    "version": "0.8.3+commit.8d00100c.Emscripten.clang"
  },
  "schemaVersion": "3.2.4",
  "updatedAt": "2021-06-12T23:03:37.333Z",
  "networkType": "ethereum",
  "devdoc": {
    "author": "AshtonIzmev",
    "kind": "dev",
    "methods": {
      "approve(address,uint256)": {
        "details": "See {IERC721-approve}."
      },
      "balanceOf(address)": {
        "details": "See {IERC721-balanceOf}."
      },
      "getApproved(uint256)": {
        "details": "See {IERC721-getApproved}."
      },
      "isApprovedForAll(address,address)": {
        "details": "See {IERC721-isApprovedForAll}."
      },
      "name()": {
        "details": "See {IERC721Metadata-name}."
      },
      "ownerOf(uint256)": {
        "details": "See {IERC721-ownerOf}."
      },
      "safeTransferFrom(address,address,uint256)": {
        "details": "See {IERC721-safeTransferFrom}."
      },
      "safeTransferFrom(address,address,uint256,bytes)": {
        "details": "See {IERC721-safeTransferFrom}."
      },
      "setApprovalForAll(address,bool)": {
        "details": "See {IERC721-setApprovalForAll}."
      },
      "supportsInterface(bytes4)": {
        "details": "See {IERC165-supportsInterface}."
      },
      "symbol()": {
        "details": "See {IERC721Metadata-symbol}."
      },
      "tokenURI(uint256)": {
        "details": "See {IERC721Metadata-tokenURI}."
      },
      "transferFrom(address,address,uint256)": {
        "details": "See {IERC721-transferFrom}."
      }
    },
    "title": "NFT representing a share of a finance product (term deposit, crowdunfing, investment etc.)",
    "version": 1
  },
  "userdoc": {
    "kind": "user",
    "methods": {},
    "version": 1
  }
}