{
  "contractName": "KYC",
  "abi": [
    {
      "inputs": [],
      "stateMutability": "nonpayable",
      "type": "constructor"
    },
    {
      "anonymous": false,
      "inputs": [
        {
          "indexed": false,
          "internalType": "address",
          "name": "_add",
          "type": "address"
        }
      ],
      "name": "IdentityRejection",
      "type": "event"
    },
    {
      "anonymous": false,
      "inputs": [
        {
          "indexed": false,
          "internalType": "address",
          "name": "_add",
          "type": "address"
        },
        {
          "indexed": false,
          "internalType": "string",
          "name": "_name",
          "type": "string"
        },
        {
          "indexed": false,
          "internalType": "string",
          "name": "_identityDocument",
          "type": "string"
        }
      ],
      "name": "IdentitySubmission",
      "type": "event"
    },
    {
      "anonymous": false,
      "inputs": [
        {
          "indexed": false,
          "internalType": "address",
          "name": "_add",
          "type": "address"
        }
      ],
      "name": "IdentityValidation",
      "type": "event"
    },
    {
      "inputs": [
        {
          "internalType": "address",
          "name": "",
          "type": "address"
        }
      ],
      "name": "ecitizen",
      "outputs": [
        {
          "internalType": "bool",
          "name": "",
          "type": "bool"
        }
      ],
      "stateMutability": "view",
      "type": "function"
    },
    {
      "inputs": [],
      "name": "owner",
      "outputs": [
        {
          "internalType": "address",
          "name": "",
          "type": "address"
        }
      ],
      "stateMutability": "view",
      "type": "function"
    },
    {
      "inputs": [
        {
          "internalType": "string",
          "name": "_name",
          "type": "string"
        },
        {
          "internalType": "string",
          "name": "_identityDocument",
          "type": "string"
        },
        {
          "internalType": "address",
          "name": "_add",
          "type": "address"
        }
      ],
      "name": "submitKYC",
      "outputs": [],
      "stateMutability": "nonpayable",
      "type": "function"
    },
    {
      "inputs": [
        {
          "internalType": "address",
          "name": "_add",
          "type": "address"
        }
      ],
      "name": "validateKYC",
      "outputs": [],
      "stateMutability": "nonpayable",
      "type": "function"
    },
    {
      "inputs": [
        {
          "internalType": "address",
          "name": "_add",
          "type": "address"
        }
      ],
      "name": "unvalidateKYC",
      "outputs": [],
      "stateMutability": "nonpayable",
      "type": "function"
    },
    {
      "inputs": [
        {
          "internalType": "address",
          "name": "_add",
          "type": "address"
        }
      ],
      "name": "isIdentified",
      "outputs": [
        {
          "internalType": "bool",
          "name": "",
          "type": "bool"
        }
      ],
      "stateMutability": "view",
      "type": "function"
    }
  ],
  "bytecode": "0x608060405234801561001057600080fd5b5061001f61006360201b60201c565b6000806101000a81548173ffffffffffffffffffffffffffffffffffffffff021916908373ffffffffffffffffffffffffffffffffffffffff16021790555061006b565b600033905090565b610a368061007a6000396000f3fe608060405234801561001057600080fd5b50600436106100625760003560e01c806310ae0c5e1461006757806358a5a5f5146100975780635c2c593d146100c75780638da5cb5b146100e3578063b803891c14610101578063df017a041461011d575b600080fd5b610081600480360381019061007c919061060e565b610139565b60405161008e91906107b3565b60405180910390f35b6100b160048036038101906100ac919061060e565b610159565b6040516100be91906107b3565b60405180910390f35b6100e160048036038101906100dc919061060e565b6101af565b005b6100eb6102dc565b6040516100f89190610753565b60405180910390f35b61011b6004803603810190610116919061060e565b610300565b005b61013760048036038101906101329190610637565b61042e565b005b60016020528060005260406000206000915054906101000a900460ff1681565b6000600160008373ffffffffffffffffffffffffffffffffffffffff1673ffffffffffffffffffffffffffffffffffffffff16815260200190815260200160002060009054906101000a900460ff169050919050565b60008054906101000a900473ffffffffffffffffffffffffffffffffffffffff1673ffffffffffffffffffffffffffffffffffffffff166101ee610589565b73ffffffffffffffffffffffffffffffffffffffff1614610244576040517f08c379a000000000000000000000000000000000000000000000000000000000815260040161023b906107ce565b60405180910390fd5b60018060008373ffffffffffffffffffffffffffffffffffffffff1673ffffffffffffffffffffffffffffffffffffffff16815260200190815260200160002060006101000a81548160ff0219169083151502179055507f34be5f52421f75d025f8c746acd44c3871809e1057b3d8d8201c075fa59d9e336102c4610589565b6040516102d19190610753565b60405180910390a150565b60008054906101000a900473ffffffffffffffffffffffffffffffffffffffff1681565b60008054906101000a900473ffffffffffffffffffffffffffffffffffffffff1673ffffffffffffffffffffffffffffffffffffffff1661033f610589565b73ffffffffffffffffffffffffffffffffffffffff1614610395576040517f08c379a000000000000000000000000000000000000000000000000000000000815260040161038c906107ce565b60405180910390fd5b6000600160008373ffffffffffffffffffffffffffffffffffffffff1673ffffffffffffffffffffffffffffffffffffffff16815260200190815260200160002060006101000a81548160ff0219169083151502179055507f21d2f71fcc1516975a2e7ddf2a1e2a5e861c7a44a8930acfb5e7cc0f4e79aaca610416610589565b6040516104239190610753565b60405180910390a150565b600160008273ffffffffffffffffffffffffffffffffffffffff1673ffffffffffffffffffffffffffffffffffffffff16815260200190815260200160002060009054906101000a900460ff16156104bb576040517f08c379a00000000000000000000000000000000000000000000000000000000081526004016104b2906107ee565b60405180910390fd5b60018060008373ffffffffffffffffffffffffffffffffffffffff1673ffffffffffffffffffffffffffffffffffffffff16815260200190815260200160002060006101000a81548160ff0219169083151502179055507f128883e27797356037b4ddaca1389d01a5c1f9f5df72c266862e12d2446b88828184846040516105459392919061076e565b60405180910390a17f34be5f52421f75d025f8c746acd44c3871809e1057b3d8d8201c075fa59d9e338160405161057c9190610753565b60405180910390a1505050565b600033905090565b60006105a461059f84610833565b61080e565b9050828152602081018484840111156105bc57600080fd5b6105c78482856108be565b509392505050565b6000813590506105de816109e9565b92915050565b600082601f8301126105f557600080fd5b8135610605848260208601610591565b91505092915050565b60006020828403121561062057600080fd5b600061062e848285016105cf565b91505092915050565b60008060006060848603121561064c57600080fd5b600084013567ffffffffffffffff81111561066657600080fd5b610672868287016105e4565b935050602084013567ffffffffffffffff81111561068f57600080fd5b61069b868287016105e4565b92505060406106ac868287016105cf565b9150509250925092565b6106bf81610880565b82525050565b6106ce81610892565b82525050565b60006106df82610864565b6106e9818561086f565b93506106f98185602086016108cd565b61070281610960565b840191505092915050565b600061071a60228361086f565b915061072582610971565b604082019050919050565b600061073d600b8361086f565b9150610748826109c0565b602082019050919050565b600060208201905061076860008301846106b6565b92915050565b600060608201905061078360008301866106b6565b818103602083015261079581856106d4565b905081810360408301526107a981846106d4565b9050949350505050565b60006020820190506107c860008301846106c5565b92915050565b600060208201905081810360008301526107e78161070d565b9050919050565b6000602082019050818103600083015261080781610730565b9050919050565b6000610818610829565b90506108248282610900565b919050565b6000604051905090565b600067ffffffffffffffff82111561084e5761084d610931565b5b61085782610960565b9050602081019050919050565b600081519050919050565b600082825260208201905092915050565b600061088b8261089e565b9050919050565b60008115159050919050565b600073ffffffffffffffffffffffffffffffffffffffff82169050919050565b82818337600083830152505050565b60005b838110156108eb5780820151818401526020810190506108d0565b838111156108fa576000848401525b50505050565b61090982610960565b810181811067ffffffffffffffff8211171561092857610927610931565b5b80604052505050565b7f4e487b7100000000000000000000000000000000000000000000000000000000600052604160045260246000fd5b6000601f19601f8301169050919050565b7f4f6e6c79206f776e657220697320616c6c6f77656420746f2063616c6c20746860008201527f6973000000000000000000000000000000000000000000000000000000000000602082015250565b7f556e76616c696461746564000000000000000000000000000000000000000000600082015250565b6109f281610880565b81146109fd57600080fd5b5056fea2646970667358221220f42f6c4a8df64d66b47f2a0a1845327ae882112e21ece59d579d4eab19a9688064736f6c63430008030033",
  "immutableReferences": {},
  "source": "// SPDX-License-Identifier: MIT\n\npragma solidity ^0.8.0;\n\nimport \"../utils/Context.sol\";\n\ncontract KYC is Context {\n    \n    address public owner;\n    mapping (address => bool) public ecitizen;\n\n    modifier onlyOwner() {\n        require(\n            _msgSender() == owner,\n            \"Only owner is allowed to call this\"\n        );\n        _;\n    }\n\n    constructor() {\n        owner = _msgSender();\n    }\n    \n    function submitKYC(string memory _name, string memory _identityDocument, address _add) public {\n        require(!ecitizen[_add], \"Unvalidated\");\n        // Special offer : everyone is verified\n        ecitizen[_add] = true; // for the sake of simplification\n        emit IdentitySubmission(_add, _name, _identityDocument);\n        emit IdentityValidation(_add);\n    }\n\n    function validateKYC(address _add) public onlyOwner {\n        ecitizen[_add] = true;\n        emit IdentityValidation(_msgSender());\n    }\n\n    function unvalidateKYC(address _add) public onlyOwner {\n        ecitizen[_add] = false;\n        emit IdentityRejection(_msgSender());\n    }\n\n    function isIdentified(address _add) public view returns(bool) {\n        return ecitizen[_add];\n    }\n\n    event IdentitySubmission(address _add, string _name, string _identityDocument);\n    event IdentityValidation(address _add);\n    event IdentityRejection(address _add);\n}",
  "sourcePath": "/home/issam/git/solidity-contracts/sol/truffle/contracts/identity/KYC.sol",
  "compiler": {
    "name": "solc",
    "version": "0.8.3+commit.8d00100c.Emscripten.clang"
  },
  "schemaVersion": "3.2.4",
  "updatedAt": "2021-06-29T20:15:43.122Z",
  "devdoc": {
    "kind": "dev",
    "methods": {},
    "version": 1
  },
  "userdoc": {
    "kind": "user",
    "methods": {},
    "version": 1
  }
}