{
  "contractName": "KYC",
  "abi": [
    {
      "inputs": [],
      "stateMutability": "nonpayable",
      "type": "constructor"
    },
    {
      "anonymous": false,
      "inputs": [
        {
          "indexed": false,
          "internalType": "address",
          "name": "_add",
          "type": "address"
        },
        {
          "indexed": false,
          "internalType": "string",
          "name": "_name",
          "type": "string"
        },
        {
          "indexed": false,
          "internalType": "string",
          "name": "_identityDocument",
          "type": "string"
        }
      ],
      "name": "IdentitySubmission",
      "type": "event"
    },
    {
      "anonymous": false,
      "inputs": [
        {
          "indexed": false,
          "internalType": "address",
          "name": "_add",
          "type": "address"
        },
        {
          "indexed": false,
          "internalType": "string",
          "name": "_name",
          "type": "string"
        },
        {
          "indexed": false,
          "internalType": "string",
          "name": "_identityDocument",
          "type": "string"
        }
      ],
      "name": "IdentityValidation",
      "type": "event"
    },
    {
      "inputs": [
        {
          "internalType": "address",
          "name": "",
          "type": "address"
        }
      ],
      "name": "ecitizen",
      "outputs": [
        {
          "internalType": "bool",
          "name": "",
          "type": "bool"
        }
      ],
      "stateMutability": "view",
      "type": "function"
    },
    {
      "inputs": [],
      "name": "owner",
      "outputs": [
        {
          "internalType": "address",
          "name": "",
          "type": "address"
        }
      ],
      "stateMutability": "view",
      "type": "function"
    },
    {
      "inputs": [
        {
          "internalType": "string",
          "name": "_name",
          "type": "string"
        },
        {
          "internalType": "string",
          "name": "_identityDocument",
          "type": "string"
        }
      ],
      "name": "submitKYC",
      "outputs": [],
      "stateMutability": "nonpayable",
      "type": "function"
    },
    {
      "inputs": [
        {
          "internalType": "address",
          "name": "_add",
          "type": "address"
        }
      ],
      "name": "validateKYC",
      "outputs": [],
      "stateMutability": "nonpayable",
      "type": "function"
    },
    {
      "inputs": [
        {
          "internalType": "address",
          "name": "_add",
          "type": "address"
        }
      ],
      "name": "unvalidateKYC",
      "outputs": [],
      "stateMutability": "nonpayable",
      "type": "function"
    },
    {
      "inputs": [
        {
          "internalType": "address",
          "name": "_add",
          "type": "address"
        }
      ],
      "name": "isIdentified",
      "outputs": [
        {
          "internalType": "bool",
          "name": "",
          "type": "bool"
        }
      ],
      "stateMutability": "view",
      "type": "function"
    }
  ],
  "bytecode": "0x608060405234801561001057600080fd5b5061001f61006360201b60201c565b6000806101000a81548173ffffffffffffffffffffffffffffffffffffffff021916908373ffffffffffffffffffffffffffffffffffffffff16021790555061006b565b600033905090565b6108848061007a6000396000f3fe608060405234801561001057600080fd5b50600436106100625760003560e01c80630c6705951461006757806310ae0c5e1461008357806358a5a5f5146100b35780635c2c593d146100e35780638da5cb5b146100ff578063b803891c1461011d575b600080fd5b610081600480360381019061007c9190610504565b610139565b005b61009d600480360381019061009891906104db565b6101dd565b6040516100aa919061064a565b60405180910390f35b6100cd60048036038101906100c891906104db565b6101fd565b6040516100da919061064a565b60405180910390f35b6100fd60048036038101906100f891906104db565b610253565b005b610107610342565b60405161011491906105ea565b60405180910390f35b610137600480360381019061013291906104db565b610366565b005b6001806000610146610456565b73ffffffffffffffffffffffffffffffffffffffff1673ffffffffffffffffffffffffffffffffffffffff16815260200190815260200160002060006101000a81548160ff0219169083151502179055507f128883e27797356037b4ddaca1389d01a5c1f9f5df72c266862e12d2446b88826101c0610456565b83836040516101d193929190610605565b60405180910390a15050565b60016020528060005260406000206000915054906101000a900460ff1681565b6000600160008373ffffffffffffffffffffffffffffffffffffffff1673ffffffffffffffffffffffffffffffffffffffff16815260200190815260200160002060009054906101000a900460ff169050919050565b60008054906101000a900473ffffffffffffffffffffffffffffffffffffffff1673ffffffffffffffffffffffffffffffffffffffff16610292610456565b73ffffffffffffffffffffffffffffffffffffffff16146102e8576040517f08c379a00000000000000000000000000000000000000000000000000000000081526004016102df90610665565b60405180910390fd5b60018060008373ffffffffffffffffffffffffffffffffffffffff1673ffffffffffffffffffffffffffffffffffffffff16815260200190815260200160002060006101000a81548160ff02191690831515021790555050565b60008054906101000a900473ffffffffffffffffffffffffffffffffffffffff1681565b60008054906101000a900473ffffffffffffffffffffffffffffffffffffffff1673ffffffffffffffffffffffffffffffffffffffff166103a5610456565b73ffffffffffffffffffffffffffffffffffffffff16146103fb576040517f08c379a00000000000000000000000000000000000000000000000000000000081526004016103f290610665565b60405180910390fd5b6000600160008373ffffffffffffffffffffffffffffffffffffffff1673ffffffffffffffffffffffffffffffffffffffff16815260200190815260200160002060006101000a81548160ff02191690831515021790555050565b600033905090565b600061047161046c846106aa565b610685565b90508281526020810184848401111561048957600080fd5b610494848285610735565b509392505050565b6000813590506104ab81610837565b92915050565b600082601f8301126104c257600080fd5b81356104d284826020860161045e565b91505092915050565b6000602082840312156104ed57600080fd5b60006104fb8482850161049c565b91505092915050565b6000806040838503121561051757600080fd5b600083013567ffffffffffffffff81111561053157600080fd5b61053d858286016104b1565b925050602083013567ffffffffffffffff81111561055a57600080fd5b610566858286016104b1565b9150509250929050565b610579816106f7565b82525050565b61058881610709565b82525050565b6000610599826106db565b6105a381856106e6565b93506105b3818560208601610744565b6105bc816107d7565b840191505092915050565b60006105d46022836106e6565b91506105df826107e8565b604082019050919050565b60006020820190506105ff6000830184610570565b92915050565b600060608201905061061a6000830186610570565b818103602083015261062c818561058e565b90508181036040830152610640818461058e565b9050949350505050565b600060208201905061065f600083018461057f565b92915050565b6000602082019050818103600083015261067e816105c7565b9050919050565b600061068f6106a0565b905061069b8282610777565b919050565b6000604051905090565b600067ffffffffffffffff8211156106c5576106c46107a8565b5b6106ce826107d7565b9050602081019050919050565b600081519050919050565b600082825260208201905092915050565b600061070282610715565b9050919050565b60008115159050919050565b600073ffffffffffffffffffffffffffffffffffffffff82169050919050565b82818337600083830152505050565b60005b83811015610762578082015181840152602081019050610747565b83811115610771576000848401525b50505050565b610780826107d7565b810181811067ffffffffffffffff8211171561079f5761079e6107a8565b5b80604052505050565b7f4e487b7100000000000000000000000000000000000000000000000000000000600052604160045260246000fd5b6000601f19601f8301169050919050565b7f4f6e6c79206f776e657220697320616c6c6f77656420746f2063616c6c20746860008201527f6973000000000000000000000000000000000000000000000000000000000000602082015250565b610840816106f7565b811461084b57600080fd5b5056fea2646970667358221220ae6f52fb607bdf9983610fccb56394444b62715fcfa45f4b5c8462cd3c8d353964736f6c63430008030033",
  "immutableReferences": {},
  "source": "// SPDX-License-Identifier: MIT\n\npragma solidity ^0.8.0;\n\nimport \"../utils/Context.sol\";\n\ncontract KYC is Context {\n    \n    address public owner;\n    mapping (address => bool) public ecitizen;\n\n    modifier onlyOwner() {\n        require(\n            _msgSender() == owner,\n            \"Only owner is allowed to call this\"\n        );\n        _;\n    }\n\n    constructor() {\n        owner = _msgSender();\n    }\n    \n    function submitKYC(string memory _name, string memory _identityDocument) public {\n        // Special offer : everyone is verified\n        ecitizen[_msgSender()] = true; // for the sake of simplification\n        emit IdentitySubmission(_msgSender(), _name, _identityDocument);\n    }\n\n    function validateKYC(address _add) public onlyOwner {\n        ecitizen[_add] = true;\n    }\n\n    function unvalidateKYC(address _add) public onlyOwner {\n        ecitizen[_add] = false;\n    }\n\n    function isIdentified(address _add) public view returns(bool) {\n        return ecitizen[_add];\n    }\n\n    event IdentitySubmission(address _add, string _name, string _identityDocument);\n    event IdentityValidation(address _add, string _name, string _identityDocument);\n}",
  "sourcePath": "/home/issam/git/solidity-contracts/sol/truffle/contracts/identity/KYC.sol",
  "compiler": {
    "name": "solc",
    "version": "0.8.3+commit.8d00100c.Emscripten.clang"
  },
  "schemaVersion": "3.2.4",
  "updatedAt": "2021-05-30T22:02:14.100Z",
  "devdoc": {
    "kind": "dev",
    "methods": {},
    "version": 1
  },
  "userdoc": {
    "kind": "user",
    "methods": {},
    "version": 1
  }
}