{
  "contractName": "KYC",
  "abi": [
    {
      "inputs": [],
      "stateMutability": "nonpayable",
      "type": "constructor"
    },
    {
      "anonymous": false,
      "inputs": [
        {
          "indexed": false,
          "internalType": "address",
          "name": "_add",
          "type": "address"
        }
      ],
      "name": "IdentityRejection",
      "type": "event"
    },
    {
      "anonymous": false,
      "inputs": [
        {
          "indexed": false,
          "internalType": "address",
          "name": "_add",
          "type": "address"
        },
        {
          "indexed": false,
          "internalType": "string",
          "name": "_name",
          "type": "string"
        },
        {
          "indexed": false,
          "internalType": "string",
          "name": "_identityDocument",
          "type": "string"
        }
      ],
      "name": "IdentitySubmission",
      "type": "event"
    },
    {
      "anonymous": false,
      "inputs": [
        {
          "indexed": false,
          "internalType": "address",
          "name": "_add",
          "type": "address"
        }
      ],
      "name": "IdentityValidation",
      "type": "event"
    },
    {
      "inputs": [
        {
          "internalType": "address",
          "name": "",
          "type": "address"
        }
      ],
      "name": "ecitizen",
      "outputs": [
        {
          "internalType": "bool",
          "name": "",
          "type": "bool"
        }
      ],
      "stateMutability": "view",
      "type": "function",
      "constant": true
    },
    {
      "inputs": [],
      "name": "owner",
      "outputs": [
        {
          "internalType": "address",
          "name": "",
          "type": "address"
        }
      ],
      "stateMutability": "view",
      "type": "function",
      "constant": true
    },
    {
      "inputs": [
        {
          "internalType": "string",
          "name": "_name",
          "type": "string"
        },
        {
          "internalType": "string",
          "name": "_identityDocument",
          "type": "string"
        }
      ],
      "name": "submitKYC",
      "outputs": [],
      "stateMutability": "nonpayable",
      "type": "function"
    },
    {
      "inputs": [
        {
          "internalType": "address",
          "name": "_add",
          "type": "address"
        }
      ],
      "name": "validateKYC",
      "outputs": [],
      "stateMutability": "nonpayable",
      "type": "function"
    },
    {
      "inputs": [
        {
          "internalType": "address",
          "name": "_add",
          "type": "address"
        }
      ],
      "name": "unvalidateKYC",
      "outputs": [],
      "stateMutability": "nonpayable",
      "type": "function"
    },
    {
      "inputs": [
        {
          "internalType": "address",
          "name": "_add",
          "type": "address"
        }
      ],
      "name": "isIdentified",
      "outputs": [
        {
          "internalType": "bool",
          "name": "",
          "type": "bool"
        }
      ],
      "stateMutability": "view",
      "type": "function",
      "constant": true
    }
  ],
  "bytecode": "0x608060405234801561001057600080fd5b5061001f61006360201b60201c565b6000806101000a81548173ffffffffffffffffffffffffffffffffffffffff021916908373ffffffffffffffffffffffffffffffffffffffff16021790555061006b565b600033905090565b61093e8061007a6000396000f3fe608060405234801561001057600080fd5b50600436106100625760003560e01c80630c6705951461006757806310ae0c5e1461008357806358a5a5f5146100b35780635c2c593d146100e35780638da5cb5b146100ff578063b803891c1461011d575b600080fd5b610081600480360381019061007c91906105be565b610139565b005b61009d60048036038101906100989190610595565b61021b565b6040516100aa9190610704565b60405180910390f35b6100cd60048036038101906100c89190610595565b61023b565b6040516100da9190610704565b60405180910390f35b6100fd60048036038101906100f89190610595565b610291565b005b6101076103be565b60405161011491906106a4565b60405180910390f35b61013760048036038101906101329190610595565b6103e2565b005b6001806000610146610510565b73ffffffffffffffffffffffffffffffffffffffff1673ffffffffffffffffffffffffffffffffffffffff16815260200190815260200160002060006101000a81548160ff0219169083151502179055507f128883e27797356037b4ddaca1389d01a5c1f9f5df72c266862e12d2446b88826101c0610510565b83836040516101d1939291906106bf565b60405180910390a17f34be5f52421f75d025f8c746acd44c3871809e1057b3d8d8201c075fa59d9e33610202610510565b60405161020f91906106a4565b60405180910390a15050565b60016020528060005260406000206000915054906101000a900460ff1681565b6000600160008373ffffffffffffffffffffffffffffffffffffffff1673ffffffffffffffffffffffffffffffffffffffff16815260200190815260200160002060009054906101000a900460ff169050919050565b60008054906101000a900473ffffffffffffffffffffffffffffffffffffffff1673ffffffffffffffffffffffffffffffffffffffff166102d0610510565b73ffffffffffffffffffffffffffffffffffffffff1614610326576040517f08c379a000000000000000000000000000000000000000000000000000000000815260040161031d9061071f565b60405180910390fd5b60018060008373ffffffffffffffffffffffffffffffffffffffff1673ffffffffffffffffffffffffffffffffffffffff16815260200190815260200160002060006101000a81548160ff0219169083151502179055507f34be5f52421f75d025f8c746acd44c3871809e1057b3d8d8201c075fa59d9e336103a6610510565b6040516103b391906106a4565b60405180910390a150565b60008054906101000a900473ffffffffffffffffffffffffffffffffffffffff1681565b60008054906101000a900473ffffffffffffffffffffffffffffffffffffffff1673ffffffffffffffffffffffffffffffffffffffff16610421610510565b73ffffffffffffffffffffffffffffffffffffffff1614610477576040517f08c379a000000000000000000000000000000000000000000000000000000000815260040161046e9061071f565b60405180910390fd5b6000600160008373ffffffffffffffffffffffffffffffffffffffff1673ffffffffffffffffffffffffffffffffffffffff16815260200190815260200160002060006101000a81548160ff0219169083151502179055507f21d2f71fcc1516975a2e7ddf2a1e2a5e861c7a44a8930acfb5e7cc0f4e79aaca6104f8610510565b60405161050591906106a4565b60405180910390a150565b600033905090565b600061052b61052684610764565b61073f565b90508281526020810184848401111561054357600080fd5b61054e8482856107ef565b509392505050565b600081359050610565816108f1565b92915050565b600082601f83011261057c57600080fd5b813561058c848260208601610518565b91505092915050565b6000602082840312156105a757600080fd5b60006105b584828501610556565b91505092915050565b600080604083850312156105d157600080fd5b600083013567ffffffffffffffff8111156105eb57600080fd5b6105f78582860161056b565b925050602083013567ffffffffffffffff81111561061457600080fd5b6106208582860161056b565b9150509250929050565b610633816107b1565b82525050565b610642816107c3565b82525050565b600061065382610795565b61065d81856107a0565b935061066d8185602086016107fe565b61067681610891565b840191505092915050565b600061068e6022836107a0565b9150610699826108a2565b604082019050919050565b60006020820190506106b9600083018461062a565b92915050565b60006060820190506106d4600083018661062a565b81810360208301526106e68185610648565b905081810360408301526106fa8184610648565b9050949350505050565b60006020820190506107196000830184610639565b92915050565b6000602082019050818103600083015261073881610681565b9050919050565b600061074961075a565b90506107558282610831565b919050565b6000604051905090565b600067ffffffffffffffff82111561077f5761077e610862565b5b61078882610891565b9050602081019050919050565b600081519050919050565b600082825260208201905092915050565b60006107bc826107cf565b9050919050565b60008115159050919050565b600073ffffffffffffffffffffffffffffffffffffffff82169050919050565b82818337600083830152505050565b60005b8381101561081c578082015181840152602081019050610801565b8381111561082b576000848401525b50505050565b61083a82610891565b810181811067ffffffffffffffff8211171561085957610858610862565b5b80604052505050565b7f4e487b7100000000000000000000000000000000000000000000000000000000600052604160045260246000fd5b6000601f19601f8301169050919050565b7f4f6e6c79206f776e657220697320616c6c6f77656420746f2063616c6c20746860008201527f6973000000000000000000000000000000000000000000000000000000000000602082015250565b6108fa816107b1565b811461090557600080fd5b5056fea26469706673582212204fd32ff33503bfdfc54b84c84d12e60b04ba76dc5ce95c8c4a75c537faceb3d364736f6c63430008030033",
  "immutableReferences": {},
  "source": "// SPDX-License-Identifier: MIT\n\npragma solidity ^0.8.0;\n\nimport \"../utils/Context.sol\";\n\ncontract KYC is Context {\n    \n    address public owner;\n    mapping (address => bool) public ecitizen;\n\n    modifier onlyOwner() {\n        require(\n            _msgSender() == owner,\n            \"Only owner is allowed to call this\"\n        );\n        _;\n    }\n\n    constructor() {\n        owner = _msgSender();\n    }\n    \n    function submitKYC(string memory _name, string memory _identityDocument) public {\n        // Special offer : everyone is verified\n        ecitizen[_msgSender()] = true; // for the sake of simplification\n        emit IdentitySubmission(_msgSender(), _name, _identityDocument);\n        emit IdentityValidation(_msgSender());\n    }\n\n    function validateKYC(address _add) public onlyOwner {\n        ecitizen[_add] = true;\n        emit IdentityValidation(_msgSender());\n    }\n\n    function unvalidateKYC(address _add) public onlyOwner {\n        ecitizen[_add] = false;\n        emit IdentityRejection(_msgSender());\n    }\n\n    function isIdentified(address _add) public view returns(bool) {\n        return ecitizen[_add];\n    }\n\n    event IdentitySubmission(address _add, string _name, string _identityDocument);\n    event IdentityValidation(address _add);\n    event IdentityRejection(address _add);\n}",
  "sourcePath": "/home/issam/git/solidity-contracts/sol/truffle/contracts/identity/KYC.sol",
  "compiler": {
    "name": "solc",
    "version": "0.8.3+commit.8d00100c.Emscripten.clang"
  },
  "schemaVersion": "3.2.4",
  "updatedAt": "2021-06-12T23:03:37.325Z",
  "networkType": "ethereum",
  "devdoc": {
    "kind": "dev",
    "methods": {},
    "version": 1
  },
  "userdoc": {
    "kind": "user",
    "methods": {},
    "version": 1
  }
}