{
  "contractName": "Marketplace",
  "abi": [
    {
      "inputs": [
        {
          "internalType": "uint256",
          "name": "sellFee_",
          "type": "uint256"
        },
        {
          "internalType": "uint256",
          "name": "withdrawFee_",
          "type": "uint256"
        },
        {
          "internalType": "address",
          "name": "medToken_",
          "type": "address"
        },
        {
          "internalType": "address",
          "name": "fpToken_",
          "type": "address"
        }
      ],
      "stateMutability": "nonpayable",
      "type": "constructor"
    },
    {
      "inputs": [],
      "name": "fpToken",
      "outputs": [
        {
          "internalType": "contract FP",
          "name": "",
          "type": "address"
        }
      ],
      "stateMutability": "view",
      "type": "function",
      "constant": true
    },
    {
      "inputs": [],
      "name": "medToken",
      "outputs": [
        {
          "internalType": "contract MED",
          "name": "",
          "type": "address"
        }
      ],
      "stateMutability": "view",
      "type": "function",
      "constant": true
    },
    {
      "inputs": [],
      "name": "sellFee",
      "outputs": [
        {
          "internalType": "uint256",
          "name": "",
          "type": "uint256"
        }
      ],
      "stateMutability": "view",
      "type": "function",
      "constant": true
    },
    {
      "inputs": [],
      "name": "totalFees",
      "outputs": [
        {
          "internalType": "uint256",
          "name": "",
          "type": "uint256"
        }
      ],
      "stateMutability": "view",
      "type": "function",
      "constant": true
    },
    {
      "inputs": [],
      "name": "withdrawFee",
      "outputs": [
        {
          "internalType": "uint256",
          "name": "",
          "type": "uint256"
        }
      ],
      "stateMutability": "view",
      "type": "function",
      "constant": true
    },
    {
      "inputs": [
        {
          "internalType": "uint256",
          "name": "tokenId_",
          "type": "uint256"
        },
        {
          "internalType": "uint256",
          "name": "price_",
          "type": "uint256"
        }
      ],
      "name": "sell",
      "outputs": [],
      "stateMutability": "nonpayable",
      "type": "function"
    },
    {
      "inputs": [
        {
          "internalType": "uint256",
          "name": "tokenId_",
          "type": "uint256"
        }
      ],
      "name": "withdraw",
      "outputs": [],
      "stateMutability": "nonpayable",
      "type": "function"
    },
    {
      "inputs": [
        {
          "internalType": "uint256",
          "name": "tokenId_",
          "type": "uint256"
        }
      ],
      "name": "buy",
      "outputs": [],
      "stateMutability": "nonpayable",
      "type": "function"
    },
    {
      "inputs": [],
      "name": "withdrawProfit",
      "outputs": [],
      "stateMutability": "nonpayable",
      "type": "function"
    },
    {
      "inputs": [
        {
          "internalType": "uint256",
          "name": "tokenId",
          "type": "uint256"
        }
      ],
      "name": "isToSell",
      "outputs": [
        {
          "internalType": "bool",
          "name": "",
          "type": "bool"
        }
      ],
      "stateMutability": "view",
      "type": "function",
      "constant": true
    },
    {
      "inputs": [
        {
          "internalType": "uint256",
          "name": "idx",
          "type": "uint256"
        }
      ],
      "name": "getTokenIdOffer",
      "outputs": [
        {
          "internalType": "uint256",
          "name": "",
          "type": "uint256"
        }
      ],
      "stateMutability": "view",
      "type": "function",
      "constant": true
    },
    {
      "inputs": [],
      "name": "getOfferLength",
      "outputs": [
        {
          "internalType": "uint256",
          "name": "",
          "type": "uint256"
        }
      ],
      "stateMutability": "view",
      "type": "function",
      "constant": true
    },
    {
      "inputs": [
        {
          "internalType": "uint256",
          "name": "tokenId",
          "type": "uint256"
        }
      ],
      "name": "getOffer",
      "outputs": [
        {
          "internalType": "address",
          "name": "",
          "type": "address"
        },
        {
          "internalType": "uint256",
          "name": "",
          "type": "uint256"
        }
      ],
      "stateMutability": "view",
      "type": "function",
      "constant": true
    },
    {
      "inputs": [
        {
          "internalType": "address",
          "name": "",
          "type": "address"
        },
        {
          "internalType": "address",
          "name": "",
          "type": "address"
        },
        {
          "internalType": "uint256",
          "name": "",
          "type": "uint256"
        },
        {
          "internalType": "bytes",
          "name": "",
          "type": "bytes"
        }
      ],
      "name": "onERC721Received",
      "outputs": [
        {
          "internalType": "bytes4",
          "name": "",
          "type": "bytes4"
        }
      ],
      "stateMutability": "pure",
      "type": "function",
      "constant": true
    }
  ],
  "bytecode": "0x60806040523480156200001157600080fd5b506040516200228738038062002287833981810160405281019062000037919062000156565b620000476200012060201b60201c565b600260006101000a81548173ffffffffffffffffffffffffffffffffffffffff021916908373ffffffffffffffffffffffffffffffffffffffff16021790555080600160006101000a81548173ffffffffffffffffffffffffffffffffffffffff021916908373ffffffffffffffffffffffffffffffffffffffff160217905550816000806101000a81548173ffffffffffffffffffffffffffffffffffffffff021916908373ffffffffffffffffffffffffffffffffffffffff16021790555083600381905550826004819055505050505062000234565b600033905090565b600081519050620001398162000200565b92915050565b60008151905062000150816200021a565b92915050565b600080600080608085870312156200016d57600080fd5b60006200017d878288016200013f565b945050602062000190878288016200013f565b9350506040620001a38782880162000128565b9250506060620001b68782880162000128565b91505092959194509250565b6000620001cf82620001d6565b9050919050565b600073ffffffffffffffffffffffffffffffffffffffff82169050919050565b6000819050919050565b6200020b81620001c2565b81146200021757600080fd5b50565b6200022581620001f6565b81146200023157600080fd5b50565b61204380620002446000396000f3fe608060405234801561001057600080fd5b50600436106100ea5760003560e01c80637b3457d51161008c578063d4ef855411610066578063d4ef85541461024e578063d79875eb1461026c578063d96a094a14610288578063e941fa78146102a4576100ea565b80637b3457d5146101f6578063959499b614610214578063d403d4b91461021e576100ea565b806317fedbc2116100c857806317fedbc21461015b5780632b14ca561461018b5780632e1a7d4d146101a95780634579268a146101c5576100ea565b80630bd64455146100ef57806313114a9d1461010d578063150b7a021461012b575b600080fd5b6100f76102c2565b6040516101049190611ba9565b60405180910390f35b6101156102d3565b6040516101229190611ba9565b60405180910390f35b61014560048036038101906101409190611685565b6102d9565b6040516101529190611a18565b60405180910390f35b6101756004803603810190610170919061172e565b6102ee565b60405161018291906119fd565b60405180910390f35b61019361030b565b6040516101a09190611ba9565b60405180910390f35b6101c360048036038101906101be919061172e565b610311565b005b6101df60048036038101906101da919061172e565b6105dd565b6040516101ed9291906119d4565b60405180910390f35b6101fe61068a565b60405161020b9190611a33565b60405180910390f35b61021c6106b0565b005b6102386004803603810190610233919061172e565b610823565b6040516102459190611ba9565b60405180910390f35b61025661088b565b6040516102639190611a4e565b60405180910390f35b61028660048036038101906102819190611780565b6108af565b005b6102a2600480360381019061029d919061172e565b610e91565b005b6102ac6112a3565b6040516102b99190611ba9565b60405180910390f35b60006102ce60076112a9565b905090565b60055481565b600063150b7a0260e01b905095945050505050565b60006103048260076112be90919063ffffffff16565b9050919050565b60035481565b6103258160076112be90919063ffffffff16565b610364576040517f08c379a000000000000000000000000000000000000000000000000000000000815260040161035b90611b09565b60405180910390fd5b6000600660008381526020019081526020016000206040518060400160405290816000820160009054906101000a900473ffffffffffffffffffffffffffffffffffffffff1673ffffffffffffffffffffffffffffffffffffffff1673ffffffffffffffffffffffffffffffffffffffff16815260200160018201548152505090506103ee6112d8565b73ffffffffffffffffffffffffffffffffffffffff16816000015173ffffffffffffffffffffffffffffffffffffffff161461045f576040517f08c379a000000000000000000000000000000000000000000000000000000000815260040161045690611b89565b60405180910390fd5b60008054906101000a900473ffffffffffffffffffffffffffffffffffffffff1673ffffffffffffffffffffffffffffffffffffffff1663a9059cbb6104a36112d8565b6003546040518363ffffffff1660e01b81526004016104c39291906119d4565b602060405180830381600087803b1580156104dd57600080fd5b505af11580156104f1573d6000803e3d6000fd5b505050506040513d601f19601f820116820180604052508101906105159190611705565b50600160009054906101000a900473ffffffffffffffffffffffffffffffffffffffff1673ffffffffffffffffffffffffffffffffffffffff166342842e0e3061055d6112d8565b856040518463ffffffff1660e01b815260040161057c9392919061199d565b600060405180830381600087803b15801561059657600080fd5b505af11580156105aa573d6000803e3d6000fd5b505050506105c28260076112e090919063ffffffff16565b506004546005546105d39190611bd5565b6005819055505050565b6000806105f48360076112be90919063ffffffff16565b610633576040517f08c379a000000000000000000000000000000000000000000000000000000000815260040161062a90611ac9565b60405180910390fd5b6006600084815260200190815260200160002060000160009054906101000a900473ffffffffffffffffffffffffffffffffffffffff16600660008581526020019081526020016000206001015491509150915091565b600160009054906101000a900473ffffffffffffffffffffffffffffffffffffffff1681565b600260009054906101000a900473ffffffffffffffffffffffffffffffffffffffff1673ffffffffffffffffffffffffffffffffffffffff166106f16112d8565b73ffffffffffffffffffffffffffffffffffffffff1614610747576040517f08c379a000000000000000000000000000000000000000000000000000000000815260040161073e90611b69565b60405180910390fd5b60008054906101000a900473ffffffffffffffffffffffffffffffffffffffff1673ffffffffffffffffffffffffffffffffffffffff1663a9059cbb600260009054906101000a900473ffffffffffffffffffffffffffffffffffffffff166005546040518363ffffffff1660e01b81526004016107c69291906119d4565b602060405180830381600087803b1580156107e057600080fd5b505af11580156107f4573d6000803e3d6000fd5b505050506040513d601f19601f820116820180604052508101906108189190611705565b506000600581905550565b600061082f60076112a9565b8210610870576040517f08c379a000000000000000000000000000000000000000000000000000000000815260040161086790611a69565b60405180910390fd5b6108848260076112fa90919063ffffffff16565b9050919050565b60008054906101000a900473ffffffffffffffffffffffffffffffffffffffff1681565b6108b76112d8565b73ffffffffffffffffffffffffffffffffffffffff16600160009054906101000a900473ffffffffffffffffffffffffffffffffffffffff1673ffffffffffffffffffffffffffffffffffffffff16636352211e846040518263ffffffff1660e01b81526004016109289190611ba9565b60206040518083038186803b15801561094057600080fd5b505afa158015610954573d6000803e3d6000fd5b505050506040513d601f19601f82011682018060405250810190610978919061165c565b73ffffffffffffffffffffffffffffffffffffffff16146109ce576040517f08c379a00000000000000000000000000000000000000000000000000000000081526004016109c590611b89565b60405180910390fd5b6003548111610a12576040517f08c379a0000000000000000000000000000000000000000000000000000000008152600401610a0990611a89565b60405180910390fd5b3073ffffffffffffffffffffffffffffffffffffffff16600160009054906101000a900473ffffffffffffffffffffffffffffffffffffffff1673ffffffffffffffffffffffffffffffffffffffff1663081812fc846040518263ffffffff1660e01b8152600401610a849190611ba9565b60206040518083038186803b158015610a9c57600080fd5b505afa158015610ab0573d6000803e3d6000fd5b505050506040513d601f19601f82011682018060405250810190610ad4919061165c565b73ffffffffffffffffffffffffffffffffffffffff1614610b2a576040517f08c379a0000000000000000000000000000000000000000000000000000000008152600401610b2190611ae9565b60405180910390fd5b60035460045482610b3b9190611bd5565b610b459190611bd5565b60008054906101000a900473ffffffffffffffffffffffffffffffffffffffff1673ffffffffffffffffffffffffffffffffffffffff1663dd62ed3e610b896112d8565b306040518363ffffffff1660e01b8152600401610ba7929190611974565b60206040518083038186803b158015610bbf57600080fd5b505afa158015610bd3573d6000803e3d6000fd5b505050506040513d601f19601f82011682018060405250810190610bf79190611757565b1015610c38576040517f08c379a0000000000000000000000000000000000000000000000000000000008152600401610c2f90611b49565b60405180910390fd5b610c41826102ee565b15610c81576040517f08c379a0000000000000000000000000000000000000000000000000000000008152600401610c7890611aa9565b60405180910390fd5b60008054906101000a900473ffffffffffffffffffffffffffffffffffffffff1673ffffffffffffffffffffffffffffffffffffffff166323b872dd610cc56112d8565b30600354600454610cd69190611bd5565b6040518463ffffffff1660e01b8152600401610cf49392919061199d565b602060405180830381600087803b158015610d0e57600080fd5b505af1158015610d22573d6000803e3d6000fd5b505050506040513d601f19601f82011682018060405250810190610d469190611705565b50600160009054906101000a900473ffffffffffffffffffffffffffffffffffffffff1673ffffffffffffffffffffffffffffffffffffffff166342842e0e610d8d6112d8565b30856040518463ffffffff1660e01b8152600401610dad9392919061199d565b600060405180830381600087803b158015610dc757600080fd5b505af1158015610ddb573d6000803e3d6000fd5b50505050610df382600761131490919063ffffffff16565b506040518060400160405280610e076112d8565b73ffffffffffffffffffffffffffffffffffffffff168152602001828152506006600084815260200190815260200160002060008201518160000160006101000a81548173ffffffffffffffffffffffffffffffffffffffff021916908373ffffffffffffffffffffffffffffffffffffffff160217905550602082015181600101559050505050565b610ea58160076112be90919063ffffffff16565b610ee4576040517f08c379a0000000000000000000000000000000000000000000000000000000008152600401610edb90611b09565b60405180910390fd5b6000600660008381526020019081526020016000206040518060400160405290816000820160009054906101000a900473ffffffffffffffffffffffffffffffffffffffff1673ffffffffffffffffffffffffffffffffffffffff1673ffffffffffffffffffffffffffffffffffffffff1681526020016001820154815250509050806020015160008054906101000a900473ffffffffffffffffffffffffffffffffffffffff1673ffffffffffffffffffffffffffffffffffffffff1663dd62ed3e610faf6112d8565b306040518363ffffffff1660e01b8152600401610fcd929190611974565b60206040518083038186803b158015610fe557600080fd5b505afa158015610ff9573d6000803e3d6000fd5b505050506040513d601f19601f8201168201806040525081019061101d9190611757565b101561105e576040517f08c379a000000000000000000000000000000000000000000000000000000000815260040161105590611b29565b60405180910390fd5b60008054906101000a900473ffffffffffffffffffffffffffffffffffffffff1673ffffffffffffffffffffffffffffffffffffffff166323b872dd6110a26112d8565b3084602001516040518463ffffffff1660e01b81526004016110c69392919061199d565b602060405180830381600087803b1580156110e057600080fd5b505af11580156110f4573d6000803e3d6000fd5b505050506040513d601f19601f820116820180604052508101906111189190611705565b5060008054906101000a900473ffffffffffffffffffffffffffffffffffffffff1673ffffffffffffffffffffffffffffffffffffffff1663a9059cbb8260000151600454846020015161116c9190611bd5565b6040518363ffffffff1660e01b81526004016111899291906119d4565b602060405180830381600087803b1580156111a357600080fd5b505af11580156111b7573d6000803e3d6000fd5b505050506040513d601f19601f820116820180604052508101906111db9190611705565b50600160009054906101000a900473ffffffffffffffffffffffffffffffffffffffff1673ffffffffffffffffffffffffffffffffffffffff166342842e0e306112236112d8565b856040518463ffffffff1660e01b81526004016112429392919061199d565b600060405180830381600087803b15801561125c57600080fd5b505af1158015611270573d6000803e3d6000fd5b505050506112888260076112e090919063ffffffff16565b506003546005546112999190611bd5565b6005819055505050565b60045481565b60006112b78260000161132e565b9050919050565b60006112d0836000018360001b61133f565b905092915050565b600033905090565b60006112f2836000018360001b611362565b905092915050565b600061130983600001836114e8565b60001c905092915050565b6000611326836000018360001b611539565b905092915050565b600081600001805490509050919050565b600080836001016000848152602001908152602001600020541415905092915050565b600080836001016000848152602001908152602001600020549050600081146114dc5760006001826113949190611c2b565b90506000600186600001805490506113ac9190611c2b565b90508181146114675760008660000182815481106113f3577f4e487b7100000000000000000000000000000000000000000000000000000000600052603260045260246000fd5b906000526020600020015490508087600001848154811061143d577f4e487b7100000000000000000000000000000000000000000000000000000000600052603260045260246000fd5b90600052602060002001819055508387600101600083815260200190815260200160002081905550505b856000018054806114a1577f4e487b7100000000000000000000000000000000000000000000000000000000600052603160045260246000fd5b6001900381819060005260206000200160009055905585600101600086815260200190815260200160002060009055600193505050506114e2565b60009150505b92915050565b6000826000018281548110611526577f4e487b7100000000000000000000000000000000000000000000000000000000600052603260045260246000fd5b9060005260206000200154905092915050565b6000611545838361133f565b61159e5782600001829080600181540180825580915050600190039060005260206000200160009091909190915055826000018054905083600101600084815260200190815260200160002081905550600190506115a3565b600090505b92915050565b6000813590506115b881611fc8565b92915050565b6000815190506115cd81611fc8565b92915050565b6000815190506115e281611fdf565b92915050565b60008083601f8401126115fa57600080fd5b8235905067ffffffffffffffff81111561161357600080fd5b60208301915083600182028301111561162b57600080fd5b9250929050565b60008135905061164181611ff6565b92915050565b60008151905061165681611ff6565b92915050565b60006020828403121561166e57600080fd5b600061167c848285016115be565b91505092915050565b60008060008060006080868803121561169d57600080fd5b60006116ab888289016115a9565b95505060206116bc888289016115a9565b94505060406116cd88828901611632565b935050606086013567ffffffffffffffff8111156116ea57600080fd5b6116f6888289016115e8565b92509250509295509295909350565b60006020828403121561171757600080fd5b6000611725848285016115d3565b91505092915050565b60006020828403121561174057600080fd5b600061174e84828501611632565b91505092915050565b60006020828403121561176957600080fd5b600061177784828501611647565b91505092915050565b6000806040838503121561179357600080fd5b60006117a185828601611632565b92505060206117b285828601611632565b9150509250929050565b6117c581611c5f565b82525050565b6117d481611c71565b82525050565b6117e381611c7d565b82525050565b6117f281611cd3565b82525050565b61180181611cf7565b82525050565b6000611814600c83611bc4565b915061181f82611d4a565b602082019050919050565b6000611837603783611bc4565b915061184282611d73565b604082019050919050565b600061185a601883611bc4565b915061186582611dc2565b602082019050919050565b600061187d600d83611bc4565b915061188882611deb565b602082019050919050565b60006118a0603383611bc4565b91506118ab82611e14565b604082019050919050565b60006118c3601a83611bc4565b91506118ce82611e63565b602082019050919050565b60006118e6603c83611bc4565b91506118f182611e8c565b604082019050919050565b6000611909603d83611bc4565b915061191482611edb565b604082019050919050565b600061192c602983611bc4565b915061193782611f2a565b604082019050919050565b600061194f602383611bc4565b915061195a82611f79565b604082019050919050565b61196e81611cc9565b82525050565b600060408201905061198960008301856117bc565b61199660208301846117bc565b9392505050565b60006060820190506119b260008301866117bc565b6119bf60208301856117bc565b6119cc6040830184611965565b949350505050565b60006040820190506119e960008301856117bc565b6119f66020830184611965565b9392505050565b6000602082019050611a1260008301846117cb565b92915050565b6000602082019050611a2d60008301846117da565b92915050565b6000602082019050611a4860008301846117e9565b92915050565b6000602082019050611a6360008301846117f8565b92915050565b60006020820190508181036000830152611a8281611807565b9050919050565b60006020820190508181036000830152611aa28161182a565b9050919050565b60006020820190508181036000830152611ac28161184d565b9050919050565b60006020820190508181036000830152611ae281611870565b9050919050565b60006020820190508181036000830152611b0281611893565b9050919050565b60006020820190508181036000830152611b22816118b6565b9050919050565b60006020820190508181036000830152611b42816118d9565b9050919050565b60006020820190508181036000830152611b62816118fc565b9050919050565b60006020820190508181036000830152611b828161191f565b9050919050565b60006020820190508181036000830152611ba281611942565b9050919050565b6000602082019050611bbe6000830184611965565b92915050565b600082825260208201905092915050565b6000611be082611cc9565b9150611beb83611cc9565b9250827fffffffffffffffffffffffffffffffffffffffffffffffffffffffffffffffff03821115611c2057611c1f611d1b565b5b828201905092915050565b6000611c3682611cc9565b9150611c4183611cc9565b925082821015611c5457611c53611d1b565b5b828203905092915050565b6000611c6a82611ca9565b9050919050565b60008115159050919050565b60007fffffffff0000000000000000000000000000000000000000000000000000000082169050919050565b600073ffffffffffffffffffffffffffffffffffffffff82169050919050565b6000819050919050565b6000611cde82611ce5565b9050919050565b6000611cf082611ca9565b9050919050565b6000611d0282611d09565b9050919050565b6000611d1482611ca9565b9050919050565b7f4e487b7100000000000000000000000000000000000000000000000000000000600052601160045260246000fd5b7f496478206f766572666c6f770000000000000000000000000000000000000000600082015250565b7f53656c6c696e67207072696365206d757374206265206772656174657220746860008201527f616e20746865206d61726b6574706c6163652066656573000000000000000000602082015250565b7f546f6b656e20616c726561647920746f20626520736f6c640000000000000000600082015250565b7f556e6b6e6f776e20746f6b656e00000000000000000000000000000000000000600082015250565b7f5072657061726520616e20616c6c6f77616e636520666f722074686520746f6b60008201527f656e20696e206f7264657220746f2073656c6c00000000000000000000000000602082015250565b7f546f6b656e206f6666657220646f6573206e6f74206578697374000000000000600082015250565b7f5072657061726520616e20616c6c6f77616e636520776974682074686520636f60008201527f727265637420616d6f756e7420696e206f7264657220746f2062757900000000602082015250565b7f5072657061726520616e20616c6c6f77616e636520776974682074686520636f60008201527f727265637420616d6f756e7420696e206f7264657220746f2073656c6c000000602082015250565b7f4f6e6c792049737375696e672042616e6b20697320616c6c6f77656420746f2060008201527f63616c6c20746869730000000000000000000000000000000000000000000000602082015250565b7f596f7520617265206e6f7420746865206f776e6572206f66207468697320746f60008201527f6b656e0000000000000000000000000000000000000000000000000000000000602082015250565b611fd181611c5f565b8114611fdc57600080fd5b50565b611fe881611c71565b8114611ff357600080fd5b50565b611fff81611cc9565b811461200a57600080fd5b5056fea264697066735822122067253a8615a0192809861c4af2a1f00a8d63ef02fd0944e91219429c4d315add64736f6c63430008030033",
  "immutableReferences": {},
  "source": "// SPDX-License-Identifier: MIT\n\npragma solidity ^0.8.0;\n\nimport \"../../utils/Context.sol\";\nimport \"../../utils/Counters.sol\";\nimport \"../../utils/EnumerableSet.sol\";\nimport \"../nft/FP.sol\";\nimport \"../med/MED.sol\";\n\n/**\n * @title ERC721 Financial Product Marketplace\n * @author AshtonIzmev\n */\ncontract Marketplace is IERC721Receiver, Context {\n\n    using Counters for Counters.Counter;\n    using EnumerableSet for EnumerableSet.UintSet;\n\n    MED public medToken;\n    FP public fpToken;\n    address _issuingBank;\n\n    uint256 public sellFee;\n    uint256 public withdrawFee;\n    uint256 public totalFees;\n\n    struct Offer {\n        address _seller;\n        uint256 _sellingPrice;\n    }\n\n    mapping (uint256 => Offer) private _offers;\n    EnumerableSet.UintSet private _tokenIds;\n\n    modifier onlyIssuingBank() {\n        require(\n            _msgSender() == _issuingBank,\n            \"Only Issuing Bank is allowed to call this\"\n        );\n        _;\n    }\n\n    constructor (uint256 sellFee_, uint256 withdrawFee_, address medToken_, address fpToken_) {\n        _issuingBank = _msgSender();\n        fpToken = FP(fpToken_);\n        medToken = MED(medToken_);\n        sellFee = sellFee_;\n        withdrawFee = withdrawFee_;\n    }\n\n    function sell(uint256 tokenId_, uint256 price_) public virtual {\n        require(fpToken.ownerOf(tokenId_) == _msgSender(), \"You are not the owner of this token\");\n        require(price_ > sellFee, \"Selling price must be greater than the marketplace fees\");\n        require(fpToken.getApproved(tokenId_) == address(this), \"Prepare an allowance for the token in order to sell\");\n        require(medToken.allowance(_msgSender(), address(this)) >= price_ + withdrawFee + sellFee, \"Prepare an allowance with the correct amount in order to sell\");\n        require(!isToSell(tokenId_), \"Token already to be sold\");\n        medToken.transferFrom(_msgSender(), address(this), withdrawFee + sellFee);\n        fpToken.safeTransferFrom(_msgSender(), address(this), tokenId_);\n        _tokenIds.add(tokenId_);\n        _offers[tokenId_] = Offer(_msgSender(), price_);\n    }\n\n    function withdraw(uint256 tokenId_) public virtual {\n        require(_tokenIds.contains(tokenId_), \"Token offer does not exist\");\n        Offer memory offer = _offers[tokenId_];\n        require(offer._seller == _msgSender(), \"You are not the owner of this token\");\n        medToken.transfer(_msgSender(), sellFee);\n        fpToken.safeTransferFrom(address(this), _msgSender(), tokenId_);\n        _tokenIds.remove(tokenId_);\n        totalFees = totalFees + withdrawFee;\n    }\n\n    function buy(uint256 tokenId_) public virtual {\n        require(_tokenIds.contains(tokenId_), \"Token offer does not exist\");\n        Offer memory offer = _offers[tokenId_];\n        require(medToken.allowance(_msgSender(), address(this)) >= offer._sellingPrice, \"Prepare an allowance with the correct amount in order to buy\");\n        medToken.transferFrom(_msgSender(), address(this), offer._sellingPrice);\n        medToken.transfer(offer._seller, offer._sellingPrice + withdrawFee);\n        fpToken.safeTransferFrom(address(this), _msgSender(), tokenId_);\n        _tokenIds.remove(tokenId_);\n        totalFees = totalFees + sellFee;\n    }\n\n    function withdrawProfit() public virtual onlyIssuingBank {\n        medToken.transfer(_issuingBank, totalFees);\n        totalFees = 0;\n    }\n\n    function isToSell(uint256 tokenId) public virtual view returns (bool) {\n        return _tokenIds.contains(tokenId);\n    }\n\n    function getTokenIdOffer(uint256 idx) public virtual view returns (uint256) {\n        require(idx < _tokenIds.length(), \"Idx overflow\");\n        return _tokenIds.at(idx);\n    }\n\n    function getOfferLength() public virtual view returns (uint256) {\n        return _tokenIds.length();\n    }\n\n    function getOffer(uint256 tokenId) public view virtual returns (address, uint256) {\n        require(_tokenIds.contains(tokenId), \"Unknown token\");\n        return (\n            _offers[tokenId]._seller,\n            _offers[tokenId]._sellingPrice);\n    }\n\n    function onERC721Received(address, address, uint256, bytes calldata) \n            pure external override returns (bytes4) { \n        return this.onERC721Received.selector;\n    } \n\n}",
  "sourcePath": "/home/issam/git/solidity-contracts/sol/truffle/contracts/token/bank/Marketplace.sol",
  "compiler": {
    "name": "solc",
    "version": "0.8.3+commit.8d00100c.Emscripten.clang"
  },
  "schemaVersion": "3.2.4",
  "updatedAt": "2021-07-04T14:20:00.017Z",
  "networkType": "ethereum",
  "devdoc": {
    "author": "AshtonIzmev",
    "kind": "dev",
    "methods": {},
    "title": "ERC721 Financial Product Marketplace",
    "version": 1
  },
  "userdoc": {
    "kind": "user",
    "methods": {},
    "version": 1
  }
}