{
  "contractName": "MasterOrg",
  "abi": [
    {
      "inputs": [],
      "stateMutability": "nonpayable",
      "type": "constructor"
    },
    {
      "anonymous": false,
      "inputs": [
        {
          "indexed": false,
          "internalType": "address",
          "name": "_association",
          "type": "address"
        },
        {
          "indexed": false,
          "internalType": "string",
          "name": "_name",
          "type": "string"
        },
        {
          "indexed": false,
          "internalType": "string",
          "name": "_founder",
          "type": "string"
        }
      ],
      "name": "CreationEvent",
      "type": "event"
    },
    {
      "inputs": [
        {
          "internalType": "address",
          "name": "_association",
          "type": "address"
        },
        {
          "internalType": "string",
          "name": "_name",
          "type": "string"
        },
        {
          "internalType": "string",
          "name": "_founder",
          "type": "string"
        }
      ],
      "name": "emitCreation",
      "outputs": [],
      "stateMutability": "nonpayable",
      "type": "function"
    }
  ],
  "bytecode": "0x608060405234801561001057600080fd5b506103b9806100206000396000f3fe608060405234801561001057600080fd5b506004361061002b5760003560e01c8063cabe6a5714610030575b600080fd5b61004a60048036038101906100459190610109565b61004c565b005b7fd9b0de631da1fc031f22c56ca7e415d5e77d43b25a21d2dd1dfef5e1b60d571083838360405161007f939291906101d0565b60405180910390a1505050565b600061009f61009a8461023a565b610215565b9050828152602081018484840111156100b757600080fd5b6100c28482856102b9565b509392505050565b6000813590506100d98161036c565b92915050565b600082601f8301126100f057600080fd5b813561010084826020860161008c565b91505092915050565b60008060006060848603121561011e57600080fd5b600061012c868287016100ca565b935050602084013567ffffffffffffffff81111561014957600080fd5b610155868287016100df565b925050604084013567ffffffffffffffff81111561017257600080fd5b61017e868287016100df565b9150509250925092565b61019181610287565b82525050565b60006101a28261026b565b6101ac8185610276565b93506101bc8185602086016102c8565b6101c58161035b565b840191505092915050565b60006060820190506101e56000830186610188565b81810360208301526101f78185610197565b9050818103604083015261020b8184610197565b9050949350505050565b600061021f610230565b905061022b82826102fb565b919050565b6000604051905090565b600067ffffffffffffffff8211156102555761025461032c565b5b61025e8261035b565b9050602081019050919050565b600081519050919050565b600082825260208201905092915050565b600061029282610299565b9050919050565b600073ffffffffffffffffffffffffffffffffffffffff82169050919050565b82818337600083830152505050565b60005b838110156102e65780820151818401526020810190506102cb565b838111156102f5576000848401525b50505050565b6103048261035b565b810181811067ffffffffffffffff821117156103235761032261032c565b5b80604052505050565b7f4e487b7100000000000000000000000000000000000000000000000000000000600052604160045260246000fd5b6000601f19601f8301169050919050565b61037581610287565b811461038057600080fd5b5056fea2646970667358221220c17a19b20dff33cc903cee6f111dc835aa0a59ee3cbcd41bce685e5c3eb796d864736f6c63430008030033",
  "immutableReferences": {},
  "source": "// SPDX-License-Identifier: MIT\n\npragma solidity ^0.8.0;\n\nimport \"../utils/Context.sol\";\nimport \"../assoc/Association.sol\";\nimport \"../assoc/Administration.sol\";\n\ncontract MasterOrg is Context {\n    \n    constructor() { }\n    \n    function emitCreation(address _association, string memory _name, string memory _founder) public {\n        emit CreationEvent(_association, _name, _founder);\n    }\n\n    event CreationEvent(address _association, string _name, string _founder);\n}",
  "sourcePath": "/home/issam/git/solidity-contracts/sol/truffle/contracts/assoc/Master.sol",
  "compiler": {
    "name": "solc",
    "version": "0.8.3+commit.8d00100c.Emscripten.clang"
  },
  "schemaVersion": "3.2.4",
  "updatedAt": "2021-07-04T14:19:59.960Z",
  "networkType": "ethereum",
  "devdoc": {
    "kind": "dev",
    "methods": {},
    "version": 1
  },
  "userdoc": {
    "kind": "user",
    "methods": {},
    "version": 1
  }
}