{
  "contractName": "MED",
  "abi": [
    {
      "inputs": [
        {
          "internalType": "address",
          "name": "treasureAccount",
          "type": "address"
        },
        {
          "internalType": "uint32",
          "name": "annualTaxRatePercent",
          "type": "uint32"
        },
        {
          "internalType": "uint256",
          "name": "umi",
          "type": "uint256"
        },
        {
          "internalType": "bool",
          "name": "allowMintArg",
          "type": "bool"
        },
        {
          "internalType": "uint256",
          "name": "initialMint",
          "type": "uint256"
        },
        {
          "internalType": "address",
          "name": "_kyc",
          "type": "address"
        }
      ],
      "stateMutability": "nonpayable",
      "type": "constructor"
    },
    {
      "anonymous": false,
      "inputs": [
        {
          "indexed": true,
          "internalType": "address",
          "name": "owner",
          "type": "address"
        },
        {
          "indexed": true,
          "internalType": "address",
          "name": "spender",
          "type": "address"
        },
        {
          "indexed": false,
          "internalType": "uint256",
          "name": "value",
          "type": "uint256"
        }
      ],
      "name": "Approval",
      "type": "event"
    },
    {
      "anonymous": false,
      "inputs": [
        {
          "indexed": true,
          "internalType": "address",
          "name": "from",
          "type": "address"
        },
        {
          "indexed": true,
          "internalType": "address",
          "name": "to",
          "type": "address"
        },
        {
          "indexed": false,
          "internalType": "uint256",
          "name": "value",
          "type": "uint256"
        }
      ],
      "name": "Transfer",
      "type": "event"
    },
    {
      "inputs": [],
      "name": "allowMint",
      "outputs": [
        {
          "internalType": "bool",
          "name": "",
          "type": "bool"
        }
      ],
      "stateMutability": "view",
      "type": "function",
      "constant": true
    },
    {
      "inputs": [
        {
          "internalType": "address",
          "name": "owner",
          "type": "address"
        },
        {
          "internalType": "address",
          "name": "spender",
          "type": "address"
        }
      ],
      "name": "allowance",
      "outputs": [
        {
          "internalType": "uint256",
          "name": "",
          "type": "uint256"
        }
      ],
      "stateMutability": "view",
      "type": "function",
      "constant": true
    },
    {
      "inputs": [
        {
          "internalType": "address",
          "name": "spender",
          "type": "address"
        },
        {
          "internalType": "uint256",
          "name": "amount",
          "type": "uint256"
        }
      ],
      "name": "approve",
      "outputs": [
        {
          "internalType": "bool",
          "name": "",
          "type": "bool"
        }
      ],
      "stateMutability": "nonpayable",
      "type": "function"
    },
    {
      "inputs": [
        {
          "internalType": "address",
          "name": "account",
          "type": "address"
        }
      ],
      "name": "balanceOf",
      "outputs": [
        {
          "internalType": "uint256",
          "name": "",
          "type": "uint256"
        }
      ],
      "stateMutability": "view",
      "type": "function",
      "constant": true
    },
    {
      "inputs": [],
      "name": "dailyTaxRate",
      "outputs": [
        {
          "internalType": "uint32",
          "name": "",
          "type": "uint32"
        }
      ],
      "stateMutability": "view",
      "type": "function",
      "constant": true
    },
    {
      "inputs": [],
      "name": "daysElapsed",
      "outputs": [
        {
          "internalType": "uint256",
          "name": "_value",
          "type": "uint256"
        }
      ],
      "stateMutability": "view",
      "type": "function",
      "constant": true
    },
    {
      "inputs": [
        {
          "internalType": "address",
          "name": "spender",
          "type": "address"
        },
        {
          "internalType": "uint256",
          "name": "subtractedValue",
          "type": "uint256"
        }
      ],
      "name": "decreaseAllowance",
      "outputs": [
        {
          "internalType": "bool",
          "name": "",
          "type": "bool"
        }
      ],
      "stateMutability": "nonpayable",
      "type": "function"
    },
    {
      "inputs": [
        {
          "internalType": "address",
          "name": "spender",
          "type": "address"
        },
        {
          "internalType": "uint256",
          "name": "addedValue",
          "type": "uint256"
        }
      ],
      "name": "increaseAllowance",
      "outputs": [
        {
          "internalType": "bool",
          "name": "",
          "type": "bool"
        }
      ],
      "stateMutability": "nonpayable",
      "type": "function"
    },
    {
      "inputs": [],
      "name": "monthsElapsed",
      "outputs": [
        {
          "internalType": "uint256",
          "name": "_value",
          "type": "uint256"
        }
      ],
      "stateMutability": "view",
      "type": "function",
      "constant": true
    },
    {
      "inputs": [],
      "name": "name",
      "outputs": [
        {
          "internalType": "string",
          "name": "",
          "type": "string"
        }
      ],
      "stateMutability": "view",
      "type": "function",
      "constant": true
    },
    {
      "inputs": [],
      "name": "symbol",
      "outputs": [
        {
          "internalType": "string",
          "name": "",
          "type": "string"
        }
      ],
      "stateMutability": "view",
      "type": "function",
      "constant": true
    },
    {
      "inputs": [],
      "name": "totalSupply",
      "outputs": [
        {
          "internalType": "uint256",
          "name": "",
          "type": "uint256"
        }
      ],
      "stateMutability": "view",
      "type": "function",
      "constant": true
    },
    {
      "inputs": [
        {
          "internalType": "address",
          "name": "sender",
          "type": "address"
        },
        {
          "internalType": "address",
          "name": "recipient",
          "type": "address"
        },
        {
          "internalType": "uint256",
          "name": "amount",
          "type": "uint256"
        }
      ],
      "name": "transferFrom",
      "outputs": [
        {
          "internalType": "bool",
          "name": "",
          "type": "bool"
        }
      ],
      "stateMutability": "nonpayable",
      "type": "function"
    },
    {
      "inputs": [],
      "name": "universalMonthlyIncome",
      "outputs": [
        {
          "internalType": "uint256",
          "name": "",
          "type": "uint256"
        }
      ],
      "stateMutability": "view",
      "type": "function",
      "constant": true
    },
    {
      "inputs": [],
      "name": "decimals",
      "outputs": [
        {
          "internalType": "uint8",
          "name": "",
          "type": "uint8"
        }
      ],
      "stateMutability": "view",
      "type": "function",
      "constant": true
    },
    {
      "inputs": [
        {
          "internalType": "address",
          "name": "account",
          "type": "address"
        }
      ],
      "name": "elapsedTaxDaysOf",
      "outputs": [
        {
          "internalType": "uint256",
          "name": "",
          "type": "uint256"
        }
      ],
      "stateMutability": "view",
      "type": "function",
      "constant": true
    },
    {
      "inputs": [
        {
          "internalType": "address",
          "name": "account",
          "type": "address"
        }
      ],
      "name": "elapsedIncomeMonthOf",
      "outputs": [
        {
          "internalType": "uint256",
          "name": "",
          "type": "uint256"
        }
      ],
      "stateMutability": "view",
      "type": "function",
      "constant": true
    },
    {
      "inputs": [
        {
          "internalType": "address",
          "name": "recipient",
          "type": "address"
        },
        {
          "internalType": "uint256",
          "name": "amount",
          "type": "uint256"
        }
      ],
      "name": "transfer",
      "outputs": [
        {
          "internalType": "bool",
          "name": "",
          "type": "bool"
        }
      ],
      "stateMutability": "nonpayable",
      "type": "function"
    },
    {
      "inputs": [
        {
          "internalType": "address",
          "name": "taxPayer",
          "type": "address"
        }
      ],
      "name": "updateAccount",
      "outputs": [],
      "stateMutability": "nonpayable",
      "type": "function"
    },
    {
      "inputs": [
        {
          "internalType": "uint256",
          "name": "amount",
          "type": "uint256"
        }
      ],
      "name": "mint",
      "outputs": [],
      "stateMutability": "nonpayable",
      "type": "function"
    },
    {
      "inputs": [
        {
          "internalType": "uint256",
          "name": "amount",
          "type": "uint256"
        }
      ],
      "name": "burn",
      "outputs": [],
      "stateMutability": "nonpayable",
      "type": "function"
    },
    {
      "inputs": [],
      "name": "incrementDay",
      "outputs": [],
      "stateMutability": "nonpayable",
      "type": "function"
    },
    {
      "inputs": [],
      "name": "incrementMonth",
      "outputs": [],
      "stateMutability": "nonpayable",
      "type": "function"
    },
    {
      "inputs": [
        {
          "internalType": "uint32",
          "name": "newRate",
          "type": "uint32"
        }
      ],
      "name": "setNewDailyTaxRate",
      "outputs": [],
      "stateMutability": "nonpayable",
      "type": "function"
    },
    {
      "inputs": [
        {
          "internalType": "uint256",
          "name": "newIncome",
          "type": "uint256"
        }
      ],
      "name": "setNewBasicIncome",
      "outputs": [],
      "stateMutability": "nonpayable",
      "type": "function"
    }
  ],
  "bytecode": "0x60806040526000600e60006101000a81548160ff0219169083151502179055503480156200002c57600080fd5b50604051620032cd380380620032cd8339818101604052810190620000529190620004e2565b6040518060400160405280601181526020017f4d6f726f6363616e20452d44697268616d0000000000000000000000000000008152506040518060400160405280600381526020017f4d454400000000000000000000000000000000000000000000000000000000008152508160039080519060200190620000d6929190620003d6565b508060049080519060200190620000ef929190620003d6565b505050620001026200026460201b60201c565b600660006101000a81548173ffffffffffffffffffffffffffffffffffffffff021916908373ffffffffffffffffffffffffffffffffffffffff16021790555085600760006101000a81548173ffffffffffffffffffffffffffffffffffffffff021916908373ffffffffffffffffffffffffffffffffffffffff16021790555080600560006101000a81548173ffffffffffffffffffffffffffffffffffffffff021916908373ffffffffffffffffffffffffffffffffffffffff16021790555061016d61271086620001d7919062000695565b620001e391906200065d565b600a60006101000a81548163ffffffff021916908363ffffffff16021790555083600d8190555082600e60006101000a81548160ff02191690831515021790555062000258600760009054906101000a900473ffffffffffffffffffffffffffffffffffffffff16836200026c60201b60201c565b50505050505062000888565b600033905090565b600073ffffffffffffffffffffffffffffffffffffffff168273ffffffffffffffffffffffffffffffffffffffff161415620002df576040517f08c379a0000000000000000000000000000000000000000000000000000000008152600401620002d690620005b0565b60405180910390fd5b620002f360008383620003d160201b60201c565b806002600082825462000307919062000600565b92505081905550806000808473ffffffffffffffffffffffffffffffffffffffff1673ffffffffffffffffffffffffffffffffffffffff16815260200190815260200160002060008282546200035e919062000600565b925050819055508173ffffffffffffffffffffffffffffffffffffffff16600073ffffffffffffffffffffffffffffffffffffffff167fddf252ad1be2c89b69c2b068fc378daa952ba7f163c4a11628f55a4df523b3ef83604051620003c59190620005d2565b60405180910390a35050565b505050565b828054620003e49062000734565b90600052602060002090601f01602090048101928262000408576000855562000454565b82601f106200042357805160ff191683800117855562000454565b8280016001018555821562000454579182015b828111156200045357825182559160200191906001019062000436565b5b50905062000463919062000467565b5090565b5b808211156200048257600081600090555060010162000468565b5090565b600081519050620004978162000820565b92915050565b600081519050620004ae816200083a565b92915050565b600081519050620004c58162000854565b92915050565b600081519050620004dc816200086e565b92915050565b60008060008060008060c08789031215620004fc57600080fd5b60006200050c89828a0162000486565b96505060206200051f89828a01620004cb565b95505060406200053289828a01620004b4565b94505060606200054589828a016200049d565b93505060806200055889828a01620004b4565b92505060a06200056b89828a0162000486565b9150509295509295509295565b600062000587601f83620005ef565b91506200059482620007f7565b602082019050919050565b620005aa816200071a565b82525050565b60006020820190508181036000830152620005cb8162000578565b9050919050565b6000602082019050620005e960008301846200059f565b92915050565b600082825260208201905092915050565b60006200060d826200071a565b91506200061a836200071a565b9250827fffffffffffffffffffffffffffffffffffffffffffffffffffffffffffffffff038211156200065257620006516200076a565b5b828201905092915050565b60006200066a8262000724565b9150620006778362000724565b9250826200068a576200068962000799565b5b828204905092915050565b6000620006a28262000724565b9150620006af8362000724565b92508163ffffffff0483118215151615620006cf57620006ce6200076a565b5b828202905092915050565b6000620006e782620006fa565b9050919050565b60008115159050919050565b600073ffffffffffffffffffffffffffffffffffffffff82169050919050565b6000819050919050565b600063ffffffff82169050919050565b600060028204905060018216806200074d57607f821691505b60208210811415620007645762000763620007c8565b5b50919050565b7f4e487b7100000000000000000000000000000000000000000000000000000000600052601160045260246000fd5b7f4e487b7100000000000000000000000000000000000000000000000000000000600052601260045260246000fd5b7f4e487b7100000000000000000000000000000000000000000000000000000000600052602260045260246000fd5b7f45524332303a206d696e7420746f20746865207a65726f206164647265737300600082015250565b6200082b81620006da565b81146200083757600080fd5b50565b6200084581620006ee565b81146200085157600080fd5b50565b6200085f816200071a565b81146200086b57600080fd5b50565b620008798162000724565b81146200088557600080fd5b50565b612a3580620008986000396000f3fe608060405234801561001057600080fd5b50600436106101735760003560e01c80635b073d23116100de578063a0712d6811610097578063da21bcec11610071578063da21bcec14610462578063dbbe09361461047e578063dd62ed3e14610488578063ec714a81146104b857610173565b8063a0712d68146103e6578063a457c2d714610402578063a9059cbb1461043257610173565b80635b073d231461032257806367ed0c791461034057806370a082311461034a57806380477a4c1461037a578063850401051461039857806395d89b41146103c857610173565b80632a96e410116101305780632a96e410146102625780632ce3d4401461027e578063313ce5671461029a57806339509351146102b857806342966c68146102e85780634fb6b0591461030457610173565b806306fdde0314610178578063095ea7b31461019657806311e0df82146101c657806318160ddd146101f65780631b8dca741461021457806323b872dd14610232575b600080fd5b6101806104d6565b60405161018d91906120f7565b60405180910390f35b6101b060048036038101906101ab9190611d9c565b610568565b6040516101bd91906120dc565b60405180910390f35b6101e060048036038101906101db9190611ce8565b610586565b6040516101ed91906122d9565b60405180910390f35b6101fe6105cf565b60405161020b91906122d9565b60405180910390f35b61021c6105d9565b60405161022991906120dc565b60405180910390f35b61024c60048036038101906102479190611d4d565b6105ec565b60405161025991906120dc565b60405180910390f35b61027c60048036038101906102779190611e2a565b6106ed565b005b61029860048036038101906102939190611ce8565b6107a8565b005b6102a261089e565b6040516102af919061230f565b60405180910390f35b6102d260048036038101906102cd9190611d9c565b6108a7565b6040516102df91906120dc565b60405180910390f35b61030260048036038101906102fd9190611e01565b610953565b005b61030c610a19565b60405161031991906122d9565b60405180910390f35b61032a610a25565b60405161033791906122f4565b60405180910390f35b610348610a3b565b005b610364600480360381019061035f9190611ce8565b610ade565b60405161037191906122d9565b60405180910390f35b610382610b26565b60405161038f91906122d9565b60405180910390f35b6103b260048036038101906103ad9190611ce8565b610b32565b6040516103bf91906122d9565b60405180910390f35b6103d0610b7b565b6040516103dd91906120f7565b60405180910390f35b61040060048036038101906103fb9190611e01565b610c0d565b005b61041c60048036038101906104179190611d9c565b610cec565b60405161042991906120dc565b60405180910390f35b61044c60048036038101906104479190611d9c565b610de0565b60405161045991906120dc565b60405180910390f35b61047c60048036038101906104779190611e01565b610ff2565b005b610486611093565b005b6104a2600480360381019061049d9190611d11565b611136565b6040516104af91906122d9565b60405180910390f35b6104c06111bd565b6040516104cd91906122d9565b60405180910390f35b6060600380546104e5906124f3565b80601f0160208091040260200160405190810160405280929190818152602001828054610511906124f3565b801561055e5780601f106105335761010080835404028352916020019161055e565b820191906000526020600020905b81548152906001019060200180831161054157829003601f168201915b5050505050905090565b600061057c6105756111c3565b84846111cb565b6001905092915050565b6000600860008373ffffffffffffffffffffffffffffffffffffffff1673ffffffffffffffffffffffffffffffffffffffff168152602001908152602001600020549050919050565b6000600254905090565b600e60009054906101000a900460ff1681565b60006105f9848484611396565b6000600160008673ffffffffffffffffffffffffffffffffffffffff1673ffffffffffffffffffffffffffffffffffffffff16815260200190815260200160002060006106446111c3565b73ffffffffffffffffffffffffffffffffffffffff1673ffffffffffffffffffffffffffffffffffffffff168152602001908152602001600020549050828110156106c4576040517f08c379a00000000000000000000000000000000000000000000000000000000081526004016106bb90612219565b60405180910390fd5b6106e1856106d06111c3565b85846106dc9190612427565b6111cb565b60019150509392505050565b600660009054906101000a900473ffffffffffffffffffffffffffffffffffffffff1673ffffffffffffffffffffffffffffffffffffffff1661072e6111c3565b73ffffffffffffffffffffffffffffffffffffffff1614610784576040517f08c379a000000000000000000000000000000000000000000000000000000000815260040161077b90612199565b60405180910390fd5b80600a60006101000a81548163ffffffff021916908363ffffffff16021790555050565b600560009054906101000a900473ffffffffffffffffffffffffffffffffffffffff1673ffffffffffffffffffffffffffffffffffffffff166358a5a5f5826040518263ffffffff1660e01b815260040161080391906120c1565b60206040518083038186803b15801561081b57600080fd5b505afa15801561082f573d6000803e3d6000fd5b505050506040513d601f19601f820116820180604052508101906108539190611dd8565b610892576040517f08c379a0000000000000000000000000000000000000000000000000000000008152600401610889906121f9565b60405180910390fd5b61089b81611615565b50565b60006002905090565b60006109496108b46111c3565b8484600160006108c26111c3565b73ffffffffffffffffffffffffffffffffffffffff1673ffffffffffffffffffffffffffffffffffffffff16815260200190815260200160002060008873ffffffffffffffffffffffffffffffffffffffff1673ffffffffffffffffffffffffffffffffffffffff168152602001908152602001600020546109449190612346565b6111cb565b6001905092915050565b600660009054906101000a900473ffffffffffffffffffffffffffffffffffffffff1673ffffffffffffffffffffffffffffffffffffffff166109946111c3565b73ffffffffffffffffffffffffffffffffffffffff16146109ea576040517f08c379a00000000000000000000000000000000000000000000000000000000081526004016109e190612199565b60405180910390fd5b610a16600760009054906101000a900473ffffffffffffffffffffffffffffffffffffffff168261162a565b50565b600c8060000154905081565b600a60009054906101000a900463ffffffff1681565b600660009054906101000a900473ffffffffffffffffffffffffffffffffffffffff1673ffffffffffffffffffffffffffffffffffffffff16610a7c6111c3565b73ffffffffffffffffffffffffffffffffffffffff1614610ad2576040517f08c379a0000000000000000000000000000000000000000000000000000000008152600401610ac990612199565b60405180910390fd5b610adc60096117fe565b565b60008060008373ffffffffffffffffffffffffffffffffffffffff1673ffffffffffffffffffffffffffffffffffffffff168152602001908152602001600020549050919050565b60098060000154905081565b6000600b60008373ffffffffffffffffffffffffffffffffffffffff1673ffffffffffffffffffffffffffffffffffffffff168152602001908152602001600020549050919050565b606060048054610b8a906124f3565b80601f0160208091040260200160405190810160405280929190818152602001828054610bb6906124f3565b8015610c035780601f10610bd857610100808354040283529160200191610c03565b820191906000526020600020905b815481529060010190602001808311610be657829003601f168201915b5050505050905090565b600660009054906101000a900473ffffffffffffffffffffffffffffffffffffffff1673ffffffffffffffffffffffffffffffffffffffff16610c4e6111c3565b73ffffffffffffffffffffffffffffffffffffffff1614610ca4576040517f08c379a0000000000000000000000000000000000000000000000000000000008152600401610c9b90612199565b60405180910390fd5b600e60009054906101000a900460ff16610cbd57600080fd5b610ce9600760009054906101000a900473ffffffffffffffffffffffffffffffffffffffff1682611814565b50565b60008060016000610cfb6111c3565b73ffffffffffffffffffffffffffffffffffffffff1673ffffffffffffffffffffffffffffffffffffffff16815260200190815260200160002060008573ffffffffffffffffffffffffffffffffffffffff1673ffffffffffffffffffffffffffffffffffffffff16815260200190815260200160002054905082811015610db8576040517f08c379a0000000000000000000000000000000000000000000000000000000008152600401610daf90612299565b60405180910390fd5b610dd5610dc36111c3565b858584610dd09190612427565b6111cb565b600191505092915050565b6000600560009054906101000a900473ffffffffffffffffffffffffffffffffffffffff1673ffffffffffffffffffffffffffffffffffffffff166358a5a5f5610e286111c3565b6040518263ffffffff1660e01b8152600401610e4491906120c1565b60206040518083038186803b158015610e5c57600080fd5b505afa158015610e70573d6000803e3d6000fd5b505050506040513d601f19601f82011682018060405250810190610e949190611dd8565b610ed3576040517f08c379a0000000000000000000000000000000000000000000000000000000008152600401610eca906121d9565b60405180910390fd5b600560009054906101000a900473ffffffffffffffffffffffffffffffffffffffff1673ffffffffffffffffffffffffffffffffffffffff166358a5a5f5846040518263ffffffff1660e01b8152600401610f2e91906120c1565b60206040518083038186803b158015610f4657600080fd5b505afa158015610f5a573d6000803e3d6000fd5b505050506040513d601f19601f82011682018060405250810190610f7e9190611dd8565b610fbd576040517f08c379a0000000000000000000000000000000000000000000000000000000008152600401610fb490612159565b60405180910390fd5b610fcd610fc86111c3565b611615565b610fd683611615565b610fe8610fe16111c3565b8484611396565b6001905092915050565b600660009054906101000a900473ffffffffffffffffffffffffffffffffffffffff1673ffffffffffffffffffffffffffffffffffffffff166110336111c3565b73ffffffffffffffffffffffffffffffffffffffff1614611089576040517f08c379a000000000000000000000000000000000000000000000000000000000815260040161108090612199565b60405180910390fd5b80600d8190555050565b600660009054906101000a900473ffffffffffffffffffffffffffffffffffffffff1673ffffffffffffffffffffffffffffffffffffffff166110d46111c3565b73ffffffffffffffffffffffffffffffffffffffff161461112a576040517f08c379a000000000000000000000000000000000000000000000000000000000815260040161112190612199565b60405180910390fd5b611134600c6117fe565b565b6000600160008473ffffffffffffffffffffffffffffffffffffffff1673ffffffffffffffffffffffffffffffffffffffff16815260200190815260200160002060008373ffffffffffffffffffffffffffffffffffffffff1673ffffffffffffffffffffffffffffffffffffffff16815260200190815260200160002054905092915050565b600d5481565b600033905090565b600073ffffffffffffffffffffffffffffffffffffffff168373ffffffffffffffffffffffffffffffffffffffff16141561123b576040517f08c379a000000000000000000000000000000000000000000000000000000000815260040161123290612279565b60405180910390fd5b600073ffffffffffffffffffffffffffffffffffffffff168273ffffffffffffffffffffffffffffffffffffffff1614156112ab576040517f08c379a00000000000000000000000000000000000000000000000000000000081526004016112a290612179565b60405180910390fd5b80600160008573ffffffffffffffffffffffffffffffffffffffff1673ffffffffffffffffffffffffffffffffffffffff16815260200190815260200160002060008473ffffffffffffffffffffffffffffffffffffffff1673ffffffffffffffffffffffffffffffffffffffff168152602001908152602001600020819055508173ffffffffffffffffffffffffffffffffffffffff168373ffffffffffffffffffffffffffffffffffffffff167f8c5be1e5ebec7d5bd14f71427d1e84f3dd0314c0f7b2291e5b200ac8c7c3b9258360405161138991906122d9565b60405180910390a3505050565b600073ffffffffffffffffffffffffffffffffffffffff168373ffffffffffffffffffffffffffffffffffffffff161415611406576040517f08c379a00000000000000000000000000000000000000000000000000000000081526004016113fd90612259565b60405180910390fd5b600073ffffffffffffffffffffffffffffffffffffffff168273ffffffffffffffffffffffffffffffffffffffff161415611476576040517f08c379a000000000000000000000000000000000000000000000000000000000815260040161146d90612119565b60405180910390fd5b611481838383611968565b60008060008573ffffffffffffffffffffffffffffffffffffffff1673ffffffffffffffffffffffffffffffffffffffff16815260200190815260200160002054905081811015611507576040517f08c379a00000000000000000000000000000000000000000000000000000000081526004016114fe906121b9565b60405180910390fd5b81816115139190612427565b6000808673ffffffffffffffffffffffffffffffffffffffff1673ffffffffffffffffffffffffffffffffffffffff16815260200190815260200160002081905550816000808573ffffffffffffffffffffffffffffffffffffffff1673ffffffffffffffffffffffffffffffffffffffff16815260200190815260200160002060008282546115a39190612346565b925050819055508273ffffffffffffffffffffffffffffffffffffffff168473ffffffffffffffffffffffffffffffffffffffff167fddf252ad1be2c89b69c2b068fc378daa952ba7f163c4a11628f55a4df523b3ef8460405161160791906122d9565b60405180910390a350505050565b61161e8161196d565b611627816119f8565b50565b600073ffffffffffffffffffffffffffffffffffffffff168273ffffffffffffffffffffffffffffffffffffffff16141561169a576040517f08c379a000000000000000000000000000000000000000000000000000000000815260040161169190612239565b60405180910390fd5b6116a682600083611968565b60008060008473ffffffffffffffffffffffffffffffffffffffff1673ffffffffffffffffffffffffffffffffffffffff1681526020019081526020016000205490508181101561172c576040517f08c379a000000000000000000000000000000000000000000000000000000000815260040161172390612139565b60405180910390fd5b81816117389190612427565b6000808573ffffffffffffffffffffffffffffffffffffffff1673ffffffffffffffffffffffffffffffffffffffff16815260200190815260200160002081905550816002600082825461178c9190612427565b92505081905550600073ffffffffffffffffffffffffffffffffffffffff168373ffffffffffffffffffffffffffffffffffffffff167fddf252ad1be2c89b69c2b068fc378daa952ba7f163c4a11628f55a4df523b3ef846040516117f191906122d9565b60405180910390a3505050565b6001816000016000828254019250508190555050565b600073ffffffffffffffffffffffffffffffffffffffff168273ffffffffffffffffffffffffffffffffffffffff161415611884576040517f08c379a000000000000000000000000000000000000000000000000000000000815260040161187b906122b9565b60405180910390fd5b61189060008383611968565b80600260008282546118a29190612346565b92505081905550806000808473ffffffffffffffffffffffffffffffffffffffff1673ffffffffffffffffffffffffffffffffffffffff16815260200190815260200160002060008282546118f79190612346565b925050819055508173ffffffffffffffffffffffffffffffffffffffff16600073ffffffffffffffffffffffffffffffffffffffff167fddf252ad1be2c89b69c2b068fc378daa952ba7f163c4a11628f55a4df523b3ef8360405161195c91906122d9565b60405180910390a35050565b505050565b600061197882611a83565b9050611984600c611b66565b600b60008473ffffffffffffffffffffffffffffffffffffffff1673ffffffffffffffffffffffffffffffffffffffff168152602001908152602001600020819055506119f4600760009054906101000a900473ffffffffffffffffffffffffffffffffffffffff168383611396565b5050565b6000611a0382611b74565b9050611a0f6009611b66565b600860008473ffffffffffffffffffffffffffffffffffffffff1673ffffffffffffffffffffffffffffffffffffffff16815260200190815260200160002081905550611a7f82600760009054906101000a900473ffffffffffffffffffffffffffffffffffffffff1683611396565b5050565b6000600760009054906101000a900473ffffffffffffffffffffffffffffffffffffffff1673ffffffffffffffffffffffffffffffffffffffff168273ffffffffffffffffffffffffffffffffffffffff161415611ae45760009050611b61565b6000600b60008473ffffffffffffffffffffffffffffffffffffffff1673ffffffffffffffffffffffffffffffffffffffff16815260200190815260200160002054611b30600c611b66565b611b3a9190612427565b90506000811415611b4f576000915050611b61565b600d5481611b5d91906123cd565b9150505b919050565b600081600001549050919050565b6000600760009054906101000a900473ffffffffffffffffffffffffffffffffffffffff1673ffffffffffffffffffffffffffffffffffffffff168273ffffffffffffffffffffffffffffffffffffffff161415611bd55760009050611c8f565b6000600860008473ffffffffffffffffffffffffffffffffffffffff1673ffffffffffffffffffffffffffffffffffffffff16815260200190815260200160002054611c216009611b66565b611c2b9190612427565b90506000811415611c40576000915050611c8f565b6000620f4240600a60009054906101000a900463ffffffff1663ffffffff1683611c6987610ade565b611c7391906123cd565b611c7d91906123cd565b611c87919061239c565b905080925050505b919050565b600081359050611ca3816129a3565b92915050565b600081519050611cb8816129ba565b92915050565b600081359050611ccd816129d1565b92915050565b600081359050611ce2816129e8565b92915050565b600060208284031215611cfa57600080fd5b6000611d0884828501611c94565b91505092915050565b60008060408385031215611d2457600080fd5b6000611d3285828601611c94565b9250506020611d4385828601611c94565b9150509250929050565b600080600060608486031215611d6257600080fd5b6000611d7086828701611c94565b9350506020611d8186828701611c94565b9250506040611d9286828701611cbe565b9150509250925092565b60008060408385031215611daf57600080fd5b6000611dbd85828601611c94565b9250506020611dce85828601611cbe565b9150509250929050565b600060208284031215611dea57600080fd5b6000611df884828501611ca9565b91505092915050565b600060208284031215611e1357600080fd5b6000611e2184828501611cbe565b91505092915050565b600060208284031215611e3c57600080fd5b6000611e4a84828501611cd3565b91505092915050565b611e5c8161245b565b82525050565b611e6b8161246d565b82525050565b6000611e7c8261232a565b611e868185612335565b9350611e968185602086016124c0565b611e9f816125b2565b840191505092915050565b6000611eb7602383612335565b9150611ec2826125c3565b604082019050919050565b6000611eda602283612335565b9150611ee582612612565b604082019050919050565b6000611efd602183612335565b9150611f0882612661565b604082019050919050565b6000611f20602283612335565b9150611f2b826126b0565b604082019050919050565b6000611f43602983612335565b9150611f4e826126ff565b604082019050919050565b6000611f66602683612335565b9150611f718261274e565b604082019050919050565b6000611f89601e83612335565b9150611f948261279d565b602082019050919050565b6000611fac602083612335565b9150611fb7826127c6565b602082019050919050565b6000611fcf602883612335565b9150611fda826127ef565b604082019050919050565b6000611ff2602183612335565b9150611ffd8261283e565b604082019050919050565b6000612015602583612335565b91506120208261288d565b604082019050919050565b6000612038602483612335565b9150612043826128dc565b604082019050919050565b600061205b602583612335565b91506120668261292b565b604082019050919050565b600061207e601f83612335565b91506120898261297a565b602082019050919050565b61209d81612499565b82525050565b6120ac816124a3565b82525050565b6120bb816124b3565b82525050565b60006020820190506120d66000830184611e53565b92915050565b60006020820190506120f16000830184611e62565b92915050565b600060208201905081810360008301526121118184611e71565b905092915050565b6000602082019050818103600083015261213281611eaa565b9050919050565b6000602082019050818103600083015261215281611ecd565b9050919050565b6000602082019050818103600083015261217281611ef0565b9050919050565b6000602082019050818103600083015261219281611f13565b9050919050565b600060208201905081810360008301526121b281611f36565b9050919050565b600060208201905081810360008301526121d281611f59565b9050919050565b600060208201905081810360008301526121f281611f7c565b9050919050565b6000602082019050818103600083015261221281611f9f565b9050919050565b6000602082019050818103600083015261223281611fc2565b9050919050565b6000602082019050818103600083015261225281611fe5565b9050919050565b6000602082019050818103600083015261227281612008565b9050919050565b600060208201905081810360008301526122928161202b565b9050919050565b600060208201905081810360008301526122b28161204e565b9050919050565b600060208201905081810360008301526122d281612071565b9050919050565b60006020820190506122ee6000830184612094565b92915050565b600060208201905061230960008301846120a3565b92915050565b600060208201905061232460008301846120b2565b92915050565b600081519050919050565b600082825260208201905092915050565b600061235182612499565b915061235c83612499565b9250827fffffffffffffffffffffffffffffffffffffffffffffffffffffffffffffffff0382111561239157612390612525565b5b828201905092915050565b60006123a782612499565b91506123b283612499565b9250826123c2576123c1612554565b5b828204905092915050565b60006123d882612499565b91506123e383612499565b9250817fffffffffffffffffffffffffffffffffffffffffffffffffffffffffffffffff048311821515161561241c5761241b612525565b5b828202905092915050565b600061243282612499565b915061243d83612499565b9250828210156124505761244f612525565b5b828203905092915050565b600061246682612479565b9050919050565b60008115159050919050565b600073ffffffffffffffffffffffffffffffffffffffff82169050919050565b6000819050919050565b600063ffffffff82169050919050565b600060ff82169050919050565b60005b838110156124de5780820151818401526020810190506124c3565b838111156124ed576000848401525b50505050565b6000600282049050600182168061250b57607f821691505b6020821081141561251f5761251e612583565b5b50919050565b7f4e487b7100000000000000000000000000000000000000000000000000000000600052601160045260246000fd5b7f4e487b7100000000000000000000000000000000000000000000000000000000600052601260045260246000fd5b7f4e487b7100000000000000000000000000000000000000000000000000000000600052602260045260246000fd5b6000601f19601f8301169050919050565b7f45524332303a207472616e7366657220746f20746865207a65726f206164647260008201527f6573730000000000000000000000000000000000000000000000000000000000602082015250565b7f45524332303a206275726e20616d6f756e7420657863656564732062616c616e60008201527f6365000000000000000000000000000000000000000000000000000000000000602082015250565b7f4b5943206e65656420746f20626520646f6e6520666f7220726563697069656e60008201527f7400000000000000000000000000000000000000000000000000000000000000602082015250565b7f45524332303a20617070726f766520746f20746865207a65726f20616464726560008201527f7373000000000000000000000000000000000000000000000000000000000000602082015250565b7f4f6e6c792043656e7472616c2042616e6b20697320616c6c6f77656420746f2060008201527f63616c6c20746869730000000000000000000000000000000000000000000000602082015250565b7f45524332303a207472616e7366657220616d6f756e742065786365656473206260008201527f616c616e63650000000000000000000000000000000000000000000000000000602082015250565b7f4b5943206e65656420746f20626520646f6e6520666f722073656e6465720000600082015250565b7f4b5943206e65656420746f20626520646f6e6520666f72207461785061796572600082015250565b7f45524332303a207472616e7366657220616d6f756e742065786365656473206160008201527f6c6c6f77616e6365000000000000000000000000000000000000000000000000602082015250565b7f45524332303a206275726e2066726f6d20746865207a65726f2061646472657360008201527f7300000000000000000000000000000000000000000000000000000000000000602082015250565b7f45524332303a207472616e736665722066726f6d20746865207a65726f20616460008201527f6472657373000000000000000000000000000000000000000000000000000000602082015250565b7f45524332303a20617070726f76652066726f6d20746865207a65726f2061646460008201527f7265737300000000000000000000000000000000000000000000000000000000602082015250565b7f45524332303a2064656372656173656420616c6c6f77616e63652062656c6f7760008201527f207a65726f000000000000000000000000000000000000000000000000000000602082015250565b7f45524332303a206d696e7420746f20746865207a65726f206164647265737300600082015250565b6129ac8161245b565b81146129b757600080fd5b50565b6129c38161246d565b81146129ce57600080fd5b50565b6129da81612499565b81146129e557600080fd5b50565b6129f1816124a3565b81146129fc57600080fd5b5056fea26469706673582212201f00463db51a12c94a2902c7da8dddac6059236688e387dae7c964a1a89c66af64736f6c63430008030033",
  "immutableReferences": {},
  "source": "// SPDX-License-Identifier: MIT\n\npragma solidity ^0.8.0;\n\nimport \"../ERC20/ERC20.sol\";\nimport \"../../utils/Counters.sol\";\nimport \"../../identity/KYC.sol\";\n\n/**\n * @dev Implementation of the {ERC20} interface as a sovereign moroccan crypto-currency\n * @author AshtonIzmev\n */\ncontract MED is ERC20 {\n\n    using Counters for Counters.Counter;\n\n    KYC kyc;\n\n    address _centralBank;\n    address _treasureAccount;\n\n    mapping (address => uint256) private _lastDayTax;\n    Counters.Counter public daysElapsed;\n    uint32 public dailyTaxRate;\n\n    mapping (address => uint256) private _lastMonthIncome;\n    Counters.Counter public monthsElapsed;\n    uint256 public universalMonthlyIncome;\n\n    bool public allowMint = false;\n\n    modifier onlyCentralBank() {\n        require(\n            _msgSender() == _centralBank,\n            \"Only Central Bank is allowed to call this\"\n        );\n        _;\n    } \n\n    /**\n     * The treasure account is the \"root\" account on this currency\n     * param annualTaxRatePercent : percentage of the account that would be taxed in a year\n     *                              tax is applied daily\n     * param umi : Universal Monthly Income\n     * param allowMint : Should we allow central bank to mint new tokens ?\n     */\n    constructor (address treasureAccount, uint32 annualTaxRatePercent, uint256 umi, \n        bool allowMintArg, uint256 initialMint, address _kyc) ERC20(\"Moroccan E-Dirham\", \"MED\") {\n        _centralBank = _msgSender();\n        _treasureAccount = treasureAccount;\n        kyc = KYC(_kyc);\n        dailyTaxRate = annualTaxRatePercent * 10000 / 365;\n        universalMonthlyIncome = umi;\n        allowMint = allowMintArg;\n        _mint(_treasureAccount, initialMint);\n    }\n\n    /**\n     * MED cyrpto-currency only uses \"cents\" or \"centimes\" as a subdivision\n     */\n    function decimals() public view virtual override returns (uint8) {\n        return 2;\n    }\n\n    function elapsedTaxDaysOf(address account) public view virtual returns (uint256) {\n        return _lastDayTax[account];\n    }\n\n    function elapsedIncomeMonthOf(address account) public view virtual returns (uint256) {\n        return _lastMonthIncome[account];\n    }\n\n    function transfer(address recipient, uint256 amount) public virtual override returns (bool) {\n        require(kyc.isIdentified(_msgSender()), \"KYC need to be done for sender\");\n        require(kyc.isIdentified(recipient), \"KYC need to be done for recipient\");\n        _updateAccount(_msgSender());\n        _updateAccount(recipient);\n        _transfer(_msgSender(), recipient, amount);\n        return true;\n    }\n\n    function updateAccount(address taxPayer) public virtual {\n        require(kyc.isIdentified(taxPayer), \"KYC need to be done for taxPayer\");\n        _updateAccount(taxPayer);\n    }\n\n    function mint(uint256 amount) public virtual onlyCentralBank {\n        require(allowMint);\n        _mint(_treasureAccount, amount);\n    }\n\n    function burn(uint256 amount) public virtual onlyCentralBank {\n        _burn(_treasureAccount, amount);\n    }\n\n    function incrementDay() public virtual onlyCentralBank {\n        daysElapsed.increment();\n    }\n\n    function incrementMonth() public virtual onlyCentralBank {\n        monthsElapsed.increment();\n    }\n\n    function setNewDailyTaxRate(uint32 newRate) public virtual onlyCentralBank {\n        dailyTaxRate = newRate;\n    }\n\n    function setNewBasicIncome(uint256 newIncome) public virtual onlyCentralBank {\n        universalMonthlyIncome = newIncome;\n    }\n    \n    /**\n    *\n    * * * * * * * * * * * * *\n    * Internal functions    *\n    * * * * * * * * * * * * *\n    *\n    */\n\n    function _calculateIncome(address taxPayer) internal view virtual returns (uint256) {\n        if (taxPayer == _treasureAccount) {\n            return 0;\n        }\n        uint256 taxPayerMonthsElapsed = monthsElapsed.current() - _lastMonthIncome[taxPayer];\n        if (taxPayerMonthsElapsed == 0) {\n            return 0;\n        }\n        return taxPayerMonthsElapsed * universalMonthlyIncome;\n    }\n\n    function _calculateTax(address taxPayer) internal view virtual returns (uint256) {\n        if (taxPayer == _treasureAccount) {\n            return 0;\n        }\n        uint256 taxPayerdaysElapsed = daysElapsed.current() - _lastDayTax[taxPayer];\n        if (taxPayerdaysElapsed == 0) {\n            return 0;\n        }\n        uint256 taxToPay = balanceOf(taxPayer) * taxPayerdaysElapsed * dailyTaxRate / (1000 * 1000);\n        return taxToPay;\n    }\n\n    function _updateAccount(address taxPayer) internal virtual{\n        _transferIncome(taxPayer);\n        _deductTax(taxPayer);\n    }\n\n    function _transferIncome(address taxPayer) internal virtual {\n        uint256 umi = _calculateIncome(taxPayer);\n        _lastMonthIncome[taxPayer] = monthsElapsed.current();\n        _transfer(_treasureAccount, taxPayer, umi);\n    }\n\n    function _deductTax(address taxPayer) internal virtual {\n        uint256 taxToPay = _calculateTax(taxPayer);\n        _lastDayTax[taxPayer] = daysElapsed.current();\n        _transfer(taxPayer, _treasureAccount, taxToPay);\n    }\n}\n",
  "sourcePath": "/home/issam/git/solidity-contracts/sol/truffle/contracts/token/med/MED.sol",
  "compiler": {
    "name": "solc",
    "version": "0.8.3+commit.8d00100c.Emscripten.clang"
  },
  "schemaVersion": "3.2.4",
  "updatedAt": "2021-06-12T23:03:37.329Z",
  "networkType": "ethereum",
  "devdoc": {
    "author": "AshtonIzmev",
    "details": "Implementation of the {ERC20} interface as a sovereign moroccan crypto-currency",
    "kind": "dev",
    "methods": {
      "allowance(address,address)": {
        "details": "See {IERC20-allowance}."
      },
      "approve(address,uint256)": {
        "details": "See {IERC20-approve}. Requirements: - `spender` cannot be the zero address."
      },
      "balanceOf(address)": {
        "details": "See {IERC20-balanceOf}."
      },
      "decreaseAllowance(address,uint256)": {
        "details": "Atomically decreases the allowance granted to `spender` by the caller. This is an alternative to {approve} that can be used as a mitigation for problems described in {IERC20-approve}. Emits an {Approval} event indicating the updated allowance. Requirements: - `spender` cannot be the zero address. - `spender` must have allowance for the caller of at least `subtractedValue`."
      },
      "increaseAllowance(address,uint256)": {
        "details": "Atomically increases the allowance granted to `spender` by the caller. This is an alternative to {approve} that can be used as a mitigation for problems described in {IERC20-approve}. Emits an {Approval} event indicating the updated allowance. Requirements: - `spender` cannot be the zero address."
      },
      "name()": {
        "details": "Returns the name of the token."
      },
      "symbol()": {
        "details": "Returns the symbol of the token, usually a shorter version of the name."
      },
      "totalSupply()": {
        "details": "See {IERC20-totalSupply}."
      },
      "transfer(address,uint256)": {
        "details": "See {IERC20-transfer}. Requirements: - `recipient` cannot be the zero address. - the caller must have a balance of at least `amount`."
      },
      "transferFrom(address,address,uint256)": {
        "details": "See {IERC20-transferFrom}. Emits an {Approval} event indicating the updated allowance. This is not required by the EIP. See the note at the beginning of {ERC20}. Requirements: - `sender` and `recipient` cannot be the zero address. - `sender` must have a balance of at least `amount`. - the caller must have allowance for ``sender``'s tokens of at least `amount`."
      }
    },
    "version": 1
  },
  "userdoc": {
    "kind": "user",
    "methods": {
      "constructor": {
        "notice": "The treasure account is the \"root\" account on this currency param annualTaxRatePercent : percentage of the account that would be taxed in a year                              tax is applied daily param umi : Universal Monthly Income param allowMint : Should we allow central bank to mint new tokens ?"
      },
      "decimals()": {
        "notice": "MED cyrpto-currency only uses \"cents\" or \"centimes\" as a subdivision"
      }
    },
    "version": 1
  }
}