{
  "contractName": "Mudaraba",
  "abi": [
    {
      "inputs": [
        {
          "internalType": "string",
          "name": "description_",
          "type": "string"
        },
        {
          "internalType": "string",
          "name": "ice_",
          "type": "string"
        },
        {
          "internalType": "uint256",
          "name": "capitalCap_",
          "type": "uint256"
        },
        {
          "internalType": "address",
          "name": "medToken_",
          "type": "address"
        },
        {
          "internalType": "address",
          "name": "fpToken_",
          "type": "address"
        }
      ],
      "stateMutability": "nonpayable",
      "type": "constructor"
    },
    {
      "anonymous": false,
      "inputs": [
        {
          "indexed": false,
          "internalType": "uint256",
          "name": "value",
          "type": "uint256"
        }
      ],
      "name": "Loss",
      "type": "event"
    },
    {
      "anonymous": false,
      "inputs": [
        {
          "indexed": false,
          "internalType": "uint256",
          "name": "value",
          "type": "uint256"
        }
      ],
      "name": "Profit",
      "type": "event"
    },
    {
      "inputs": [],
      "name": "capitalCap",
      "outputs": [
        {
          "internalType": "uint256",
          "name": "",
          "type": "uint256"
        }
      ],
      "stateMutability": "view",
      "type": "function",
      "constant": true
    },
    {
      "inputs": [],
      "name": "description",
      "outputs": [
        {
          "internalType": "string",
          "name": "",
          "type": "string"
        }
      ],
      "stateMutability": "view",
      "type": "function",
      "constant": true
    },
    {
      "inputs": [
        {
          "internalType": "uint256",
          "name": "idx",
          "type": "uint256"
        }
      ],
      "name": "getSubscription",
      "outputs": [
        {
          "internalType": "uint256",
          "name": "",
          "type": "uint256"
        }
      ],
      "stateMutability": "view",
      "type": "function",
      "constant": true
    },
    {
      "inputs": [],
      "name": "getSubscriptionLength",
      "outputs": [
        {
          "internalType": "uint256",
          "name": "",
          "type": "uint256"
        }
      ],
      "stateMutability": "view",
      "type": "function",
      "constant": true
    },
    {
      "inputs": [],
      "name": "ice",
      "outputs": [
        {
          "internalType": "string",
          "name": "",
          "type": "string"
        }
      ],
      "stateMutability": "view",
      "type": "function",
      "constant": true
    },
    {
      "inputs": [
        {
          "internalType": "uint256",
          "name": "tokenId",
          "type": "uint256"
        }
      ],
      "name": "isSubscribed",
      "outputs": [
        {
          "internalType": "bool",
          "name": "",
          "type": "bool"
        }
      ],
      "stateMutability": "view",
      "type": "function",
      "constant": true
    },
    {
      "inputs": [],
      "name": "totalCapital",
      "outputs": [
        {
          "internalType": "uint256",
          "name": "",
          "type": "uint256"
        }
      ],
      "stateMutability": "view",
      "type": "function",
      "constant": true
    },
    {
      "inputs": [
        {
          "internalType": "uint256",
          "name": "depositAmount",
          "type": "uint256"
        }
      ],
      "name": "subscribe",
      "outputs": [],
      "stateMutability": "nonpayable",
      "type": "function"
    },
    {
      "inputs": [
        {
          "internalType": "uint256",
          "name": "tokenId",
          "type": "uint256"
        },
        {
          "internalType": "uint256",
          "name": "depositAmount",
          "type": "uint256"
        }
      ],
      "name": "addFund",
      "outputs": [],
      "stateMutability": "nonpayable",
      "type": "function"
    },
    {
      "inputs": [
        {
          "internalType": "uint256",
          "name": "tokenId",
          "type": "uint256"
        },
        {
          "internalType": "uint256",
          "name": "withdrawnAmount",
          "type": "uint256"
        }
      ],
      "name": "withdrawFund",
      "outputs": [],
      "stateMutability": "nonpayable",
      "type": "function"
    },
    {
      "inputs": [
        {
          "internalType": "uint256",
          "name": "profitAmount",
          "type": "uint256"
        }
      ],
      "name": "distributeProfit",
      "outputs": [],
      "stateMutability": "nonpayable",
      "type": "function"
    },
    {
      "inputs": [
        {
          "internalType": "uint256",
          "name": "lossAmount",
          "type": "uint256"
        }
      ],
      "name": "takeLoss",
      "outputs": [],
      "stateMutability": "nonpayable",
      "type": "function"
    },
    {
      "inputs": [
        {
          "internalType": "uint256",
          "name": "tokenId",
          "type": "uint256"
        }
      ],
      "name": "getProduct",
      "outputs": [
        {
          "internalType": "uint256",
          "name": "",
          "type": "uint256"
        },
        {
          "internalType": "uint256",
          "name": "",
          "type": "uint256"
        }
      ],
      "stateMutability": "view",
      "type": "function",
      "constant": true
    }
  ],
  "bytecode": "0x60806040523480156200001157600080fd5b506040516200252a3803806200252a8339818101604052810190620000379190620002a4565b620000476200014c60201b60201c565b600260006101000a81548173ffffffffffffffffffffffffffffffffffffffff021916908373ffffffffffffffffffffffffffffffffffffffff16021790555084600590805190602001906200009f92919062000154565b508360069080519060200190620000b892919062000154565b5082600881905550816000806101000a81548173ffffffffffffffffffffffffffffffffffffffff021916908373ffffffffffffffffffffffffffffffffffffffff16021790555080600160006101000a81548173ffffffffffffffffffffffffffffffffffffffff021916908373ffffffffffffffffffffffffffffffffffffffff16021790555050505050506200053a565b600033905090565b82805462000162906200042b565b90600052602060002090601f016020900481019282620001865760008555620001d2565b82601f10620001a157805160ff1916838001178555620001d2565b82800160010185558215620001d2579182015b82811115620001d1578251825591602001919060010190620001b4565b5b509050620001e19190620001e5565b5090565b5b8082111562000200576000816000905550600101620001e6565b5090565b60006200021b620002158462000381565b62000358565b9050828152602081018484840111156200023457600080fd5b62000241848285620003f5565b509392505050565b6000815190506200025a8162000506565b92915050565b600082601f8301126200027257600080fd5b81516200028484826020860162000204565b91505092915050565b6000815190506200029e8162000520565b92915050565b600080600080600060a08688031215620002bd57600080fd5b600086015167ffffffffffffffff811115620002d857600080fd5b620002e68882890162000260565b955050602086015167ffffffffffffffff8111156200030457600080fd5b620003128882890162000260565b945050604062000325888289016200028d565b9350506060620003388882890162000249565b92505060806200034b8882890162000249565b9150509295509295909350565b60006200036462000377565b905062000372828262000461565b919050565b6000604051905090565b600067ffffffffffffffff8211156200039f576200039e620004c6565b5b620003aa82620004f5565b9050602081019050919050565b6000620003c482620003cb565b9050919050565b600073ffffffffffffffffffffffffffffffffffffffff82169050919050565b6000819050919050565b60005b8381101562000415578082015181840152602081019050620003f8565b8381111562000425576000848401525b50505050565b600060028204905060018216806200044457607f821691505b602082108114156200045b576200045a62000497565b5b50919050565b6200046c82620004f5565b810181811067ffffffffffffffff821117156200048e576200048d620004c6565b5b80604052505050565b7f4e487b7100000000000000000000000000000000000000000000000000000000600052602260045260246000fd5b7f4e487b7100000000000000000000000000000000000000000000000000000000600052604160045260246000fd5b6000601f19601f8301169050919050565b6200051181620003b7565b81146200051d57600080fd5b50565b6200052b81620003eb565b81146200053757600080fd5b50565b611fe0806200054a6000396000f3fe608060405234801561001057600080fd5b50600436106100ce5760003560e01c806375ee32e31161008c578063b9db15b411610066578063b9db15b4146101ed578063d36dfac81461021e578063d8ba83d51461023a578063dc311dd314610256576100ce565b806375ee32e3146101975780639c146b68146101b3578063b88d09f6146101d1576100ce565b8062ffa189146100d35780630f574ba7146101035780632530ea711461011f578063383032ea1461013d5780634c2a860d1461015b5780637284e41614610179575b600080fd5b6100ed60048036038101906100e8919061172a565b610286565b6040516100fa91906119b1565b60405180910390f35b61011d6004803603810190610118919061172a565b6102a3565b005b6101276106e3565b6040516101349190611aae565b60405180910390f35b6101456106f4565b6040516101529190611aae565b60405180910390f35b6101636106fa565b60405161017091906119cc565b60405180910390f35b610181610788565b60405161018e91906119cc565b60405180910390f35b6101b160048036038101906101ac919061172a565b610816565b005b6101bb6109c9565b6040516101c89190611aae565b60405180910390f35b6101eb60048036038101906101e6919061177c565b6109cf565b005b6102076004803603810190610202919061172a565b610ac6565b604051610215929190611ac9565b60405180910390f35b6102386004803603810190610233919061172a565b610b00565b005b610254600480360381019061024f919061177c565b610c6e565b005b610270600480360381019061026b919061172a565b610d65565b60405161027d9190611aae565b60405180910390f35b600061029c826003610dcd90919063ffffffff16565b9050919050565b600854816007546102b49190611b0e565b106102f4576040517f08c379a00000000000000000000000000000000000000000000000000000000081526004016102eb90611a2e565b60405180910390fd5b8060008054906101000a900473ffffffffffffffffffffffffffffffffffffffff1673ffffffffffffffffffffffffffffffffffffffff1663dd62ed3e610339610de7565b306040518363ffffffff1660e01b81526004016103579291906118ff565b60206040518083038186803b15801561036f57600080fd5b505afa158015610383573d6000803e3d6000fd5b505050506040513d601f19601f820116820180604052508101906103a79190611753565b10156103e8576040517f08c379a00000000000000000000000000000000000000000000000000000000081526004016103df90611a0e565b60405180910390fd5b60008054906101000a900473ffffffffffffffffffffffffffffffffffffffff1673ffffffffffffffffffffffffffffffffffffffff166323b872dd61042c610de7565b30846040518463ffffffff1660e01b815260040161044c93929190611928565b602060405180830381600087803b15801561046657600080fd5b505af115801561047a573d6000803e3d6000fd5b505050506040513d601f19601f8201168201806040525081019061049e9190611701565b50600160009054906101000a900473ffffffffffffffffffffffffffffffffffffffff1673ffffffffffffffffffffffffffffffffffffffff16635edfe0df6104e5610de7565b60026040518363ffffffff1660e01b815260040161050492919061195f565b600060405180830381600087803b15801561051e57600080fd5b505af1158015610532573d6000803e3d6000fd5b505050506000600160009054906101000a900473ffffffffffffffffffffffffffffffffffffffff1673ffffffffffffffffffffffffffffffffffffffff1663561892366040518163ffffffff1660e01b815260040160206040518083038186803b1580156105a057600080fd5b505afa1580156105b4573d6000803e3d6000fd5b505050506040513d601f19601f820116820180604052508101906105d89190611753565b9050604051806040016040528060008054906101000a900473ffffffffffffffffffffffffffffffffffffffff1673ffffffffffffffffffffffffffffffffffffffff166380477a4c6040518163ffffffff1660e01b815260040160206040518083038186803b15801561064b57600080fd5b505afa15801561065f573d6000803e3d6000fd5b505050506040513d601f19601f820116820180604052508101906106839190611753565b8152602001838152506009600083815260200190815260200160002060008201518160000155602082015181600101559050506106ca816003610def90919063ffffffff16565b50816007546106d99190611b0e565b6007819055505050565b60006106ef6003610e09565b905090565b60075481565b6006805461070790611cbe565b80601f016020809104026020016040519081016040528092919081815260200182805461073390611cbe565b80156107805780601f1061075557610100808354040283529160200191610780565b820191906000526020600020905b81548152906001019060200180831161076357829003601f168201915b505050505081565b6005805461079590611cbe565b80601f01602080910402602001604051908101604052809291908181526020018280546107c190611cbe565b801561080e5780601f106107e35761010080835404028352916020019161080e565b820191906000526020600020905b8154815290600101906020018083116107f157829003601f168201915b505050505081565b600260009054906101000a900473ffffffffffffffffffffffffffffffffffffffff1673ffffffffffffffffffffffffffffffffffffffff16610857610de7565b73ffffffffffffffffffffffffffffffffffffffff16146108ad576040517f08c379a00000000000000000000000000000000000000000000000000000000081526004016108a490611a8e565b60405180910390fd5b8060075410156108f2576040517f08c379a00000000000000000000000000000000000000000000000000000000081526004016108e990611a2e565b60405180910390fd5b6000600754905060005b6109046106e3565b81101561098d57600061091682610d65565b90506000600960008381526020019081526020016000206040518060400160405290816000820154815260200160018201548152505090506000848260200151876109619190611b95565b61096b9190611b64565b90506109778382610e1e565b505050808061098590611cf0565b9150506108fc565b507fb65b2e085d7d040c313f7d4e1ac90f5937026fee497e0e24a7eff16a55e1c5ea826040516109bd9190611aae565b60405180910390a15050565b60085481565b6109d7610de7565b73ffffffffffffffffffffffffffffffffffffffff16600160009054906101000a900473ffffffffffffffffffffffffffffffffffffffff1673ffffffffffffffffffffffffffffffffffffffff16636352211e846040518263ffffffff1660e01b8152600401610a489190611aae565b60206040518083038186803b158015610a6057600080fd5b505afa158015610a74573d6000803e3d6000fd5b505050506040513d601f19601f82011682018060405250810190610a9891906116d8565b73ffffffffffffffffffffffffffffffffffffffff1614610ab857600080fd5b610ac28282610e1e565b5050565b6000806009600084815260200190815260200160002060000154600960008581526020019081526020016000206001015491509150915091565b600260009054906101000a900473ffffffffffffffffffffffffffffffffffffffff1673ffffffffffffffffffffffffffffffffffffffff16610b41610de7565b73ffffffffffffffffffffffffffffffffffffffff1614610b97576040517f08c379a0000000000000000000000000000000000000000000000000000000008152600401610b8e90611a8e565b60405180910390fd5b6000600754905060005b610ba96106e3565b811015610c32576000610bbb82610d65565b9050600060096000838152602001908152602001600020604051806040016040529081600082015481526020016001820154815250509050600084826020015187610c069190611b95565b610c109190611b64565b9050610c1c838261114b565b5050508080610c2a90611cf0565b915050610ba1565b507f357d905f1831209797df4d55d79c5c5bf1d9f7311c976afd05e13d881eab9bc882604051610c629190611aae565b60405180910390a15050565b610c76610de7565b73ffffffffffffffffffffffffffffffffffffffff16600160009054906101000a900473ffffffffffffffffffffffffffffffffffffffff1673ffffffffffffffffffffffffffffffffffffffff16636352211e846040518263ffffffff1660e01b8152600401610ce79190611aae565b60206040518083038186803b158015610cff57600080fd5b505afa158015610d13573d6000803e3d6000fd5b505050506040513d601f19601f82011682018060405250810190610d3791906116d8565b73ffffffffffffffffffffffffffffffffffffffff1614610d5757600080fd5b610d61828261114b565b5050565b6000610d716003610e09565b8210610db2576040517f08c379a0000000000000000000000000000000000000000000000000000000008152600401610da9906119ee565b60405180910390fd5b610dc68260036113d590919063ffffffff16565b9050919050565b6000610ddf836000018360001b6113ef565b905092915050565b600033905090565b6000610e01836000018360001b611412565b905092915050565b6000610e1782600001611482565b9050919050565b610e2782610286565b610e66576040517f08c379a0000000000000000000000000000000000000000000000000000000008152600401610e5d90611a6e565b60405180910390fd5b6000600960008481526020019081526020016000206040518060400160405290816000820154815260200160018201548152505090508181602001511015610ee3576040517f08c379a0000000000000000000000000000000000000000000000000000000008152600401610eda90611a4e565b60405180910390fd5b60008054906101000a900473ffffffffffffffffffffffffffffffffffffffff1673ffffffffffffffffffffffffffffffffffffffff1663a9059cbb610f27610de7565b846040518363ffffffff1660e01b8152600401610f45929190611988565b602060405180830381600087803b158015610f5f57600080fd5b505af1158015610f73573d6000803e3d6000fd5b505050506040513d601f19601f82011682018060405250810190610f979190611701565b50604051806040016040528060008054906101000a900473ffffffffffffffffffffffffffffffffffffffff1673ffffffffffffffffffffffffffffffffffffffff166380477a4c6040518163ffffffff1660e01b815260040160206040518083038186803b15801561100957600080fd5b505afa15801561101d573d6000803e3d6000fd5b505050506040513d601f19601f820116820180604052508101906110419190611753565b81526020018383602001516110569190611bef565b815250600960008581526020019081526020016000206000820151816000015560208201518160010155905050818160200151141561113257600160009054906101000a900473ffffffffffffffffffffffffffffffffffffffff1673ffffffffffffffffffffffffffffffffffffffff16639d118770846040518263ffffffff1660e01b81526004016110ea9190611aae565b600060405180830381600087803b15801561110457600080fd5b505af1158015611118573d6000803e3d6000fd5b5050505061113083600361149390919063ffffffff16565b505b816007546111409190611bef565b600781905550505050565b61115482610286565b611193576040517f08c379a000000000000000000000000000000000000000000000000000000000815260040161118a90611a6e565b60405180910390fd5b600060096000848152602001908152602001600020604051806040016040529081600082015481526020016001820154815250509050600854826007546111da9190611b0e565b1061121a576040517f08c379a000000000000000000000000000000000000000000000000000000000815260040161121190611a2e565b60405180910390fd5b60008054906101000a900473ffffffffffffffffffffffffffffffffffffffff1673ffffffffffffffffffffffffffffffffffffffff166323b872dd61125e610de7565b30856040518463ffffffff1660e01b815260040161127e93929190611928565b602060405180830381600087803b15801561129857600080fd5b505af11580156112ac573d6000803e3d6000fd5b505050506040513d601f19601f820116820180604052508101906112d09190611701565b50604051806040016040528060008054906101000a900473ffffffffffffffffffffffffffffffffffffffff1673ffffffffffffffffffffffffffffffffffffffff166380477a4c6040518163ffffffff1660e01b815260040160206040518083038186803b15801561134257600080fd5b505afa158015611356573d6000803e3d6000fd5b505050506040513d601f19601f8201168201806040525081019061137a9190611753565b815260200183836020015161138f9190611b0e565b815250600960008581526020019081526020016000206000820151816000015560208201518160010155905050816007546113ca9190611b0e565b600781905550505050565b60006113e483600001836114ad565b60001c905092915050565b600080836001016000848152602001908152602001600020541415905092915050565b600061141e83836113ef565b61147757826000018290806001815401808255809150506001900390600052602060002001600090919091909150558260000180549050836001016000848152602001908152602001600020819055506001905061147c565b600090505b92915050565b600081600001805490509050919050565b60006114a5836000018360001b6114fe565b905092915050565b60008260000182815481106114eb577f4e487b7100000000000000000000000000000000000000000000000000000000600052603260045260246000fd5b9060005260206000200154905092915050565b600080836001016000848152602001908152602001600020549050600081146116785760006001826115309190611bef565b90506000600186600001805490506115489190611bef565b905081811461160357600086600001828154811061158f577f4e487b7100000000000000000000000000000000000000000000000000000000600052603260045260246000fd5b90600052602060002001549050808760000184815481106115d9577f4e487b7100000000000000000000000000000000000000000000000000000000600052603260045260246000fd5b90600052602060002001819055508387600101600083815260200190815260200160002081905550505b8560000180548061163d577f4e487b7100000000000000000000000000000000000000000000000000000000600052603160045260246000fd5b60019003818190600052602060002001600090559055856001016000868152602001908152602001600020600090556001935050505061167e565b60009150505b92915050565b60008151905061169381611f65565b92915050565b6000815190506116a881611f7c565b92915050565b6000813590506116bd81611f93565b92915050565b6000815190506116d281611f93565b92915050565b6000602082840312156116ea57600080fd5b60006116f884828501611684565b91505092915050565b60006020828403121561171357600080fd5b600061172184828501611699565b91505092915050565b60006020828403121561173c57600080fd5b600061174a848285016116ae565b91505092915050565b60006020828403121561176557600080fd5b6000611773848285016116c3565b91505092915050565b6000806040838503121561178f57600080fd5b600061179d858286016116ae565b92505060206117ae858286016116ae565b9150509250929050565b6117c181611c23565b82525050565b6117d081611c35565b82525050565b6117df81611c79565b82525050565b60006117f082611af2565b6117fa8185611afd565b935061180a818560208601611c8b565b61181381611dc6565b840191505092915050565b600061182b600c83611afd565b915061183682611dd7565b602082019050919050565b600061184e604283611afd565b915061185982611e00565b606082019050919050565b6000611871601483611afd565b915061187c82611e75565b602082019050919050565b6000611894603083611afd565b915061189f82611e9e565b604082019050919050565b60006118b7601e83611afd565b91506118c282611eed565b602082019050919050565b60006118da602983611afd565b91506118e582611f16565b604082019050919050565b6118f981611c6f565b82525050565b600060408201905061191460008301856117b8565b61192160208301846117b8565b9392505050565b600060608201905061193d60008301866117b8565b61194a60208301856117b8565b61195760408301846118f0565b949350505050565b600060408201905061197460008301856117b8565b61198160208301846117d6565b9392505050565b600060408201905061199d60008301856117b8565b6119aa60208301846118f0565b9392505050565b60006020820190506119c660008301846117c7565b92915050565b600060208201905081810360008301526119e681846117e5565b905092915050565b60006020820190508181036000830152611a078161181e565b9050919050565b60006020820190508181036000830152611a2781611841565b9050919050565b60006020820190508181036000830152611a4781611864565b9050919050565b60006020820190508181036000830152611a6781611887565b9050919050565b60006020820190508181036000830152611a87816118aa565b9050919050565b60006020820190508181036000830152611aa7816118cd565b9050919050565b6000602082019050611ac360008301846118f0565b92915050565b6000604082019050611ade60008301856118f0565b611aeb60208301846118f0565b9392505050565b600081519050919050565b600082825260208201905092915050565b6000611b1982611c6f565b9150611b2483611c6f565b9250827fffffffffffffffffffffffffffffffffffffffffffffffffffffffffffffffff03821115611b5957611b58611d39565b5b828201905092915050565b6000611b6f82611c6f565b9150611b7a83611c6f565b925082611b8a57611b89611d68565b5b828204905092915050565b6000611ba082611c6f565b9150611bab83611c6f565b9250817fffffffffffffffffffffffffffffffffffffffffffffffffffffffffffffffff0483118215151615611be457611be3611d39565b5b828202905092915050565b6000611bfa82611c6f565b9150611c0583611c6f565b925082821015611c1857611c17611d39565b5b828203905092915050565b6000611c2e82611c4f565b9050919050565b60008115159050919050565b600061ffff82169050919050565b600073ffffffffffffffffffffffffffffffffffffffff82169050919050565b6000819050919050565b6000611c8482611c41565b9050919050565b60005b83811015611ca9578082015181840152602081019050611c8e565b83811115611cb8576000848401525b50505050565b60006002820490506001821680611cd657607f821691505b60208210811415611cea57611ce9611d97565b5b50919050565b6000611cfb82611c6f565b91507fffffffffffffffffffffffffffffffffffffffffffffffffffffffffffffffff821415611d2e57611d2d611d39565b5b600182019050919050565b7f4e487b7100000000000000000000000000000000000000000000000000000000600052601160045260246000fd5b7f4e487b7100000000000000000000000000000000000000000000000000000000600052601260045260246000fd5b7f4e487b7100000000000000000000000000000000000000000000000000000000600052602260045260246000fd5b6000601f19601f8301169050919050565b7f496478206f766572666c6f770000000000000000000000000000000000000000600082015250565b7f5072657061726520616e20616c6c6f77616e636520776974682074686520636f60008201527f727265637420616d6f756e7420696e206f7264657220746f207375627363726960208201527f6265000000000000000000000000000000000000000000000000000000000000604082015250565b7f4361706974616c20636170206578636565646564000000000000000000000000600082015250565b7f57697468647261776e20616d6f756e74206d757374206265206c65737320746860008201527f616e20746f74616c2070726f6475637400000000000000000000000000000000602082015250565b7f4578697374696e67204d7564617261626120737562736372697074696f6e0000600082015250565b7f4f6e6c792049737375696e672042616e6b20697320616c6c6f77656420746f2060008201527f63616c6c20746869730000000000000000000000000000000000000000000000602082015250565b611f6e81611c23565b8114611f7957600080fd5b50565b611f8581611c35565b8114611f9057600080fd5b50565b611f9c81611c6f565b8114611fa757600080fd5b5056fea2646970667358221220283586875a4964a14e977ba5b590c403361160a881e0c846b0f344fc83a6158b64736f6c63430008030033",
  "immutableReferences": {},
  "source": "// SPDX-License-Identifier: MIT\n\npragma solidity ^0.8.0;\n\nimport \"./GenericProduct.sol\";\n\n/**\n * @dev Banking smart contracts - Mudaraba\n * @author AshtonIzmev\n */\ncontract Mudaraba is GenericProduct {\n\n    using EnumerableSet for EnumerableSet.UintSet;\n\n    string public description;\n    string public ice;\n\n    uint256 public totalCapital;\n    uint256 public capitalCap;\n\n    struct Product {\n        uint256 _subscriptionDate;\n        uint256 _subscriptionAmount;\n    }\n\n    mapping (uint256 => Product) private _subscriptions;\n\n    /**\n     * param description_       Description of the company\n     * param ice_               Unique Identification Number of a company\n     * param capital_           Initial capital\n     */\n    constructor (string memory description_, string memory ice_, uint256 capitalCap_,\n    address medToken_, address fpToken_) {\n        _issuingBank = _msgSender();\n        description = description_;\n        ice = ice_;\n        capitalCap = capitalCap_;\n\n        medToken = MED(medToken_);\n        fpToken = FP(fpToken_);\n    }\n\n    /**\n     * Subscribe a new Moudaraba product\n     */\n    function subscribe(uint256 depositAmount) public virtual {\n        require(totalCapital + depositAmount < capitalCap, \"Capital cap exceeded\");\n        require(medToken.allowance(_msgSender(), address(this)) >= depositAmount, \"Prepare an allowance with the correct amount in order to subscribe\");\n        medToken.transferFrom(_msgSender(), address(this), depositAmount);\n        fpToken.create(_msgSender(), 2);\n        uint256 tokenId = fpToken.getCurrentTokenId();\n        _subscriptions[tokenId] = Product(medToken.daysElapsed(), depositAmount);\n        _subscriptionIds.add(tokenId);\n        totalCapital = totalCapital + depositAmount;\n    }\n\n    /**\n     * Add fund to an existing Mudaraba fund (only the token owner)\n     */\n    function addFund(uint256 tokenId, uint256 depositAmount) public virtual {\n        require(fpToken.ownerOf(tokenId) == _msgSender());\n        _addFund(tokenId, depositAmount);\n    }\n\n    /**\n     * Withdraw amount for the Mudaraba fund (only the token owner)\n     */\n    function withdrawFund(uint256 tokenId, uint256 withdrawnAmount) public virtual {\n        require(fpToken.ownerOf(tokenId) == _msgSender());\n        _withdrawFund(tokenId, withdrawnAmount);\n    }\n\n    function distributeProfit(uint256 profitAmount) public virtual onlyIssuingBank {\n        // Can exceed capital cap\n        uint256 totalCapitalTmp = totalCapital;\n        for (uint idx=0; idx < getSubscriptionLength(); idx++) {\n            uint256 tokenId = getSubscription(idx);\n            Product memory prod = _subscriptions[tokenId];\n            uint256 depositAmount = (profitAmount * prod._subscriptionAmount) / totalCapitalTmp;\n            _addFund(tokenId, depositAmount);\n        }\n        emit Profit(profitAmount);\n    }\n\n    function takeLoss(uint256 lossAmount) public virtual onlyIssuingBank {\n        require(totalCapital >= lossAmount, \"Capital cap exceeded\");\n        uint256 totalCapitalTmp = totalCapital;\n        for (uint idx=0; idx < getSubscriptionLength(); idx++) {\n            uint256 tokenId = getSubscription(idx);\n            Product memory prod = _subscriptions[tokenId];\n            uint256 withdrawnAmount = (lossAmount * prod._subscriptionAmount) / totalCapitalTmp;\n            _withdrawFund(tokenId, withdrawnAmount);\n        }\n        emit Loss(lossAmount);\n    }\n\n    function getProduct(uint256 tokenId) public view virtual returns (uint256, uint256) {\n        return (\n            _subscriptions[tokenId]._subscriptionDate,\n            _subscriptions[tokenId]._subscriptionAmount);\n    }\n\n    /* ********************************************************* */\n    /* * * * * * * * * *  Internal functions * * * * * * * * * * */\n    /* ********************************************************* */\n\n    function _addFund(uint256 tokenId, uint256 depositAmount) internal virtual {\n        require(isSubscribed(tokenId), \"Existing Mudaraba subscription\");\n        Product memory prod = _subscriptions[tokenId];\n        require(totalCapital + depositAmount < capitalCap, \"Capital cap exceeded\");\n        medToken.transferFrom(_msgSender(), address(this), depositAmount);\n        _subscriptions[tokenId] = Product(medToken.daysElapsed(), prod._subscriptionAmount + depositAmount);\n        totalCapital = totalCapital + depositAmount;\n    }\n\n    function _withdrawFund(uint256 tokenId, uint256 withdrawnAmount) internal virtual {\n        require(isSubscribed(tokenId), \"Existing Mudaraba subscription\");\n        Product memory prod = _subscriptions[tokenId];\n        require(prod._subscriptionAmount >= withdrawnAmount, \"Withdrawn amount must be less than total product\");\n        medToken.transfer(_msgSender(), withdrawnAmount);\n        _subscriptions[tokenId] = Product(medToken.daysElapsed(), prod._subscriptionAmount - withdrawnAmount);\n        if (prod._subscriptionAmount == withdrawnAmount) {\n            fpToken.destroy(tokenId);\n            _subscriptionIds.remove(tokenId);        \n        }\n        totalCapital = totalCapital - withdrawnAmount;\n    }\n\n    event Profit(uint256 value);\n    event Loss(uint256 value);\n\n}\n",
  "sourcePath": "/home/issam/git/solidity-contracts/sol/truffle/contracts/token/bank/Mudaraba.sol",
  "compiler": {
    "name": "solc",
    "version": "0.8.3+commit.8d00100c.Emscripten.clang"
  },
  "schemaVersion": "3.2.4",
  "updatedAt": "2021-07-07T12:41:45.701Z",
  "networkType": "ethereum",
  "devdoc": {
    "author": "AshtonIzmev",
    "details": "Banking smart contracts - Mudaraba",
    "kind": "dev",
    "methods": {},
    "version": 1
  },
  "userdoc": {
    "kind": "user",
    "methods": {
      "addFund(uint256,uint256)": {
        "notice": "Add fund to an existing Mudaraba fund (only the token owner)"
      },
      "constructor": {
        "notice": "param description_       Description of the company param ice_               Unique Identification Number of a company param capital_           Initial capital"
      },
      "subscribe(uint256)": {
        "notice": "Subscribe a new Moudaraba product"
      },
      "withdrawFund(uint256,uint256)": {
        "notice": "Withdraw amount for the Mudaraba fund (only the token owner)"
      }
    },
    "version": 1
  }
}