{
  "contractName": "Mudaraba",
  "abi": [
    {
      "inputs": [
        {
          "internalType": "string",
          "name": "description_",
          "type": "string"
        },
        {
          "internalType": "string",
          "name": "ice_",
          "type": "string"
        },
        {
          "internalType": "uint256",
          "name": "capitalCap_",
          "type": "uint256"
        },
        {
          "internalType": "address",
          "name": "medToken_",
          "type": "address"
        },
        {
          "internalType": "address",
          "name": "fpToken_",
          "type": "address"
        }
      ],
      "stateMutability": "nonpayable",
      "type": "constructor"
    },
    {
      "anonymous": false,
      "inputs": [
        {
          "indexed": false,
          "internalType": "uint256",
          "name": "value",
          "type": "uint256"
        }
      ],
      "name": "Loss",
      "type": "event"
    },
    {
      "anonymous": false,
      "inputs": [
        {
          "indexed": false,
          "internalType": "uint256",
          "name": "value",
          "type": "uint256"
        }
      ],
      "name": "Profit",
      "type": "event"
    },
    {
      "inputs": [],
      "name": "capitalCap",
      "outputs": [
        {
          "internalType": "uint256",
          "name": "",
          "type": "uint256"
        }
      ],
      "stateMutability": "view",
      "type": "function",
      "constant": true
    },
    {
      "inputs": [],
      "name": "description",
      "outputs": [
        {
          "internalType": "string",
          "name": "",
          "type": "string"
        }
      ],
      "stateMutability": "view",
      "type": "function",
      "constant": true
    },
    {
      "inputs": [
        {
          "internalType": "uint256",
          "name": "idx",
          "type": "uint256"
        }
      ],
      "name": "getSubscription",
      "outputs": [
        {
          "internalType": "uint256",
          "name": "",
          "type": "uint256"
        }
      ],
      "stateMutability": "view",
      "type": "function",
      "constant": true
    },
    {
      "inputs": [],
      "name": "getSubscriptionLength",
      "outputs": [
        {
          "internalType": "uint256",
          "name": "",
          "type": "uint256"
        }
      ],
      "stateMutability": "view",
      "type": "function",
      "constant": true
    },
    {
      "inputs": [],
      "name": "ice",
      "outputs": [
        {
          "internalType": "string",
          "name": "",
          "type": "string"
        }
      ],
      "stateMutability": "view",
      "type": "function",
      "constant": true
    },
    {
      "inputs": [
        {
          "internalType": "uint256",
          "name": "tokenId",
          "type": "uint256"
        }
      ],
      "name": "isSuscribed",
      "outputs": [
        {
          "internalType": "bool",
          "name": "",
          "type": "bool"
        }
      ],
      "stateMutability": "view",
      "type": "function",
      "constant": true
    },
    {
      "inputs": [],
      "name": "totalCapital",
      "outputs": [
        {
          "internalType": "uint256",
          "name": "",
          "type": "uint256"
        }
      ],
      "stateMutability": "view",
      "type": "function",
      "constant": true
    },
    {
      "inputs": [
        {
          "internalType": "uint256",
          "name": "depositAmount",
          "type": "uint256"
        }
      ],
      "name": "subscribe",
      "outputs": [],
      "stateMutability": "nonpayable",
      "type": "function"
    },
    {
      "inputs": [
        {
          "internalType": "uint256",
          "name": "tokenId",
          "type": "uint256"
        },
        {
          "internalType": "uint256",
          "name": "depositAmount",
          "type": "uint256"
        }
      ],
      "name": "addFund",
      "outputs": [],
      "stateMutability": "nonpayable",
      "type": "function"
    },
    {
      "inputs": [
        {
          "internalType": "uint256",
          "name": "tokenId",
          "type": "uint256"
        },
        {
          "internalType": "uint256",
          "name": "withdrawnAmount",
          "type": "uint256"
        }
      ],
      "name": "withdrawFund",
      "outputs": [],
      "stateMutability": "nonpayable",
      "type": "function"
    },
    {
      "inputs": [
        {
          "internalType": "uint256",
          "name": "profitAmount",
          "type": "uint256"
        }
      ],
      "name": "distributeProfit",
      "outputs": [],
      "stateMutability": "nonpayable",
      "type": "function"
    },
    {
      "inputs": [
        {
          "internalType": "uint256",
          "name": "lossAmount",
          "type": "uint256"
        }
      ],
      "name": "takeLoss",
      "outputs": [],
      "stateMutability": "nonpayable",
      "type": "function"
    },
    {
      "inputs": [
        {
          "internalType": "uint256",
          "name": "tokenId",
          "type": "uint256"
        }
      ],
      "name": "getProduct",
      "outputs": [
        {
          "internalType": "uint256",
          "name": "",
          "type": "uint256"
        },
        {
          "internalType": "uint256",
          "name": "",
          "type": "uint256"
        }
      ],
      "stateMutability": "view",
      "type": "function",
      "constant": true
    }
  ],
  "bytecode": "0x60806040523480156200001157600080fd5b506040516200252b3803806200252b8339818101604052810190620000379190620002a4565b620000476200014c60201b60201c565b600260006101000a81548173ffffffffffffffffffffffffffffffffffffffff021916908373ffffffffffffffffffffffffffffffffffffffff16021790555084600590805190602001906200009f92919062000154565b508360069080519060200190620000b892919062000154565b5082600881905550816000806101000a81548173ffffffffffffffffffffffffffffffffffffffff021916908373ffffffffffffffffffffffffffffffffffffffff16021790555080600160006101000a81548173ffffffffffffffffffffffffffffffffffffffff021916908373ffffffffffffffffffffffffffffffffffffffff16021790555050505050506200053a565b600033905090565b82805462000162906200042b565b90600052602060002090601f016020900481019282620001865760008555620001d2565b82601f10620001a157805160ff1916838001178555620001d2565b82800160010185558215620001d2579182015b82811115620001d1578251825591602001919060010190620001b4565b5b509050620001e19190620001e5565b5090565b5b8082111562000200576000816000905550600101620001e6565b5090565b60006200021b620002158462000381565b62000358565b9050828152602081018484840111156200023457600080fd5b62000241848285620003f5565b509392505050565b6000815190506200025a8162000506565b92915050565b600082601f8301126200027257600080fd5b81516200028484826020860162000204565b91505092915050565b6000815190506200029e8162000520565b92915050565b600080600080600060a08688031215620002bd57600080fd5b600086015167ffffffffffffffff811115620002d857600080fd5b620002e68882890162000260565b955050602086015167ffffffffffffffff8111156200030457600080fd5b620003128882890162000260565b945050604062000325888289016200028d565b9350506060620003388882890162000249565b92505060806200034b8882890162000249565b9150509295509295909350565b60006200036462000377565b905062000372828262000461565b919050565b6000604051905090565b600067ffffffffffffffff8211156200039f576200039e620004c6565b5b620003aa82620004f5565b9050602081019050919050565b6000620003c482620003cb565b9050919050565b600073ffffffffffffffffffffffffffffffffffffffff82169050919050565b6000819050919050565b60005b8381101562000415578082015181840152602081019050620003f8565b8381111562000425576000848401525b50505050565b600060028204905060018216806200044457607f821691505b602082108114156200045b576200045a62000497565b5b50919050565b6200046c82620004f5565b810181811067ffffffffffffffff821117156200048e576200048d620004c6565b5b80604052505050565b7f4e487b7100000000000000000000000000000000000000000000000000000000600052602260045260246000fd5b7f4e487b7100000000000000000000000000000000000000000000000000000000600052604160045260246000fd5b6000601f19601f8301169050919050565b6200051181620003b7565b81146200051d57600080fd5b50565b6200052b81620003eb565b81146200053757600080fd5b50565b611fe1806200054a6000396000f3fe608060405234801561001057600080fd5b50600436106100cf5760003560e01c8063839db9c01161008c578063b9db15b411610066578063b9db15b4146101ee578063d36dfac81461021f578063d8ba83d51461023b578063dc311dd314610257576100cf565b8063839db9c0146101845780639c146b68146101b4578063b88d09f6146101d2576100cf565b80630f574ba7146100d45780632530ea71146100f0578063383032ea1461010e5780634c2a860d1461012c5780637284e4161461014a57806375ee32e314610168575b600080fd5b6100ee60048036038101906100e9919061172b565b610287565b005b6100f86106c7565b6040516101059190611aaf565b60405180910390f35b6101166106d8565b6040516101239190611aaf565b60405180910390f35b6101346106de565b60405161014191906119cd565b60405180910390f35b61015261076c565b60405161015f91906119cd565b60405180910390f35b610182600480360381019061017d919061172b565b6107fa565b005b61019e6004803603810190610199919061172b565b6109ad565b6040516101ab91906119b2565b60405180910390f35b6101bc6109ca565b6040516101c99190611aaf565b60405180910390f35b6101ec60048036038101906101e7919061177d565b6109d0565b005b6102086004803603810190610203919061172b565b610ac7565b604051610216929190611aca565b60405180910390f35b6102396004803603810190610234919061172b565b610b01565b005b6102556004803603810190610250919061177d565b610c6f565b005b610271600480360381019061026c919061172b565b610d66565b60405161027e9190611aaf565b60405180910390f35b600854816007546102989190611b0f565b106102d8576040517f08c379a00000000000000000000000000000000000000000000000000000000081526004016102cf90611a2f565b60405180910390fd5b8060008054906101000a900473ffffffffffffffffffffffffffffffffffffffff1673ffffffffffffffffffffffffffffffffffffffff1663dd62ed3e61031d610dce565b306040518363ffffffff1660e01b815260040161033b929190611900565b60206040518083038186803b15801561035357600080fd5b505afa158015610367573d6000803e3d6000fd5b505050506040513d601f19601f8201168201806040525081019061038b9190611754565b10156103cc576040517f08c379a00000000000000000000000000000000000000000000000000000000081526004016103c390611a0f565b60405180910390fd5b60008054906101000a900473ffffffffffffffffffffffffffffffffffffffff1673ffffffffffffffffffffffffffffffffffffffff166323b872dd610410610dce565b30846040518463ffffffff1660e01b815260040161043093929190611929565b602060405180830381600087803b15801561044a57600080fd5b505af115801561045e573d6000803e3d6000fd5b505050506040513d601f19601f820116820180604052508101906104829190611702565b50600160009054906101000a900473ffffffffffffffffffffffffffffffffffffffff1673ffffffffffffffffffffffffffffffffffffffff16635edfe0df6104c9610dce565b60026040518363ffffffff1660e01b81526004016104e8929190611960565b600060405180830381600087803b15801561050257600080fd5b505af1158015610516573d6000803e3d6000fd5b505050506000600160009054906101000a900473ffffffffffffffffffffffffffffffffffffffff1673ffffffffffffffffffffffffffffffffffffffff1663561892366040518163ffffffff1660e01b815260040160206040518083038186803b15801561058457600080fd5b505afa158015610598573d6000803e3d6000fd5b505050506040513d601f19601f820116820180604052508101906105bc9190611754565b9050604051806040016040528060008054906101000a900473ffffffffffffffffffffffffffffffffffffffff1673ffffffffffffffffffffffffffffffffffffffff166380477a4c6040518163ffffffff1660e01b815260040160206040518083038186803b15801561062f57600080fd5b505afa158015610643573d6000803e3d6000fd5b505050506040513d601f19601f820116820180604052508101906106679190611754565b8152602001838152506009600083815260200190815260200160002060008201518160000155602082015181600101559050506106ae816003610dd690919063ffffffff16565b50816007546106bd9190611b0f565b6007819055505050565b60006106d36003610df0565b905090565b60075481565b600680546106eb90611cbf565b80601f016020809104026020016040519081016040528092919081815260200182805461071790611cbf565b80156107645780601f1061073957610100808354040283529160200191610764565b820191906000526020600020905b81548152906001019060200180831161074757829003601f168201915b505050505081565b6005805461077990611cbf565b80601f01602080910402602001604051908101604052809291908181526020018280546107a590611cbf565b80156107f25780601f106107c7576101008083540402835291602001916107f2565b820191906000526020600020905b8154815290600101906020018083116107d557829003601f168201915b505050505081565b600260009054906101000a900473ffffffffffffffffffffffffffffffffffffffff1673ffffffffffffffffffffffffffffffffffffffff1661083b610dce565b73ffffffffffffffffffffffffffffffffffffffff1614610891576040517f08c379a000000000000000000000000000000000000000000000000000000000815260040161088890611a8f565b60405180910390fd5b8060075410156108d6576040517f08c379a00000000000000000000000000000000000000000000000000000000081526004016108cd90611a2f565b60405180910390fd5b6000600754905060005b6108e86106c7565b8110156109715760006108fa82610d66565b90506000600960008381526020019081526020016000206040518060400160405290816000820154815260200160018201548152505090506000848260200151876109459190611b96565b61094f9190611b65565b905061095b8382610e05565b505050808061096990611cf1565b9150506108e0565b507fb65b2e085d7d040c313f7d4e1ac90f5937026fee497e0e24a7eff16a55e1c5ea826040516109a19190611aaf565b60405180910390a15050565b60006109c382600361113290919063ffffffff16565b9050919050565b60085481565b6109d8610dce565b73ffffffffffffffffffffffffffffffffffffffff16600160009054906101000a900473ffffffffffffffffffffffffffffffffffffffff1673ffffffffffffffffffffffffffffffffffffffff16636352211e846040518263ffffffff1660e01b8152600401610a499190611aaf565b60206040518083038186803b158015610a6157600080fd5b505afa158015610a75573d6000803e3d6000fd5b505050506040513d601f19601f82011682018060405250810190610a9991906116d9565b73ffffffffffffffffffffffffffffffffffffffff1614610ab957600080fd5b610ac38282610e05565b5050565b6000806009600084815260200190815260200160002060000154600960008581526020019081526020016000206001015491509150915091565b600260009054906101000a900473ffffffffffffffffffffffffffffffffffffffff1673ffffffffffffffffffffffffffffffffffffffff16610b42610dce565b73ffffffffffffffffffffffffffffffffffffffff1614610b98576040517f08c379a0000000000000000000000000000000000000000000000000000000008152600401610b8f90611a8f565b60405180910390fd5b6000600754905060005b610baa6106c7565b811015610c33576000610bbc82610d66565b9050600060096000838152602001908152602001600020604051806040016040529081600082015481526020016001820154815250509050600084826020015187610c079190611b96565b610c119190611b65565b9050610c1d838261114c565b5050508080610c2b90611cf1565b915050610ba2565b507f357d905f1831209797df4d55d79c5c5bf1d9f7311c976afd05e13d881eab9bc882604051610c639190611aaf565b60405180910390a15050565b610c77610dce565b73ffffffffffffffffffffffffffffffffffffffff16600160009054906101000a900473ffffffffffffffffffffffffffffffffffffffff1673ffffffffffffffffffffffffffffffffffffffff16636352211e846040518263ffffffff1660e01b8152600401610ce89190611aaf565b60206040518083038186803b158015610d0057600080fd5b505afa158015610d14573d6000803e3d6000fd5b505050506040513d601f19601f82011682018060405250810190610d3891906116d9565b73ffffffffffffffffffffffffffffffffffffffff1614610d5857600080fd5b610d62828261114c565b5050565b6000610d726003610df0565b8210610db3576040517f08c379a0000000000000000000000000000000000000000000000000000000008152600401610daa906119ef565b60405180910390fd5b610dc78260036113d690919063ffffffff16565b9050919050565b600033905090565b6000610de8836000018360001b6113f0565b905092915050565b6000610dfe82600001611460565b9050919050565b610e0e826109ad565b610e4d576040517f08c379a0000000000000000000000000000000000000000000000000000000008152600401610e4490611a6f565b60405180910390fd5b6000600960008481526020019081526020016000206040518060400160405290816000820154815260200160018201548152505090508181602001511015610eca576040517f08c379a0000000000000000000000000000000000000000000000000000000008152600401610ec190611a4f565b60405180910390fd5b60008054906101000a900473ffffffffffffffffffffffffffffffffffffffff1673ffffffffffffffffffffffffffffffffffffffff1663a9059cbb610f0e610dce565b846040518363ffffffff1660e01b8152600401610f2c929190611989565b602060405180830381600087803b158015610f4657600080fd5b505af1158015610f5a573d6000803e3d6000fd5b505050506040513d601f19601f82011682018060405250810190610f7e9190611702565b50604051806040016040528060008054906101000a900473ffffffffffffffffffffffffffffffffffffffff1673ffffffffffffffffffffffffffffffffffffffff166380477a4c6040518163ffffffff1660e01b815260040160206040518083038186803b158015610ff057600080fd5b505afa158015611004573d6000803e3d6000fd5b505050506040513d601f19601f820116820180604052508101906110289190611754565b815260200183836020015161103d9190611bf0565b815250600960008581526020019081526020016000206000820151816000015560208201518160010155905050818160200151141561111957600160009054906101000a900473ffffffffffffffffffffffffffffffffffffffff1673ffffffffffffffffffffffffffffffffffffffff16639d118770846040518263ffffffff1660e01b81526004016110d19190611aaf565b600060405180830381600087803b1580156110eb57600080fd5b505af11580156110ff573d6000803e3d6000fd5b5050505061111783600361147190919063ffffffff16565b505b816007546111279190611bf0565b600781905550505050565b6000611144836000018360001b61148b565b905092915050565b611155826109ad565b611194576040517f08c379a000000000000000000000000000000000000000000000000000000000815260040161118b90611a6f565b60405180910390fd5b600060096000848152602001908152602001600020604051806040016040529081600082015481526020016001820154815250509050600854826007546111db9190611b0f565b1061121b576040517f08c379a000000000000000000000000000000000000000000000000000000000815260040161121290611a2f565b60405180910390fd5b60008054906101000a900473ffffffffffffffffffffffffffffffffffffffff1673ffffffffffffffffffffffffffffffffffffffff166323b872dd61125f610dce565b30856040518463ffffffff1660e01b815260040161127f93929190611929565b602060405180830381600087803b15801561129957600080fd5b505af11580156112ad573d6000803e3d6000fd5b505050506040513d601f19601f820116820180604052508101906112d19190611702565b50604051806040016040528060008054906101000a900473ffffffffffffffffffffffffffffffffffffffff1673ffffffffffffffffffffffffffffffffffffffff166380477a4c6040518163ffffffff1660e01b815260040160206040518083038186803b15801561134357600080fd5b505afa158015611357573d6000803e3d6000fd5b505050506040513d601f19601f8201168201806040525081019061137b9190611754565b81526020018383602001516113909190611b0f565b815250600960008581526020019081526020016000206000820151816000015560208201518160010155905050816007546113cb9190611b0f565b600781905550505050565b60006113e583600001836114ae565b60001c905092915050565b60006113fc838361148b565b61145557826000018290806001815401808255809150506001900390600052602060002001600090919091909150558260000180549050836001016000848152602001908152602001600020819055506001905061145a565b600090505b92915050565b600081600001805490509050919050565b6000611483836000018360001b6114ff565b905092915050565b600080836001016000848152602001908152602001600020541415905092915050565b60008260000182815481106114ec577f4e487b7100000000000000000000000000000000000000000000000000000000600052603260045260246000fd5b9060005260206000200154905092915050565b600080836001016000848152602001908152602001600020549050600081146116795760006001826115319190611bf0565b90506000600186600001805490506115499190611bf0565b9050818114611604576000866000018281548110611590577f4e487b7100000000000000000000000000000000000000000000000000000000600052603260045260246000fd5b90600052602060002001549050808760000184815481106115da577f4e487b7100000000000000000000000000000000000000000000000000000000600052603260045260246000fd5b90600052602060002001819055508387600101600083815260200190815260200160002081905550505b8560000180548061163e577f4e487b7100000000000000000000000000000000000000000000000000000000600052603160045260246000fd5b60019003818190600052602060002001600090559055856001016000868152602001908152602001600020600090556001935050505061167f565b60009150505b92915050565b60008151905061169481611f66565b92915050565b6000815190506116a981611f7d565b92915050565b6000813590506116be81611f94565b92915050565b6000815190506116d381611f94565b92915050565b6000602082840312156116eb57600080fd5b60006116f984828501611685565b91505092915050565b60006020828403121561171457600080fd5b60006117228482850161169a565b91505092915050565b60006020828403121561173d57600080fd5b600061174b848285016116af565b91505092915050565b60006020828403121561176657600080fd5b6000611774848285016116c4565b91505092915050565b6000806040838503121561179057600080fd5b600061179e858286016116af565b92505060206117af858286016116af565b9150509250929050565b6117c281611c24565b82525050565b6117d181611c36565b82525050565b6117e081611c7a565b82525050565b60006117f182611af3565b6117fb8185611afe565b935061180b818560208601611c8c565b61181481611dc7565b840191505092915050565b600061182c600c83611afe565b915061183782611dd8565b602082019050919050565b600061184f604283611afe565b915061185a82611e01565b606082019050919050565b6000611872601483611afe565b915061187d82611e76565b602082019050919050565b6000611895603083611afe565b91506118a082611e9f565b604082019050919050565b60006118b8601e83611afe565b91506118c382611eee565b602082019050919050565b60006118db602983611afe565b91506118e682611f17565b604082019050919050565b6118fa81611c70565b82525050565b600060408201905061191560008301856117b9565b61192260208301846117b9565b9392505050565b600060608201905061193e60008301866117b9565b61194b60208301856117b9565b61195860408301846118f1565b949350505050565b600060408201905061197560008301856117b9565b61198260208301846117d7565b9392505050565b600060408201905061199e60008301856117b9565b6119ab60208301846118f1565b9392505050565b60006020820190506119c760008301846117c8565b92915050565b600060208201905081810360008301526119e781846117e6565b905092915050565b60006020820190508181036000830152611a088161181f565b9050919050565b60006020820190508181036000830152611a2881611842565b9050919050565b60006020820190508181036000830152611a4881611865565b9050919050565b60006020820190508181036000830152611a6881611888565b9050919050565b60006020820190508181036000830152611a88816118ab565b9050919050565b60006020820190508181036000830152611aa8816118ce565b9050919050565b6000602082019050611ac460008301846118f1565b92915050565b6000604082019050611adf60008301856118f1565b611aec60208301846118f1565b9392505050565b600081519050919050565b600082825260208201905092915050565b6000611b1a82611c70565b9150611b2583611c70565b9250827fffffffffffffffffffffffffffffffffffffffffffffffffffffffffffffffff03821115611b5a57611b59611d3a565b5b828201905092915050565b6000611b7082611c70565b9150611b7b83611c70565b925082611b8b57611b8a611d69565b5b828204905092915050565b6000611ba182611c70565b9150611bac83611c70565b9250817fffffffffffffffffffffffffffffffffffffffffffffffffffffffffffffffff0483118215151615611be557611be4611d3a565b5b828202905092915050565b6000611bfb82611c70565b9150611c0683611c70565b925082821015611c1957611c18611d3a565b5b828203905092915050565b6000611c2f82611c50565b9050919050565b60008115159050919050565b600061ffff82169050919050565b600073ffffffffffffffffffffffffffffffffffffffff82169050919050565b6000819050919050565b6000611c8582611c42565b9050919050565b60005b83811015611caa578082015181840152602081019050611c8f565b83811115611cb9576000848401525b50505050565b60006002820490506001821680611cd757607f821691505b60208210811415611ceb57611cea611d98565b5b50919050565b6000611cfc82611c70565b91507fffffffffffffffffffffffffffffffffffffffffffffffffffffffffffffffff821415611d2f57611d2e611d3a565b5b600182019050919050565b7f4e487b7100000000000000000000000000000000000000000000000000000000600052601160045260246000fd5b7f4e487b7100000000000000000000000000000000000000000000000000000000600052601260045260246000fd5b7f4e487b7100000000000000000000000000000000000000000000000000000000600052602260045260246000fd5b6000601f19601f8301169050919050565b7f496478206f766572666c6f770000000000000000000000000000000000000000600082015250565b7f5072657061726520616e20616c6c6f77616e636520776974682074686520636f60008201527f727265637420616d6f756e7420696e206f7264657220746f207375627363726960208201527f6265000000000000000000000000000000000000000000000000000000000000604082015250565b7f4361706974616c20636170206578636565646564000000000000000000000000600082015250565b7f57697468647261776e20616d6f756e74206d757374206265206c65737320746860008201527f616e20746f74616c2070726f6475637400000000000000000000000000000000602082015250565b7f4578697374696e67204d7564617261626120737562736372697074696f6e0000600082015250565b7f4f6e6c792049737375696e672042616e6b20697320616c6c6f77656420746f2060008201527f63616c6c20746869730000000000000000000000000000000000000000000000602082015250565b611f6f81611c24565b8114611f7a57600080fd5b50565b611f8681611c36565b8114611f9157600080fd5b50565b611f9d81611c70565b8114611fa857600080fd5b5056fea264697066735822122036086ac831c22be222a75935afb04c734c086b3001371bfea3a162e42731a9fe64736f6c63430008030033",
  "immutableReferences": {},
  "source": "// SPDX-License-Identifier: MIT\n\npragma solidity ^0.8.0;\n\nimport \"./GenericProduct.sol\";\n\n/**\n * @dev Banking smart contracts - Mudaraba\n * @author AshtonIzmev\n */\ncontract Mudaraba is GenericProduct {\n\n    using EnumerableSet for EnumerableSet.UintSet;\n\n    string public description;\n    string public ice;\n\n    uint256 public totalCapital;\n    uint256 public capitalCap;\n\n    struct Product {\n        uint256 _subscriptionDate;\n        uint256 _subscriptionAmount;\n    }\n\n    mapping (uint256 => Product) private _subscriptions;\n\n    /**\n     * param description_       Description of the company\n     * param ice_               Unique Identification Number of a company\n     * param capital_           Initial capital\n     */\n    constructor (string memory description_, string memory ice_, uint256 capitalCap_,\n    address medToken_, address fpToken_) {\n        _issuingBank = _msgSender();\n        description = description_;\n        ice = ice_;\n        capitalCap = capitalCap_;\n\n        medToken = MED(medToken_);\n        fpToken = FP(fpToken_);\n    }\n\n    /**\n     * Subscribe a new Moudaraba product\n     */\n    function subscribe(uint256 depositAmount) public virtual {\n        require(totalCapital + depositAmount < capitalCap, \"Capital cap exceeded\");\n        require(medToken.allowance(_msgSender(), address(this)) >= depositAmount, \"Prepare an allowance with the correct amount in order to subscribe\");\n        medToken.transferFrom(_msgSender(), address(this), depositAmount);\n        fpToken.create(_msgSender(), 2);\n        uint256 tokenId = fpToken.getCurrentTokenId();\n        _subscriptions[tokenId] = Product(medToken.daysElapsed(), depositAmount);\n        _subscriptionIds.add(tokenId);\n        totalCapital = totalCapital + depositAmount;\n    }\n\n    /**\n     * Add fund to an existing Mudaraba fund (only the token owner)\n     */\n    function addFund(uint256 tokenId, uint256 depositAmount) public virtual {\n        require(fpToken.ownerOf(tokenId) == _msgSender());\n        _addFund(tokenId, depositAmount);\n    }\n\n    /**\n     * Withdraw amount for the Mudaraba fund (only the token owner)\n     */\n    function withdrawFund(uint256 tokenId, uint256 withdrawnAmount) public virtual {\n        require(fpToken.ownerOf(tokenId) == _msgSender());\n        _withdrawFund(tokenId, withdrawnAmount);\n    }\n\n    function distributeProfit(uint256 profitAmount) public virtual onlyIssuingBank {\n        // Can exceed capital cap\n        uint256 totalCapitalTmp = totalCapital;\n        for (uint idx=0; idx < getSubscriptionLength(); idx++) {\n            uint256 tokenId = getSubscription(idx);\n            Product memory prod = _subscriptions[tokenId];\n            uint256 depositAmount = (profitAmount * prod._subscriptionAmount) / totalCapitalTmp;\n            _addFund(tokenId, depositAmount);\n        }\n        emit Profit(profitAmount);\n    }\n\n    function takeLoss(uint256 lossAmount) public virtual onlyIssuingBank {\n        require(totalCapital >= lossAmount, \"Capital cap exceeded\");\n        uint256 totalCapitalTmp = totalCapital;\n        for (uint idx=0; idx < getSubscriptionLength(); idx++) {\n            uint256 tokenId = getSubscription(idx);\n            Product memory prod = _subscriptions[tokenId];\n            uint256 withdrawnAmount = (lossAmount * prod._subscriptionAmount) / totalCapitalTmp;\n            _withdrawFund(tokenId, withdrawnAmount);\n        }\n        emit Loss(lossAmount);\n    }\n\n    function getProduct(uint256 tokenId) public view virtual returns (uint256, uint256) {\n        return (\n            _subscriptions[tokenId]._subscriptionDate,\n            _subscriptions[tokenId]._subscriptionAmount);\n    }\n\n    /* ********************************************************* */\n    /* * * * * * * * * *  Internal functions * * * * * * * * * * */\n    /* ********************************************************* */\n\n    function _addFund(uint256 tokenId, uint256 depositAmount) internal virtual {\n        require(isSuscribed(tokenId), \"Existing Mudaraba subscription\");\n        Product memory prod = _subscriptions[tokenId];\n        require(totalCapital + depositAmount < capitalCap, \"Capital cap exceeded\");\n        medToken.transferFrom(_msgSender(), address(this), depositAmount);\n        _subscriptions[tokenId] = Product(medToken.daysElapsed(), prod._subscriptionAmount + depositAmount);\n        totalCapital = totalCapital + depositAmount;\n    }\n\n    function _withdrawFund(uint256 tokenId, uint256 withdrawnAmount) internal virtual {\n        require(isSuscribed(tokenId), \"Existing Mudaraba subscription\");\n        Product memory prod = _subscriptions[tokenId];\n        require(prod._subscriptionAmount >= withdrawnAmount, \"Withdrawn amount must be less than total product\");\n        medToken.transfer(_msgSender(), withdrawnAmount);\n        _subscriptions[tokenId] = Product(medToken.daysElapsed(), prod._subscriptionAmount - withdrawnAmount);\n        if (prod._subscriptionAmount == withdrawnAmount) {\n            fpToken.destroy(tokenId);\n            _subscriptionIds.remove(tokenId);        \n        }\n        totalCapital = totalCapital - withdrawnAmount;\n    }\n\n    event Profit(uint256 value);\n    event Loss(uint256 value);\n\n}\n",
  "sourcePath": "/home/issam/git/solidity-contracts/sol/truffle/contracts/token/bank/Mudaraba.sol",
  "compiler": {
    "name": "solc",
    "version": "0.8.3+commit.8d00100c.Emscripten.clang"
  },
  "schemaVersion": "3.2.4",
  "updatedAt": "2021-07-04T14:20:00.006Z",
  "networkType": "ethereum",
  "devdoc": {
    "author": "AshtonIzmev",
    "details": "Banking smart contracts - Mudaraba",
    "kind": "dev",
    "methods": {},
    "version": 1
  },
  "userdoc": {
    "kind": "user",
    "methods": {
      "addFund(uint256,uint256)": {
        "notice": "Add fund to an existing Mudaraba fund (only the token owner)"
      },
      "constructor": {
        "notice": "param description_       Description of the company param ice_               Unique Identification Number of a company param capital_           Initial capital"
      },
      "subscribe(uint256)": {
        "notice": "Subscribe a new Moudaraba product"
      },
      "withdrawFund(uint256,uint256)": {
        "notice": "Withdraw amount for the Mudaraba fund (only the token owner)"
      }
    },
    "version": 1
  }
}