{
  "contractName": "MED",
  "abi": [
    {
      "inputs": [
        {
          "internalType": "address",
          "name": "treasureAccount",
          "type": "address"
        },
        {
          "internalType": "uint32",
          "name": "annualTaxRatePercent",
          "type": "uint32"
        },
        {
          "internalType": "uint256",
          "name": "umi",
          "type": "uint256"
        },
        {
          "internalType": "bool",
          "name": "allowMintArg",
          "type": "bool"
        },
        {
          "internalType": "uint256",
          "name": "initialMint",
          "type": "uint256"
        }
      ],
      "stateMutability": "nonpayable",
      "type": "constructor"
    },
    {
      "anonymous": false,
      "inputs": [
        {
          "indexed": true,
          "internalType": "address",
          "name": "from",
          "type": "address"
        },
        {
          "indexed": true,
          "internalType": "address",
          "name": "to",
          "type": "address"
        },
        {
          "indexed": false,
          "internalType": "uint256",
          "name": "value",
          "type": "uint256"
        }
      ],
      "name": "Transfer",
      "type": "event"
    },
    {
      "inputs": [],
      "name": "allowMint",
      "outputs": [
        {
          "internalType": "bool",
          "name": "",
          "type": "bool"
        }
      ],
      "stateMutability": "view",
      "type": "function"
    },
    {
      "inputs": [],
      "name": "dailyTaxRate",
      "outputs": [
        {
          "internalType": "uint32",
          "name": "",
          "type": "uint32"
        }
      ],
      "stateMutability": "view",
      "type": "function"
    },
    {
      "inputs": [],
      "name": "daysElapsed",
      "outputs": [
        {
          "internalType": "uint256",
          "name": "",
          "type": "uint256"
        }
      ],
      "stateMutability": "view",
      "type": "function"
    },
    {
      "inputs": [],
      "name": "monthsElapsed",
      "outputs": [
        {
          "internalType": "uint256",
          "name": "",
          "type": "uint256"
        }
      ],
      "stateMutability": "view",
      "type": "function"
    },
    {
      "inputs": [],
      "name": "universalMonthlyIncome",
      "outputs": [
        {
          "internalType": "uint256",
          "name": "",
          "type": "uint256"
        }
      ],
      "stateMutability": "view",
      "type": "function"
    },
    {
      "inputs": [],
      "name": "name",
      "outputs": [
        {
          "internalType": "string",
          "name": "",
          "type": "string"
        }
      ],
      "stateMutability": "view",
      "type": "function"
    },
    {
      "inputs": [],
      "name": "symbol",
      "outputs": [
        {
          "internalType": "string",
          "name": "",
          "type": "string"
        }
      ],
      "stateMutability": "view",
      "type": "function"
    },
    {
      "inputs": [],
      "name": "decimals",
      "outputs": [
        {
          "internalType": "uint8",
          "name": "",
          "type": "uint8"
        }
      ],
      "stateMutability": "view",
      "type": "function"
    },
    {
      "inputs": [],
      "name": "totalSupply",
      "outputs": [
        {
          "internalType": "uint256",
          "name": "",
          "type": "uint256"
        }
      ],
      "stateMutability": "view",
      "type": "function"
    },
    {
      "inputs": [
        {
          "internalType": "address",
          "name": "account",
          "type": "address"
        }
      ],
      "name": "balanceOf",
      "outputs": [
        {
          "internalType": "uint256",
          "name": "",
          "type": "uint256"
        }
      ],
      "stateMutability": "view",
      "type": "function"
    },
    {
      "inputs": [
        {
          "internalType": "address",
          "name": "account",
          "type": "address"
        }
      ],
      "name": "elapsedTaxDaysOf",
      "outputs": [
        {
          "internalType": "uint256",
          "name": "",
          "type": "uint256"
        }
      ],
      "stateMutability": "view",
      "type": "function"
    },
    {
      "inputs": [
        {
          "internalType": "address",
          "name": "account",
          "type": "address"
        }
      ],
      "name": "elapsedIncomeMonthOf",
      "outputs": [
        {
          "internalType": "uint256",
          "name": "",
          "type": "uint256"
        }
      ],
      "stateMutability": "view",
      "type": "function"
    },
    {
      "inputs": [
        {
          "internalType": "address",
          "name": "recipient",
          "type": "address"
        },
        {
          "internalType": "uint256",
          "name": "amount",
          "type": "uint256"
        }
      ],
      "name": "transfer",
      "outputs": [
        {
          "internalType": "bool",
          "name": "",
          "type": "bool"
        }
      ],
      "stateMutability": "nonpayable",
      "type": "function"
    },
    {
      "inputs": [
        {
          "internalType": "address",
          "name": "taxPayer",
          "type": "address"
        }
      ],
      "name": "updateAccount",
      "outputs": [],
      "stateMutability": "nonpayable",
      "type": "function"
    },
    {
      "inputs": [
        {
          "internalType": "uint256",
          "name": "amount",
          "type": "uint256"
        }
      ],
      "name": "mint",
      "outputs": [],
      "stateMutability": "nonpayable",
      "type": "function"
    },
    {
      "inputs": [
        {
          "internalType": "uint256",
          "name": "amount",
          "type": "uint256"
        }
      ],
      "name": "burn",
      "outputs": [],
      "stateMutability": "nonpayable",
      "type": "function"
    },
    {
      "inputs": [],
      "name": "incrementDay",
      "outputs": [],
      "stateMutability": "nonpayable",
      "type": "function"
    },
    {
      "inputs": [],
      "name": "incrementMonth",
      "outputs": [],
      "stateMutability": "nonpayable",
      "type": "function"
    },
    {
      "inputs": [
        {
          "internalType": "uint32",
          "name": "newRate",
          "type": "uint32"
        }
      ],
      "name": "setNewDailyTaxRate",
      "outputs": [],
      "stateMutability": "nonpayable",
      "type": "function"
    },
    {
      "inputs": [
        {
          "internalType": "uint256",
          "name": "newIncome",
          "type": "uint256"
        }
      ],
      "name": "setNewBasicIncome",
      "outputs": [],
      "stateMutability": "nonpayable",
      "type": "function"
    }
  ],
  "bytecode": "0x60806040526040518060400160405280601181526020017f4d6f726f6363616e20452d44697268616d000000000000000000000000000000815250600a90805190602001906200005192919062000423565b506040518060400160405280600381526020017f4d45440000000000000000000000000000000000000000000000000000000000815250600b90805190602001906200009f92919062000423565b506000600c60006101000a81548160ff021916908315150217905550348015620000c857600080fd5b5060405162002819380380620028198339818101604052810190620000ee91906200052f565b620000fe6200021e60201b60201c565b600260006101000a81548173ffffffffffffffffffffffffffffffffffffffff021916908373ffffffffffffffffffffffffffffffffffffffff16021790555084600360006101000a81548173ffffffffffffffffffffffffffffffffffffffff021916908373ffffffffffffffffffffffffffffffffffffffff16021790555061016d6127108562000192919062000717565b6200019e9190620006df565b600660006101000a81548163ffffffff021916908363ffffffff1602179055508260098190555081600c60006101000a81548160ff02191690831515021790555062000213600360009054906101000a900473ffffffffffffffffffffffffffffffffffffffff16826200022660201b60201c565b505050505062000959565b600033905090565b600073ffffffffffffffffffffffffffffffffffffffff168273ffffffffffffffffffffffffffffffffffffffff16141562000299576040517f08c379a0000000000000000000000000000000000000000000000000000000008152600401620002909062000632565b60405180910390fd5b600360009054906101000a900473ffffffffffffffffffffffffffffffffffffffff1673ffffffffffffffffffffffffffffffffffffffff168273ffffffffffffffffffffffffffffffffffffffff16146200032c576040517f08c379a0000000000000000000000000000000000000000000000000000000008152600401620003239062000610565b60405180910390fd5b62000340600083836200041e60201b60201c565b806001600082825462000354919062000682565b92505081905550806000808473ffffffffffffffffffffffffffffffffffffffff1673ffffffffffffffffffffffffffffffffffffffff1681526020019081526020016000206000828254620003ab919062000682565b925050819055508173ffffffffffffffffffffffffffffffffffffffff16600073ffffffffffffffffffffffffffffffffffffffff167fddf252ad1be2c89b69c2b068fc378daa952ba7f163c4a11628f55a4df523b3ef8360405162000412919062000654565b60405180910390a35050565b505050565b8280546200043190620007b6565b90600052602060002090601f016020900481019282620004555760008555620004a1565b82601f106200047057805160ff1916838001178555620004a1565b82800160010185558215620004a1579182015b82811115620004a057825182559160200191906001019062000483565b5b509050620004b09190620004b4565b5090565b5b80821115620004cf576000816000905550600101620004b5565b5090565b600081519050620004e481620008f1565b92915050565b600081519050620004fb816200090b565b92915050565b600081519050620005128162000925565b92915050565b60008151905062000529816200093f565b92915050565b600080600080600060a086880312156200054857600080fd5b60006200055888828901620004d3565b95505060206200056b8882890162000518565b94505060406200057e8882890162000501565b93505060606200059188828901620004ea565b9250506080620005a48882890162000501565b9150509295509295909350565b6000620005c060298362000671565b9150620005cd8262000879565b604082019050919050565b6000620005e7601f8362000671565b9150620005f482620008c8565b602082019050919050565b6200060a816200079c565b82525050565b600060208201905081810360008301526200062b81620005b1565b9050919050565b600060208201905081810360008301526200064d81620005d8565b9050919050565b60006020820190506200066b6000830184620005ff565b92915050565b600082825260208201905092915050565b60006200068f826200079c565b91506200069c836200079c565b9250827fffffffffffffffffffffffffffffffffffffffffffffffffffffffffffffffff03821115620006d457620006d3620007ec565b5b828201905092915050565b6000620006ec82620007a6565b9150620006f983620007a6565b9250826200070c576200070b6200081b565b5b828204905092915050565b60006200072482620007a6565b91506200073183620007a6565b92508163ffffffff0483118215151615620007515762000750620007ec565b5b828202905092915050565b600062000769826200077c565b9050919050565b60008115159050919050565b600073ffffffffffffffffffffffffffffffffffffffff82169050919050565b6000819050919050565b600063ffffffff82169050919050565b60006002820490506001821680620007cf57607f821691505b60208210811415620007e657620007e56200084a565b5b50919050565b7f4e487b7100000000000000000000000000000000000000000000000000000000600052601160045260246000fd5b7f4e487b7100000000000000000000000000000000000000000000000000000000600052601260045260246000fd5b7f4e487b7100000000000000000000000000000000000000000000000000000000600052602260045260246000fd5b7f4d696e742063616e206f6e6c7920626520646f6e6520746f207472656173757260008201527f79206163636f756e740000000000000000000000000000000000000000000000602082015250565b7f45524332303a206d696e7420746f20746865207a65726f206164647265737300600082015250565b620008fc816200075c565b81146200090857600080fd5b50565b620009168162000770565b81146200092257600080fd5b50565b62000930816200079c565b81146200093c57600080fd5b50565b6200094a81620007a6565b81146200095657600080fd5b50565b611eb080620009696000396000f3fe608060405234801561001057600080fd5b506004361061012c5760003560e01c806367ed0c79116100ad578063a0712d6811610071578063a0712d681461030f578063a9059cbb1461032b578063da21bcec1461035b578063dbbe093614610377578063ec714a81146103815761012c565b806367ed0c791461026957806370a082311461027357806380477a4c146102a357806385040105146102c157806395d89b41146102f15761012c565b80632ce3d440116100f45780632ce3d440146101d7578063313ce567146101f357806342966c68146102115780634fb6b0591461022d5780635b073d231461024b5761012c565b806306fdde031461013157806311e0df821461014f57806318160ddd1461017f5780631b8dca741461019d5780632a96e410146101bb575b600080fd5b61013961039f565b6040516101469190611768565b60405180910390f35b610169600480360381019061016491906114e6565b610431565b60405161017691906118aa565b60405180910390f35b61018761047a565b60405161019491906118aa565b60405180910390f35b6101a5610484565b6040516101b2919061174d565b60405180910390f35b6101d560048036038101906101d09190611574565b610497565b005b6101f160048036038101906101ec91906114e6565b610552565b005b6101fb61055e565b60405161020891906118e0565b60405180910390f35b61022b6004803603810190610226919061154b565b610567565b005b61023561062d565b60405161024291906118aa565b60405180910390f35b610253610633565b60405161026091906118c5565b60405180910390f35b610271610649565b005b61028d600480360381019061028891906114e6565b6106f7565b60405161029a91906118aa565b60405180910390f35b6102ab61073f565b6040516102b891906118aa565b60405180910390f35b6102db60048036038101906102d691906114e6565b610745565b6040516102e891906118aa565b60405180910390f35b6102f961078e565b6040516103069190611768565b60405180910390f35b6103296004803603810190610324919061154b565b610820565b005b6103456004803603810190610340919061150f565b6108ff565b604051610352919061174d565b60405180910390f35b6103756004803603810190610370919061154b565b610936565b005b61037f6109d7565b005b610389610a85565b60405161039691906118aa565b60405180910390f35b6060600a80546103ae90611ac4565b80601f01602080910402602001604051908101604052809291908181526020018280546103da90611ac4565b80156104275780601f106103fc57610100808354040283529160200191610427565b820191906000526020600020905b81548152906001019060200180831161040a57829003601f168201915b5050505050905090565b6000600460008373ffffffffffffffffffffffffffffffffffffffff1673ffffffffffffffffffffffffffffffffffffffff168152602001908152602001600020549050919050565b6000600154905090565b600c60009054906101000a900460ff1681565b600260009054906101000a900473ffffffffffffffffffffffffffffffffffffffff1673ffffffffffffffffffffffffffffffffffffffff166104d8610a8b565b73ffffffffffffffffffffffffffffffffffffffff161461052e576040517f08c379a0000000000000000000000000000000000000000000000000000000008152600401610525906117ca565b60405180910390fd5b80600660006101000a81548163ffffffff021916908363ffffffff16021790555050565b61055b81610a93565b50565b60006002905090565b600260009054906101000a900473ffffffffffffffffffffffffffffffffffffffff1673ffffffffffffffffffffffffffffffffffffffff166105a8610a8b565b73ffffffffffffffffffffffffffffffffffffffff16146105fe576040517f08c379a00000000000000000000000000000000000000000000000000000000081526004016105f5906117ca565b60405180910390fd5b61062a600360009054906101000a900473ffffffffffffffffffffffffffffffffffffffff1682610aa8565b50565b60085481565b600660009054906101000a900463ffffffff1681565b600260009054906101000a900473ffffffffffffffffffffffffffffffffffffffff1673ffffffffffffffffffffffffffffffffffffffff1661068a610a8b565b73ffffffffffffffffffffffffffffffffffffffff16146106e0576040517f08c379a00000000000000000000000000000000000000000000000000000000081526004016106d7906117ca565b60405180910390fd5b60016005546106ef9190611917565b600581905550565b60008060008373ffffffffffffffffffffffffffffffffffffffff1673ffffffffffffffffffffffffffffffffffffffff168152602001908152602001600020549050919050565b60055481565b6000600760008373ffffffffffffffffffffffffffffffffffffffff1673ffffffffffffffffffffffffffffffffffffffff168152602001908152602001600020549050919050565b6060600b805461079d90611ac4565b80601f01602080910402602001604051908101604052809291908181526020018280546107c990611ac4565b80156108165780601f106107eb57610100808354040283529160200191610816565b820191906000526020600020905b8154815290600101906020018083116107f957829003601f168201915b5050505050905090565b600260009054906101000a900473ffffffffffffffffffffffffffffffffffffffff1673ffffffffffffffffffffffffffffffffffffffff16610861610a8b565b73ffffffffffffffffffffffffffffffffffffffff16146108b7576040517f08c379a00000000000000000000000000000000000000000000000000000000081526004016108ae906117ca565b60405180910390fd5b600c60009054906101000a900460ff166108d057600080fd5b6108fc600360009054906101000a900473ffffffffffffffffffffffffffffffffffffffff1682610d0c565b50565b600061091161090c610a8b565b610a93565b61091a83610a93565b61092c610925610a8b565b8484610ef0565b6001905092915050565b600260009054906101000a900473ffffffffffffffffffffffffffffffffffffffff1673ffffffffffffffffffffffffffffffffffffffff16610977610a8b565b73ffffffffffffffffffffffffffffffffffffffff16146109cd576040517f08c379a00000000000000000000000000000000000000000000000000000000081526004016109c4906117ca565b60405180910390fd5b8060098190555050565b600260009054906101000a900473ffffffffffffffffffffffffffffffffffffffff1673ffffffffffffffffffffffffffffffffffffffff16610a18610a8b565b73ffffffffffffffffffffffffffffffffffffffff1614610a6e576040517f08c379a0000000000000000000000000000000000000000000000000000000008152600401610a65906117ca565b60405180910390fd5b6001600854610a7d9190611917565b600881905550565b60095481565b600033905090565b610a9c8161116f565b610aa5816111f3565b50565b600073ffffffffffffffffffffffffffffffffffffffff168273ffffffffffffffffffffffffffffffffffffffff161415610b18576040517f08c379a0000000000000000000000000000000000000000000000000000000008152600401610b0f9061182a565b60405180910390fd5b600360009054906101000a900473ffffffffffffffffffffffffffffffffffffffff1673ffffffffffffffffffffffffffffffffffffffff168273ffffffffffffffffffffffffffffffffffffffff1614610ba8576040517f08c379a0000000000000000000000000000000000000000000000000000000008152600401610b9f9061180a565b60405180910390fd5b610bb482600083611277565b60008060008473ffffffffffffffffffffffffffffffffffffffff1673ffffffffffffffffffffffffffffffffffffffff16815260200190815260200160002054905081811015610c3a576040517f08c379a0000000000000000000000000000000000000000000000000000000008152600401610c31906117aa565b60405180910390fd5b8181610c4691906119f8565b6000808573ffffffffffffffffffffffffffffffffffffffff1673ffffffffffffffffffffffffffffffffffffffff168152602001908152602001600020819055508160016000828254610c9a91906119f8565b92505081905550600073ffffffffffffffffffffffffffffffffffffffff168373ffffffffffffffffffffffffffffffffffffffff167fddf252ad1be2c89b69c2b068fc378daa952ba7f163c4a11628f55a4df523b3ef84604051610cff91906118aa565b60405180910390a3505050565b600073ffffffffffffffffffffffffffffffffffffffff168273ffffffffffffffffffffffffffffffffffffffff161415610d7c576040517f08c379a0000000000000000000000000000000000000000000000000000000008152600401610d739061188a565b60405180910390fd5b600360009054906101000a900473ffffffffffffffffffffffffffffffffffffffff1673ffffffffffffffffffffffffffffffffffffffff168273ffffffffffffffffffffffffffffffffffffffff1614610e0c576040517f08c379a0000000000000000000000000000000000000000000000000000000008152600401610e039061186a565b60405180910390fd5b610e1860008383611277565b8060016000828254610e2a9190611917565b92505081905550806000808473ffffffffffffffffffffffffffffffffffffffff1673ffffffffffffffffffffffffffffffffffffffff1681526020019081526020016000206000828254610e7f9190611917565b925050819055508173ffffffffffffffffffffffffffffffffffffffff16600073ffffffffffffffffffffffffffffffffffffffff167fddf252ad1be2c89b69c2b068fc378daa952ba7f163c4a11628f55a4df523b3ef83604051610ee491906118aa565b60405180910390a35050565b600073ffffffffffffffffffffffffffffffffffffffff168373ffffffffffffffffffffffffffffffffffffffff161415610f60576040517f08c379a0000000000000000000000000000000000000000000000000000000008152600401610f579061184a565b60405180910390fd5b600073ffffffffffffffffffffffffffffffffffffffff168273ffffffffffffffffffffffffffffffffffffffff161415610fd0576040517f08c379a0000000000000000000000000000000000000000000000000000000008152600401610fc79061178a565b60405180910390fd5b610fdb838383611277565b60008060008573ffffffffffffffffffffffffffffffffffffffff1673ffffffffffffffffffffffffffffffffffffffff16815260200190815260200160002054905081811015611061576040517f08c379a0000000000000000000000000000000000000000000000000000000008152600401611058906117ea565b60405180910390fd5b818161106d91906119f8565b6000808673ffffffffffffffffffffffffffffffffffffffff1673ffffffffffffffffffffffffffffffffffffffff16815260200190815260200160002081905550816000808573ffffffffffffffffffffffffffffffffffffffff1673ffffffffffffffffffffffffffffffffffffffff16815260200190815260200160002060008282546110fd9190611917565b925050819055508273ffffffffffffffffffffffffffffffffffffffff168473ffffffffffffffffffffffffffffffffffffffff167fddf252ad1be2c89b69c2b068fc378daa952ba7f163c4a11628f55a4df523b3ef8460405161116191906118aa565b60405180910390a350505050565b600061117a8261127c565b9050600854600760008473ffffffffffffffffffffffffffffffffffffffff1673ffffffffffffffffffffffffffffffffffffffff168152602001908152602001600020819055506111ef600360009054906101000a900473ffffffffffffffffffffffffffffffffffffffff168383610ef0565b5050565b60006111fe82611358565b9050600554600460008473ffffffffffffffffffffffffffffffffffffffff1673ffffffffffffffffffffffffffffffffffffffff1681526020019081526020016000208190555061127382600360009054906101000a900473ffffffffffffffffffffffffffffffffffffffff1683610ef0565b5050565b505050565b6000600360009054906101000a900473ffffffffffffffffffffffffffffffffffffffff1673ffffffffffffffffffffffffffffffffffffffff168273ffffffffffffffffffffffffffffffffffffffff1614156112dd5760009050611353565b6000600760008473ffffffffffffffffffffffffffffffffffffffff1673ffffffffffffffffffffffffffffffffffffffff1681526020019081526020016000205460085461132c91906119f8565b90506000811415611341576000915050611353565b6009548161134f919061199e565b9150505b919050565b6000600360009054906101000a900473ffffffffffffffffffffffffffffffffffffffff1673ffffffffffffffffffffffffffffffffffffffff168273ffffffffffffffffffffffffffffffffffffffff1614156113b957600090506114a2565b6000600460008473ffffffffffffffffffffffffffffffffffffffff1673ffffffffffffffffffffffffffffffffffffffff1681526020019081526020016000205460055461140891906119f8565b9050600081141561141d5760009150506114a2565b6000620f4240600660009054906101000a900463ffffffff1663ffffffff16836000808873ffffffffffffffffffffffffffffffffffffffff1673ffffffffffffffffffffffffffffffffffffffff16815260200190815260200160002054611486919061199e565b611490919061199e565b61149a919061196d565b905080925050505b919050565b6000813590506114b681611e35565b92915050565b6000813590506114cb81611e4c565b92915050565b6000813590506114e081611e63565b92915050565b6000602082840312156114f857600080fd5b6000611506848285016114a7565b91505092915050565b6000806040838503121561152257600080fd5b6000611530858286016114a7565b9250506020611541858286016114bc565b9150509250929050565b60006020828403121561155d57600080fd5b600061156b848285016114bc565b91505092915050565b60006020828403121561158657600080fd5b6000611594848285016114d1565b91505092915050565b6115a681611a3e565b82525050565b60006115b7826118fb565b6115c18185611906565b93506115d1818560208601611a91565b6115da81611b83565b840191505092915050565b60006115f2602383611906565b91506115fd82611b94565b604082019050919050565b6000611615602283611906565b915061162082611be3565b604082019050919050565b6000611638602983611906565b915061164382611c32565b604082019050919050565b600061165b602683611906565b915061166682611c81565b604082019050919050565b600061167e602983611906565b915061168982611cd0565b604082019050919050565b60006116a1602183611906565b91506116ac82611d1f565b604082019050919050565b60006116c4602583611906565b91506116cf82611d6e565b604082019050919050565b60006116e7602983611906565b91506116f282611dbd565b604082019050919050565b600061170a601f83611906565b915061171582611e0c565b602082019050919050565b61172981611a6a565b82525050565b61173881611a74565b82525050565b61174781611a84565b82525050565b6000602082019050611762600083018461159d565b92915050565b6000602082019050818103600083015261178281846115ac565b905092915050565b600060208201905081810360008301526117a3816115e5565b9050919050565b600060208201905081810360008301526117c381611608565b9050919050565b600060208201905081810360008301526117e38161162b565b9050919050565b600060208201905081810360008301526118038161164e565b9050919050565b6000602082019050818103600083015261182381611671565b9050919050565b6000602082019050818103600083015261184381611694565b9050919050565b60006020820190508181036000830152611863816116b7565b9050919050565b60006020820190508181036000830152611883816116da565b9050919050565b600060208201905081810360008301526118a3816116fd565b9050919050565b60006020820190506118bf6000830184611720565b92915050565b60006020820190506118da600083018461172f565b92915050565b60006020820190506118f5600083018461173e565b92915050565b600081519050919050565b600082825260208201905092915050565b600061192282611a6a565b915061192d83611a6a565b9250827fffffffffffffffffffffffffffffffffffffffffffffffffffffffffffffffff0382111561196257611961611af6565b5b828201905092915050565b600061197882611a6a565b915061198383611a6a565b92508261199357611992611b25565b5b828204905092915050565b60006119a982611a6a565b91506119b483611a6a565b9250817fffffffffffffffffffffffffffffffffffffffffffffffffffffffffffffffff04831182151516156119ed576119ec611af6565b5b828202905092915050565b6000611a0382611a6a565b9150611a0e83611a6a565b925082821015611a2157611a20611af6565b5b828203905092915050565b6000611a3782611a4a565b9050919050565b60008115159050919050565b600073ffffffffffffffffffffffffffffffffffffffff82169050919050565b6000819050919050565b600063ffffffff82169050919050565b600060ff82169050919050565b60005b83811015611aaf578082015181840152602081019050611a94565b83811115611abe576000848401525b50505050565b60006002820490506001821680611adc57607f821691505b60208210811415611af057611aef611b54565b5b50919050565b7f4e487b7100000000000000000000000000000000000000000000000000000000600052601160045260246000fd5b7f4e487b7100000000000000000000000000000000000000000000000000000000600052601260045260246000fd5b7f4e487b7100000000000000000000000000000000000000000000000000000000600052602260045260246000fd5b6000601f19601f8301169050919050565b7f45524332303a207472616e7366657220746f20746865207a65726f206164647260008201527f6573730000000000000000000000000000000000000000000000000000000000602082015250565b7f45524332303a206275726e20616d6f756e7420657863656564732062616c616e60008201527f6365000000000000000000000000000000000000000000000000000000000000602082015250565b7f4f6e6c792043656e7472616c2042616e6b20697320616c6c6f77656420746f2060008201527f63616c6c20746869730000000000000000000000000000000000000000000000602082015250565b7f45524332303a207472616e7366657220616d6f756e742065786365656473206260008201527f616c616e63650000000000000000000000000000000000000000000000000000602082015250565b7f4275726e2063616e206f6e6c7920626520646f6e6520746f207472656173757260008201527f79206163636f756e740000000000000000000000000000000000000000000000602082015250565b7f45524332303a206275726e2066726f6d20746865207a65726f2061646472657360008201527f7300000000000000000000000000000000000000000000000000000000000000602082015250565b7f45524332303a207472616e736665722066726f6d20746865207a65726f20616460008201527f6472657373000000000000000000000000000000000000000000000000000000602082015250565b7f4d696e742063616e206f6e6c7920626520646f6e6520746f207472656173757260008201527f79206163636f756e740000000000000000000000000000000000000000000000602082015250565b7f45524332303a206d696e7420746f20746865207a65726f206164647265737300600082015250565b611e3e81611a2c565b8114611e4957600080fd5b50565b611e5581611a6a565b8114611e6057600080fd5b50565b611e6c81611a74565b8114611e7757600080fd5b5056fea2646970667358221220bcfb7cf10f018128124462b9495f0d6b904110d06c8f38e3dde19d6fee07599b64736f6c63430008030033",
  "immutableReferences": {},
  "source": "// SPDX-License-Identifier: MIT\n\npragma solidity ^0.8.0;\n\nimport \"./ERC20/IERC20MED.sol\";\nimport \"./ERC20/extensions/IERC20MEDMetadata.sol\";\nimport \"./ERC20/utils/Context.sol\";\n\n/**\n * @dev Implementation of the {IERC20} interface as a sovereign moroccan crypto-currency\n *\n */\ncontract MED is Context, IERC20MED, IERC20MEDMetadata {\n\n    mapping (address => uint256) private _balances;\n\n    uint256 private _totalSupply;\n\n    address _centralBank;\n    address _treasureAccount;\n\n    mapping (address => uint256) private _lastDayTax;\n    uint256 public daysElapsed;\n    uint32 public dailyTaxRate;\n\n    mapping (address => uint256) private _lastMonthIncome;\n    uint256 public monthsElapsed;\n    uint256 public universalMonthlyIncome;\n\n    string private _name = \"Moroccan E-Dirham\";\n    string private _symbol = \"MED\";\n\n    bool public allowMint = false;\n\n    modifier onlyCentralBank() {\n        require(\n            _msgSender() == _centralBank,\n            \"Only Central Bank is allowed to call this\"\n        );\n        _;\n    } \n\n    /**\n     * The treasure account is the \"root\" account on this currency\n     * param annualTaxRatePercent : percentage of the account that would be taxed in a year\n     *                              tax is applied daily\n     * param umi : Universal Monthly Income\n     * param allowMint : Should we allow central bank to mint new tokens ?\n     */\n    constructor (address treasureAccount, uint32 annualTaxRatePercent, uint256 umi, \n        bool allowMintArg, uint256 initialMint) {\n        _centralBank = _msgSender();\n        _treasureAccount = treasureAccount;\n        dailyTaxRate = annualTaxRatePercent * 10000 / 365;\n        universalMonthlyIncome = umi;\n        allowMint = allowMintArg;\n        _mint(_treasureAccount, initialMint);\n    }\n\n    function name() public view virtual override returns (string memory) {\n        return _name;\n    }\n\n    function symbol() public view virtual override returns (string memory) {\n        return _symbol;\n    }\n\n    /**\n     * MED cyrpto-currency only uses \"cents\" or \"centimes\" as a subdivision\n     */\n    function decimals() public view virtual override returns (uint8) {\n        return 2;\n    }\n\n    function totalSupply() public view virtual override returns (uint256) {\n        return _totalSupply;\n    }\n\n    function balanceOf(address account) public view virtual override returns (uint256) {\n        return _balances[account];\n    }\n\n    function elapsedTaxDaysOf(address account) public view virtual returns (uint256) {\n        return _lastDayTax[account];\n    }\n\n    function elapsedIncomeMonthOf(address account) public view virtual returns (uint256) {\n        return _lastMonthIncome[account];\n    }\n\n    function transfer(address recipient, uint256 amount) public virtual override returns (bool) {\n        _updateAccount(_msgSender());\n        _updateAccount(recipient);\n        _transfer(_msgSender(), recipient, amount);\n        return true;\n    }\n\n    function updateAccount(address taxPayer) public virtual {\n        _updateAccount(taxPayer);\n    }\n\n    function mint(uint256 amount) public virtual onlyCentralBank {\n        require(allowMint);\n        _mint(_treasureAccount, amount);\n    }\n\n    function burn(uint256 amount) public virtual onlyCentralBank {\n        _burn(_treasureAccount, amount);\n    }\n\n    function incrementDay() public virtual onlyCentralBank {\n        daysElapsed = daysElapsed +1;\n    }\n\n    function incrementMonth() public virtual onlyCentralBank {\n        monthsElapsed = monthsElapsed +1;\n    }\n\n    function setNewDailyTaxRate(uint32 newRate) public virtual onlyCentralBank {\n        dailyTaxRate = newRate;\n    }\n\n    function setNewBasicIncome(uint256 newIncome) public virtual onlyCentralBank {\n        universalMonthlyIncome = newIncome;\n    }\n    \n    /**\n    *\n    * * * * * * * * * * * * *\n    * Internal functions    *\n    * * * * * * * * * * * * *\n    *\n    */\n\n    function _calculateIncome(address taxPayer) internal view virtual returns (uint256) {\n        if (taxPayer == _treasureAccount) {\n            return 0;\n        }\n        uint256 taxPayerMonthsElapsed = monthsElapsed - _lastMonthIncome[taxPayer];\n        if (taxPayerMonthsElapsed == 0) {\n            return 0;\n        }\n        return taxPayerMonthsElapsed * universalMonthlyIncome;\n    }\n\n    function _calculateTax(address taxPayer) internal view virtual returns (uint256) {\n        if (taxPayer == _treasureAccount) {\n            return 0;\n        }\n        uint256 taxPayerdaysElapsed = daysElapsed - _lastDayTax[taxPayer];\n        if (taxPayerdaysElapsed == 0) {\n            return 0;\n        }\n        uint256 taxToPay = _balances[taxPayer] * taxPayerdaysElapsed * dailyTaxRate / (1000 * 1000);\n        return taxToPay;\n    }\n\n    function _updateAccount(address taxPayer) internal virtual{\n        _transferIncome(taxPayer);\n        _deductTax(taxPayer);\n    }\n\n    function _transferIncome(address taxPayer) internal virtual {\n        uint256 umi = _calculateIncome(taxPayer);\n        _lastMonthIncome[taxPayer] = monthsElapsed;\n        _transfer(_treasureAccount, taxPayer, umi);\n    }\n\n    function _deductTax(address taxPayer) internal virtual {\n        uint256 taxToPay = _calculateTax(taxPayer);\n        _lastDayTax[taxPayer] = daysElapsed;\n        _transfer(taxPayer, _treasureAccount, taxToPay);\n    }\n\n    function _transfer(address sender, address recipient, uint256 amount) internal virtual {\n        require(sender != address(0), \"ERC20: transfer from the zero address\");\n        require(recipient != address(0), \"ERC20: transfer to the zero address\");\n\n        _beforeTokenTransfer(sender, recipient, amount);\n\n        uint256 senderBalance = _balances[sender];\n        require(senderBalance >= amount, \"ERC20: transfer amount exceeds balance\");\n        _balances[sender] = senderBalance - amount;\n        _balances[recipient] += amount;\n\n        emit Transfer(sender, recipient, amount);\n    }\n\n    function _mint(address account, uint256 amount) internal virtual {\n        require(account != address(0), \"ERC20: mint to the zero address\");\n        require(account == _treasureAccount, \"Mint can only be done to treasury account\");\n\n        _beforeTokenTransfer(address(0), account, amount);\n\n        _totalSupply += amount;\n        _balances[account] += amount;\n        emit Transfer(address(0), account, amount);\n    }\n\n\n    function _burn(address account, uint256 amount) internal virtual {\n        require(account != address(0), \"ERC20: burn from the zero address\");\n        require(account == _treasureAccount, \"Burn can only be done to treasury account\");\n\n        _beforeTokenTransfer(account, address(0), amount);\n\n        uint256 accountBalance = _balances[account];\n        require(accountBalance >= amount, \"ERC20: burn amount exceeds balance\");\n        _balances[account] = accountBalance - amount;\n        _totalSupply -= amount; \n\n        emit Transfer(account, address(0), amount);\n    }\n\n    function _beforeTokenTransfer(address from, address to, uint256 amount) internal virtual { }\n}\n",
  "sourcePath": "/home/issam/git/med-erc20/sol/truffle/contracts/MED.sol",
  "compiler": {
    "name": "solc",
    "version": "0.8.3+commit.8d00100c.Emscripten.clang"
  },
  "schemaVersion": "3.2.4",
  "updatedAt": "2021-04-13T22:42:49.940Z",
  "devdoc": {
    "details": "Implementation of the {IERC20} interface as a sovereign moroccan crypto-currency",
    "kind": "dev",
    "methods": {
      "balanceOf(address)": {
        "details": "Returns the amount of tokens owned by `account`."
      },
      "name()": {
        "details": "Returns the name of the token."
      },
      "symbol()": {
        "details": "Returns the symbol of the token."
      },
      "totalSupply()": {
        "details": "Returns the amount of tokens in existence."
      },
      "transfer(address,uint256)": {
        "details": "Moves `amount` tokens from the caller's account to `recipient`. Returns a boolean value indicating whether the operation succeeded. Emits a {Transfer} event."
      }
    },
    "version": 1
  },
  "userdoc": {
    "kind": "user",
    "methods": {
      "constructor": {
        "notice": "The treasure account is the \"root\" account on this currency param annualTaxRatePercent : percentage of the account that would be taxed in a year                              tax is applied daily param umi : Universal Monthly Income param allowMint : Should we allow central bank to mint new tokens ?"
      },
      "decimals()": {
        "notice": "MED cyrpto-currency only uses \"cents\" or \"centimes\" as a subdivision"
      }
    },
    "version": 1
  }
}