{
  "contractName": "MED",
  "abi": [
    {
      "inputs": [
        {
          "internalType": "address",
          "name": "treasureAccount",
          "type": "address"
        },
        {
          "internalType": "uint32",
          "name": "annualTaxRatePercent",
          "type": "uint32"
        },
        {
          "internalType": "uint256",
          "name": "umi",
          "type": "uint256"
        },
        {
          "internalType": "bool",
          "name": "allowMint",
          "type": "bool"
        },
        {
          "internalType": "uint256",
          "name": "initialMint",
          "type": "uint256"
        }
      ],
      "stateMutability": "nonpayable",
      "type": "constructor"
    },
    {
      "anonymous": false,
      "inputs": [
        {
          "indexed": true,
          "internalType": "address",
          "name": "from",
          "type": "address"
        },
        {
          "indexed": true,
          "internalType": "address",
          "name": "to",
          "type": "address"
        },
        {
          "indexed": false,
          "internalType": "uint256",
          "name": "value",
          "type": "uint256"
        }
      ],
      "name": "Transfer",
      "type": "event"
    },
    {
      "inputs": [],
      "name": "dailyTaxRate",
      "outputs": [
        {
          "internalType": "uint32",
          "name": "",
          "type": "uint32"
        }
      ],
      "stateMutability": "view",
      "type": "function"
    },
    {
      "inputs": [],
      "name": "daysElapsed",
      "outputs": [
        {
          "internalType": "uint256",
          "name": "",
          "type": "uint256"
        }
      ],
      "stateMutability": "view",
      "type": "function"
    },
    {
      "inputs": [],
      "name": "monthsElapsed",
      "outputs": [
        {
          "internalType": "uint256",
          "name": "",
          "type": "uint256"
        }
      ],
      "stateMutability": "view",
      "type": "function"
    },
    {
      "inputs": [],
      "name": "universalMonthlyIncome",
      "outputs": [
        {
          "internalType": "uint256",
          "name": "",
          "type": "uint256"
        }
      ],
      "stateMutability": "view",
      "type": "function"
    },
    {
      "inputs": [],
      "name": "name",
      "outputs": [
        {
          "internalType": "string",
          "name": "",
          "type": "string"
        }
      ],
      "stateMutability": "view",
      "type": "function"
    },
    {
      "inputs": [],
      "name": "symbol",
      "outputs": [
        {
          "internalType": "string",
          "name": "",
          "type": "string"
        }
      ],
      "stateMutability": "view",
      "type": "function"
    },
    {
      "inputs": [],
      "name": "decimals",
      "outputs": [
        {
          "internalType": "uint8",
          "name": "",
          "type": "uint8"
        }
      ],
      "stateMutability": "view",
      "type": "function"
    },
    {
      "inputs": [],
      "name": "totalSupply",
      "outputs": [
        {
          "internalType": "uint256",
          "name": "",
          "type": "uint256"
        }
      ],
      "stateMutability": "view",
      "type": "function"
    },
    {
      "inputs": [
        {
          "internalType": "address",
          "name": "account",
          "type": "address"
        }
      ],
      "name": "balanceOf",
      "outputs": [
        {
          "internalType": "uint256",
          "name": "",
          "type": "uint256"
        }
      ],
      "stateMutability": "view",
      "type": "function"
    },
    {
      "inputs": [
        {
          "internalType": "address",
          "name": "account",
          "type": "address"
        }
      ],
      "name": "elapsedTaxDaysOf",
      "outputs": [
        {
          "internalType": "uint256",
          "name": "",
          "type": "uint256"
        }
      ],
      "stateMutability": "view",
      "type": "function"
    },
    {
      "inputs": [
        {
          "internalType": "address",
          "name": "account",
          "type": "address"
        }
      ],
      "name": "elapsedIncomeMonthOf",
      "outputs": [
        {
          "internalType": "uint256",
          "name": "",
          "type": "uint256"
        }
      ],
      "stateMutability": "view",
      "type": "function"
    },
    {
      "inputs": [
        {
          "internalType": "address",
          "name": "recipient",
          "type": "address"
        },
        {
          "internalType": "uint256",
          "name": "amount",
          "type": "uint256"
        }
      ],
      "name": "transfer",
      "outputs": [
        {
          "internalType": "bool",
          "name": "",
          "type": "bool"
        }
      ],
      "stateMutability": "nonpayable",
      "type": "function"
    },
    {
      "inputs": [
        {
          "internalType": "address",
          "name": "taxPayer",
          "type": "address"
        }
      ],
      "name": "updateAccount",
      "outputs": [],
      "stateMutability": "nonpayable",
      "type": "function"
    },
    {
      "inputs": [
        {
          "internalType": "uint256",
          "name": "amount",
          "type": "uint256"
        }
      ],
      "name": "mint",
      "outputs": [],
      "stateMutability": "nonpayable",
      "type": "function"
    },
    {
      "inputs": [
        {
          "internalType": "uint256",
          "name": "amount",
          "type": "uint256"
        }
      ],
      "name": "burn",
      "outputs": [],
      "stateMutability": "nonpayable",
      "type": "function"
    },
    {
      "inputs": [],
      "name": "incrementDay",
      "outputs": [],
      "stateMutability": "nonpayable",
      "type": "function"
    },
    {
      "inputs": [],
      "name": "incrementMonth",
      "outputs": [],
      "stateMutability": "nonpayable",
      "type": "function"
    },
    {
      "inputs": [
        {
          "internalType": "uint32",
          "name": "newRate",
          "type": "uint32"
        }
      ],
      "name": "setNewDailyTaxRate",
      "outputs": [],
      "stateMutability": "nonpayable",
      "type": "function"
    },
    {
      "inputs": [
        {
          "internalType": "uint256",
          "name": "newIncome",
          "type": "uint256"
        }
      ],
      "name": "setNewBasicIncome",
      "outputs": [],
      "stateMutability": "nonpayable",
      "type": "function"
    }
  ],
  "bytecode": "0x60806040526040518060400160405280601181526020017f4d6f726f6363616e20452d44697268616d000000000000000000000000000000815250600a90805190602001906200005192919062000423565b506040518060400160405280600381526020017f4d45440000000000000000000000000000000000000000000000000000000000815250600b90805190602001906200009f92919062000423565b506000600c60006101000a81548160ff021916908315150217905550348015620000c857600080fd5b50604051620027dd380380620027dd8339818101604052810190620000ee91906200052f565b620000fe6200021e60201b60201c565b600260006101000a81548173ffffffffffffffffffffffffffffffffffffffff021916908373ffffffffffffffffffffffffffffffffffffffff16021790555084600360006101000a81548173ffffffffffffffffffffffffffffffffffffffff021916908373ffffffffffffffffffffffffffffffffffffffff16021790555061016d6127108562000192919062000717565b6200019e9190620006df565b600660006101000a81548163ffffffff021916908363ffffffff1602179055508260098190555081600c60006101000a81548160ff02191690831515021790555062000213600360009054906101000a900473ffffffffffffffffffffffffffffffffffffffff16826200022660201b60201c565b505050505062000959565b600033905090565b600073ffffffffffffffffffffffffffffffffffffffff168273ffffffffffffffffffffffffffffffffffffffff16141562000299576040517f08c379a0000000000000000000000000000000000000000000000000000000008152600401620002909062000632565b60405180910390fd5b600360009054906101000a900473ffffffffffffffffffffffffffffffffffffffff1673ffffffffffffffffffffffffffffffffffffffff168273ffffffffffffffffffffffffffffffffffffffff16146200032c576040517f08c379a0000000000000000000000000000000000000000000000000000000008152600401620003239062000610565b60405180910390fd5b62000340600083836200041e60201b60201c565b806001600082825462000354919062000682565b92505081905550806000808473ffffffffffffffffffffffffffffffffffffffff1673ffffffffffffffffffffffffffffffffffffffff1681526020019081526020016000206000828254620003ab919062000682565b925050819055508173ffffffffffffffffffffffffffffffffffffffff16600073ffffffffffffffffffffffffffffffffffffffff167fddf252ad1be2c89b69c2b068fc378daa952ba7f163c4a11628f55a4df523b3ef8360405162000412919062000654565b60405180910390a35050565b505050565b8280546200043190620007b6565b90600052602060002090601f016020900481019282620004555760008555620004a1565b82601f106200047057805160ff1916838001178555620004a1565b82800160010185558215620004a1579182015b82811115620004a057825182559160200191906001019062000483565b5b509050620004b09190620004b4565b5090565b5b80821115620004cf576000816000905550600101620004b5565b5090565b600081519050620004e481620008f1565b92915050565b600081519050620004fb816200090b565b92915050565b600081519050620005128162000925565b92915050565b60008151905062000529816200093f565b92915050565b600080600080600060a086880312156200054857600080fd5b60006200055888828901620004d3565b95505060206200056b8882890162000518565b94505060406200057e8882890162000501565b93505060606200059188828901620004ea565b9250506080620005a48882890162000501565b9150509295509295909350565b6000620005c060298362000671565b9150620005cd8262000879565b604082019050919050565b6000620005e7601f8362000671565b9150620005f482620008c8565b602082019050919050565b6200060a816200079c565b82525050565b600060208201905081810360008301526200062b81620005b1565b9050919050565b600060208201905081810360008301526200064d81620005d8565b9050919050565b60006020820190506200066b6000830184620005ff565b92915050565b600082825260208201905092915050565b60006200068f826200079c565b91506200069c836200079c565b9250827fffffffffffffffffffffffffffffffffffffffffffffffffffffffffffffffff03821115620006d457620006d3620007ec565b5b828201905092915050565b6000620006ec82620007a6565b9150620006f983620007a6565b9250826200070c576200070b6200081b565b5b828204905092915050565b60006200072482620007a6565b91506200073183620007a6565b92508163ffffffff0483118215151615620007515762000750620007ec565b5b828202905092915050565b600062000769826200077c565b9050919050565b60008115159050919050565b600073ffffffffffffffffffffffffffffffffffffffff82169050919050565b6000819050919050565b600063ffffffff82169050919050565b60006002820490506001821680620007cf57607f821691505b60208210811415620007e657620007e56200084a565b5b50919050565b7f4e487b7100000000000000000000000000000000000000000000000000000000600052601160045260246000fd5b7f4e487b7100000000000000000000000000000000000000000000000000000000600052601260045260246000fd5b7f4e487b7100000000000000000000000000000000000000000000000000000000600052602260045260246000fd5b7f4d696e742063616e206f6e6c7920626520646f6e6520746f207472656173757260008201527f79206163636f756e740000000000000000000000000000000000000000000000602082015250565b7f45524332303a206d696e7420746f20746865207a65726f206164647265737300600082015250565b620008fc816200075c565b81146200090857600080fd5b50565b620009168162000770565b81146200092257600080fd5b50565b62000930816200079c565b81146200093c57600080fd5b50565b6200094a81620007a6565b81146200095657600080fd5b50565b611e7480620009696000396000f3fe608060405234801561001057600080fd5b50600436106101215760003560e01c806367ed0c79116100ad578063a0712d6811610071578063a0712d68146102e6578063a9059cbb14610302578063da21bcec14610332578063dbbe09361461034e578063ec714a811461035857610121565b806367ed0c791461024057806370a082311461024a57806380477a4c1461027a578063850401051461029857806395d89b41146102c857610121565b80632ce3d440116100f45780632ce3d440146101ae578063313ce567146101ca57806342966c68146101e85780634fb6b059146102045780635b073d231461022257610121565b806306fdde031461012657806311e0df821461014457806318160ddd146101745780632a96e41014610192575b600080fd5b61012e610376565b60405161013b919061172c565b60405180910390f35b61015e600480360381019061015991906114aa565b610408565b60405161016b919061186e565b60405180910390f35b61017c610451565b604051610189919061186e565b60405180910390f35b6101ac60048036038101906101a79190611538565b61045b565b005b6101c860048036038101906101c391906114aa565b610516565b005b6101d2610522565b6040516101df91906118a4565b60405180910390f35b61020260048036038101906101fd919061150f565b61052b565b005b61020c6105f1565b604051610219919061186e565b60405180910390f35b61022a6105f7565b6040516102379190611889565b60405180910390f35b61024861060d565b005b610264600480360381019061025f91906114aa565b6106bb565b604051610271919061186e565b60405180910390f35b610282610703565b60405161028f919061186e565b60405180910390f35b6102b260048036038101906102ad91906114aa565b610709565b6040516102bf919061186e565b60405180910390f35b6102d0610752565b6040516102dd919061172c565b60405180910390f35b61030060048036038101906102fb919061150f565b6107e4565b005b61031c600480360381019061031791906114d3565b6108c3565b6040516103299190611711565b60405180910390f35b61034c6004803603810190610347919061150f565b6108fa565b005b61035661099b565b005b610360610a49565b60405161036d919061186e565b60405180910390f35b6060600a805461038590611a88565b80601f01602080910402602001604051908101604052809291908181526020018280546103b190611a88565b80156103fe5780601f106103d3576101008083540402835291602001916103fe565b820191906000526020600020905b8154815290600101906020018083116103e157829003601f168201915b5050505050905090565b6000600460008373ffffffffffffffffffffffffffffffffffffffff1673ffffffffffffffffffffffffffffffffffffffff168152602001908152602001600020549050919050565b6000600154905090565b600260009054906101000a900473ffffffffffffffffffffffffffffffffffffffff1673ffffffffffffffffffffffffffffffffffffffff1661049c610a4f565b73ffffffffffffffffffffffffffffffffffffffff16146104f2576040517f08c379a00000000000000000000000000000000000000000000000000000000081526004016104e99061178e565b60405180910390fd5b80600660006101000a81548163ffffffff021916908363ffffffff16021790555050565b61051f81610a57565b50565b60006002905090565b600260009054906101000a900473ffffffffffffffffffffffffffffffffffffffff1673ffffffffffffffffffffffffffffffffffffffff1661056c610a4f565b73ffffffffffffffffffffffffffffffffffffffff16146105c2576040517f08c379a00000000000000000000000000000000000000000000000000000000081526004016105b99061178e565b60405180910390fd5b6105ee600360009054906101000a900473ffffffffffffffffffffffffffffffffffffffff1682610a6c565b50565b60085481565b600660009054906101000a900463ffffffff1681565b600260009054906101000a900473ffffffffffffffffffffffffffffffffffffffff1673ffffffffffffffffffffffffffffffffffffffff1661064e610a4f565b73ffffffffffffffffffffffffffffffffffffffff16146106a4576040517f08c379a000000000000000000000000000000000000000000000000000000000815260040161069b9061178e565b60405180910390fd5b60016005546106b391906118db565b600581905550565b60008060008373ffffffffffffffffffffffffffffffffffffffff1673ffffffffffffffffffffffffffffffffffffffff168152602001908152602001600020549050919050565b60055481565b6000600760008373ffffffffffffffffffffffffffffffffffffffff1673ffffffffffffffffffffffffffffffffffffffff168152602001908152602001600020549050919050565b6060600b805461076190611a88565b80601f016020809104026020016040519081016040528092919081815260200182805461078d90611a88565b80156107da5780601f106107af576101008083540402835291602001916107da565b820191906000526020600020905b8154815290600101906020018083116107bd57829003601f168201915b5050505050905090565b600260009054906101000a900473ffffffffffffffffffffffffffffffffffffffff1673ffffffffffffffffffffffffffffffffffffffff16610825610a4f565b73ffffffffffffffffffffffffffffffffffffffff161461087b576040517f08c379a00000000000000000000000000000000000000000000000000000000081526004016108729061178e565b60405180910390fd5b600c60009054906101000a900460ff1661089457600080fd5b6108c0600360009054906101000a900473ffffffffffffffffffffffffffffffffffffffff1682610cd0565b50565b60006108d56108d0610a4f565b610a57565b6108de83610a57565b6108f06108e9610a4f565b8484610eb4565b6001905092915050565b600260009054906101000a900473ffffffffffffffffffffffffffffffffffffffff1673ffffffffffffffffffffffffffffffffffffffff1661093b610a4f565b73ffffffffffffffffffffffffffffffffffffffff1614610991576040517f08c379a00000000000000000000000000000000000000000000000000000000081526004016109889061178e565b60405180910390fd5b8060098190555050565b600260009054906101000a900473ffffffffffffffffffffffffffffffffffffffff1673ffffffffffffffffffffffffffffffffffffffff166109dc610a4f565b73ffffffffffffffffffffffffffffffffffffffff1614610a32576040517f08c379a0000000000000000000000000000000000000000000000000000000008152600401610a299061178e565b60405180910390fd5b6001600854610a4191906118db565b600881905550565b60095481565b600033905090565b610a6081611133565b610a69816111b7565b50565b600073ffffffffffffffffffffffffffffffffffffffff168273ffffffffffffffffffffffffffffffffffffffff161415610adc576040517f08c379a0000000000000000000000000000000000000000000000000000000008152600401610ad3906117ee565b60405180910390fd5b600360009054906101000a900473ffffffffffffffffffffffffffffffffffffffff1673ffffffffffffffffffffffffffffffffffffffff168273ffffffffffffffffffffffffffffffffffffffff1614610b6c576040517f08c379a0000000000000000000000000000000000000000000000000000000008152600401610b63906117ce565b60405180910390fd5b610b788260008361123b565b60008060008473ffffffffffffffffffffffffffffffffffffffff1673ffffffffffffffffffffffffffffffffffffffff16815260200190815260200160002054905081811015610bfe576040517f08c379a0000000000000000000000000000000000000000000000000000000008152600401610bf59061176e565b60405180910390fd5b8181610c0a91906119bc565b6000808573ffffffffffffffffffffffffffffffffffffffff1673ffffffffffffffffffffffffffffffffffffffff168152602001908152602001600020819055508160016000828254610c5e91906119bc565b92505081905550600073ffffffffffffffffffffffffffffffffffffffff168373ffffffffffffffffffffffffffffffffffffffff167fddf252ad1be2c89b69c2b068fc378daa952ba7f163c4a11628f55a4df523b3ef84604051610cc3919061186e565b60405180910390a3505050565b600073ffffffffffffffffffffffffffffffffffffffff168273ffffffffffffffffffffffffffffffffffffffff161415610d40576040517f08c379a0000000000000000000000000000000000000000000000000000000008152600401610d379061184e565b60405180910390fd5b600360009054906101000a900473ffffffffffffffffffffffffffffffffffffffff1673ffffffffffffffffffffffffffffffffffffffff168273ffffffffffffffffffffffffffffffffffffffff1614610dd0576040517f08c379a0000000000000000000000000000000000000000000000000000000008152600401610dc79061182e565b60405180910390fd5b610ddc6000838361123b565b8060016000828254610dee91906118db565b92505081905550806000808473ffffffffffffffffffffffffffffffffffffffff1673ffffffffffffffffffffffffffffffffffffffff1681526020019081526020016000206000828254610e4391906118db565b925050819055508173ffffffffffffffffffffffffffffffffffffffff16600073ffffffffffffffffffffffffffffffffffffffff167fddf252ad1be2c89b69c2b068fc378daa952ba7f163c4a11628f55a4df523b3ef83604051610ea8919061186e565b60405180910390a35050565b600073ffffffffffffffffffffffffffffffffffffffff168373ffffffffffffffffffffffffffffffffffffffff161415610f24576040517f08c379a0000000000000000000000000000000000000000000000000000000008152600401610f1b9061180e565b60405180910390fd5b600073ffffffffffffffffffffffffffffffffffffffff168273ffffffffffffffffffffffffffffffffffffffff161415610f94576040517f08c379a0000000000000000000000000000000000000000000000000000000008152600401610f8b9061174e565b60405180910390fd5b610f9f83838361123b565b60008060008573ffffffffffffffffffffffffffffffffffffffff1673ffffffffffffffffffffffffffffffffffffffff16815260200190815260200160002054905081811015611025576040517f08c379a000000000000000000000000000000000000000000000000000000000815260040161101c906117ae565b60405180910390fd5b818161103191906119bc565b6000808673ffffffffffffffffffffffffffffffffffffffff1673ffffffffffffffffffffffffffffffffffffffff16815260200190815260200160002081905550816000808573ffffffffffffffffffffffffffffffffffffffff1673ffffffffffffffffffffffffffffffffffffffff16815260200190815260200160002060008282546110c191906118db565b925050819055508273ffffffffffffffffffffffffffffffffffffffff168473ffffffffffffffffffffffffffffffffffffffff167fddf252ad1be2c89b69c2b068fc378daa952ba7f163c4a11628f55a4df523b3ef84604051611125919061186e565b60405180910390a350505050565b600061113e82611240565b9050600854600760008473ffffffffffffffffffffffffffffffffffffffff1673ffffffffffffffffffffffffffffffffffffffff168152602001908152602001600020819055506111b3600360009054906101000a900473ffffffffffffffffffffffffffffffffffffffff168383610eb4565b5050565b60006111c28261131c565b9050600554600460008473ffffffffffffffffffffffffffffffffffffffff1673ffffffffffffffffffffffffffffffffffffffff1681526020019081526020016000208190555061123782600360009054906101000a900473ffffffffffffffffffffffffffffffffffffffff1683610eb4565b5050565b505050565b6000600360009054906101000a900473ffffffffffffffffffffffffffffffffffffffff1673ffffffffffffffffffffffffffffffffffffffff168273ffffffffffffffffffffffffffffffffffffffff1614156112a15760009050611317565b6000600760008473ffffffffffffffffffffffffffffffffffffffff1673ffffffffffffffffffffffffffffffffffffffff168152602001908152602001600020546008546112f091906119bc565b90506000811415611305576000915050611317565b600954816113139190611962565b9150505b919050565b6000600360009054906101000a900473ffffffffffffffffffffffffffffffffffffffff1673ffffffffffffffffffffffffffffffffffffffff168273ffffffffffffffffffffffffffffffffffffffff16141561137d5760009050611466565b6000600460008473ffffffffffffffffffffffffffffffffffffffff1673ffffffffffffffffffffffffffffffffffffffff168152602001908152602001600020546005546113cc91906119bc565b905060008114156113e1576000915050611466565b6000620f4240600660009054906101000a900463ffffffff1663ffffffff16836000808873ffffffffffffffffffffffffffffffffffffffff1673ffffffffffffffffffffffffffffffffffffffff1681526020019081526020016000205461144a9190611962565b6114549190611962565b61145e9190611931565b905080925050505b919050565b60008135905061147a81611df9565b92915050565b60008135905061148f81611e10565b92915050565b6000813590506114a481611e27565b92915050565b6000602082840312156114bc57600080fd5b60006114ca8482850161146b565b91505092915050565b600080604083850312156114e657600080fd5b60006114f48582860161146b565b925050602061150585828601611480565b9150509250929050565b60006020828403121561152157600080fd5b600061152f84828501611480565b91505092915050565b60006020828403121561154a57600080fd5b600061155884828501611495565b91505092915050565b61156a81611a02565b82525050565b600061157b826118bf565b61158581856118ca565b9350611595818560208601611a55565b61159e81611b47565b840191505092915050565b60006115b66023836118ca565b91506115c182611b58565b604082019050919050565b60006115d96022836118ca565b91506115e482611ba7565b604082019050919050565b60006115fc6029836118ca565b915061160782611bf6565b604082019050919050565b600061161f6026836118ca565b915061162a82611c45565b604082019050919050565b60006116426029836118ca565b915061164d82611c94565b604082019050919050565b60006116656021836118ca565b915061167082611ce3565b604082019050919050565b60006116886025836118ca565b915061169382611d32565b604082019050919050565b60006116ab6029836118ca565b91506116b682611d81565b604082019050919050565b60006116ce601f836118ca565b91506116d982611dd0565b602082019050919050565b6116ed81611a2e565b82525050565b6116fc81611a38565b82525050565b61170b81611a48565b82525050565b60006020820190506117266000830184611561565b92915050565b600060208201905081810360008301526117468184611570565b905092915050565b60006020820190508181036000830152611767816115a9565b9050919050565b60006020820190508181036000830152611787816115cc565b9050919050565b600060208201905081810360008301526117a7816115ef565b9050919050565b600060208201905081810360008301526117c781611612565b9050919050565b600060208201905081810360008301526117e781611635565b9050919050565b6000602082019050818103600083015261180781611658565b9050919050565b600060208201905081810360008301526118278161167b565b9050919050565b600060208201905081810360008301526118478161169e565b9050919050565b60006020820190508181036000830152611867816116c1565b9050919050565b600060208201905061188360008301846116e4565b92915050565b600060208201905061189e60008301846116f3565b92915050565b60006020820190506118b96000830184611702565b92915050565b600081519050919050565b600082825260208201905092915050565b60006118e682611a2e565b91506118f183611a2e565b9250827fffffffffffffffffffffffffffffffffffffffffffffffffffffffffffffffff0382111561192657611925611aba565b5b828201905092915050565b600061193c82611a2e565b915061194783611a2e565b92508261195757611956611ae9565b5b828204905092915050565b600061196d82611a2e565b915061197883611a2e565b9250817fffffffffffffffffffffffffffffffffffffffffffffffffffffffffffffffff04831182151516156119b1576119b0611aba565b5b828202905092915050565b60006119c782611a2e565b91506119d283611a2e565b9250828210156119e5576119e4611aba565b5b828203905092915050565b60006119fb82611a0e565b9050919050565b60008115159050919050565b600073ffffffffffffffffffffffffffffffffffffffff82169050919050565b6000819050919050565b600063ffffffff82169050919050565b600060ff82169050919050565b60005b83811015611a73578082015181840152602081019050611a58565b83811115611a82576000848401525b50505050565b60006002820490506001821680611aa057607f821691505b60208210811415611ab457611ab3611b18565b5b50919050565b7f4e487b7100000000000000000000000000000000000000000000000000000000600052601160045260246000fd5b7f4e487b7100000000000000000000000000000000000000000000000000000000600052601260045260246000fd5b7f4e487b7100000000000000000000000000000000000000000000000000000000600052602260045260246000fd5b6000601f19601f8301169050919050565b7f45524332303a207472616e7366657220746f20746865207a65726f206164647260008201527f6573730000000000000000000000000000000000000000000000000000000000602082015250565b7f45524332303a206275726e20616d6f756e7420657863656564732062616c616e60008201527f6365000000000000000000000000000000000000000000000000000000000000602082015250565b7f4f6e6c792043656e7472616c2042616e6b20697320616c6c6f77656420746f2060008201527f63616c6c20746869730000000000000000000000000000000000000000000000602082015250565b7f45524332303a207472616e7366657220616d6f756e742065786365656473206260008201527f616c616e63650000000000000000000000000000000000000000000000000000602082015250565b7f4275726e2063616e206f6e6c7920626520646f6e6520746f207472656173757260008201527f79206163636f756e740000000000000000000000000000000000000000000000602082015250565b7f45524332303a206275726e2066726f6d20746865207a65726f2061646472657360008201527f7300000000000000000000000000000000000000000000000000000000000000602082015250565b7f45524332303a207472616e736665722066726f6d20746865207a65726f20616460008201527f6472657373000000000000000000000000000000000000000000000000000000602082015250565b7f4d696e742063616e206f6e6c7920626520646f6e6520746f207472656173757260008201527f79206163636f756e740000000000000000000000000000000000000000000000602082015250565b7f45524332303a206d696e7420746f20746865207a65726f206164647265737300600082015250565b611e02816119f0565b8114611e0d57600080fd5b50565b611e1981611a2e565b8114611e2457600080fd5b50565b611e3081611a38565b8114611e3b57600080fd5b5056fea2646970667358221220d86d13cb2cd2bd1b4ddf7c65c4bc6292130c37ed0aae0ba6c7b0ac2b957ee0fc64736f6c63430008030033",
  "immutableReferences": {},
  "source": "// SPDX-License-Identifier: MIT\n\npragma solidity ^0.8.0;\n\nimport \"./ERC20/IERC20MED.sol\";\nimport \"./ERC20/extensions/IERC20MEDMetadata.sol\";\nimport \"./ERC20/utils/Context.sol\";\n\n/**\n * @dev Implementation of the {IERC20} interface as a sovereign moroccan crypto-currency\n *\n */\ncontract MED is Context, IERC20MED, IERC20MEDMetadata {\n\n    mapping (address => uint256) private _balances;\n\n    uint256 private _totalSupply;\n\n    address _centralBank;\n    address _treasureAccount;\n\n    mapping (address => uint256) private _lastDayTax;\n    uint256 public daysElapsed;\n    uint32 public dailyTaxRate;\n\n    mapping (address => uint256) private _lastMonthIncome;\n    uint256 public monthsElapsed;\n    uint256 public universalMonthlyIncome;\n\n    string private _name = \"Moroccan E-Dirham\";\n    string private _symbol = \"MED\";\n\n    bool private _allowMint = false;\n\n    modifier onlyCentralBank() {\n        require(\n            _msgSender() == _centralBank,\n            \"Only Central Bank is allowed to call this\"\n        );\n        _;\n    } \n\n    /**\n     * The treasure account is the \"root\" account on this currency\n     * param annualTaxRatePercent : percentage of the account that would be taxed in a year\n     *                              tax is applied daily\n     * param umi : Universal Monthly Income\n     * param allowMint : Should we allow central bank to mint new tokens ?\n     */\n    constructor (address treasureAccount, uint32 annualTaxRatePercent, uint256 umi, \n        bool allowMint, uint256 initialMint) {\n        _centralBank = _msgSender();\n        _treasureAccount = treasureAccount;\n        dailyTaxRate = annualTaxRatePercent * 10000 / 365;\n        universalMonthlyIncome = umi;\n        _allowMint = allowMint;\n        _mint(_treasureAccount, initialMint);\n    }\n\n    function name() public view virtual override returns (string memory) {\n        return _name;\n    }\n\n    function symbol() public view virtual override returns (string memory) {\n        return _symbol;\n    }\n\n    /**\n     * MED cyrpto-currency only uses \"cents\" or \"centimes\" as a subdivision\n     */\n    function decimals() public view virtual override returns (uint8) {\n        return 2;\n    }\n\n    function totalSupply() public view virtual override returns (uint256) {\n        return _totalSupply;\n    }\n\n    function balanceOf(address account) public view virtual override returns (uint256) {\n        return _balances[account];\n    }\n\n    function elapsedTaxDaysOf(address account) public view virtual returns (uint256) {\n        return _lastDayTax[account];\n    }\n\n    function elapsedIncomeMonthOf(address account) public view virtual returns (uint256) {\n        return _lastMonthIncome[account];\n    }\n\n    function transfer(address recipient, uint256 amount) public virtual override returns (bool) {\n        _updateAccount(_msgSender());\n        _updateAccount(recipient);\n        _transfer(_msgSender(), recipient, amount);\n        return true;\n    }\n\n    function updateAccount(address taxPayer) public virtual {\n        _updateAccount(taxPayer);\n    }\n\n    function mint(uint256 amount) public virtual onlyCentralBank {\n        require(_allowMint);\n        _mint(_treasureAccount, amount);\n    }\n\n    function burn(uint256 amount) public virtual onlyCentralBank {\n        _burn(_treasureAccount, amount);\n    }\n\n    function incrementDay() public virtual onlyCentralBank {\n        daysElapsed = daysElapsed +1;\n    }\n\n    function incrementMonth() public virtual onlyCentralBank {\n        monthsElapsed = monthsElapsed +1;\n    }\n\n    function setNewDailyTaxRate(uint32 newRate) public virtual onlyCentralBank {\n        dailyTaxRate = newRate;\n    }\n\n    function setNewBasicIncome(uint256 newIncome) public virtual onlyCentralBank {\n        universalMonthlyIncome = newIncome;\n    }\n    \n    /**\n    *\n    * * * * * * * * * * * * *\n    * Internal functions    *\n    * * * * * * * * * * * * *\n    *\n    */\n\n    function _calculateIncome(address taxPayer) internal view virtual returns (uint256) {\n        if (taxPayer == _treasureAccount) {\n            return 0;\n        }\n        uint256 taxPayerMonthsElapsed = monthsElapsed - _lastMonthIncome[taxPayer];\n        if (taxPayerMonthsElapsed == 0) {\n            return 0;\n        }\n        return taxPayerMonthsElapsed * universalMonthlyIncome;\n    }\n\n    function _calculateTax(address taxPayer) internal view virtual returns (uint256) {\n        if (taxPayer == _treasureAccount) {\n            return 0;\n        }\n        uint256 taxPayerdaysElapsed = daysElapsed - _lastDayTax[taxPayer];\n        if (taxPayerdaysElapsed == 0) {\n            return 0;\n        }\n        uint256 taxToPay = _balances[taxPayer] * taxPayerdaysElapsed * dailyTaxRate / (1000 * 1000);\n        return taxToPay;\n    }\n\n    function _updateAccount(address taxPayer) internal virtual{\n        _transferIncome(taxPayer);\n        _deductTax(taxPayer);\n    }\n\n    function _transferIncome(address taxPayer) internal virtual {\n        uint256 umi = _calculateIncome(taxPayer);\n        _lastMonthIncome[taxPayer] = monthsElapsed;\n        _transfer(_treasureAccount, taxPayer, umi);\n    }\n\n    function _deductTax(address taxPayer) internal virtual {\n        uint256 taxToPay = _calculateTax(taxPayer);\n        _lastDayTax[taxPayer] = daysElapsed;\n        _transfer(taxPayer, _treasureAccount, taxToPay);\n    }\n\n    function _transfer(address sender, address recipient, uint256 amount) internal virtual {\n        require(sender != address(0), \"ERC20: transfer from the zero address\");\n        require(recipient != address(0), \"ERC20: transfer to the zero address\");\n\n        _beforeTokenTransfer(sender, recipient, amount);\n\n        uint256 senderBalance = _balances[sender];\n        require(senderBalance >= amount, \"ERC20: transfer amount exceeds balance\");\n        _balances[sender] = senderBalance - amount;\n        _balances[recipient] += amount;\n\n        emit Transfer(sender, recipient, amount);\n    }\n\n    function _mint(address account, uint256 amount) internal virtual {\n        require(account != address(0), \"ERC20: mint to the zero address\");\n        require(account == _treasureAccount, \"Mint can only be done to treasury account\");\n\n        _beforeTokenTransfer(address(0), account, amount);\n\n        _totalSupply += amount;\n        _balances[account] += amount;\n        emit Transfer(address(0), account, amount);\n    }\n\n\n    function _burn(address account, uint256 amount) internal virtual {\n        require(account != address(0), \"ERC20: burn from the zero address\");\n        require(account == _treasureAccount, \"Burn can only be done to treasury account\");\n\n        _beforeTokenTransfer(account, address(0), amount);\n\n        uint256 accountBalance = _balances[account];\n        require(accountBalance >= amount, \"ERC20: burn amount exceeds balance\");\n        _balances[account] = accountBalance - amount;\n        _totalSupply -= amount; \n\n        emit Transfer(account, address(0), amount);\n    }\n\n    function _beforeTokenTransfer(address from, address to, uint256 amount) internal virtual { }\n}\n",
  "sourcePath": "/home/issam/git/med-erc20/sol/truffle/contracts/MED.sol",
  "compiler": {
    "name": "solc",
    "version": "0.8.3+commit.8d00100c.Emscripten.clang"
  },
  "schemaVersion": "3.2.4",
  "updatedAt": "2021-04-12T22:43:27.762Z",
  "devdoc": {
    "details": "Implementation of the {IERC20} interface as a sovereign moroccan crypto-currency",
    "kind": "dev",
    "methods": {
      "balanceOf(address)": {
        "details": "Returns the amount of tokens owned by `account`."
      },
      "name()": {
        "details": "Returns the name of the token."
      },
      "symbol()": {
        "details": "Returns the symbol of the token."
      },
      "totalSupply()": {
        "details": "Returns the amount of tokens in existence."
      },
      "transfer(address,uint256)": {
        "details": "Moves `amount` tokens from the caller's account to `recipient`. Returns a boolean value indicating whether the operation succeeded. Emits a {Transfer} event."
      }
    },
    "version": 1
  },
  "userdoc": {
    "kind": "user",
    "methods": {
      "constructor": {
        "notice": "The treasure account is the \"root\" account on this currency param annualTaxRatePercent : percentage of the account that would be taxed in a year                              tax is applied daily param umi : Universal Monthly Income param allowMint : Should we allow central bank to mint new tokens ?"
      },
      "decimals()": {
        "notice": "MED cyrpto-currency only uses \"cents\" or \"centimes\" as a subdivision"
      }
    },
    "version": 1
  }
}